:100000000C94737D0C94A27D0C94A27D0C94A27D23
:100010000C94A27D0C94A27D0C94A27D0C94A27DE4
:100020000C94A27D0C941DB50C94A27D0C94A27D21
:100030000C94A27D0C94A27D0C94A27D0C94A27DC4
:100040000C94A27D0C94A27D0C94A27D0C94A27DB4
:100050000C948CB50C94A27D0C94A27D0C94A27D82
:100060000C94A27D0C941BB80C94A27D0C94A27DE0
:100070000C94A27D0C94A47D0C94A27D0C94A27D82
:100080000C94A27D0C94A27D0C94A27D0C9423B6BA
:100090000C9447B80C94A27D0C947CB80C94A27D6F
:1000A0000C94A27D0C94A27D0C94A27D0C94A27D54
:1000B0000C94A27D0C94A27D0C94A27D0C94A27D44
:1000C0000C94A27D0C94A27D0C94A27D0C94B0B8EB
:1000D0000C94A27D0C94E5B80C94A27D0C94A27DA6
:1000E0000C94A27D35803A803F805380BA80BA80DC
:1000F000BA8067806C80718076807B808080BA80D7
:10010000898092809B80A480AD80B68027867F8680
:1001100077868386778683866786188E478E1B8EC2
:100120001E8E218E428E478E478E478E478E408E82
:100130002C8E2E8E248E268E288E2A8E308E328EF7
:100140003A8E388E3E8E3C8E348E368E478E478E5B
:10015000448E468EDA8E158F1F8F298F338F3D8FF9
:10016000478F518F5B8F658F6F8F8D8F968F968F97
:10017000798F838F1B911193A8935694F2949B9639
:10018000AB962E9B599B849BAF9BDA9B059C309C26
:1001900055A9E0A985A9B3A9EAA9F4A959AA59AA18
:1001A000FEA92CAAC1ABC3ABC5ABC8ABCAABF6ABFF
:1001B000FEABFEABFEABFEABF8ABDCABD9ABCDAB75
:1001C000D0ABD3ABD6ABDFABE2ABEBABEEABF4ABD0
:1001D000F1ABE5ABE8ABFEABFEABFAABFDAB6E61F2
:1001E0006E00696E660000407A10F35A00A0724EED
:1001F00018090010A5D4E80000E87648170000E4CC
:100200000B54020000CA9A3B000000E1F505000013
:1002100080969800000040420F000000A086010078
:100220000000102700000000E80300000000640048
:10023000000000000A0000000000010000000000B3
:100240002C76D888DC674F0823DFC1DFAE59E1B1D7
:10025000B796E5E3E453C63AE651997696E8E6C2E6
:100260008426EB898C9B62ED407C6FFCEFBC9C9FED
:1002700040F2BAA56FA5F490055A2AF75C936B6C0F
:10028000F9676DC11BFCE0E40D47FEF520E6B50003
:10029000D0ED902E0300943577050080841E080071
:1002A00000204E0A000000C80C333333330F986E21
:1002B00012831141EF8D2114893BE65516CFFEE6DE
:1002C000DB18D1844B381BF77C1D901DA4BBE424A4
:1002D000203284725E228100C9F124ECA1E53D2721
:1002E0003412000091DC0000010001009D00220397
:1002F00040066009800C00000000000000000100C2
:100300007C157639064AFA50FA5FBE6EAF8201005C
:10031000000000000000FF7FFF7F000000000100E0
:10032000280AF00AC800280AF00AC8000F0058027C
:1003300014000F0064006400C800F401C012E80358
:10034000E803FF7F88131400C8000A00C800C80033
:100350006400D0026400FA002C0101000100B60321
:100360009808D805CC098A0EB5103E111E128813C4
:1003700097026804FE06350CB00EFC1088132403A7
:100380004E0565081C0E850F54118813E803E80319
:10039000E803E803E803E803E803E803E803E80305
:1003A000E803E803E803E803E803E803E803E803F5
:1003B000E803E803E8031400C800881388138813CF
:1003C000FF7FFF7FFF7FE204E204FF7FFF7FFF7F6D
:1003D000FF7FFF7FFF7FFF7FFF7FFF7FFF7FFF7F2D
:1003E000FF7FFF7FFF7FFF7FFF7FFF7FFF7FFF7F1D
:1003F000FF7FFF7FFF7FFF7FFF7FFF7FFF7FFF7F0D
:10040000FF7FFF7FFF7FFF7FFF7FFF7FFF7FFF7FFC
:10041000FF7FFF7FFF7FFF7FFF7FFF7FFF7FFF7FEC
:10042000FF7FFF7FFF7FFF7FFF7FFF7FFF7FFF7FDC
:10043000FF7FFF7FFF7FFF7FFF7FFF7FFF7FFF7FCC
:10044000FF7FFF7FFF7FFF7FFF7FFF7FFF7FFF7FBC
:10045000FF7FFF7FFF7FFF7FFF7FFF7FFF7FFF7FAC
:10046000FF7FFF7FFF7FFF7FFF7FFF7FFF7FFF7F9C
:10047000FF7FFF7FFF7FFF7FFF7FFF7FFF7FFF7F8C
:10048000FF7FFF7FFF7FFF7FFF7FFF7FFF7FFF7F7C
:10049000FF7FFF7FFF7FFF7FFF7FFF7FFF7FFF7F6C
:1004A000FF7FFF7FFF7FFF7FFF7FFF7FFF7FFF7F5C
:1004B000FF7FFF7FFF7FFF7FFF7FFF7FFF7F0000CA
:1004C00000000000018001800000000000003408EE
:1004D000FC0814003408FC0814000300C8000500E0
:1004E0000500050005000A003200E8036400320040
:1004F0000180E80305001E00000014003200010026
:100500000100010032003200000000000000780508
:10051000E102DD04BC07870A2A0B1C0C8B0D41018C
:10052000290280033B068E08300B6D0D72017C02A0
:1005300002041A076A096C0B760D00000000000027
:1005400000000000000000000000000000000000AB
:10055000000000000000000000000000000000009B
:100560000000000005005000000000000000000036
:100570000000000070FE70FE00000000000000009F
:10058000000000000000000000000000000000006B
:10059000000000000000000000000000000000005B
:1005A000000000000000000000000000000000004B
:1005B000000000000000000000000000000000003B
:1005C000000000000000000000000000000000002B
:1005D000000000000000000000000000000000001B
:1005E000000000000000000000000000000000000B
:1005F00000000000000000000000000000000000FB
:1006000000000000000000000000000000000000EA
:1006100000000000000000000000000000000000DA
:1006200000000000000000000000000000000000CA
:1006300000000000000000000000000000000000BA
:1006400000000000000000000000000000000000AA
:10065000000000000000000000000000000000009A
:100660000000000000000000000000003AE96AE11C
:100670009AD9CAD1FAC92AC25ABA8AB2BAAAEAA27D
:100680001A9B4A937A8BAA83DA7B0A743A6C6A645F
:100690009A5CCA54FA4C2A455A3D8A35BA2DEA2545
:1006A0001A1E1A1E4A167A0EAA06D402CA02C002DE
:1006B000B702AD02A4029B0292028A028202790270
:1006C00071026A0262025A0253024C0245023E0261
:1006D000380231022B0225021F02190213020D02F9
:1006E00008020302FD01F801F301EF01EA01E5014F
:1006F000E101DD01D801D401D001CC01C901C5015E
:10070000C101BE01BA01B701B401B101AE01AB0133
:10071000A801A501A201A0019D019B0198019601DC
:100720009401920190018E018C018A018801860159
:100730008401830181017F017E017C017B017A01BB
:100740007801770176017501730172017101700101
:100750006F016E016D016C016C016B016A01690131
:10076000690168016701670166016501650164014E
:100770006401630163016201620161016101610160
:100780006001600160015F015F015F015F015E0167
:100790005E015E015E015D015D015D015D015D0166
:1007A0005C015C015C015C015C015C015C015C0161
:1007B0005B015B015B015B015B015B015B015B0159
:1007C0005B015B015B015B015A015A015A015A014D
:1007D0005A015A015A015A015A015A015A015A0141
:1007E0005A015A015A015A015A015A015901590133
:1007F0005901590159015901590159015901590129
:100800005901590159015901590159015901590118
:10081000590159015801580158015801580158010E
:100820005801580158015801580158015801580100
:1008300058015801580158015801580158015801F0
:1008400058015801580157015701570157015701E5
:1008500057015701570158015801580158015801D3
:1008600058015801580158015801580158015801C0
:1008700058015801580158015901590159015901AC
:100880005901590159015A015A015A015A015A0193
:100890005B015B015B015B015C015C015C015C0174
:1008A0005D015D015D015E015E015E015F015F0151
:1008B0005F01600160016101610162016201620129
:1008C00063016401640165016501660166016701F8
:1008D00067016801690169016A016B016B016C01C3
:1008E0006D016E016E016F01700171017201730182
:1008F00073017401750176017701780179017A013C
:100900007B017C017D017E017F01800181018301EA
:10091000840185018601870189018A018B018C018F
:100920008E018F0191019201930195019601980129
:1009300099019B019C019E019F01A101A301A401BA
:10094000A601A701A901AB01AD01AE01B001B20141
:10095000B401B601B801BA01BB01BD01BF01C101BB
:10096000C301C501C801CA01CC01CE01D001D20129
:10097000D401D701D901DB01DD01E001E201E5018C
:10098000E701E901EC01EE01F101F301F601F801E3
:10099000FB01FE0100020302060208020B020E0226
:1009A00011021402170219021C021F022202250260
:1009B00028022B022E023202350238023B023E028E
:1009C0004202450248024C024F02520256025902AC
:1009D0005D026002640267026B026F0272027602BD
:1009E0007A027E028102850289028D0291029502BD
:1009F00099029D02A102A502A902AD02B202B602AD
:100A0000BA02BF02C302C702CC02D002D502D90289
:100A1000DE02E302E702EC02F102F602FB0200034F
:100A2000040309030F03140319031E0323032803FC
:100A30002E03330339033E03440349034F03540396
:100A40005A03600366036C03720378037E03840316
:100A50008A03900397039D03A403AA03B103B7037A
:100A6000BE03C503CC03D303DA03E103E603E603C5
:100A7000E603E603E603E603E603E603E603E6032E
:100A8000E603E603E603E603E603E603E603E6031E
:100A9000E603BA02AA029B028B027C026E0260028B
:100AA0005202450238022B021E0212020602FB010C
:100AB000EF01E401DA01CF01C501BB01B201A801D8
:100AC0009F0196018D0185017D0175016D01660112
:100AD0005E01570150014A0143013D0137013101D7
:100AE0002B01250120011B01150110010C0107013B
:100AF0000301FE00FA00F600F200EE00EA00E70053
:100B0000E300E000DD00DA00D700D400D100CE0021
:100B1000CC00C900C700C500C300C000BE00BC00B7
:100B2000BA00B900B700B500B400B200B100AF0020
:100B3000AE00AD00AB00AA00A900A800A700A60067
:100B4000A500A400A400A300A200A100A100A00091
:100B50009F009F009E009E009D009D009D009C00A8
:100B60009C009B009B009B009B009A009A009A00AF
:100B70009A009A00990099009900990099009900AB
:100B800099009900990099009800980098009800A1
:100B90009800980098009800980098009800980095
:100BA0009800980098009800980098009800990084
:100BB000990099009900990099009900990099006D
:100BC000990099009900990099009900990099005D
:100BD000990099009900990099009900990099004D
:100BE0009900990099009800980098009800980042
:100BF0009800980098009800980098009800980035
:100C00009800980098009800980098009700970026
:100C1000970097009700970097009700970097001C
:100C2000970097009700970097009600960096000F
:100C30009600960096009600960096009600960004
:100C400096009600960096009600960096009600F4
:100C500096009600960096009600960096009600E4
:100C600096009600960096009600960096009600D4
:100C700096009600960096009700970097009700C0
:100C800097009700970097009800980098009800A8
:100C90009800990099009900990099009A009A008B
:100CA0009A009A009B009B009B009C009C009C006B
:100CB0009C009D009D009D009E009E009F009F0047
:100CC0009F00A000A000A100A100A100A200A2001E
:100CD000A300A300A400A400A500A500A600A600F0
:100CE000A700A700A800A900A900AA00AA00AB00BD
:100CF000AC00AC00AD00AD00AE00AF00AF00B00086
:100D0000B100B200B200B300B400B400B500B60048
:100D1000B700B800B800B900BA00BB00BC00BC0006
:100D2000BD00BE00BF00C000C100C200C300C400BF
:100D3000C500C600C700C800C900CA00CB00CC006F
:100D4000CD00CE00CF00D000D100D200D300D5001E
:100D5000D600D700D800D900DB00DC00DD00DE00C3
:100D6000E000E100E200E400E500E700E800EA005E
:100D7000EB00ED00EE00F000F100F300F500F600EE
:100D8000F800FA00FB00FD00FF000101030105016E
:100D9000070109010B010D010F01110113011501DB
:100DA00017011A011C011F0121012301260129013C
:100DB0002B012E0131013301360139013C013F0184
:100DC0004201450149014C014F01530156015A01AD
:100DD0005E016101650169016D01710175017A01B1
:100DE0007E01820187018C01900195019A019F018A
:100DF000A401AA01AF01B501BA01C001C601CC012D
:100E0000D201D801DF01E501EC01F301FA01010291
:100E10000802100218021F0227022F0238024002A5
:100E2000490252025B0264026E02770281028B0267
:100E30009602A002AB02B602C102CD02D802E402C1
:100E4000F102FD020A031703240332033F034D039B
:100E50005C036B037A0389039903A803B903C903ED
:100E6000DA03E603E603E603E603E603E603E60346
:100E7000E603E603E603E603E60382027B0275026D
:100E80006F02690263025D02580252024D0248027B
:100E900042023D02380233022F022A0225022102B9
:100EA0001C021802140210020C02080204020002C2
:100EB000FC01F901F501F201EE01EB01E801E501A8
:100EC000E201DF01DC01D901D601D301D101CE015C
:100ED000CC01C901C701C401C201C001BE01BC01EE
:100EE000BA01B801B601B401B201B001AE01AD0161
:100EF000AB01A901A801A601A501A301A201A101BD
:100F00009F019E019D019C019B019A0199019801FD
:100F1000970196019501940193019201910191012C
:100F200090018F018E018E018D018D018C018B014D
:100F30008B018A018A01890189018901880188015F
:100F40008701870187018701860186018601850166
:100F50008501850185018501850184018401840164
:100F60008401840184018401840184018401840159
:100F7000840183018301830183018301830184014F
:100F80008401840184018401840184018401840139
:100F90008401840184018401840184018401850128
:100FA0008501850185018501850185018501850111
:100FB00086018601860186018601860186018601F9
:100FC00086018701870187018701870187018701E2
:100FD00087018701880188018801880188018801CB
:100FE00088018801880189018901890189018901B4
:100FF00089018901890189018A018A018A018A019D
:101000008A018A018A018A018A018A018B018B0186
:101010008B018B018B018B018B018B018B018B0170
:101020008C018C018C018C018C018C018C018C0158
:101030008C018D018D018D018D018D018D018D0141
:101040008D018E018E018E018E018E018E018F0128
:101050008F018F018F018F018F019001900190010D
:1010600090019001910191019101910192019201F0
:1010700092019201930193019301930194019401D0
:1010800094019501950195019601960197019701AB
:10109000970198019801990199019A019A019A0181
:1010A0009B019B019C019D019D019E019E019F0151
:1010B0009F01A001A101A101A201A301A301A4011B
:1010C000A501A501A601A701A801A901A901AA01DD
:1010D000AB01AC01AD01AE01AF01B001B001B10196
:1010E000B201B301B501B601B701B801B901BA0146
:1010F000BB01BC01BE01BF01C001C101C301C401EC
:10110000C501C701C801C901CB01CC01CE01CF0186
:10111000D101D201D401D501D701D901DA01DC0115
:10112000DE01DF01E101E301E501E701E801EA0198
:10113000EC01EE01F001F201F401F601F801FA010F
:10114000FC01FF0101020302050208020A020C026F
:101150000F0211021302160218021B021D022002C6
:101160002202250228022A022D0230023202350212
:1011700038023B023E024102440247024A024D024B
:1011800050025302560259025C025F026302660279
:1011900069026C027002730277027A027E02810297
:1011A000850288028C028F02930297029A029E02A5
:1011B000A202A602A902AD02B102B502B902BD02A5
:1011C000C102C502C902CD02D102D502D902DE0296
:1011D000E202E602EA02EF02F302F702FC02000377
:1011E000040309030D03120316031B031F03240347
:1011F00029032D03320337033B03400345034A030E
:101200004E03530358035D03620367036C037103CA
:1012100076037B03800385038A038F03940399037A
:101220009E03A303A803AD03B203B803BD03C20327
:10123000C703CC03D203D703DC03E103E603E603D1
:10124000E603E603E603E603E603E603E603E60356
:10125000E603E603E603E603E603E603E603E60346
:10126000E603D202BE02AB02990287027502640253
:10127000530243023302240215020602F801EA0176
:10128000DD01D001C301B701AB019F0194018901C8
:101290007E0174016A01600157014E0145013C0164
:1012A00034012C0124011D0115010E010801010169
:1012B000FB00F500EF00E900E400DF00DA00D500F4
:1012C000D000CC00C700C300BF00BC00B800B50010
:1012D000B100AE00AB00A800A600A300A1009E00D4
:1012E0009C009A0098009600950093009200900050
:1012F0008F008E008C008B008A008A008900880095
:1013000087008700860086008600850085008500AE
:1013100085008500850085008500850085008500A5
:101320008500860086008600870087008800880088
:101330008800890089008A008B008B008C008C005B
:101340008D008E008E008F00900090009100920022
:1013500092009300940095009500960097009700E6
:101360009800990099009A009B009B009C009D00AA
:101370009E009E009F009F00A000A100A100A2006F
:10138000A300A300A400A400A500A500A600A60039
:10139000A700A700A800A800A900A900A900AA000A
:1013A000AA00AB00AB00AB00AC00AC00AC00AD00E1
:1013B000AD00AD00AD00AE00AE00AE00AE00AE00C0
:1013C000AE00AF00AF00AF00AF00AF00AF00AF00A6
:1013D000AF00AF00AF00AF00AF00AF00AF00AF0095
:1013E000AF00AF00AF00AF00AF00AF00AF00AF0085
:1013F000AF00AE00AE00AE00AE00AE00AE00AE007C
:10140000AD00AD00AD00AD00AD00AC00AC00AC0077
:10141000AC00AC00AB00AB00AB00AB00AA00AA0074
:10142000AA00AA00AA00A900A900A900A900A80072
:10143000A800A800A800A700A700A700A700A70071
:10144000A600A600A600A600A600A500A500A5006F
:10145000A500A500A500A400A400A400A400A40069
:10146000A400A400A400A300A300A300A300A30061
:10147000A300A300A300A300A300A300A300A30054
:10148000A300A300A300A300A300A300A400A40042
:10149000A400A400A400A400A500A500A500A50028
:1014A000A500A600A600A600A700A700A700A70009
:1014B000A800A800A900A900A900AA00AA00AB00E2
:1014C000AB00AC00AC00AD00AD00AE00AF00AF00B3
:1014D000B000B000B100B200B200B300B400B5007B
:1014E000B500B600B700B800B800B900BA00BB003C
:1014F000BC00BD00BE00BF00C000C100C200C300F0
:10150000C400C500C600C700C800C900CB00CC009D
:10151000CD00CE00CF00D100D200D300D500D60040
:10152000D700D900DA00DC00DD00DF00E000E200D7
:10153000E300E500E700E800EA00EC00ED00EF0062
:10154000F100F300F500F700F900FA00FC00FE00DE
:10155000010103010501070109010B010D01100142
:1015600012011401170119011C011E01210123019F
:10157000260129012B012E013101340137013A01E5
:101580003D014001430146014A014D015001540112
:1015900057015B015E016201660169016D01710124
:1015A000750179017D01820186018A018F01930114
:1015B00098019D01A101A601AB01B001B501BB01DC
:1015C000C001C501CB01D101D701DC01E201E90174
:1015D000EF01F501FC0102020902100217021E02CE
:1015E00025022D0234023C0244024C0254025C02E9
:1015F00065026D0276027F02880292029B02A502BA
:10160000AF02B902C302CE02D902E402EF02FA022B
:10161000060311031D032A033603430350035D032E
:101620006B03790387039503A403B203C203D103B9
:10163000E103E603E603E603E603E603E603E60367
:10164000E603E603E603E603E6039D029102850254
:1016500079026E02630259024E0244023A023102DA
:1016600028021F0216020E020502FE01F601EE011B
:10167000E701E001D901D301CC01C601C001BB01E2
:10168000B501B001AB01A601A1019C019801940133
:101690008F018B018801840181017D017A0177012D
:1016A000740171016F016C016A01670165016301D9
:1016B00061015F015E015C015A0159015801560147
:1016C00055015401530152015101510150014F0183
:1016D0004F014E014E014D014D014D014D014D0196
:1016E0004C014C014C014D014D014D014D014D018D
:1016F0004E014E014E014F014F014F01500150016B
:101700005101510152015301530154015501550139
:101710005601570157015801590159015A015B01FE
:101720005C015D015D015E015F01600160016101BD
:10173000620163016401640165016601670168017A
:10174000680169016A016B016B016C016D016E0139
:101750006E016F01700170017101720172017301FC
:1017600074017401750176017601770177017801C2
:101770007801790179017A017A017B017B017C0191
:101780007C017D017D017D017E017E017F017F0164
:101790007F0180018001800181018101810181013E
:1017A000820182018201820182018301830183011E
:1017B0008301830183018301830184018401840106
:1017C00084018401840184018401840184018401F1
:1017D00084018401840184018401840184018401E1
:1017E00084018401840184018401840184018401D1
:1017F00084018401840184018401840184018401C1
:1018000084018401840184018401840184018401B0
:1018100084018401840184018401840184018401A0
:101820008401840184018401840184018401840190
:101830008501850185018501850185018601860176
:101840008601860187018701870188018801880157
:101850008901890189018A018A018B018B018C012F
:101860008C018D018D018E018E018F018F01900100
:1018700091019101920193019401940195019601C6
:1018800097019801990199019A019B019C019D0181
:101890009E019F01A001A101A301A401A501A60130
:1018A000A701A801AA01AB01AC01AE01AF01B001D3
:1018B000B201B301B501B601B801B901BB01BC0168
:1018C000BE01C001C101C301C501C701C801CA01F0
:1018D000CC01CE01D001D201D401D501D701D9016B
:1018E000DC01DE01E001E201E401E601E801EA01D8
:1018F000ED01EF01F101F401F601F801FB01FD0139
:1019000000020202050207020A020C020F02110283
:101910001402170219021C021F02220224022702CB
:101920002A022D0230023302360239023B023E0205
:101930004102450248024B024E0251025402570234
:101940005A025E026102640267026A026E0271025A
:10195000740278027B027F028202850289028C0275
:101960009002930297029A029E02A102A502A90286
:10197000AC02B002B402B702BB02BF02C202C6028E
:10198000CA02CE02D102D502D902DD02E102E5028D
:10199000E902EC02F002F402F802FC020003040384
:1019A00008030C031003140318031C03210325036D
:1019B00029032D03310335033A033E034203460353
:1019C0004A034F03530357035C0360036403690333
:1019D0006D03720376037B037F03840388038D0307
:1019E000910396039A039F03A403A803AD03B203D4
:1019F000B703BB03C003C503CA03CF03D403D90392
:101A0000DE03E303E603E603E603E603E603E60399
:101A1000E603E603E603E603E603E603E603E6037E
:101A2000E603E603E603E603E603E603E603E6036E
:101A3000E603DD02C902B602A402920280026F022E
:101A40005E024E023E022F02200211020302F50145
:101A5000E701DA01CD01C101B501A9019D019201A2
:101A600087017D01730169015F0156014D01440148
:101A70003C0133012C0124011C0115010E01070159
:101A80000101FB00F500EF00E900E400DE00D900F1
:101A9000D500D000CB00C700C300BF00BB00B8001A
:101AA000B400B100AE00AB00A800A500A200A000E9
:101AB0009D009B0099009700950093009200900074
:101AC0008F008D008C008B008A00890088008700C1
:101AD00086008600850084008400830083008300E4
:101AE00083008200820082008200820082008200E5
:101AF00083008300830083008400840084008500C9
:101B0000850086008600870087008800880089009D
:101B10008A008A008B008C008C008D008E008E0065
:101B20008F00900091009100920093009400940027
:101B300095009600960097009800990099009A00E9
:101B40009B009C009C009D009E009E009F00A000AA
:101B5000A000A100A200A200A300A300A400A50071
:101B6000A500A600A600A700A700A800A800A9003D
:101B7000A900AA00AA00AA00AB00AB00AC00AC0010
:101B8000AC00AD00AD00AD00AD00AE00AE00AE00EB
:101B9000AE00AF00AF00AF00AF00AF00AF00B000CD
:101BA000B000B000B000B000B000B000B000B000B5
:101BB000B000B000B000B000B000B000B000B000A5
:101BC000B000B000AF00AF00AF00AF00AF00AF009B
:101BD000AF00AE00AE00AE00AE00AE00AE00AD0095
:101BE000AD00AD00AD00AC00AC00AC00AC00AC0092
:101BF000AB00AB00AB00AB00AA00AA00AA00AA0091
:101C0000A900A900A900A900A800A800A800A80090
:101C1000A700A700A700A700A600A600A600A60090
:101C2000A500A500A500A500A500A500A400A4008E
:101C3000A400A400A400A400A300A300A300A30088
:101C4000A300A300A300A300A300A300A300A3007C
:101C5000A300A300A300A300A300A300A300A3006C
:101C6000A300A300A300A400A400A400A400A40057
:101C7000A500A500A500A500A600A600A600A70037
:101C8000A700A700A800A800A900A900AA00AA0010
:101C9000AB00AB00AC00AC00AD00AE00AE00AF00DE
:101CA000AF00B000B100B200B200B300B400B500A4
:101CB000B600B700B700B800B900BA00BB00BC005E
:101CC000BD00BE00BF00C100C200C300C400C5000B
:101CD000C600C800C900CA00CC00CD00CE00D000AC
:101CE000D100D300D400D600D700D900DA00DC0040
:101CF000DE00DF00E100E300E500E600E800EA00C6
:101D0000EC00EE00F000F200F400F600F800FA003B
:101D1000FC00FE0001010301050107010A010C019D
:101D20000F0111011401160119011B011E012101EE
:101D30002301260129012C012F0132013401380130
:101D40003B013E014101440147014B014E0151015C
:101D5000550158015C015F01630167016A016E0171
:101D6000720176017A017E01820186018A018E016B
:101D7000930197019C01A001A501A901AE01B30146
:101D8000B801BD01C201C701CC01D101D701DC01FD
:101D9000E201E701ED01F301F801FE0104020B028B
:101DA000110217021E0224022B02310238023F02E6
:101DB00046024D0255025C0264026B0273027B0212
:101DC00083028B0293029C02A402AD02B602BF0200
:101DD000C802D102DB02E402EE02F80202030C03A5
:101DE000170321032C03370342034E0359036503F2
:101DF00071037D0389039603A203AF03BC03CA03E7
:101E0000D703E503E603E603E603E603E603E6039A
:101E1000E603E603E603E603E603ED02E302D90286
:101E2000D002C602BD02B502AC02A3029B0293021D
:101E30008B0284027C0275026E0267026002590204
:101E400053024D02470241023B02350230022A0290
:101E5000250220021B02160211020D0208020402D2
:101E60000002FB01F701F401F001EC01E801E501DA
:101E7000E201DE01DB01D801D501D201CF01CC01A5
:101E8000CA01C701C501C201C001BE01BB01B90140
:101E9000B701B501B301B101AF01AD01AC01AA01B8
:101EA000A801A701A501A401A201A101A0019F0110
:101EB0009D019C019B019A0199019801970196014E
:101EC00095019401930192019101910190018F017B
:101ED0008E018E018D018C018C018B018B018A0199
:101EE0008A018901890188018801870187018601AA
:101EF00086018601850185018401840184018401B4
:101F000083018301830182018201820182018101B7
:101F100081018101810180018001800180018001B6
:101F20007F017F017F017F017F017E017E017E01B4
:101F30007E017E017E017E017D017D017D017D01AD
:101F40007D017D017C017C017C017C017C017C01A7
:101F50007C017C017B017B017B017B017B017B019F
:101F60007B017A017A017A017A017A017A017A0198
:101F70007A017A017A01790179017901790179018E
:101F80007901790179017901790179017801780183
:101F90007801780178017801780178017801780179
:101FA0007801780178017801780178017801780169
:101FB0007801780178017801780178017801780159
:101FC0007801790179017901790179017901790142
:101FD00079017A017A017A017A017A017A017B0129
:101FE0007B017B017B017C017C017C017C017D010B
:101FF0007D017D017E017E017E017F017F017F01E8
:1020000080018001810181018201820183018301BC
:10201000840184018501850186018601870187018C
:102020008801890189018A018B018B018C018D0155
:102030008E018E018F019001910191019201930116
:1020400094019501960197019801980199019A01CF
:102050009B019C019D019E019F01A101A201A30181
:10206000A401A501A601A701A801AA01AB01AC0129
:10207000AD01AF01B001B101B201B401B501B601CA
:10208000B801B901BB01BC01BD01BF01C001C20162
:10209000C301C501C601C801CA01CB01CD01CE01F2
:1020A000D001D201D301D501D701D801DA01DC0179
:1020B000DE01DF01E101E301E501E701E901EA01F8
:1020C000EC01EE01F001F201F401F601F801FA0170
:1020D000FC01FE01000202020402060208020B02D9
:1020E0000D020F0211021302160218021A021C023C
:1020F0001F0221022302260228022A022D022F0299
:1021000032023402360239023B023E0240024302EE
:10211000460248024B024D02500253025502580239
:102120005B025E0260026302660269026C026F0279
:102130007102740277027A027D02800283028602B3
:102140008A028D0290029302960299029D02A002D9
:10215000A302A702AA02AD02B102B402B802BB02F6
:10216000BF02C202C602CA02CD02D102D502D90202
:10217000DC02E002E402E802EC02F002F402F802FF
:10218000FD020103050309030E03120317031B03DA
:102190002003240329032E03330337033C034103A5
:1021A00046034B03510356035B03600366036B0353
:1021B000710376037C03820388038E0394039A03DE
:1021C000A003A603AD03B303BA03C003C703CE0342
:1021D000D503DC03E303E603E603E603E603E603D5
:1021E000E603E603E603E603E603E603E603E603A7
:1021F000E603E603E603E603E603E603E603E60397
:10220000E603970286027502650255024502360210
:10221000270219020B02FE01F001E401D701CB01F4
:10222000BF01B401A9019E019401890180017601D9
:102230006D0164015B0153014B0143013B0134011A
:102240002D0126011F01190113010D0107010101D3
:10225000FC00F700F200ED00E900E400E000DC0023
:10226000D800D400D000CD00CA00C600C300C10011
:10227000BE00BB00B900B600B400B200B000AE00B2
:10228000AC00AA00A800A700A500A400A200A1001D
:10229000A0009F009E009D009C009B009B009A0058
:1022A0009900990098009800970097009600960072
:1022B0009600960096009500950095009500950073
:1022C0009500950095009500950095009600960064
:1022D000960096009600960097009700970097004A
:1022E000980098009800980099009900990099002A
:1022F0009A009A009A009A009B009B009B009B000A
:102300009C009C009C009C009D009D009D009D00E9
:102310009D009E009E009E009E009E009E009E00CE
:102320009F009F009F009F009F009F009F009F00B5
:102330009F009F009F009F009F009F009F009F00A5
:102340009F009F009F009F009F009F009F009E0096
:102350009E009E009E009E009E009E009D009D008F
:102360009D009D009D009D009C009C009C009C0089
:102370009B009B009B009B009A009A009A009A0089
:102380009900990099009900980098009800980089
:10239000970097009700970096009600960095008A
:1023A000950095009500940094009400940093008B
:1023B0009300930093009300920092009200920089
:1023C0009100910091009100910091009100900086
:1023D000900090009000900090009000900090007D
:1023E000900090008F008F008F008F008F008F0073
:1023F000900090009000900090009000900090005D
:102400009000900091009100910091009100920045
:102410009200920092009300930093009300940026
:102420009400940095009500960096009600970001
:10243000970098009800990099009A009A009B00D4
:102440009B009C009D009D009E009E009F00A000A0
:10245000A000A100A200A300A300A400A500A50065
:10246000A600A700A800A900A900AA00AB00AC0024
:10247000AD00AE00AF00AF00B000B100B200B300DD
:10248000B400B500B600B700B800B900BA00BB0090
:10249000BC00BD00BE00BF00C100C200C300C4003C
:1024A000C500C600C700C900CA00CB00CC00CD00E3
:1024B000CF00D000D100D200D400D500D600D80083
:1024C000D900DA00DC00DD00DE00E000E100E3001E
:1024D000E400E600E700E900EA00EC00ED00EF00B0
:1024E000F000F200F400F500F700F900FB00FC003A
:1024F000FE000001020103010501070109010B01B2
:102500000D010F0111011301150118011A011C0120
:102510001E0121012301250128012A012D012F017E
:102520003201340137013A013D01400143014601C6
:1025300049014C014F015201550159015C016001F3
:10254000630167016B016F01730177017B017F01FB
:10255000830187018C01900195019A019F01A401DB
:10256000A901AE01B401B901BF01C401CA01D00182
:10257000D601DD01E301EA01F001F701FE010602E7
:102580000D0215021C0224022C0235023D024602F5
:102590004F02580261026B0274027E0289029302AA
:1025A0009E02A902B402BF02CB02D702E302F002EC
:1025B000FC02090317032403320341034F035E03A4
:1025C0006E037D038D039D03AE03BF03D103E203BE
:1025D000E603E603E603E603E603E603E603E603B3
:1025E000E603E603E603E603E60336022F022802CB
:1025F00021021A0213020D0207020002FB01F5017B
:10260000EF01EA01E501E001DB01D601D201CD01D4
:10261000C901C501C101BD01B901B601B301AF01D5
:10262000AC01A901A601A301A0019E019B01990192
:1026300097019401920190018E018D018B01890116
:1026400088018601850183018201810180017F016A
:102650007E017D017C017B017B017A017901790199
:1026600078017801780177017701770176017601A9
:1026700076017601760176017601760176017601A2
:102680007601770177017701770177017801780189
:102690007801790179017A017A017A017B017B0164
:1026A0007C017C017D017D017E017E017F017F0136
:1026B0008001810181018201820183018301840102
:1026C00085018501860186018701880188018901CC
:1026D00089018A018A018B018C018C018D018D0198
:1026E0008E018E018F018F01900191019101920164
:1026F0009201930193019401940195019501960132
:102700009601960197019701980198019901990105
:1027100099019A019A019A019B019B019C019C01DC
:102720009C019D019D019D019D019E019E019E01B7
:102730009F019F019F019F01A001A001A001A00195
:10274000A001A101A101A101A101A101A201A20178
:10275000A201A201A201A201A201A301A301A3015E
:10276000A301A301A301A301A401A401A401A40145
:10277000A401A401A401A401A401A401A501A5012F
:10278000A501A501A501A501A501A501A501A60118
:10279000A601A601A601A601A601A601A601A70100
:1027A000A701A701A701A701A701A701A801A801E7
:1027B000A801A801A801A801A901A901A901A901CD
:1027C000AA01AA01AA01AA01AB01AB01AB01AB01AD
:1027D000AC01AC01AC01AD01AD01AD01AE01AE018A
:1027E000AF01AF01AF01B001B001B101B101B20160
:1027F000B201B301B301B401B401B501B501B60131
:10280000B601B701B801B801B901BA01BA01BB01FB
:10281000BC01BC01BD01BE01BF01BF01C001C101BE
:10282000C201C301C401C501C501C601C701C80178
:10283000C901CA01CB01CC01CD01CE01CF01D1012B
:10284000D201D301D401D501D601D701D901DA01D2
:10285000DB01DC01DE01DF01E001E201E301E40173
:10286000E601E701E901EA01EB01ED01EE01F0010A
:10287000F201F301F501F601F801F901FB01FD0197
:10288000FE010002020204020502070209020B0215
:102890000D020E02100212021402160218021A028F
:1028A0001C021E02200222022402260228022A0200
:1028B0002C022E02300233023502370239023B026B
:1028C0003E02400242024402470249024B024E02CB
:1028D00050025302550257025A025C025F02610223
:1028E0006402660269026B026E0271027302760272
:1028F00078027B027E0280028302860289028B02BA
:102900008E0291029402970299029C029F02A202F7
:10291000A502A802AB02AE02B102B402B702BA022B
:10292000BD02C002C302C602CA02CD02D002D30257
:10293000D602DA02DD02E002E302E702EA02EE0278
:10294000F102F402F802FB02FF020203060309038C
:102950000D031103140318031C031F032303270390
:102960002B032F03330336033A033E03420346038C
:102970004B034F03530357035B035F036403680375
:102980006C03710375037A037E03830388038C034E
:10299000910396039A039F03A403A903AE03B30311
:1029A000B803BE03C303C803CD03D303D803DE03B8
:1029B000E303E603E603E603E603E603E603E603D2
:1029C000E603E603E603E603E603E603E603E603BF
:1029D000E6034C023B022A021A020A02FA01EB0148
:1029E000DD01CF01C101B401A7019A018E0182016D
:1029F00077016C01610156014C014201390130013E
:102A000027011E0116010E010601FF00F800F1006A
:102A1000EA00E400DD00D700D200CC00C700C2000D
:102A2000BD00B800B400B000AC00A800A400A00035
:102A30009D009A009700940091008F008C008A00FE
:102A4000880086008400820081007F007E007D0077
:102A50007B007A00790079007800770077007600B3
:102A600076007500750075007500750075007500BD
:102A700075007500750076007600770077007800A5
:102A80007800790079007A007B007C007C007D0072
:102A90007E007F008000810082008300840085002A
:102AA00086008700880089008A008B008C008D00DA
:102AB0008E008F0090009100920093009400960089
:102AC0009700980099009A009B009C009D009E0032
:102AD0009F00A000A100A200A300A400A500A600E2
:102AE000A700A800A900AA00AB00AC00AC00AD0094
:102AF000AE00AF00B000B000B100B200B300B30050
:102B0000B400B500B500B600B700B700B800B80013
:102B1000B900BA00BA00BB00BB00BB00BC00BC00DF
:102B2000BD00BD00BE00BE00BE00BF00BF00BF00B4
:102B3000BF00C000C000C000C000C100C100C10093
:102B4000C100C100C100C200C200C200C200C20078
:102B5000C200C200C200C200C200C200C200C20065
:102B6000C200C200C200C200C200C200C200C20055
:102B7000C200C200C200C200C100C100C100C10049
:102B8000C100C100C100C100C100C000C000C00040
:102B9000C000C000C000C000C000BF00BF00BF0038
:102BA000BF00BF00BF00BF00BF00BF00BE00BE002F
:102BB000BE00BE00BE00BE00BE00BE00BE00BE0025
:102BC000BE00BE00BE00BE00BE00BE00BE00BE0015
:102BD000BE00BE00BE00BE00BE00BE00BE00BE0005
:102BE000BF00BF00BF00BF00BF00BF00C000C000EB
:102BF000C000C000C100C100C100C100C200C200CD
:102C0000C200C300C300C300C400C400C500C500A7
:102C1000C600C600C700C700C800C800C900C90078
:102C2000CA00CB00CB00CC00CD00CD00CE00CF0041
:102C3000CF00D000D100D200D300D300D400D50003
:102C4000D600D700D800D900DA00DB00DC00DD00B8
:102C5000DE00DF00E000E100E200E300E400E60067
:102C6000E700E800E900EA00EC00ED00EE00F0000B
:102C7000F100F200F400F500F600F800F900FB00A6
:102C8000FC00FE00FF000101030104010601080130
:102C900009010B010D010E011001120114011601B1
:102CA000170119011B011D011F012101230125012C
:102CB000270129012B012D01300132013401360198
:102CC00039013B013D0140014201440147014901F5
:102CD0004C014E0151015401560159015C015E0144
:102CE0006101640167016A016D0170017301760180
:102CF00079017C017F018301860189018D019001A9
:102D0000940197019B019F01A201A601AA01AE01B6
:102D1000B201B601BA01BE01C201C701CB01CF01A8
:102D2000D401D801DD01E201E701EB01F001F60178
:102D3000FB01000205020B02100216021B02210217
:102D400027022D0233023902400246024D0253028D
:102D50005A02610268026F0277027E0286028E02C8
:102D600095029D02A602AE02B602BF02C802D102BF
:102D7000DA02E302ED02F60200030A0314031F0362
:102D80002A0334033F034B03560362036E037A03A3
:102D9000860393039F03AD03BA03C703D503E3037D
:102DA000E603E603E603E603E603E603E603E603DB
:102DB000E603E603E603E603E60311020802000267
:102DC000F801F101E901E201DB01D401CD01C70104
:102DD000C001BA01B401AF01A901A3019E0199018B
:102DE00094018F018B01860182017D0179017501BA
:102DF00071016E016A016701630160015D015A01A1
:102E00005701550152014F014D014B014801460147
:102E10004401420140013F013D013B013A013801BB
:102E200037013601340133013201310130012F0104
:102E30002E012E012D012C012C012B012A012A012A
:102E40002A01290129012901280128012801280135
:102E5000280128012801280128012801280128012A
:102E6000290129012901290129012A012A012A010F
:102E70002B012B012C012C012C012D012D012E01E8
:102E80002E012F012F0130013001310131013201BA
:102E90003201330133013401340135013601360189
:102EA0003701370138013801390139013A013B0155
:102EB0003B013C013C013D013D013E013E013F0122
:102EC0003F014001400141014101420142014301F2
:102ED00043014401440145014501450146014601C4
:102EE000470147014701480148014801490149019B
:102EF00049014A014A014A014B014B014B014B0177
:102F00004C014C014C014C014D014D014D014D0155
:102F10004D014E014E014E014E014E014E014E013A
:102F20004E014F014F014F014F014F014F014F0122
:102F30004F014F014F014F014F014F014F014F0111
:102F40004F014F014F014F014F014F014F014F0101
:102F50004F014F014F014F014F014F014F014F01F1
:102F60004F014F014F014F014F014F014F014F01E1
:102F70004F014F014F014F014F014F014F014F01D1
:102F80004F014F014F014F014F014F014F014F01C1
:102F90004F014F014F014F014F014F014F014F01B1
:102FA0005001500150015001500150015001500199
:102FB000510151015101510152015201520152017D
:102FC000530153015301530154015401540155015C
:102FD0005501560156015601570157015801580134
:102FE000590159015A015B015B015C015C015D0102
:102FF0005E015E015F0160016101610162016301C7
:1030000064016501650166016701680169016A0182
:103010006B016C016D016E016F0170017101730133
:10302000740175017601770179017A017B017D01D7
:103030007E017F0181018201840185018701880170
:103040008A018C018D018F019001920194019601FA
:10305000970199019B019D019F01A101A301A50178
:10306000A701A901AB01AD01AF01B101B301B501E8
:10307000B801BA01BC01BE01C101C301C501C8014B
:10308000CA01CD01CF01D201D401D701D901DC01A0
:10309000DF01E101E401E701E901EC01EF01F201E7
:1030A000F501F801FB01FD010002030206020A021C
:1030B0000D0210021302160219021C022002230242
:1030C00026022A022D023002340237023B023E025F
:1030D0004202450249024C025002540257025B026E
:1030E0005F02630266026A026E02720276027A026E
:1030F0007E02820286028A028E02920296029A0260
:103100009E02A202A702AB02AF02B302B802BC0247
:10311000C002C502C902CE02D202D702DB02E0021F
:10312000E402E902EE02F202F702FC0200030503E8
:103130000A030F03140319031E03220327032C039E
:10314000310337033C03410346034B03500356034B
:103150005B03600365036B03700376037B038103EA
:1031600086038C03910397039C03A203A803AE0379
:10317000B303B903BF03C503CB03D103D703DD03F7
:10318000E303E603E603E603E603E603E603E603FA
:10319000E603E603E603E603E603E603E603E603E7
:1031A000E6039A02860272025F024C023A02280289
:1031B00017020602F601E601D701C801BA01AC0107
:1031C0009E019101850178016C01610156014B015D
:1031D000400136012C0123011A01110109010101ED
:1031E000F900F100EA00E300DC00D600CF00C900DE
:1031F000C400BE00B900B400AF00AB00A600A2003E
:103200009E009A009700930090008D008A0088002D
:103210008500830080007E007C007B0079007700C1
:1032200076007500740072007200710070006F000B
:103230006F006E006E006E006D006D006D006D0021
:103240006D006D006E006E006E006F006F0070000C
:1032500070007100710072007300740074007500DA
:1032600076007700780079007A007B007C007D0092
:103270007E007F0080008100820083008400850042
:1032800086008700880089008A008B008C008D00F2
:103290008E0090009100920093009400950096009B
:1032A00097009800980099009A009B009C009D0050
:1032B0009E009F009F00A000A100A200A300A30009
:1032C000A400A500A500A600A700A700A800A800CC
:1032D000A900A900AA00AA00AB00AB00AB00AC009B
:1032E000AC00AD00AD00AD00AD00AE00AE00AE0074
:1032F000AE00AE00AF00AF00AF00AF00AF00AF0058
:10330000AF00AF00AF00AF00AF00AF00AF00AF0045
:10331000AF00AE00AE00AE00AE00AE00AE00AD003D
:10332000AD00AD00AD00AC00AC00AC00AB00AB003C
:10333000AB00AB00AA00AA00A900A900A900A80040
:10334000A800A800A700A700A600A600A600A50048
:10335000A500A400A400A400A300A300A200A20052
:10336000A100A100A100A000A0009F009F009F005D
:103370009E009E009D009D009D009C009C009C0066
:103380009B009B009B009A009A009A00990099006C
:10339000990099009800980098009800970097006D
:1033A0009700970097009700970096009600960068
:1033B000960096009600960096009600960096005D
:1033C0009600960097009700970097009700970047
:1033D00098009800980098009900990099009A0028
:1033E0009A009A009B009B009C009C009D009D0001
:1033F0009E009E009F00A000A000A100A100A200CE
:10340000A300A400A400A500A600A700A700A80090
:10341000A900AA00AB00AC00AD00AE00AF00B00048
:10342000B100B200B300B400B500B600B700B900F7
:10343000BA00BB00BC00BE00BF00C000C200C30099
:10344000C400C600C700C800CA00CB00CD00CE0033
:10345000D000D200D300D500D600D800DA00DB00BF
:10346000DD00DF00E100E200E400E600E800EA0041
:10347000EC00ED00EF00F100F300F500F700F900BB
:10348000FC00FE00000102010401060109010B011C
:103490000D010F0112011401170119011B011E0179
:1034A00020012301260128012B012D0130013301C8
:1034B000360139013B013E014101440147014A0106
:1034C0004D015101540157015A015E01610164012E
:1034D00068016B016F01730176017A017E0182013F
:1034E00086018A018E01920196019A019F01A30132
:1034F000A701AC01B101B501BA01BF01C401C90105
:10350000CE01D301D901DE01E401E901EF01F501AA
:10351000FB01010207020D0213021A022002270218
:103520002E0235023C0244024B0252025A0262024F
:103530006A0272027B0283028C0295029E02A7023B
:10354000B002BA02C302CD02D802E202EC02F702D4
:1035500002030D031903250330033D0349035603FA
:10356000630370037D038B039903A703B603C403AE
:10357000D403E303E603E603E603E603E603E60318
:10358000E603E603E603E603E603B002A6029D02B5
:1035900093028A0281027902700268026002580274
:1035A0005102490242023B0234022D02270220024C
:1035B0001A0214020E0208020302FD01F801F301CF
:1035C000EE01E901E401E001DB01D701D301CF0104
:1035D000CB01C701C301C001BC01B901B601B301F0
:1035E000B001AD01AA01A701A501A201A0019D01A1
:1035F0009B019901970195019301910190018E0121
:103600008C018B0189018801870185018401830177
:103610008201810180017F017E017D017D017C01AC
:103620007B017B017A017A017901790179017801C5
:1036300078017801780177017701770177017701C7
:1036400077017701770177017701770177017801B9
:1036500078017801780178017901790179017A019D
:103660007A017A017B017B017B017C017C017D0178
:103670007D017D017E017E017F017F01800180014E
:10368000810181018201820183018301840184011E
:1036900085018501860186018701870188018801EE
:1036A000890189018A018A018B018B018C018C01BE
:1036B0008D018D018E018E018F018F01900190018E
:1036C0009001910191019201920193019301940162
:1036D0009401940195019501960196019601970137
:1036E00097019701980198019901990199019A010F
:1036F0009A019A019B019B019B019B019C019C01EA
:103700009C019D019D019D019D019E019E019E01C7
:103710009E019F019F019F019F01A001A001A001A7
:10372000A001A101A101A101A101A101A201A20188
:10373000A201A201A201A301A301A301A301A4016B
:10374000A401A401A401A401A501A501A501A5014D
:10375000A501A601A601A601A601A701A701A7012F
:10376000A701A801A801A801A801A901A901A9010F
:10377000A901AA01AA01AA01AB01AB01AB01AC01ED
:10378000AC01AC01AD01AD01AD01AE01AE01AF01C7
:10379000AF01AF01B001B001B101B101B201B2019D
:1037A000B301B301B401B401B501B501B601B7016C
:1037B000B701B801B801B901BA01BA01BB01BC0136
:1037C000BD01BD01BE01BF01C001C101C101C201F6
:1037D000C301C401C501C601C701C801C901CA01AD
:1037E000CB01CC01CD01CE01CF01D001D101D2015D
:1037F000D301D501D601D701D801DA01DB01DC0103
:10380000DD01DF01E001E201E301E501E601E7019D
:10381000E901EB01EC01EE01EF01F101F301F4012B
:10382000F601F801F901FB01FD01FF0101020302AC
:103830000402060208020A020C020E021002120220
:103840001402170219021B021D021F022202240287
:10385000260228022B022D023002320234023702E5
:1038600039023C023E0241024402460249024C0235
:103870004E0251025402570259025C025F02620278
:10388000650268026B026E027102740277027A02AC
:103890007D028002830287028A028D0290029402D6
:1038A00097029A029E02A102A402A802AB02AF02F2
:1038B000B202B602BA02BD02C102C402C802CC0200
:1038C000D002D302D702DB02DF02E202E602EA0202
:1038D000EE02F202F602FA02FE02020306030A03F5
:1038E0000E03120317031B031F03230327032C03D9
:1038F0003003340339033D03410346034A034F03B6
:10390000530358035C03610365036A036F03730386
:1039100078037D03810386038B039003940399034B
:103920009E03A303A803AD03B203B703BC03C10303
:10393000C603CB03D003D503DA03DF03E403E603B6
:10394000E603E603E603E603E603E603E603E6032F
:10395000E603E603E603E603E603E603E603E6031F
:10396000E603E603E603E603E603E603E603E6030F
:10397000E6037E026C025A02480237022602160251
:103980000602F701E801DA01CC01BE01B001A40191
:1039900097018B017F01730168015D0153014901AA
:1039A0003F0135012C0123011A0112010A01020114
:1039B000FA00F300EC00E500DF00D800D200CC00F4
:1039C000C700C100BC00B700B200AE00A900A5004E
:1039D000A1009D009900960092008F008C00890044
:1039E0008600840081007F007D007B0079007700E5
:1039F00075007300720071006F006E006D006C0046
:103A00006B006A006A006900680068006700670070
:103A10006700670066006600660066006600670073
:103A20006700670067006800680068006900690057
:103A30006A006A006B006B006C006D006D006E0028
:103A40006F007000700071007200730073007400EA
:103A50007500760077007800780079007A007B00A6
:103A60007C007D007E007F007F008000810082005E
:103A70008300840085008500860087008800890017
:103A800089008A008B008C008C008D008E008F00D6
:103A90008F00900091009100920093009300940099
:103AA0009400950095009600960097009700980066
:103AB0009800990099009A009A009A009B009B0038
:103AC0009C009C009C009C009D009D009D009D0012
:103AD0009E009E009E009E009E009F009F009F00F3
:103AE0009F009F009F009F009F009F009F009F00DE
:103AF0009F009F009F009F009F009F009F009F00CE
:103B00009F009F009F009F009F009E009E009E00C0
:103B10009E009E009E009E009E009D009D009D00B8
:103B20009D009D009D009C009C009C009C009C00B2
:103B30009B009B009B009B009B009B009A009A00AF
:103B40009A009A009A0099009900990099009900AA
:103B500099009800980098009800980098009800A4
:103B6000970097009700970097009700970097009D
:103B70009700970097009700960096009600960091
:103B8000960096009700970097009700970097007F
:103B9000970097009700970097009800980098006A
:103BA00098009800980099009900990099009A004F
:103BB0009A009A009B009B009B009C009C009D002B
:103BC0009D009D009E009E009F009F00A000A00001
:103BD000A100A100A200A300A300A400A400A500CE
:103BE000A600A600A700A800A900A900AA00AB0093
:103BF000AC00AD00AD00AE00AF00B000B100B2004F
:103C0000B300B400B500B600B700B800B900BA0000
:103C1000BB00BC00BD00BF00C000C100C200C300AB
:103C2000C500C600C700C900CA00CB00CD00CE0049
:103C3000D000D100D300D400D600D700D900DB00DB
:103C4000DC00DE00E000E100E300E500E700E90061
:103C5000EA00EC00EE00F000F200F400F600F800DC
:103C6000FB00FD00FF0001010301060108010B013B
:103C70000D010F011201150117011A011C011F018D
:103C80002201250128012B012D01310134013701C9
:103C90003A013D014001440147014B014E015201EF
:103CA000550159015D016101650169016D017101F4
:103CB00075017A017E01830187018C0190019501D4
:103CC0009A019F01A401AA01AF01B401BA01BF0189
:103CD000C501CB01D101D701DD01E301EA01F0010A
:103CE000F701FE0105020C0213021B0222022A0246
:103CF00032023A0242024A0252025B0264026D023E
:103D000076027F02890293029C02A702B102BB02E3
:103D1000C602D102DC02E702F302FF020B03170323
:103D2000240330033D034B035803660374038303EA
:103D30009103A003AF03BF03CF03DF03E603E60352
:103D4000E603E603E603E603E603E603E603E6032B
:103D5000E603E603E603E603E6039A0292028A021A
:103D600082027A0273026C0265025E0257025002FE
:103D70004A0244023D02370232022C02260221028C
:103D80001C02170212020D0208020402FF01FB01CD
:103D9000F701F301EF01EB01E701E301E001DC01D1
:103DA000D901D601D301D001CD01CA01C701C50196
:103DB000C201C001BD01BB01B901B701B501B30129
:103DC000B101AF01AD01AC01AA01A901A701A60192
:103DD000A401A301A201A101A0019F019E019D01D7
:103DE0009C019B019B019A019901990198019701FE
:103DF000970197019601960196019501950195010C
:103E00009501940194019401940194019401940109
:103E100094019401950195019501950195019601F3
:103E200096019601960197019701970198019801D3
:103E30009801990199019A019A019B019B019C01AA
:103E40009C019D019D019E019E019F019F01A0017A
:103E5000A001A101A101A201A201A301A301A4014A
:103E6000A501A501A601A601A701A701A801A80116
:103E7000A901AA01AA01AB01AB01AC01AC01AD01E2
:103E8000AD01AE01AF01AF01B001B001B101B101AF
:103E9000B201B201B301B301B401B401B501B5017E
:103EA000B601B601B701B701B701B801B801B90150
:103EB000B901BA01BA01BA01BB01BB01BC01BC0125
:103EC000BC01BD01BD01BD01BE01BE01BE01BF01FE
:103ED000BF01BF01C001C001C001C101C101C101D9
:103EE000C101C201C201C201C201C301C301C301B8
:103EF000C301C401C401C401C401C401C501C50199
:103F0000C501C501C501C601C601C601C601C6017C
:103F1000C701C701C701C701C701C701C801C8015F
:103F2000C801C801C801C801C801C901C901C90146
:103F3000C901C901C901CA01CA01CA01CA01CA012C
:103F4000CA01CB01CB01CB01CB01CB01CC01CC0110
:103F5000CC01CC01CC01CD01CD01CD01CD01CD01F4
:103F6000CE01CE01CE01CE01CF01CF01CF01D001D4
:103F7000D001D001D101D101D101D201D201D201B0
:103F8000D301D301D301D401D401D501D501D50189
:103F9000D601D601D701D701D801D801D901D9015D
:103FA000DA01DB01DB01DC01DC01DD01DE01DE0128
:103FB000DF01E001E001E101E201E301E301E401ED
:103FC000E501E601E701E701E801E901EA01EB01AA
:103FD000EC01ED01EE01EF01F001F101F201F3015D
:103FE000F401F501F701F801F901FA01FB01FD0106
:103FF000FE01FF01000202020302040206020702A0
:1040000009020A020C020D020F0210021202130230
:104010001502170218021A021C021E021F022102B8
:1040200023022502270229022B022D022F02310230
:1040300033023502370239023B023D023F0242029F
:104040004402460248024B024D024F025202540201
:10405000570259025C025E02610264026602690252
:104060006B026E0271027402770279027C027F0297
:104070008202850288028B028E02910294029702CC
:104080009A029E02A102A402A702AB02AE02B102F2
:10409000B502B802BB02BF02C202C602CA02CD020A
:1040A000D102D402D802DC02E002E302E702EB0212
:1040B000EF02F302F702FB02FF02030307030B0305
:1040C0000F03130317031B032003240328032C03EC
:1040D0003103350339033E03420347034B035003C7
:1040E000550359035E03630367036C03710376038F
:1040F0007A037F03840389038E03930398039D034C
:10410000A203A703AC03B203B703BC03C103C703F5
:10411000CC03D103D703DC03E203E603E603E603A3
:10412000E603E603E603E603E603E603E603E60347
:10413000E603E603E603E603E603E603E603E60337
:10414000E6038E027B02680255024302320221021C
:1041500011020102F101E201D301C501B701AA0177
:104160009C019001830177016C01610156014B01B3
:10417000410137012E0124011B0113010A01020133
:10418000FB00F300EC00E500DE00D800D200CC001C
:10419000C600C000BB00B600B100AD00A800A4007E
:1041A000A0009C009800950091008E008B00880074
:1041B0008600830081007E007C007A007800770012
:1041C000750074007200710070006F006E006D0069
:1041D0006C006C006B006A006A006A00690069008C
:1041E000690069006900690069006A006A006A0084
:1041F0006A006B006B006C006C006D006E006E005E
:104200006F00700070007100720073007400740021
:10421000750076007700780079007A007B007C00DA
:104220007D007E007F00800081008200830084008A
:10423000850086008700880089008A008B008C003A
:104240008D008E008F0090009100920092009300EC
:1042500094009500960097009800990099009A00A4
:104260009B009C009C009D009E009E009F00A00063
:10427000A000A100A200A200A300A300A400A4002B
:10428000A500A500A600A600A700A700A800A800FA
:10429000A800A900A900A900A900AA00AA00AA00D4
:1042A000AA00AB00AB00AB00AB00AB00AB00AC00B6
:1042B000AC00AC00AC00AC00AC00AC00AC00AC009E
:1042C000AC00AC00AC00AC00AC00AC00AC00AB008F
:1042D000AB00AB00AB00AB00AB00AB00AB00AA0087
:1042E000AA00AA00AA00AA00AA00A900A900A90081
:1042F000A900A900A800A800A800A800A700A7007E
:10430000A700A700A700A600A600A600A600A5007B
:10431000A500A500A500A500A400A400A400A40079
:10432000A400A300A300A300A300A300A300A20075
:10433000A200A200A200A200A200A200A200A2006D
:10434000A100A100A100A100A100A100A100A10065
:10435000A100A100A100A100A100A200A200A20052
:10436000A200A200A200A200A300A300A300A30039
:10437000A300A400A400A400A400A500A500A5001B
:10438000A600A600A700A700A700A800A800A900F3
:10439000A900AA00AA00AB00AB00AC00AD00AD00C4
:1043A000AE00AE00AF00B000B100B100B200B3008B
:1043B000B400B400B500B600B700B800B900BA0048
:1043C000BB00BC00BC00BD00BE00C000C100C200FC
:1043D000C300C400C500C600C700C900CA00CB00A6
:1043E000CC00CE00CF00D000D200D300D400D60045
:1043F000D700D900DA00DC00DD00DF00E000E200D9
:10440000E300E500E700E800EA00EC00EE00F00061
:10441000F100F300F500F700F900FB00FD00FF00DC
:10442000010103010501070109010C010E01100141
:1044300012011501170119011C011E01210123019F
:10444000260129012B012E013101330136013901E9
:104450003C013F014201450148014B014E0152011F
:10446000550158015C015F01630166016A016D013C
:104470007101750179017D018101850189018D013C
:10448000920196019A019F01A301A801AD01B20119
:10449000B701BC01C101C601CB01D101D601DC01CC
:1044A000E101E701ED01F301F901FF0106020C0250
:1044B00013021902200227022E0236023D02440294
:1044C0004C0254025C0264026C0275027D02860298
:1044D0008F029802A102AB02B402BE02C802D2024D
:1044E000DD02E702F202FD020903140320032C039C
:1044F0003803440351035E036B037803860394037C
:10450000A203B003BF03CE03DD03E603E603E60325
:10451000E603E603E603E603E603E603E603E60353
:10452000E603E603E603E603E6037B0274026D029C
:1045300066025F02580251024B0244023E023802F8
:1045400032022C02270221021C02170211020C0265
:1045500008020302FE01FA01F501F101ED01E90192
:10456000E501E101DD01DA01D601D301CF01CC0182
:10457000C901C601C301C001BD01BB01B801B5013C
:10458000B301B101AE01AC01AA01A801A601A401C9
:10459000A201A0019F019D019C019A01990197012F
:1045A0009601950193019201910190018F018E0175
:1045B0008D018C018B018B018A01890189018801A0
:1045C00088018701870186018601850185018501B2
:1045D00085018401840184018401840184018401B2
:1045E00084018401840184018401840184018401A3
:1045F0008501850185018501860186018601860187
:104600008701870187018801880189018901890162
:104610008A018A018B018B018C018C018D018D0136
:104620008E018E018F018F01900190019101910106
:1046300092019301930194019401950195019601D2
:10464000970197019801980199019A019A019B019C
:104650009B019C019C019D019E019E019F019F0168
:10466000A001A101A101A201A201A301A301A40132
:10467000A501A501A601A601A701A701A801A801FE
:10468000A901A901AA01AB01AB01AC01AC01AD01CB
:10469000AD01AE01AE01AF01AF01B001B001B1019A
:1046A000B101B201B201B301B301B301B401B4016C
:1046B000B501B501B601B601B701B701B701B8013F
:1046C000B801B901B901BA01BA01BA01BB01BB0114
:1046D000BC01BC01BC01BD01BD01BE01BE01BE01EA
:1046E000BF01BF01C001C001C001C101C101C101C1
:1046F000C201C201C301C301C301C401C401C50198
:10470000C501C501C601C601C701C701C701C8016E
:10471000C801C901C901C901CA01CA01CB01CB0144
:10472000CC01CC01CC01CD01CD01CE01CE01CF0118
:10473000CF01D001D001D101D101D201D201D301E9
:10474000D301D401D401D501D501D601D701D701B8
:10475000D801D801D901DA01DA01DB01DB01DC0182
:10476000DD01DD01DE01DF01E001E001E101E20147
:10477000E301E301E401E501E601E601E701E80107
:10478000E901EA01EB01EC01ED01EE01EF01EF01BE
:10479000F001F101F201F301F501F601F701F80171
:1047A000F901FA01FB01FC01FD01FF010002010218
:1047B0000202040205020602080209020A020C02B1
:1047C0000D020E0210021102130214021602170249
:1047D00019021B021C021E021F02210223022402D4
:1047E000260228022A022C022D022F023102330255
:1047F0003502370239023B023D023F0241024302C9
:104800004502470249024C024E0250025202550232
:10481000570259025C025E0260026302650268028E
:104820006A026D026F027202750277027A027D02DD
:104830007F028202850288028B028D02900293021F
:10484000960299029C029F02A202A502A802AC0253
:10485000AF02B202B502B802BC02BF02C202C60277
:10486000C902CD02D002D402D702DB02DE02E2028C
:10487000E502E902ED02F102F402F802FC02000393
:10488000040308030B030F03130317031B03200385
:10489000240328032C033003340339033D0341036D
:1048A00046034A034F03530357035C036003650346
:1048B0006A036E03730378037C03810386038B030F
:1048C0009003950399039E03A303A803AD03B203CA
:1048D000B803BD03C203C703CC03D203D703DC0371
:1048E000E203E603E603E603E603E603E603E60384
:1048F000E603E603E603E603E603E603E603E60370
:10490000E603E603E603E603E603E603E603E6035F
:10491000E6034F023F022F02200211020302F401BC
:10492000E701D901CC01C001B301A7019B019001AE
:1049300085017A01700166015C0152014901400163
:1049400037012E0126011E0116010F010801010188
:10495000FA00F300ED00E700E100DB00D500D00035
:10496000CB00C600C100BC00B800B400AF00AB0073
:10497000A800A400A1009D009A0097009400910057
:104980008E008C008A0087008500830081007F00F4
:104990007D007C007A007900770076007500740055
:1049A00073007200710070006F006F006E006E0087
:1049B0006D006D006D006C006C006C006C006C0094
:1049C0006C006C006C006C006C006C006D006D0085
:1049D0006D006E006E006E006F006F007000700062
:1049E0007100710072007200730074007400750031
:1049F0007600760077007800780079007A007B00F6
:104A00007B007C007D007E007E007F0080008100B6
:104A10008100820083008400840085008600870076
:104A20008700880089008A008A008B008C008C0037
:104A30008D008E008F008F009000910091009200F9
:104A400092009300940094009500950096009700C2
:104A5000970098009800990099009A009A009B008E
:104A60009B009C009C009C009D009D009E009E0061
:104A70009E009F009F00A000A000A000A000A10039
:104A8000A100A100A200A200A200A200A300A30016
:104A9000A300A300A400A400A400A400A400A400F8
:104AA000A500A500A500A500A500A500A500A500DE
:104AB000A600A600A600A600A600A600A600A600C6
:104AC000A600A600A600A600A600A700A700A700B3
:104AD000A700A700A700A700A700A700A700A7009E
:104AE000A700A700A700A700A700A700A700A7008E
:104AF000A700A700A700A700A700A700A800A8007C
:104B0000A800A800A800A800A800A800A800A80065
:104B1000A800A800A800A900A900A900A900A90050
:104B2000A900A900A900AA00AA00AA00AA00AA0038
:104B3000AA00AB00AB00AB00AB00AC00AC00AC001B
:104B4000AC00AD00AD00AD00AD00AE00AE00AE00FB
:104B5000AF00AF00AF00B000B000B000B100B100D6
:104B6000B200B200B200B300B300B400B400B500AC
:104B7000B500B600B600B700B700B800B900B9007C
:104B8000BA00BA00BB00BC00BC00BD00BE00BE0045
:104B9000BF00C000C100C100C200C300C400C50006
:104BA000C500C600C700C800C900CA00CB00CC00C1
:104BB000CD00CE00CF00D000D100D200D300D40071
:104BC000D500D600D800D900DA00DB00DC00DE001A
:104BD000DF00E000E200E300E400E600E700E900B7
:104BE000EA00EC00ED00EF00F000F200F400F50048
:104BF000F700F900FB00FD00FE00000102010401C6
:104C0000060108010A010C010E0111011301150131
:104C100017011A011C011E0121012301260129018E
:104C20002B012E0131013301360139013C013F01D5
:104C30004201450149014C014F01530156015901FF
:104C40005D016101640168016C017001740178010A
:104C50007C018101850189018E01920197019C01EE
:104C6000A101A601AB01B001B501BB01C001C601A4
:104C7000CB01D101D701DD01E301EA01F001F60129
:104C8000FD0104020B021202190220022802300266
:104C900037023F0247025002580261026A02720262
:104CA0007C0285028E029802A202AC02B602C10208
:104CB000CB02D602E102EC02F802040310031C034B
:104CC0002803350342034F035C036A03780386031A
:104CD0009403A303B203C103D103E103E603E60394
:104CE000E603E603E603E603E603E603E603E6037C
:104CF000E603E603E603E603E6037F0277026F02BC
:104D000068026002590252024B0245023E0238021A
:104D100032022C02260220021B02160210020B0293
:104D200007020202FD01F901F501F101ED01E901BE
:104D3000E501E101DE01DB01D701D401D101CE01A2
:104D4000CC01C901C601C401C101BF01BD01BB0144
:104D5000B901B701B501B301B101B001AE01AD01B7
:104D6000AB01AA01A901A701A601A501A401A30104
:104D7000A201A101A001A0019F019E019E019D0130
:104D80009D019C019C019B019B019B019A019A0141
:104D90009A019A019A019901990199019901990140
:104DA000990199019901990199019A019A019A0130
:104DB0009A019A019A019B019B019B019B019B0116
:104DC0009C019C019C019D019D019D019D019E01F5
:104DD0009E019E019F019F019F01A001A001A001D2
:104DE000A101A101A201A201A201A301A301A301AA
:104DF000A401A401A401A501A501A501A601A60184
:104E0000A601A701A701A701A701A801A801A80160
:104E1000A901A901A901A901AA01AA01AA01AA013E
:104E2000AB01AB01AB01AB01AC01AC01AC01AC011E
:104E3000AC01AD01AD01AD01AD01AD01AE01AE0101
:104E4000AE01AE01AE01AE01AE01AF01AF01AF01E7
:104E5000AF01AF01AF01AF01AF01B001B001B001CF
:104E6000B001B001B001B001B001B001B001B001BA
:104E7000B101B101B101B101B101B101B101B101A2
:104E8000B101B101B101B101B201B201B201B2018E
:104E9000B201B201B201B201B201B201B201B30179
:104EA000B301B301B301B301B301B301B401B40160
:104EB000B401B401B401B401B501B501B501B50146
:104EC000B501B601B601B601B601B701B701B70128
:104ED000B801B801B801B901B901B901BA01BA0103
:104EE000BA01BB01BB01BC01BC01BC01BD01BD01DC
:104EF000BE01BE01BF01BF01C001C101C101C201AC
:104F0000C201C301C401C401C501C601C601C70174
:104F1000C801C801C901CA01CB01CC01CC01CD0136
:104F2000CE01CF01D001D101D201D301D401D501ED
:104F3000D601D701D801D901DA01DB01DC01DD019D
:104F4000DE01E001E101E201E301E401E601E70144
:104F5000E801EA01EB01EC01EE01EF01F101F201E0
:104F6000F301F501F601F801F901FB01FD01FE0174
:104F70000002010203020502060208020A020C02F4
:104F80000D020F02110213021502170218021A0273
:104F90001C021E02200222022402260228022A02E9
:104FA0002C022E02310233023502370239023B0253
:104FB0003E02400242024402470249024B024E02B4
:104FC00050025202550257025A025C025F0261020D
:104FD0006402660269026B026E027002730276025C
:104FE00078027B027D0280028302860288028B02A5
:104FF0008E0291029302960299029C029F02A202E3
:10500000A402A702AA02AD02B002B302B602B9021C
:10501000BC02BF02C202C502C802CB02CE02D2024B
:10502000D502D802DB02DE02E102E502E802EB0271
:10503000EE02F202F502F802FC02FF02020306038E
:1050400009030C031003130317031A031E032103A0
:10505000250328032C032F03330337033A033E03AE
:105060004203450349034D035103540358035C03B2
:105070006003640368036C036F03730377037C03AB
:105080008003840388038C039003940398039D0397
:10509000A103A503AA03AE03B203B703BB03C00376
:1050A000C503C903CE03D203D703DC03E103E60340
:1050B000E603E603E603E603E603E603E603E603A8
:1050C000E603E603E603E603E603E603E603E60398
:1050D000E603E603E603E603E603E603E603E60388
:1050E000E603A3028E027A02660252023F022D02FA
:1050F0001B020A02F901E901D901CA01BB01AD0194
:105100009F019101840178016B015F015401490104
:105110003E0134012A01200117010E010601FE00A3
:10512000F600EE00E700E000D900D200CC00C60097
:10513000C000BB00B600B100AC00A800A3009F00F7
:105140009B009800940091008E008B0088008500E1
:10515000830081007F007D007B007900780076006D
:1051600075007400730072007100700070006F00B1
:105170006F006F006E006E006E006E006E006E00BD
:105180006F006F006F00700070007100710072009E
:105190007200730074007500750076007700780067
:1051A00079007A007B007C007D007E007F0080001B
:1051B00081008200830084008500860088008900C9
:1051C0008A008B008C008D008E008F009000910073
:1051D000920093009500960097009800990099001E
:1051E0009A009B009C009D009E009F00A000A100D3
:1051F000A100A200A300A400A400A500A600A7008F
:10520000A700A800A800A900AA00AA00AB00AB0054
:10521000AC00AC00AC00AD00AD00AD00AE00AE0027
:10522000AE00AF00AF00AF00AF00B000B000B00004
:10523000B000B000B000B000B000B000B000B000EE
:10524000B000B000B000B000B000B000B000AF00DF
:10525000AF00AF00AF00AF00AE00AE00AE00AE00DA
:10526000AE00AD00AD00AD00AC00AC00AC00AB00DA
:10527000AB00AB00AA00AA00AA00A900A900A900DF
:10528000A800A800A700A700A700A600A600A600E7
:10529000A500A500A400A400A400A300A300A300EF
:1052A000A200A200A100A100A100A000A000A000F7
:1052B0009F009F009F009F009E009E009E009E00FA
:1052C0009D009D009D009D009C009C009C009C00FA
:1052D0009C009C009C009B009B009B009B009B00F3
:1052E0009B009B009B009B009B009B009B009B00E6
:1052F0009C009C009C009C009C009C009D009D00CC
:105300009D009D009E009E009E009F009F009F00AC
:10531000A000A000A000A100A100A200A200A30084
:10532000A300A400A500A500A600A600A700A80051
:10533000A800A900AA00AB00AB00AC00AD00AE0015
:10534000AF00B000B000B100B200B300B400B500CF
:10535000B600B700B800B900BA00BB00BD00BE007F
:10536000BF00C000C100C200C300C500C600C70026
:10537000C800CA00CB00CC00CE00CF00D000D200C5
:10538000D300D500D600D700D900DA00DC00DD005C
:10539000DF00E000E200E400E500E700E800EA00EA
:1053A000EC00ED00EF00F100F200F400F600F80070
:1053B000FA00FB00FD00FF000101030105010701E8
:1053C00009010A010C010E0110011201150117015A
:1053D00019011B011D011F012101240126012801C2
:1053E0002B012D012F0132013401370139013C011C
:1053F0003E0141014301460149014B014E0151016A
:10540000540157015A015D016001630166016901A0
:105410006D017001730177017A017E0181018501BF
:1054200089018D019101950199019D01A101A501BC
:10543000AA01AE01B301B701BC01C101C601CB0194
:10544000D001D501DB01E001E601EC01F101F7013A
:10545000FE0104020A02110217021E0225022C029A
:1054600033023B0242024A0252025A0263026B02B8
:1054700074027D0286028F029802A202AC02B6027A
:10548000C102CB02D602E102ED02F80204031003CE
:105490001D0329033603440351035F036D037C039B
:1054A0008B039A03AA03B903CA03DA03E603E603EC
:1054B000E603E603E603E603E603E603E603E603A4
:1054C000E603E603E603E603E603F101EA01E4018D
:1054D000DE01D801D301CD01C801C201BD01B8016F
:1054E000B301AF01AA01A601A2019D019901950195
:1054F00092018E018A018701840180017D017A0178
:105500007701750172016F016D016A016801660121
:105510006401620160015E015C015A01580157019A
:10552000550154015201510150014F014E014C01EE
:105530004B014A014A014901480147014601460120
:105540004501450144014401430143014201420137
:105550004201420141014101410141014101410139
:10556000410141014101410141014101410141012B
:105570004201420142014201420143014301430110
:1055800044014401440145014501450146014601EC
:1055900047014701470148014801490149014A01C2
:1055A0004A014B014B014C014C014C014D014D0195
:1055B0004E014E014F014F01500150015101510167
:1055C0005201520153015301540154015501550137
:1055D0005601560157015701580158015901590107
:1055E00059015A015A015B015B015C015C015C01DC
:1055F0005D015D015E015E015F015F015F016001B0
:105600006001600161016101620162016201630187
:105610006301630164016401640165016501650161
:10562000650166016601660167016701670167013F
:1056300068016801680169016901690169016A011C
:105640006A016A016A016B016B016B016B016C01FC
:105650006C016C016C016D016D016D016D016D01DD
:105660006E016E016E016E016F016F016F016F01BE
:10567000700170017001700171017101710171019E
:10568000720172017201730173017301730174017C
:105690007401740175017501750176017601760159
:1056A0007701770177017801780179017901790132
:1056B0007A017A017B017B017B017C017C017D0108
:1056C0007D017E017E017F017F01800181018101D9
:1056D00082018201830183018401850185018601A4
:1056E00087018701880189018A018A018B018C0168
:1056F0008D018D018E018F01900191019201930125
:1057000094019401950196019701980199019A01DC
:105710009B019C019E019F01A001A101A201A30187
:10572000A401A601A701A801A901AB01AC01AD012B
:10573000AF01B001B101B301B401B601B701B901C4
:10574000BA01BC01BD01BF01C001C201C401C50154
:10575000C701C901CA01CC01CE01D001D101D301D9
:10576000D501D701D901DB01DD01DF01E101E30151
:10577000E501E701E901EB01ED01EF01F101F401C0
:10578000F601F801FA01FD01FF010102040206021F
:1057900009020B020E0210021302150218021B026C
:1057A0001D0220022302250228022B022E023102B2
:1057B0003302360239023C023F02420245024802ED
:1057C0004C024F025202550258025C025F02620212
:1057D000660269026C027002730277027B027E022B
:1057E0008202850289028D029102940298029C0233
:1057F000A002A402A802AC02B002B402B802BC0229
:10580000C102C502C902CE02D202D602DB02DF0209
:10581000E402E802ED02F202F702FB0200030503D4
:105820000A030F03140319031E03230328032E0383
:10583000330338033E03430348034E035403590321
:105840005F0365036B03710376037C0383038903A2
:105850008F0395039B03A203A803AF03B503BC0307
:10586000C303C903D003D703DE03E503E603E6035E
:10587000E603E603E603E603E603E603E603E603E0
:10588000E603E603E603E603E603E603E603E603D0
:10589000E603E603E603E603E603E603E603E603C0
:1058A000E603E603E603E603E603E603E603E603B0
:1058B000E6035E024C023B022A021A020A02FA01C5
:1058C000EB01DD01CE01C101B301A6019A018D01F9
:1058D000810176016B01600155014B0141013801E5
:1058E0002F0126011D0115010D010501FD00F60026
:1058F000EF00E800E200DC00D600D000CB00C500DD
:10590000C000BB00B700B200AE00AA00A600A20013
:105910009F009B009800950092008F008D008A00E8
:10592000880086008400820080007E007D007B006D
:105930007A007900780077007600750074007300B3
:1059400073007200720072007100710071007100CA
:1059500071007100710072007200720072007300B9
:10596000730074007400750075007600770077008E
:105970007800790079007A007B007C007D007E0051
:105980007E007F008000810082008300840085000B
:1059900086008700880089008A008B008C008D00BB
:1059A0008D008E008F009000910092009300940073
:1059B0009500960097009800980099009A009B0027
:1059C0009C009D009D009E009F00A000A000A100E3
:1059D000A200A300A300A400A400A500A600A600A6
:1059E000A700A700A800A900A900AA00AA00AA0071
:1059F000AB00AB00AC00AC00AD00AD00AD00AE0044
:105A0000AE00AE00AE00AF00AF00AF00AF00B00020
:105A1000B000B000B000B000B000B100B100B10003
:105A2000B100B100B100B100B100B100B100B100EE
:105A3000B100B100B100B100B100B100B100B100DE
:105A4000B100B000B000B000B000B000B000B000D5
:105A5000B000B000AF00AF00AF00AF00AF00AF00CC
:105A6000AE00AE00AE00AE00AE00AE00AD00AD00C8
:105A7000AD00AD00AD00AD00AC00AC00AC00AC00C2
:105A8000AC00AC00AC00AB00AB00AB00AB00AB00BB
:105A9000AB00AB00AB00AA00AA00AA00AA00AA00B3
:105AA000AA00AA00AA00AA00AA00AA00AA00AA00A6
:105AB000AA00AA00AA00AA00AA00AA00AA00AA0096
:105AC000AB00AB00AB00AB00AB00AB00AB00AC007D
:105AD000AC00AC00AC00AC00AD00AD00AD00AE0061
