:100000000C944A5A0C94795A0C94795A0C94795A53
:100010000C94795A0C94795A0C94795A0C94795A14
:100020000C94795A0C94C3920C94795A0C94795A82
:100030000C94795A0C94795A0C94795A0C94795AF4
:100040000C94795A0C94795A0C94795A0C94795AE4
:100050000C9432930C94795A0C94795A0C94795AE2
:100060000C94795A0C94C1950C94795A0C94795A41
:100070000C94795A0C947B5A0C94795A0C94795AB2
:100080000C94795A0C94795A0C94795A0C94C9931B
:100090000C94ED950C94795A0C9422960C94795A00
:1000A0000C94795A0C94795A0C94795A0C94795A84
:1000B0000C94795A0C94795A0C94795A0C94795A74
:1000C0000C94795A0C94795A0C94795A0C9456964B
:1000D0000C94795A0C948B960C94795A0C94795A06
:1000E0000C94795A0C5D115D165D2A5D915D915DF0
:1000F000915D3E5D435D485D4D5D525D575D915D37
:10010000605D695D725D7B5D845D8D5D9461B761ED
:1001100098617C619C61B761A0618D61A761046396
:100120005C63546360635463606344630F6B3E6B52
:10013000126B156B186B396B3E6B3E6B3E6B3E6BF7
:10014000376B236B256B1B6B1D6B1F6B216B276B39
:10015000296B316B2F6B356B336B2B6B2D6B3E6BC0
:100160003E6B3B6B3D6BD16B0C6C166C206C2A6C40
:10017000346C3E6C486C526C5C6C666C846C8D6C40
:100180008D6C706C7A6C12723D7268729372BE7272
:10019000E97214734B754177D87786782279CB7AD8
:1001A000DB7A85861087B586E3861A872487898758
:1001B00089872E875C8701890389058908890A89CF
:1001C00034893C893C893C893C8936891B89198959
:1001D0000D891089138916891D89208928892B8901
:1001E00031892E89228925893C893C8938893B8936
:1001F0006E616E00696E660000407A10F35A00A0CE
:10020000724E18090010A5D4E80000E876481700DF
:1002100000E40B54020000CA9A3B000000E1F5051F
:10022000000080969800000040420F000000A08669
:1002300001000000102700000000E803000000009B
:100240006400000000000A0000000000010000003F
:1002500000002C76D888DC674F0823DFC1DFAE5959
:10026000E1B1B796E5E3E453C63AE651997696E8EC
:10027000E6C28426EB898C9B62ED407C6FFCEFBC70
:100280009C9F40F2BAA56FA5F490055A2AF75C939B
:100290006B6CF9676DC11BFCE0E40D47FEF520E6D1
:1002A000B500D0ED902E0300943577050080841EB4
:1002B000080000204E0A000000C80C333333330F0F
:1002C000986E12831141EF8D2114893BE65516CFAC
:1002D000FEE6DB18D1844B381BF77C1D901DA4BBB8
:1002E000E424203284725E228100C9F124ECA1E56D
:1002F0003D273412000091DC0000010001009D0048
:10030000220340066009800C00000000000000008D
:1003100001007C157639064AFA50FA5FBE6EAF824C
:100320000100000000000000FF7FFF7F00000000D0
:100330000100280AF00AC800280AF00AC8000F00C5
:10034000580214000F0064006400C800F401C012D9
:10035000E803E803FF7F88131400C8000A00C80000
:10036000C8006400D0026400FA002C010100010002
:10037000B6039808D805CC098A0EB5103E111E1296
:10038000881397026804FE06350CB00EFC10881323
:1003900024034E0565081C0E850F54118813E803CD
:1003A000E803E803E803E803E803E803E803E803F5
:1003B000E803E803E803E803E803E803E803E803E5
:1003C000E803E803E803E8031400C800881388136F
:1003D0008813FF7FFF7FFF7FE204E204FF7FFF7F40
:1003E000FF7FFF7FFF7FFF7FFF7FFF7FFF7FFF7F1D
:1003F000FF7FFF7FFF7FFF7FFF7FFF7FFF7FFF7F0D
:10040000FF7FFF7FFF7FFF7FFF7FFF7FFF7FFF7FFC
:10041000FF7FFF7FFF7FFF7FFF7FFF7FFF7FFF7FEC
:10042000FF7FFF7FFF7FFF7FFF7FFF7FFF7FFF7FDC
:10043000FF7FFF7FFF7FFF7FFF7FFF7FFF7FFF7FCC
:10044000FF7FFF7FFF7FFF7FFF7FFF7FFF7FFF7FBC
:10045000FF7FFF7FFF7FFF7FFF7FFF7FFF7FFF7FAC
:10046000FF7FFF7FFF7FFF7FFF7FFF7FFF7FFF7F9C
:10047000FF7FFF7FFF7FFF7FFF7FFF7FFF7FFF7F8C
:10048000FF7FFF7FFF7FFF7FFF7FFF7FFF7FFF7F7C
:10049000FF7FFF7FFF7FFF7FFF7FFF7FFF7FFF7F6C
:1004A000FF7FFF7FFF7FFF7FFF7FFF7FFF7FFF7F5C
:1004B000FF7FFF7FFF7FFF7FFF7FFF7FFF7FFF7F4C
:1004C000FF7FFF7FFF7FFF7FFF7FFF7FFF7FFF7F3C
:1004D000000000000000018001800000000000001A
:1004E0003408FC0814003408FC0814000300C80099
:1004F00005000500050005000A003200E80364005D
:1005000032000180E80305001E00000014003200E4
:100510000100010001003200320000000000000074
:100520007805E102DD04BC07870A2A0B1C0C8B0D41
:100530004101290280033B068E08300B6D0D7201CC
:100540007C0202041A076A096C0B760D0000000099
:10055000000000000000000000000000000000009B
:10056000000000000000000000000000000000008B
:100570000000000000000500500000000000000026
:1005800000000000000070FE70FE0000000000008F
:10059000000000000000000000000000000000005B
:1005A000000000000000000000000000000000004B
:1005B000000000000000000000000000000000003B
:1005C000000000000000000000000000000000002B
:1005D000000000000000000000000000000000001B
:1005E000000000000000000000000000000000000B
:1005F00000000000000000000000000000000000FB
:1006000000000000000000000000000000000000EA
:1006100000000000000000000000000000000000DA
:1006200000000000000000000000000000000000CA
:1006300000000000000000000000000000000000BA
:1006400000000000000000000000000000000000AA
:10065000000000000000000000000000000000009A
:10066000000000000000000000000000000000008A
:100670000000000000000000000000000000E8A2F0
:10068000189B4893788BA883D87B0874386C68646F
:10069000985CC854F84C2845583D8835B82DE82555
:1006A000181E4816780EA8067C036D035D034E03E2
:1006B00040033203240316030903FC02EF02E202A3
:1006C000D602CA02BF02B302A8029D0293028902A7
:1006D0007F0275026B0262025902500247023F021A
:1006E00036022E0227021F02180211020A0203021A
:1006F000FC01F601F001E901E401DE01D801D301BA
:10070000CE01C901C401BF01BA01B601B201AD01F8
:10071000A901A601A2019E019B01970194019101EB
:100720008E018B0188018501830180017E017C019E
:100730007A01780176017401720170016F016D0117
:100740006C016A0169016801660165016401630168
:1007500062016201610160015F015F015E015E0192
:100760005D015D015D015C015C015C015C015C019E
:100770005C015B015B015B015C015C015C015C0194
:100780005C015C015D015D015D015D015E015E0179
:100790005F015F015F016001600161016101620150
:1007A0006201630163016401640165016501660121
:1007B000670167016801680169016A016A016B01EB
:1007C0006C016C016D016D016E016F016F017001B3
:1007D000710171017201720173017401740175017B
:1007E0007501760176017701780178017901790147
:1007F0007A017A017B017B017C017C017D017D0115
:100800007E017E017F017F018001800181018101E4
:1008100081018201820182018301830184018401BB
:100820008401850185018501850186018601860196
:100830008701870187018701880188018801880174
:1008400088018901890189018901890189018A0158
:100850008A018A018A018A018A018A018B018B013E
:100860008B018B018B018B018B018B018B018B0128
:100870008C018C018C018C018C018C018C018C0110
:100880008C018C018C018C018C018D018D018D01FD
:100890008D018D018D018D018D018D018D018E01E7
:1008A0008E018E018E018E018E018E018F018F01CE
:1008B0008F018F018F0190019001900190019101B2
:1008C0009101910191019201920192019301930191
:1008D000930194019401940195019501960196016B
:1008E0009701970198019801990199019A019A013C
:1008F0009B019C019C019D019E019E019F01A00105
:10090000A101A201A201A301A401A501A601A701C1
:10091000A801A901AA01AB01AC01AD01AE01AF0173
:10092000B001B201B301B401B501B701B801B90119
:10093000BB01BC01BD01BF01C001C201C301C501B2
:10094000C701C801CA01CC01CD01CF01D101D3013A
:10095000D401D601D801DA01DC01DE01E001E201B7
:10096000E401E601E901EB01ED01EF01F201F4011F
:10097000F601F901FB01FE01000203020502080273
:100980000A020D0210021202150218021B021E02B8
:100990002102240227022A022D02300233023602EB
:1009A00039023C024002430246024A024D02510211
:1009B000540258025B025F02620266026A026D0222
:1009C0007102750279027D028102850289028D021F
:1009D0009102950299029D02A102A502AA02AE020D
:1009E000B202B702BB02C002C402C902CD02D202E7
:1009F000D602DB02E002E402E902EE02F302F802B0
:100A0000FD02010306030B03100316031B0320035F
:100A100025032A032F0335033A033F0345034A0303
:100A2000500355035B03600366036B037103770395
:100A30007C03820388038E03930399039F03A5031A
:100A4000AB03B103B703BD03C303C903D003D6038C
:100A5000DC03E203E603E603E603E603E603E6035C
:100A6000E603E603E603E603E603E603E603E6033E
:100A7000E603E603E603E603E603E603E603E6032E
:100A8000E603E603E603E603E603E603E603E6031E
:100A9000970383036E035B034703340322031003AE
:100AA000FE02ED02DC02CC02BC02AC029D028E0210
:100AB000800271026402560249023C0230022402A2
:100AC00018020C020102F601EC01E101D701CD018F
:100AD000C401BB01B201A901A101980190018901E2
:100AE00081017A0173016C0165015F0159015301B4
:100AF0004D01470142013C01370132012E0129011C
:100B0000250120011C011801150111010D010A0127
:100B1000070104010101FE00FB00F900F600F400EA
:100B2000F100EF00ED00EB00E900E700E600E40073
:100B3000E300E100E000DF00DD00DC00DB00DA00C4
:100B4000D900D900D800D700D600D600D500D500EE
:100B5000D400D400D400D300D300D300D300D300FA
:100B6000D200D200D200D200D200D300D300D300F2
:100B7000D300D300D300D400D400D400D400D500D7
:100B8000D500D500D600D600D600D700D700D800B3
:100B9000D800D800D900D900DA00DA00DB00DB0089
:100BA000DC00DC00DC00DD00DD00DE00DE00DF005C
:100BB000DF00E000E000E000E100E100E200E20030
:100BC000E300E300E300E400E400E500E500E50005
:100BD000E600E600E600E700E700E700E700E800DF
:100BE000E800E800E900E900E900E900E900EA00BE
:100BF000EA00EA00EA00EA00EB00EB00EB00EB00A1
:100C0000EB00EB00EB00EB00EB00EC00EC00EC0089
:100C1000EC00EC00EC00EC00EC00EC00EC00EC0074
:100C2000EC00EC00EC00EB00EB00EB00EB00EB0069
:100C3000EB00EB00EB00EB00EB00EB00EA00EA005E
:100C4000EA00EA00EA00EA00EA00EA00E900E90056
:100C5000E900E900E900E900E900E800E800E8004F
:100C6000E800E800E800E700E700E700E700E70049
:100C7000E700E700E700E600E600E600E600E60041
:100C8000E600E600E600E600E600E500E500E50037
:100C9000E500E500E500E500E500E500E500E5002C
:100CA000E500E500E500E600E600E600E600E60017
:100CB000E600E600E600E700E700E700E700E700FF
:100CC000E800E800E800E800E900E900E900EA00DF
:100CD000EA00EB00EB00EB00EC00EC00ED00ED00B7
:100CE000EE00EE00EF00F000F000F100F200F20084
:100CF000F300F400F400F500F600F700F800F80047
:100D0000F900FA00FB00FC00FD00FE00FF000001FE
:100D100001010201040105010601070108010A01A0
:100D20000B010C010E010F0110011201130115013D
:100D30001601180119011B011D011E0120012201CC
:100D400024012501270129012B012D012F0131014A
:100D500033013501370139013B013E0140014201B8
:100D60004401470149014C014E0151015301560113
:100D700058015B015E0160016301660169016C015C
:100D80006F017201750178017B017E01820185018D
:100D900088018C018F019201960199019D01A101A9
:100DA000A401A801AC01B001B401B801BC01C001AB
:100DB000C401C801CD01D101D501DA01DE01E30191
:100DC000E801EC01F101F601FB01000205020A0253
:100DD0000F0214021A021F0225022A0230023602F2
:100DE0003B02410247024D0253025A026002660270
:100DF0006D0273027A02810288028F0296029D02BE
:100E0000A402AB02B302BA02C202CA02D202DA02DE
:100E1000E202EA02F202FB0204030C0315031E03C2
:100E2000270331033A0343034D03570361036B0365
:100E3000750380038A039503A003AB03B603C103C4
:100E4000CD03D803E403E603E603E603E603E60383
:100E5000E603E603E603E603E603E603E603E6034A
:100E6000E603E603E603E603E603E603E603E6033A
:100E7000E603E603E603E603780369035B034D0339
:100E80003F033203250318030B03FF02F302E702BB
:100E9000DC02D002C502BB02B002A6029C02920292
:100EA00088027F0276026D0264025B0253024B02EB
:100EB00043023B0234022C0225021E0217021102D9
:100EC0000A020402FE01F801F201EC01E701E2016D
:100ED000DD01D701D301CE01C901C501C001BC01AB
:100EE000B801B401B001AD01A901A601A2019F01A1
:100EF0009C0199019601930191018E018C01890158
:100F000087018501830181017F017D017B017901D9
:100F10007801760175017301720171016F016E0133
:100F20006D016C016B016A0169016901680167016A
:100F30006701660166016501650164016401640180
:100F40006401630163016301630163016301630180
:100F5000630163016301630163016401640164016E
:100F6000640165016501650166016601660167014D
:100F70006701680168016801690169016A016A0124
:100F80006B016B016C016D016D016E016E016F01F2
:100F90006F017001710171017201720173017301BE
:100FA0007401750175017601760177017801780188
:100FB000790179017A017B017B017C017C017D0152
:100FC0007E017E017F017F0180018001810181011D
:100FD00082018201830183018401840185018501ED
:100FE00086018601870187018801880188018901BE
:100FF00089018A018A018A018B018B018C018C0194
:101000008C018D018D018D018E018E018E018F016C
:101010008F018F018F01900190019001900191014A
:10102000910191019101920192019201920192012B
:10103000930193019301930193019401940194010D
:1010400094019401940194019501950195019501F4
:1010500095019501960196019601960196019601DA
:1010600096019701970197019701970197019701C1
:1010700098019801980198019801980199019901A6
:101080009901990199019A019A019A019A019B018A
:101090009B019B019B019C019C019C019C019D016A
:1010A0009D019D019E019E019E019F019F01A00146
:1010B000A001A101A101A101A201A201A301A3011B
:1010C000A401A401A501A601A601A701A701A801E9
:1010D000A901A901AA01AB01AC01AC01AD01AE01AE
:1010E000AF01B001B101B101B201B301B401B50169
:1010F000B601B701B801B901BA01BC01BD01BE0119
:10110000BF01C001C101C301C401C501C701C801BC
:10111000C901CB01CC01CE01CF01D101D301D40152
:10112000D601D701D901DB01DD01DE01E001E201D9
:10113000E401E601E801EA01EC01EE01F001F2014F
:10114000F401F601F901FB01FD01FF0102020402B5
:10115000070209020B020E02110213021602180204
:101160001B021E0221022402260229022C022F0247
:101170003202350238023B023F0242024502480277
:101180004C024F025202560259025D026002640292
:1011900068026B026F02730277027A027E02820299
:1011A00086028A028E02920296029B029F02A3028C
:1011B000A702AC02B002B502B902BE02C202C70267
:1011C000CB02D002D502DA02DE02E302E802ED022F
:1011D000F202F702FC02010307030C0311031603DA
:1011E0001C03210327032C03320337033D0342036F
:1011F00048034E03540359035F0365036B037103F4
:1012000077037D0384038A03900396039D03A3035E
:10121000AA03B003B703BD03C403CA03D103D803B1
:10122000DF03E503E603E603E603E603E603E6037E
:10123000E603E603E603E603E603E603E603E60366
:10124000E603E603E603E603E603E603E603E60356
:10125000E603E603E603E603E603E603E603E60346
:10126000B603A2038E037B036803560344033203D1
:10127000210310030003F002E002D002C102B20217
:10128000A402960288027B026D02600254024802A8
:101290003C023002240219020E020402F901EF019D
:1012A000E501DC01D201C901C001B801AF01A7010C
:1012B0009F0197019001880181017A0173016D01FD
:1012C000660160015A0154014E01490144013E0189
:1012D0003901350130012B01270123011E011A01BB
:1012E000170113010F010C01080105010201FF00A4
:1012F000FC00FA00F700F400F200F000ED00EB0053
:10130000E900E700E500E400E200E000DF00DD00C6
:10131000DC00DB00D900D800D700D600D500D4000F
:10132000D300D300D200D100D100D000D000CF0034
:10133000CF00CE00CE00CE00CE00CD00CD00CD003F
:10134000CD00CD00CD00CD00CD00CD00CD00CE0034
:10135000CE00CE00CE00CE00CF00CF00CF00D00018
:10136000D000D000D100D100D200D200D300D300F1
:10137000D300D400D400D500D600D600D700D700C3
:10138000D800D800D900D900DA00DA00DB00DC0090
:10139000DC00DD00DD00DE00DF00DF00E000E0005B
:1013A000E100E100E200E300E300E400E400E50026
:1013B000E500E600E600E700E700E800E800E900F5
:1013C000E900EA00EA00EB00EB00EC00EC00ED00C5
:1013D000ED00EE00EE00EE00EF00EF00F000F00098
:1013E000F000F100F100F200F200F200F300F3006F
:1013F000F300F300F400F400F400F500F500F5004C
:10140000F500F600F600F600F600F700F700F7002A
:10141000F700F700F800F800F800F800F800F8000E
:10142000F900F900F900F900F900F900F900F900F4
:10143000FA00FA00FA00FA00FA00FA00FA00FA00DC
:10144000FA00FA00FB00FB00FB00FB00FB00FB00C6
:10145000FB00FB00FB00FB00FB00FB00FC00FC00B2
:10146000FC00FC00FC00FC00FC00FC00FC00FC009C
:10147000FC00FD00FD00FD00FD00FD00FD00FD0085
:10148000FE00FE00FE00FE00FE00FE00FF00FF006A
:10149000FF00FF0000010001000100010101010146
:1014A0000101010102010201020103010301040122
:1014B00004010401050105010601060107010701F8
:1014C00008010801090109010A010A010B010C01C7
:1014D0000C010D010E010E010F011001110111018E
:1014E000120113011401150116011601170118014B
:1014F00019011A011B011C011E011F0120012101FC
:101500002201230125012601270128012A012B019F
:101510002D012E012F013101320134013601370135
:1015200039013B013C013E014001420144014501BA
:10153000470149014B014D014F0152015401560130
:1015400058015A015D015F01610164016601690191
:101550006B016E0171017301760179017C017F01DC
:101560008201850188018B018E019101940197010F
:101570009B019E01A201A501A901AC01B001B4012A
:10158000B701BB01BF01C301C701CB01CF01D3012B
:10159000D801DC01E001E501E901EE01F301F70109
:1015A000FC01010206020B02100215021B022002BE
:1015B00025022B02300236023C02410247024D0254
:1015C00053025A02600266026D0273027A028002BE
:1015D00087028E0295029C02A302AB02B202B902FC
:1015E000C102C902D102D902E102E902F102F90203
:1015F00002030B0313031C0325032E0338034103CB
:101600004A0354035E03680372037C038603910359
:101610009C03A603B103BC03C803D303DE03E603A4
:10162000E603E603E603E603E603E603E603E60372
:10163000E603E603E603E603E603E603E603E60362
:10164000E603E603E603E603CA03B703A503930331
:10165000810370035F034E033E032F031F03110337
:101660000203F402E602D802CB02BF02B202A602D3
:101670009A028F02830279026E0264025A025002B9
:1016800046023D0234022C0223021B0213020C020A
:101690000402FD01F601EF01E901E201DC01D601DE
:1016A000D101CB01C601C101BC01B701B301AE013B
:1016B000AA01A601A2019E019B019701940191013B
:1016C0008E018B0188018601830181017E017C01ED
:1016D0007A017801770175017301720170016F0160
:1016E0006E016D016C016B016A016901690168019C
:1016F00067016701660166016601660165016501B2
:1017000065016501650165016501660166016601A6
:101710006601670167016801680168016901690183
:101720006A016B016B016C016D016D016E016F014E
:101730006F01700171017201720173017401750111
:10174000760176017701780179017A017A017B01CE
:101750007C017D017E017F017F0180018101820189
:101760008301840184018501860187018801880144
:1017700089018A018A018B018C018D018D018E0105
:101780008F018F01900191019101920192019301CA
:101790009301940195019501960196019701970196
:1017A0009701980198019901990199019A019A016B
:1017B0009A019B019B019B019C019C019C019C0146
:1017C0009C019D019D019D019D019D019D019E0129
:1017D0009E019E019E019E019E019E019E019E0111
:1017E0009E019E019E019E019E019E019E019E0101
:1017F0009E019E019E019E019E019E019D019D01F3
:101800009D019D019D019D019D019D019D019C01E9
:101810009C019C019C019C019C019C019B019B01E2
:101820009B019B019B019B019B019B019A019A01DA
:101830009A019A019A019A019A019A019A019A01D0
:101840009A019901990199019901990199019901C7
:1018500099019901990199019A019A019A019A01B4
:101860009A019A019A019A019A019B019B019B019D
:101870009B019C019C019C019C019D019D019E017D
:101880009E019E019F019F01A001A001A101A10154
:10189000A201A201A301A401A401A501A601A60120
:1018A000A701A801A901AA01AA01AB01AC01AD01E0
:1018B000AE01AF01B001B101B201B301B401B60193
:1018C000B701B801B901BB01BC01BD01BF01C00135
:1018D000C101C301C401C601C701C901CB01CC01CB
:1018E000CE01D001D101D301D501D701D901DB014E
:1018F000DD01DF01E101E301E501E701E901EB01C0
:10190000ED01F001F201F401F701F901FB01FE0123
:1019100000020302050208020B020D02100213026C
:10192000160218021B021E022102240227022A02AA
:101930002D0230023302360239023D0240024302D8
:1019400047024A024D025102540258025B025F02F2
:10195000620266026A026D027102750279027D02FC
:101960008102840288028C029002950299029D02F3
:10197000A102A502A902AE02B202B602BB02BF02D8
:10198000C402C802CD02D102D602DA02DF02E402AA
:10199000E802ED02F202F702FC02010305030A036A
:1019A0000F0315031A031F03240329032E03340313
:1019B00039033E03430349034E03540359035F03B2
:1019C00064036A03700375037B03810387038D033C
:1019D000920398039E03A403AA03B003B703BD03B5
:1019E000C303C903CF03D603DC03E303E603E60323
:1019F000E603E603E603E603E603E603E603E6039F
:101A0000E603E603E603E603E603E603E603E6038E
:101A1000E603E603E603E603E603E603E603E6037E
:101A2000E603E603E603E603E603E603E603E6036E
:101A30006F035903440330031B030803F502E2025A
:101A4000D002BE02AD029C028B027B026C025C02E1
:101A50004E023F023102230216020902FD01F0018B
:101A6000E501D901CE01C301B801AE01A4019B017A
:101A7000910188017F0177016F0167015F015801C2
:101A80005001490143013C01360130012A01250181
:101A90001F011A01150110010C0107010301FF00CC
:101AA000FB00F700F400F000ED00EA00E700E400BE
:101AB000E100DF00DC00DA00D800D600D400D2005C
:101AC000D100CF00CE00CC00CB00CA00C900C800B6
:101AD000C700C600C500C500C400C400C300C300E1
:101AE000C300C300C200C200C200C200C200C300E3
:101AF000C300C300C300C400C400C400C500C500C7
:101B0000C600C600C700C700C800C900C900CA0097
:101B1000CB00CB00CC00CD00CE00CE00CF00D0005B
:101B2000D100D200D300D300D400D500D600D70016
:101B3000D800D900DA00DA00DB00DC00DD00DE00CE
:101B4000DF00E000E000E100E200E300E400E50087
:101B5000E500E600E700E800E800E900EA00EB0045
:101B6000EB00EC00ED00ED00EE00EF00EF00F00008
:101B7000F100F100F200F200F300F300F400F400D1
:101B8000F500F500F600F600F600F700F700F700A4
:101B9000F800F800F800F900F900F900F900FA007F
:101BA000FA00FA00FA00FA00FA00FB00FB00FB0062
:101BB000FB00FB00FB00FB00FB00FB00FB00FB004D
:101BC000FB00FB00FB00FB00FB00FB00FA00FA003F
:101BD000FA00FA00FA00FA00FA00F900F900F90038
:101BE000F900F900F800F800F800F800F700F70035
:101BF000F700F700F600F600F600F500F500F50036
:101C0000F500F400F400F400F300F300F300F20038
:101C1000F200F200F100F100F100F100F000F0003C
:101C2000F000EF00EF00EF00EE00EE00EE00EE003F
:101C3000ED00ED00ED00ED00EC00EC00EC00EC0040
:101C4000EB00EB00EB00EB00EB00EB00EA00EA003E
:101C5000EA00EA00EA00EA00EA00EA00EA00E90035
:101C6000E900E900E900E900E900E900E900EA002B
:101C7000EA00EA00EA00EA00EA00EA00EA00EB0013
:101C8000EB00EB00EB00EC00EC00EC00ED00ED00F5
:101C9000ED00EE00EE00EE00EF00EF00F000F000CF
:101CA000F100F100F200F300F300F400F400F5009D
:101CB000F600F700F700F800F900FA00FB00FC005E
:101CC000FC00FD00FE00FF00000101010201040113
:101CD000050106010701080109010B010C010D01B5
:101CE0000F0110011101130114011601170119014F
:101CF0001B011C011E0120012101230125012701D7
:101D000029012B012C012E0130013301350137014E
:101D100039013B013D0140014201440147014901B4
:101D20004C014E0151015301560159015C015E0104
:101D30006101640167016A016D017001730176013F
:101D40007A017D018001840187018B018E0192015E
:101D5000950199019D01A101A501A901AD01B10163
:101D6000B501B901BD01C201C601CB01CF01D4014A
:101D7000D901DD01E201E701EC01F101F601FC010D
:101D8000010206020C02120217021D02230229029E
:101D90002F0235023B02420248024F0255025C020A
:101DA00063026A0271027802800287028F02960241
:101DB0009E02A602AE02B602BF02C702D002D9023C
:101DC000E102EA02F402FD02060310031A032403EF
:101DD0002E03380343034D03580363036E03790353
:101DE000850391039D03A903B503C103CE03DB0360
:101DF000E603E603E603E603E603E603E603E6039B
:101E0000E603E603E603E603E603E603E603E6038A
:101E1000E603E603E603E6037C036D035E034F037C
:101E200041033303250318030B03FE02F102E5020D
:101E3000D902CE02C202B702AC02A20298028D02FF
:101E400084027A02710268025F0256024E02460262
:101E50003E0236022E0227022002190212020C0252
:101E60000502FF01F901F301EE01E801E301DE01E2
:101E7000D901D401CF01CB01C601C201BE01BA0113
:101E8000B601B301AF01AC01A801A501A2019F01F8
:101E90009C019A0197019501920190018E018C019C
:101EA0008A018801860184018301810180017E010C
:101EB0007D017C017B017901780178017701760150
:101EC0007501740174017301730172017201710172
:101ED0007101710171017001700170017001700177
:101EE0007001700170017001710171017101710166
:101EF0007101720172017201730173017401740145
:101F00007401750175017601760177017701780119
:101F1000790179017A017A017B017B017C017D01E4
:101F20007D017E017F017F018001800181018201AD
:101F30008201830184018401850185018601870175
:101F400087018801880189018A018A018B018B013F
:101F50008C018D018D018E018E018F018F01900109
:101F600090019101910192019201930193019301DA
:101F700094019401950195019501960196019701AF
:101F80009701970198019801980198019901990189
:101F900099019A019A019A019A019A019B019B0168
:101FA0009B019B019B019C019C019C019C019C014C
:101FB0009C019C019C019C019D019D019D019D0135
:101FC0009D019D019D019D019D019D019D019D0121
:101FD0009D019D019D019D019D019D019D019D0111
:101FE0009D019D019D019D019D019D019D019D0101
:101FF0009D019D019D019D019D019D019D019D01F1
:102000009D019D019D019D019D019D019D019D01E0
:102010009D019D019D019D019D019D019D019D01D0
:102020009D019D019D019E019E019E019E019E01BB
:102030009E019E019F019F019F019F019F01A001A1
:10204000A001A001A001A101A101A101A201A20181
:10205000A301A301A301A401A401A501A501A60157
:10206000A601A701A701A801A901A901AA01AA0126
:10207000AB01AC01AD01AD01AE01AF01B001B101E9
:10208000B201B201B301B401B501B601B701B801A3
:10209000B901BB01BC01BD01BE01BF01C101C2014B
:1020A000C301C401C601C701C901CA01CC01CD01E8
:1020B000CF01D001D201D301D501D701D801DA0176
:1020C000DC01DE01E001E101E301E501E701E901F5
:1020D000EB01ED01F001F201F401F601F801FB0161
:1020E000FD01FF0102020402070209020C020E02B6
:1020F00011021302160219021B021E0221022402FF
:1021000027022A022D0230023302360239023C0233
:102110003F024202460249024C025002530256025A
:102120005A025D026102650268026C026F0273026C
:1021300077027B027F02820286028A028E0292026C
:1021400096029B029F02A302A702AB02B002B40256
:10215000B802BD02C102C602CA02CF02D302D8022F
:10216000DD02E102E602EB02F002F402F902FE02F5
:10217000030308030D03120317031D0322032703A0
:102180002C03310337033C03420347034C03520340
:1021900058035D03630368036E0374037A037F03CC
:1021A00085038B03910397039D03A303A903AF0347
:1021B000B503BB03C103C803CE03D403DB03E103B0
:1021C000E603E603E603E603E603E603E603E603C7
:1021D000E603E603E603E603E603E603E603E603B7
:1021E000E603E603E603E603E603E603E603E603A7
:1021F000E603E603E603E603E603E603E603E60397
:102200002B0318030703F502E402D302C302B3024F
:10221000A40294028602770269025B024E02410226
:10222000340227021B020F020402F901EE01E3014E
:10223000D901CF01C501BB01B201A901A0019701DC
:102240008F0187017F0178017001690162015B01E3
:1022500055014E01480142013C01370131012C0179
:10226000270122011D011901140110010C010801AF
:1022700004010101FD00FA00F600F300F000ED009A
:10228000EA00E800E500E300E000DE00DC00DA0040
:10229000D800D600D400D300D100D000CE00CD00AD
:1022A000CC00CA00C900C800C700C600C600C500EF
:1022B000C400C300C300C200C200C100C100C0000E
:1022C000C000C000C000C000BF00BF00BF00BF0012
:1022D000BF00BF00BF00BF00BF00C000C000C00003
:1022E000C000C000C100C100C100C200C200C200E5
:1022F000C300C300C300C400C400C500C500C600BD
:10230000C600C600C700C700C800C800C900C90091
:10231000CA00CA00CB00CB00CC00CC00CD00CD0061
:10232000CE00CE00CF00CF00D000D000D100D10031
:10233000D100D200D200D300D300D400D400D40006
:10234000D500D500D600D600D600D700D700D700DC
:10235000D800D800D800D900D900D900DA00DA00B6
:10236000DA00DB00DB00DB00DB00DB00DC00DC0094
:10237000DC00DC00DC00DD00DD00DD00DD00DD0078
:10238000DD00DE00DE00DE00DE00DE00DE00DE005E
:10239000DE00DE00DE00DE00DE00DE00DE00DE004D
:1023A000DE00DE00DE00DE00DE00DE00DE00DE003D
:1023B000DE00DE00DE00DE00DE00DE00DE00DE002D
:1023C000DE00DE00DE00DE00DE00DE00DE00DE001D
:1023D000DE00DE00DD00DD00DD00DD00DD00DD0013
:1023E000DD00DD00DD00DD00DD00DD00DD00DD0005
:1023F000DD00DD00DC00DC00DC00DC00DC00DC00FB
:10240000DC00DC00DC00DC00DC00DC00DC00DC00EC
:10241000DC00DC00DC00DC00DC00DD00DD00DD00D9
:10242000DD00DD00DD00DD00DD00DD00DD00DE00C3
:10243000DE00DE00DE00DE00DF00DF00DF00DF00A8
:10244000DF00E000E000E000E100E100E100E20088
:10245000E200E200E300E300E300E400E400E50062
:10246000E500E600E600E700E700E800E800E90034
:10247000E900EA00EB00EB00EC00ED00ED00EE00FF
:10248000EF00F000F000F100F200F300F400F500BE
:10249000F500F600F700F800F900FA00FB00FC0078
:1024A000FD00FE000001010102010301040106011B
:1024B0000701080109010B010C010E010F011001B8
:1024C000120113011501160118011A011B011D014A
:1024D0001F01200122012401260128012A012C01CB
:1024E0002E01300132013401360138013A013C013C
:1024F0003F0141014301460148014B014D0150019B
:102500005201550158015B015D01600163016601E3
:1025100069016C016F017201750179017C017F0114
:10252000830186018A018D019101950199019C0128
:10253000A001A401A801AC01B101B501B901BE011E
:10254000C201C701CB01D001D501DA01DF01E401ED
:10255000E901EE01F301F901FE01040209020F0293
:1025600015021B02210227022E0234023A02410206
:1025700048024F0256025D0264026B0273027A0245
:1025800082028A0292029A02A202AA02B302BB0249
:10259000C402CD02D602E002E902F302FC02060305
:1025A00010031B03250330033A03450351035C0367
:1025B000670373037F038B039803A403B103BE0374
:1025C000CB03D803E603E603E603E603E603E603EC
:1025D000E603E603E603E603E603E603E603E603B3
:1025E000E603E603E603E603CA03B803A503940380
:1025F0008203710361035103410332032303140374
:102600000603F802EB02DE02D102C502B902AD02F6
:10261000A20297028C02820278026E0265025B02BD
:1026200053024A024102390232022A0223021B02E9
:1026300015020E0208020102FB01F601F001EB0196
:10264000E501E101DC01D701D301CF01CA01C701D6
:10265000C301BF01BC01B901B501B301B001AD01B6
:10266000AA01A801A601A401A101A0019E019C014B
:102670009A019901970196019501940193019201A4
:10268000910190018F018F018E018E018D018D01CD
:102690008D018C018C018C018C018C018C018C01D1
:1026A0008C018C018D018D018D018D018E018E01BA
:1026B0008F018F019001900191019101920192018E
:1026C000930193019401950195019601970197015A
:1026D000980199019A019A019B019C019D019D011C
:1026E0009E019F019F01A001A101A201A201A301DE
:1026F000A401A401A501A601A701A701A801A901A0
:10270000A901AA01AA01AB01AC01AC01AD01AD0167
:10271000AE01AE01AF01AF01B001B001B101B10135
:10272000B201B201B201B301B301B301B401B4010A
:10273000B401B501B501B501B501B601B601B601E7
:10274000B601B601B701B701B701B701B701B701CB
:10275000B701B701B701B701B701B701B701B701B9
:10276000B701B701B701B701B701B701B601B601AB
:10277000B601B601B601B601B501B501B501B501A5
:10278000B501B401B401B401B401B401B301B301A2
:10279000B301B301B201B201B201B101B101B101A2
:1027A000B101B001B001B001B001AF01AF01AF01A3
:1027B000AF01AE01AE01AE01AE01AD01AD01AD01A3
:1027C000AD01AC01AC01AC01AC01AC01AB01AB01A2
:1027D000AB01AB01AB01AB01AB01AB01AA01AA019B
:1027E000AA01AA01AA01AA01AA01AA01AA01AA0191
:1027F000AA01AB01AB01AB01AB01AB01AB01AB017A
:10280000AC01AC01AC01AC01AD01AD01AD01AE015B
:10281000AE01AF01AF01AF01B001B001B101B20132
:10282000B201B301B301B401B501B501B601B701FD
:10283000B801B801B901BA01BB01BC01BD01BE01BB
:10284000BF01C001C101C201C301C401C601C7016A
:10285000C801C901CB01CC01CD01CF01D001D2010A
:10286000D301D501D601D801D901DB01DD01DE019B
:10287000E001E201E401E501E701E901EB01ED011D
:10288000EF01F101F301F501F701F901FC01FE018E
:10289000000202020502070209020C020E021002E7
:1028A0001302150218021B021D0220022202250239
:1028B00028022B022D0230023302360239023C027A
:1028C0003F024202450248024B024E0251025402AC
:1028D00057025B025E026102640268026B026E02D2
:1028E0007202750279027C028002830287028A02E8
:1028F0008E029102950299029C02A002A402A802F3
:10290000AB02AF02B302B702BB02BF02C302C602F0
:10291000CA02CE02D202D602DB02DF02E302E702E3
:10292000EB02EF02F302F702FC02000304030803C8
:102930000D03110315031A031E03230327032B039F
:102940003003340339033D03420346034B03500372
:10295000540359035D03620367036C03700375033B
:102960007A037F03830388038D03920397039C03F9
:10297000A103A603AB03B003B503BA03BF03C403AB
:10298000C903CF03D403D903DE03E403E603E6035C
:10299000E603E603E603E603E603E603E603E603EF
:1029A000E603E603E603E603E603E603E603E603DF
:1029B000E603E603E603E603E603E603E603E603CF
:1029C000E603E603E603E603E603E603E603E603BF
:1029D000DC03C403AD03970381036B035703420376
:1029E0002E031B030803F602E402D302C202B20262
:1029F000A202920283027402660258024A023D0257
:102A00003102240218020D020102F601EC01E2017A
:102A1000D801CE01C501BC01B301AB01A2019B01EC
:102A200093018C0185017E01770171016B016501C4
:102A30005F015A01550150014B01460142013E011F
:102A40003A01360132012F012B0128012501220113
:102A500020011D011B0118011601140112011001B2
:102A60000F010D010C010A0109010801070106010E
:102A70000501040104010301030102010201010136
:102A80000101010101010101010101010101010136
:102A9000010101010201020102010301030104011C
:102AA00004010401050106010601070107010801EF
:102AB000090109010A010B010B010C010D010D01B6
:102AC0000E010F0110011001110112011301130178
:102AD0001401150116011601170118011801190139
:102AE0001A011A011B011C011C011D011D011E01FF
:102AF0001F011F01200120012101210122012201CA
:102B0000230123012301240124012501250125019D
:102B10002601260126012601270127012701270179
:102B2000270127012801280128012801280128015F
:102B3000280128012801280128012801270127014F
:102B40002701270127012701270126012601260148
:102B50002601250125012501250124012401240147
:102B6000230123012201220122012101210120014F
:102B7000200120011F011F011E011E011D011D0159
:102B80001C011C011C011B011B011A011A01190166
:102B90001901180118011701170116011601150175
:102BA0001501140114011401130113011201120182
:102BB000110111011101100110010F010F010F018D
:102BC0000E010E010E010D010D010D010C010C0194
:102BD0000C010C010C010B010B010B010B010B0192
:102BE0000B010A010A010A010A010A010A010A018C
:102BF0000A010A010A010A010B010B010B010B0179
:102C00000B010B010C010C010C010D010D010D015B
:102C10000E010E010E010F010F0110011001110133
:102C200012011201130114011401150116011601FC
:102C30001701180119011A011B011C011D011E01B8
:102C40001F01200121012201230124012601270166
:102C5000280129012B012C012D012F013001320106
:102C600033013501360138013A013B013D013F0195
:102C7000400142014401460148014A014B014D0116
:102C80004F0151015401560158015A015C015E0186
:102C900061016301650167016A016C016F017101E6
:102CA0007401760179017B017E0181018301860136
:102CB00089018C018E019101940197019A019D0176
:102CC000A001A301A601A901AD01B001B301B601A4
:102CD000BA01BD01C001C401C701CB01CE01D201BF
:102CE000D501D901DD01E101E401E801EC01F001C8
:102CF000F401F801FC010002040208020C021002B7
:102D0000150219021D02220226022B022F02340292
:102D100038023D02420247024C02500255025A025A
:102D2000600265026A026F0274027A027F02850203
:102D30008A02900296029B02A102A702AD02B30290
:102D4000B902C002C602CC02D302D902E002E602F6
:102D5000ED02F402FB0202030903110318031F032F
:102D600027032F0336033E0346034E0356035F0338
:102D700067037003780381038A0393039C03A6030C
:102D8000AF03B903C203CC03D603E103E603E603B2
:102D9000E603E603E603E603E603E603E603E603EB
:102DA000E603E603E603E603E603E603E603E603DB
:102DB000E603E603E603E6039A038A037A036B035A
:102DC0005C034E033F033103240316030903FD0292
:102DD000F002E402D802CD02C202B702AC02A102A4
:102DE00097028D0284027A02710268025F02570222
:102DF0004F0246023F0237023002280221021B0224
:102E000014020E0208020102FC01F601F001EB01BE
:102E1000E601E101DC01D701D301CF01CA01C601FE
:102E2000C201BF01BB01B701B401B101AE01AB01E9
:102E3000A801A501A201A0019D019B019901970193
:102E40009501930191018F018D018C018A01890106
:102E5000880186018501840183018201810180014D
:102E600080017F017E017E017D017D017C017C016D
:102E70007C017B017B017B017B017B017B017B0171
:102E80007B017B017B017B017B017C017C017C015F
:102E90007C017D017D017E017E017E017F017F013C
:102EA000800180018101810182018201830184010D
:102EB00084018501850186018701870188018901D7
:102EC00089018A018B018B018C018D018D018E019D
:102ED0008F0190019001910192019201930194015F
:102EE0009401950196019601970198019801990125
:102EF00099019A019B019B019C019D019D019E01ED
:102F00009E019F019F01A001A001A101A101A201B9
:102F1000A201A301A301A401A401A501A501A60189
:102F2000A601A601A701A701A801A801A801A9015E
:102F3000A901A901AA01AA01AA01AB01AB01AB0138
:102F4000AB01AC01AC01AC01AC01AD01AD01AD0117
:102F5000AD01AD01AD01AE01AE01AE01AE01AE01FC
:102F6000AE01AE01AF01AF01AF01AF01AF01AF01E3
:102F7000AF01AF01AF01AF01B001B001B001B001CD
:102F8000B001B001B001B001B001B001B001B001B9
:102F9000B001B001B001B001B101B101B101B101A5
:102FA000B101B101B101B101B101B101B101B10191
:102FB000B101B201B201B201B201B201B201B2017A
:102FC000B301B301B301B301B301B301B401B4015F
:102FD000B401B401B501B501B501B501B601B60141
:102FE000B601B701B701B701B801B801B801B9011D
:102FF000B901BA01BA01BB01BB01BC01BC01BD01F1
:10300000BD01BE01BF01BF01C001C101C101C201BB
:10301000C301C301C401C501C601C701C701C8017D
:10302000C901CA01CB01CC01CD01CE01CF01D00134
:10303000D101D201D301D401D601D701D801D901E0
:10304000DB01DC01DD01DF01E001E101E301E4017D
:10305000E601E701E901EA01EC01EE01EF01F1010E
:10306000F301F401F601F801FA01FC01FD01FF0191
:10307000010203020502070209020B020E021002FE
:1030800012021402160219021B021D022002220261
:10309000250227022A022C022F02310234023702B3
:1030A00039023C023F024202440247024A024D02F8
:1030B00050025302560259025C025F02620266022B
:1030C00069026C026F027302760279027D0280024D
:1030D000840287028B028E029202960299029D025E
:1030E000A102A502A802AC02B002B402B802BC025E
:1030F000C002C402C802CC02D002D502D902DD024D
:10310000E102E602EA02EE02F302F702FC02000329
:10311000050309030E03130317031C0321032603EE
:103120002B032F03340339033E03430348034D03AA
:10313000530358035D03620367036D037203770350
:103140007D03820388038D03930398039E03A403E6
:10315000A903AF03B503BB03C003C603CC03D2036B
:10316000D803DE03E403E603E603E603E603E6032F
:10317000E603E603E603E603E603E603E603E60307
:10318000E603E603E603E603E603E603E603E603F7
:10319000E603E603E603E603E603E603E603E603E7
:1031A0007A036703540341032F031D030C03FB023F
:1031B000EA02DA02CB02BB02AC029E028F0282025A
:1031C000740267025A024E02410236022A021F02AC
:1031D00014020902FF01F501EB01E101D801CF0161
:1031E000C601BE01B601AE01A6019F019701900183
:1031F0008A0183017D01760170016B016501600127
:103200005B01560151014C01480143013F013B0163
:103210003701340130012D0129012601230120014C
:103220001E011B01190116011401120110010E01EA
:103230000C010B010901070106010501030102014F
:1032400001010001FF00FF00FE00FD00FD00FC0089
:10325000FB00FB00FB00FA00FA00FA00FA00FA009B
:10326000FA00FA00FA00FA00FA00FA00FA00FB008D
:10327000FB00FB00FC00FC00FD00FD00FD00FE006B
:10328000FE00FF0000010001010101010201030134
:1032900003010401050105010601070108010801F8
:1032A00009010A010B010B010C010D010E010E01B8
:1032B0000F01100111011201120113011401150176
:1032C0001501160117011801180119011A011A0137
:1032D0001B011C011C011D011E011E011F012001FB
:1032E00020012101220122012301230124012401C3
:1032F0002501250126012601270127012801280192
:10330000290129012A012A012A012B012B012B0164
:103310002C012C012C012D012D012D012D012E013F
:103320002E012E012E012F012F012F012F012F0120
:103330002F01300130013001300130013001300106
:1033400030013001300130013001300130013001F5
:1033500030013001300130013001300130013001E5
:1033600030013001300130013001300130013001D5
:1033700030013001300130013001300130012F01C6
:103380002F012F012F012F012F012F012F012F01BD
:103390002F012F012F012F012F012F012F012F01AD
:1033A0002F012F012F012F012F012F012F012F019D
:1033B0002F012F012F012F012F012F012F012F018D
:1033C0002F012F0130013001300130013001300177
:1033D0003101310131013101320132013201320159
:1033E0003301330133013401340135013501350135
:1033F00036013601370137013801380139013A0108
:103400003A013B013B013C013D013D013E013F01D1
:103410004001400141014201430144014501450190
:1034200046014701480149014A014B014C014E0147
:103430004F015001510152015301550156015701ED
:1034400059015A015B015D015E0160016101630187
:1034500064016601670169016B016C016E01700115
:10346000720173017501770179017B017D017F0193
:1034700081018301850187018A018C018E01900100
:103480009301950197019A019C019F01A101A4015B
:10349000A601A901AC01AE01B101B401B701BA01A5
:1034A000BD01C001C301C601C901CC01CF01D201D8
:1034B000D501D901DC01DF01E301E601EA01EE01FA
:1034C000F101F501F901FC010002040208020C02FD
:1034D0001002140218021C022102250229022E02E7
:1034E000320237023C02400245024A024F025402B5
:1034F00059025E02630268026D02730278027D0265
:10350000830289028E0294029A02A002A602AC02F1
:10351000B202B902BF02C502CC02D202D902E00255
:10352000E702EE02F502FC0203030B0312031A0387
:10353000220329033103390341034A0352035A0387
:1035400063036C0375037E03870390039903A3034E
:10355000AC03B603C003CA03D403DE03E603E603E9
:10356000E603E603E603E603E603E603E603E60313
:10357000E603E603E603E603E603E603E603E60303
:10358000E603E603E603E603DD03C903B503A1038F
:103590008E037B0369035703460335032503150395
:1035A0000503F602E702D902CB02BE02B102A40271
:1035B00097028B028002740269025F0254024A027F
:1035C000410237022E0226021D0215020D020502DB
:1035D000FE01F701F001E901E301DD01D701D101AD
:1035E000CB01C601C101BC01B801B301AF01AB0100
:1035F000A701A301A0019C019901960193019101EA
:103600008E018C018901870185018301810180017F
:103610007E017D017C017A017901780177017701D2
:1036200076017501750174017401740174017301EF
:1036300073017301730174017401740174017501E4
:1036400075017501760176017701780178017901BC
:103650007A017B017B017C017D017E017F0180017C
:103660008101810182018301840185018601870135
:10367000880189018B018C018D018E018F019001E0
:10368000910192019301940195019601970198018E
:1036900099019A019B019C019D019E019F01A0013E
:1036A000A101A201A301A301A401A501A601A701F3
:1036B000A801A801A901AA01AB01AB01AC01AD01B0
:1036C000AD01AE01AF01AF01B001B001B101B10177
:1036D000B201B201B301B301B401B401B501B50146
:1036E000B501B601B601B601B601B701B701B70120
:1036F000B701B801B801B801B801B801B801B80103
:10370000B801B801B801B801B801B801B801B801F1
:10371000B801B801B801B801B801B801B801B801E1
:10372000B801B701B701B701B701B701B601B601DA
:10373000B601B601B601B501B501B501B501B401D7
:10374000B401B401B401B301B301B301B301B201D7
:10375000B201B201B201B101B101B101B101B001D7
:10376000B001B001B001B001AF01AF01AF01AF01D5
:10377000AF01AE01AE01AE01AE01AE01AE01AE01D0
:10378000AE01AE01AD01AD01AD01AD01AD01AD01C7
:10379000AD01AD01AE01AE01AE01AE01AE01AE01B3
:1037A000AE01AE01AF01AF01AF01AF01B001B00199
:1037B000B001B101B101B101B201B201B301B30174
:1037C000B401B401B501B601B601B701B801B80141
:1037D000B901BA01BB01BB01BC01BD01BE01BF0102
:1037E000C001C101C201C301C401C501C601C701B5
:1037F000C901CA01CB01CC01CE01CF01D001D20158
:10380000D301D501D601D801D901DB01DD01DE01EB
:10381000E001E201E401E501E701E901EB01ED016D
:10382000EF01F101F301F501F701F901FB01FD01E0
:10383000000202020402060209020B020E0210023A
:103840001202150218021A021D021F02220225028C
:1038500027022A022D0230023302350238023B02CF
:103860003E024102440247024A024E025102540201
:1038700057025A025E026102640268026B026E0223
:103880007202750279027C028002830287028B0237
:103890008E029202960299029D02A102A502A8023E
:1038A000AC02B002B402B802BC02C002C402C80238
:1038B000CC02D002D402D802DD02E102E502E90224
:1038C000ED02F202F602FA02FF02030307030C0301
:1038D0001003150319031E03220327032C033003CF
:1038E000350339033E03430348034C035103560396
:1038F0005B03600365036A036E03730378037D0350
:10390000830388038D03920397039C03A103A703FA
:10391000AC03B103B703BC03C103C703CC03D20399
:10392000D703DD03E303E603E603E603E603E6036A
:10393000E603E603E603E603E603E603E603E6033F
:10394000E603E603E603E603E603E603E603E6032F
:10395000E603E603E603E603E603E603E603E6031F
:10396000E603E603E603E603E603E603E603E6030F
:1039700029031403FF02EA02D602C302B0029E0228
:103980008C027A0269025902490239022A021C0297
:103990000D02FF01F201E501D801CC01C001B50122
:1039A000A9019E0194018A01800176016D016401E3
:1039B0005C0153014B0144013C0135012E012701FB
:1039C00021011B0115010F010A010501FF00FB0088
:1039D000F600F200ED00E900E600E200DE00DB00A8
:1039E000D800D500D200D000CD00CB00C800C60062
:1039F000C400C300C100BF00BE00BC00BB00BA00D1
:103A0000B900B800B700B700B600B500B500B50002
:103A1000B400B400B400B400B400B400B400B40006
:103A2000B400B400B500B500B600B600B700B700EA
:103A3000B800B800B900BA00BA00BB00BC00BD00B5
:103A4000BD00BE00BF00C000C100C200C300C40072
:103A5000C500C600C600C700C800C900CA00CB0028
:103A6000CC00CD00CE00CF00D000D100D200D300DA
:103A7000D400D500D600D700D800D900DA00DA008B
:103A8000DB00DC00DD00DE00DF00DF00E000E10045
:103A9000E200E300E300E400E500E500E600E70003
:103AA000E700E800E800E900EA00EA00EB00EB00CC
:103AB000EC00EC00EC00ED00ED00EE00EE00EE009E
:103AC000EF00EF00EF00EF00F000F000F000F0007A
:103AD000F000F100F100F100F100F100F100F1005F
:103AE000F100F100F100F100F100F100F100F1004E
:103AF000F100F100F100F100F100F000F000F00041
:103B0000F000F000EF00EF00EF00EF00EF00EE003C
:103B1000EE00EE00EE00ED00ED00ED00EC00EC003C
:103B2000EC00EC00EB00EB00EB00EA00EA00EA003E
:103B3000E900E900E900E800E800E800E700E70044
:103B4000E700E600E600E600E500E500E500E50048
:103B5000E400E400E400E300E300E300E300E2004B
:103B6000E200E200E200E100E100E100E100E1004A
:103B7000E000E000E000E000E000E000E000DF0046
:103B8000DF00DF00DF00DF00DF00DF00DF00DF003D
:103B9000DF00DF00DF00DF00E000E000E000E00029
:103BA000E000E000E000E100E100E100E100E2000F
:103BB000E200E200E300E300E300E400E400E400EC
:103BC000E500E500E600E600E700E700E800E900C0
:103BD000E900EA00EA00EB00EC00ED00ED00EE0089
:103BE000EF00F000F000F100F200F300F400F50047
:103BF000F600F700F800F900FA00FB00FC00FD00F9
:103C0000FE00FF000001020103010401050107019C
:103C1000080109010B010C010D010F011001120136
:103C200013011501160118011A011B011D011F01C5
:103C30002001220124012601270129012B012D0148
:103C40002F01310133013501370139013B013D01BC
:103C50003F0142014401460148014B014D014F0122
:103C600052015401570159015C015F016101640176
:103C7000670169016C016F017201750178017B01B7
:103C80007E018101840187018A018E0191019401E5
:103C900098019B019F01A201A601AA01AD01B101FA
:103CA000B501B901BD01C101C501C901CD01D201F3
:103CB000D601DB01DF01E401E801ED01F201F701CA
:103CC000FC01010206020B02110216021B02210274
:103CD00027022D02320238023F0245024B025102F6
:103CE00058025F0265026C0273027A028202890244
:103CF00091029802A002A802B002B802C102C90251
:103D0000D202DB02E402ED02F60200030A0314030E
:103D10001E03280332033D03480353035E036A0373
:103D2000750381038D039A03A603B303C003CD0378
:103D3000DB03E603E603E603E603E603E603E60346
:103D4000E603E603E603E603E603E603E603E6032B
:103D5000E603E603E603E6035E0256024F0247026D
:103D60004002390232022B0224021E021802120201
:103D70000C0206020002FB01F501F001EB01E60175
:103D8000E101DD01D801D401CF01CB01C701C3019D
:103D9000BF01BC01B801B501B101AE01AB01A80181
:103DA000A501A2019F019D019A019701950193012F
:103DB00091018E018C018A018801870185018301AF
:103DC000820180017F017D017C017B017901780105
:103DD000770176017501740173017301720171013C
:103DE000700170016F016F016E016E016D016D0157
:103DF0006D016C016C016C016C016C016C016C015A
:103E00006B016B016B016C016C016C016C016C014D
:103E10006C016C016D016D016D016D016E016E0132
:103E20006E016F016F016F0170017001710171010D
:103E300071017201720173017301740174017501E2
:103E400075017601760177017701780178017901B2
:103E500079017A017B017B017C017C017D017D017F
:103E60007E017E017F017F0180018101810182014C
:103E7000820183018301840184018501850186011A
:103E800086018701870188018801890189018A01EA
:103E90008A018B018B018C018C018D018D018E01BA
:103EA0008E018E018F018F0190019001900191018F
:103EB0009101920192019201930193019301940166
:103EC0009401940195019501950196019601960141
:103ED000970197019701970198019801980198011E
:103EE00099019901990199019A019A019A019A01FE
:103EF0009B019B019B019B019B019C019C019C01DF
:103F00009C019C019D019D019D019D019D019E01C2
:103F10009E019E019E019E019E019F019F019F01A6
:103F20009F019F01A001A001A001A001A001A1018A
:103F3000A101A101A101A201A201A201A201A3016B
:103F4000A301A301A301A401A401A401A401A5014B
:103F5000A501A501A601A601A601A701A701A70128
:103F6000A801A801A801A901A901AA01AA01AB0100
:103F7000AB01AC01AC01AC01AD01AD01AE01AF01D3
:103F8000AF01B001B001B101B101B201B301B301A0
:103F9000B401B501B501B601B701B801B801B90165
:103FA000BA01BB01BC01BD01BD01BE01BF01C00121
:103FB000C101C201C301C401C501C601C701C801D5
:103FC000C901CA01CC01CD01CE01CF01D001D2017E
:103FD000D301D401D601D701D801DA01DB01DD011B
:103FE000DE01E001E101E301E401E601E701E901AD
:103FF000EB01ED01EE01F001F201F401F501F70131
:10400000F901FB01FD01FF010102030205020702A4
:1040100009020B020D02100212021402160219020A
:104020001B021D0220022202250227022A022C0264
:104030002F0231023402370239023C023F024202AF
:10404000440247024A024D025002530256025902EC
:104050005C025F026202650268026C026F02720219
:10406000750279027C028002830286028A028D0236
:104070009102950298029C02A002A302A702AB0241
:10408000AF02B202B602BA02BE02C202C602CA023F
:10409000CE02D202D602DB02DF02E302E702EC022A
:1040A000F002F402F902FD02020306030B030F0300
:1040B000140318031D03220326032B0330033503C7
:1040C0003A033E03430348034D03520357035C0383
:1040D000610367036C03710376037B03810386032B
:1040E0008B03910396039C03A103A603AC03B203C5
:1040F000B703BD03C203C803CE03D403D903DF0350
:10410000E503E603E603E603E603E603E603E60368
:10411000E603E603E603E603E603E603E603E60357
:10412000E603E603E603E603E603E603E603E60347
:10413000E603E603E603E603E603E603E603E60337
:10414000A9029702860275026502550245023602EF
:10415000270219020B02FD01F001E301D701CB0197
:10416000BF01B401A8019E01930189017F0176017D
:104170006C0163015B0152014A0142013B013301C1
:104180002C0125011F01180112010C01060101017A
:10419000FB00F600F100ED00E800E400DF00DB00CA
:1041A000D800D400D000CD00CA00C700C400C100B0
:1041B000BE00BC00BA00B700B500B300B100AF004C
:1041C000AE00AC00AB00A900A800A700A600A500A7
:1041D000A400A300A300A200A100A100A000A000D1
:1041E000A000A0009F009F009F009F009F009F00D5
:1041F0009F00A000A000A000A000A100A100A200BC
:10420000A200A300A300A400A400A500A500A6008E
:10421000A700A700A800A900AA00AA00AB00AC0054
:10422000AD00AD00AE00AF00B000B100B100B20013
:10423000B300B400B500B600B600B700B800B900CE
:10424000BA00BB00BB00BC00BD00BE00BF00BF0089
:10425000C000C100C200C200C300C400C500C50048
:10426000C600C700C700C800C900C900CA00CB000B
:10427000CB00CC00CC00CD00CD00CE00CF00CF00D5
:10428000D000D000D100D100D100D200D200D300A4
:10429000D300D300D400D400D500D500D500D6007B
:1042A000D600D600D600D700D700D700D700D80058
:1042B000D800D800D800D800D800D900D900D9003B
:1042C000D900D900D900D900D900D900DA00DA0024
:1042D000DA00DA00DA00DA00DA00DA00DA00DA000E
:1042E000DA00DA00DA00DA00DA00DA00DA00DA00FE
:1042F000DA00DA00DA00DA00DA00DA00DA00DA00EE
:10430000DA00DA00DA00DA00DA00DA00DA00DA00DD
:10431000DA00DA00DA00DA00DA00DA00DA00DA00CD
:10432000DA00DA00DA00DA00DA00DA00DA00DA00BD
:10433000DA00DA00DA00DA00DA00DB00DB00DB00AA
:10434000DB00DB00DB00DB00DC00DC00DC00DC0091
:10435000DC00DD00DD00DD00DD00DE00DE00DE0073
:10436000DE00DF00DF00DF00E000E000E100E10050
:10437000E100E200E200E300E300E400E400E50025
:10438000E500E600E600E700E700E800E900E900F4
:10439000EA00EB00EB00EC00ED00EE00EE00EF00B9
:1043A000F000F100F100F200F300F400F500F60077
:1043B000F700F800F900FA00FB00FC00FD00FE0029
:1043C000FF000001010102010301040106010701D0
:1043D000080109010B010C010D010E011001110171
:1043E000130114011501170118011A011B011D0108
:1043F0001E012001220123012501270128012A0194
:104400002C012E012F013101330135013701390112
:104410003B013D013F014101430145014701490184
:104420004B014E01500152015401570159015B01EA
:104430005E0160016301650168016B016D0170013E
:104440007301750178017B017E018101840187017F
:104450008A018D019001930197019A019D01A101AB
:10446000A401A801AB01AF01B201B601BA01BE01BE
:10447000C201C601CA01CE01D201D601DB01DF01B2
:10448000E301E801EC01F101F601FB010002050284
:104490000A020F02140219021F0224022A02300229
:1044A00036023C02420248024E0254025B026102A2
:1044B00068026F0276027D0284028B0293029B02E5
:1044C000A202AA02B202BA02C302CB02D402DD02E5
:1044D000E502EF02F80201030B0315031F03290392
:1044E00033033E03490353035F036A0376038103E7
:1044F0008D039A03A603B303C003CD03DA03E603D7
:10450000E603E603E603E603E603E603E603E60363
:10451000E603E603E603E603E603E603E603E60353
:10452000E603E603E603E603BF02B202A60299022F
:104530008E02820277026C02610257024D02430230
:104540003A02300228021F0217020F020702FF017F
:10455000F801F101EA01E401DE01D801D201CC0148
:10456000C701C201BD01B801B301AF01AA01A60193
:10457000A3019F019B019801950192018F018C017C
:10458000890187018501830180017F017D017B0114
:104590007A01780177017601740173017201720169
:1045A0007101700170016F016F016F016E016E0189
:1045B0006E016E016E016E016E016F016F016F0180
:1045C0007001700170017101720172017301740157
:1045D00074017501760177017701780179017A011B
:1045E0007B017C017D017E017F01800181018201CF
:1045F0008301840185018701880189018A018B017A
:104600008C018D018E018F01900191019301940124
:10461000950196019701980199019A019B019C01CE
:104620009D019E019F01A001A101A201A201A30180
:10463000A401A501A601A701A701A801A901AA013A
:10464000AA01AB01AC01AC01AD01AE01AE01AF01FD
:10465000AF01B001B001B101B101B101B201B201CC
:10466000B301B301B301B401B401B401B401B401A5
:10467000B501B501B501B501B501B501B501B5018A
:10468000B501B501B501B501B501B501B501B4017B
:10469000B401B401B401B401B301B301B301B30176
:1046A000B201B201B201B101B101B001B001B0017A
:1046B000AF01AF01AE01AE01AD01AD01AC01AC0186
:1046C000AB01AB01AA01AA01A901A901A801A70197
:1046D000A701A601A601A501A401A401A301A301AC
:1046E000A201A101A101A0019F019F019E019E01C4
:1046F0009D019C019C019B019B019A0199019901DB
:1047000098019801970196019601950195019401F0
:104710009401930193019201920191019101900101
:1047200090018F018F018F018E018E018E018D010D
:104730008D018D018C018C018C018C018C018B0110
:104740008B018B018B018B018B018B018B018B0109
:104750008B018B018B018B018B018C018C018C01F6
:104760008C018C018D018D018D018E018E018F01D7
:104770008F019001900191019201920193019401A6
:1047800094019501960197019801980199019A0168
:104790009B019C019E019F01A001A101A201A30117
:1047A000A501A601A701A901AA01AC01AD01AF01B4
:1047B000B001B201B401B601B701B901BB01BD013D
:1047C000BF01C101C301C501C701C901CB01CD01B1
:1047D000CF01D101D401D601D801DB01DD01E00117
:1047E000E201E501E701EA01ED01EF01F201F50166
:1047F000F801FB01FE010102040207020A020D0298
:104800001002130216021A021D02200224022702BD
:104810002A022E023102350239023C0240024402D1
:1048200047024B024F02530257025A025E026202D3
:1048300066026A026F02730277027B027F028302C2
:1048400088028C029002950299029E02A202A7029F
:10485000AB02B002B402B902BE02C202C702CC026D
:10486000D102D502DA02DF02E402E902EE02F3022B
:10487000F802FD02020307030C03120317031C03D3
:10488000210326032C03310336033C034103470372
:104890004C03520357035D03620368036D03730304
:1048A00079037E0384038A038F0395039B03A1038B
:1048B000A703AD03B203B803BE03C403CA03D00306
:1048C000D603DC03E203E603E603E603E603E603BE
:1048D000E603E603E603E603E603E603E603E60390
:1048E000E603E603E603E603E603E603E603E60380
:1048F000E603E603E603E603E603E603E603E60370
:10490000E603E603E603E603E603E603E603E6035F
:104910009F028D027C026B025B024B023C022D0265
:104920001F0211020302F601E901DC01D001C401FA
:10493000B901AE01A30199018E0185017B017201CC
:104940006901610159015101490142013B013401F1
:104950002D01270121011B01150110010B01060189
:104960000101FD00F800F400F000EC00E900E500B2
:10497000E200DF00DC00DA00D700D500D200D00072
:10498000CE00CC00CA00C900C700C600C500C400E4
:10499000C300C200C100C000BF00BF00BE00BE0017
:1049A000BE00BE00BD00BD00BD00BD00BE00BE001B
:1049B000BE00BE00BF00BF00C000C000C100C100FB
:1049C000C200C300C300C400C500C600C700C700C2
:1049D000C800C900CA00CB00CC00CD00CE00CF007B
:1049E000D000D100D200D300D400D500D700D80029
:1049F000D900DA00DB00DC00DD00DE00DF00E000D3
:104A0000E100E200E300E400E500E600E700E80082
:104A1000E900EA00EB00EC00ED00EE00EF00EF0033
:104A2000F000F100F200F300F300F400F500F500EF
:104A3000F600F700F700F800F900F900FA00FA00B4
:104A4000FB00FB00FC00FC00FC00FD00FD00FD0085
:104A5000FE00FE00FE00FF00FF00FF00FF00FF0061
:104A6000FF00000100010001000100010001000140
:104A7000000100010001FF00FF00FF00FF00FF0038
:104A8000FF00FE00FE00FE00FE00FD00FD00FD0038
:104A9000FC00FC00FC00FB00FB00FB00FA00FA003D
:104AA000F900F900F800F800F700F700F600F6004A
:104AB000F500F500F400F400F300F300F200F2005A
:104AC000F100F000F000EF00EF00EE00ED00ED006F
:104AD000EC00EC00EB00EA00EA00E900E900E80085
:104AE000E700E700E600E600E500E400E400E3009C
:104AF000E300E200E200E100E100E000E000DF00AE
:104B0000DF00DE00DE00DD00DD00DC00DC00DB00BD
:104B1000DB00DB00DA00DA00D900D900D900D800C8
:104B2000D800D800D800D700D700D700D700D700CA
:104B3000D600D600D600D600D600D600D600D600C5
:104B4000D600D600D600D600D600D600D600D600B5
:104B5000D600D700D700D700D700D800D800D8009B
:104B6000D900D900D900DA00DA00DB00DB00DC0074
:104B7000DC00DD00DE00DE00DF00E000E000E10040
:104B8000E200E300E300E400E500E600E700E800FF
:104B9000E900EA00EB00EC00ED00EE00F000F100AF
:104BA000F200F300F400F600F700F800FA00FB0052
:104BB000FD00FE00000101010301040106010801DE
:104BC0000A010B010D010F0111011201140116015F
:104BD00018011A011C011E012001220125012701D3
:104BE00029012B012E013001320135013701390134
:104BF0003C013E0141014401460149014B014E0186
:104C000051015401570159015C015F0162016501C5
:104C100068016C016F017201750178017C017F01EF
:104C20008201860189018D019001940198019B0107
:104C30009F01A301A701AB01AE01B201B601BB0107
:104C4000BF01C301C701CB01D001D401D901DD01EE
:104C5000E201E601EB01F001F401F901FE010302BA
:104C600008020D02130218021D02230228022E025E
:104C7000330239023F0245024B02510257025D02E4
:104C800063026A02700277027D0284028B02920242
:104C90009902A002A702AE02B602BD02C502CD0271
:104CA000D502DD02E502ED02F502FE0207030F0365
:104CB000180321032A0334033D03470351035B0315
:104CC00065036F03790384038F039903A403B0037F
:104CD000BB03C703D303DE03E603E603E603E603F1
:104CE000E603E603E603E603E603E603E603E6037C
:104CF000E603E603E603E603DD02CF02C102B402E7
:104D0000A8029B028F02840278026D02630259029C
:104D10004F0245023C0233022A0222021A02120208
:104D20000A020302FC01F501EF01E901E301DD01E3
:104D3000D701D201CD01C801C301BF01BB01B70139
:104D4000B301AF01AB01A801A501A2019F019C0124
:104D50009A0198019501930191018F018E018C01B7
:104D60008B01890188018701860185018401840105
:104D7000830182018201820181018101810181011E
:104D8000810181018101810182018201820183010E
:104D900083018401840185018501860187018801E1
:104DA000880189018A018B018C018D018D018E01A1
:104DB0008F01900191019201930194019501960157
:104DC0009701980199019A019B019C019D019E0107
:104DD0009F01A101A201A301A401A401A501A601B3
:104DE000A701A801A901AA01AB01AC01AD01AE0167
:104DF000AE01AF01B001B101B201B201B301B40122
:104E0000B401B501B601B601B701B801B801B901E5
:104E1000B901BA01BA01BB01BB01BC01BC01BC01B3
:104E2000BD01BD01BD01BE01BE01BE01BE01BE018D
:104E3000BF01BF01BF01BF01BF01BF01BF01BF0172
:104E4000BF01BF01BF01BF01BF01BF01BF01BF0162
:104E5000BF01BE01BE01BE01BE01BE01BD01BD015B
:104E6000BD01BD01BC01BC01BC01BB01BB01BB015B
:104E7000BA01BA01B901B901B901B801B801B70164
:104E8000B701B701B601B601B501B501B401B4016E
:104E9000B301B301B201B201B101B101B001B0017E
:104EA000B001AF01AF01AE01AE01AD01AD01AC018A
:104EB000AC01AB01AB01AB01AA01AA01A901A90197
:104EC000A901A801A801A701A701A701A601A601A0
:104ED000A601A601A501A501A501A501A401A401A2
:104EE000A401A401A401A401A401A401A401A3019B
:104EF000A301A301A401A401A401A401A401A4018C
:104F0000A401A401A501A501A501A501A601A60171
:104F1000A601A701A701A801A801A901A901AA0149
:104F2000AA01AB01AB01AC01AD01AE01AE01AF0115
:104F3000B001B101B201B301B301B401B501B601D1
:104F4000B801B901BA01BB01BC01BD01BE01C0017C
:104F5000C101C201C401C501C701C801CA01CB0119
:104F6000CD01CE01D001D101D301D501D701D801A6
:104F7000DA01DC01DE01E001E201E401E601E80121
:104F8000EA01EC01EE01F001F201F501F701F9018E
:104F9000FB01FE0100020202050207020A020C02E6
:104FA0000F0211021402170219021C021F02210231
:104FB000240227022A022D022F0232023502380271
:104FC0003B023E024102440247024A024E025102A3
:104FD000540257025A025D026102640267026B02C8
:104FE0006E027102750278027C027F0283028602E1
:104FF0008A028D029102940298029C029F02A302EF
:10500000A702AA02AE02B202B502B902BD02C102F3
:10501000C502C902CC02D002D402D802DC02E002EE
:10502000E402E802EC02F002F402F802FC020103DE
:10503000050309030D03110315031A031E032203BD
:1050400026032B032F03330338033C03410345039B
:105050004A034E03530357035C036003650369036C
:105060006E03730378037C03810386038B03900331
:10507000940399039E03A303A803AD03B203B803EB
:10508000BD03C203C703CC03D203D703DD03E2038E
:10509000E603E603E603E603E603E603E603E603C8
:1050A000E603E603E603E603E603E603E603E603B8
:1050B000E603E603E603E603E603E603E603E603A8
:1050C000E603E603E603E603E603E603E603E60398
:1050D000E603E603E603E603E603E603E603E60388
:1050E0001503FF02EA02D602C202AF029C028A0244
:1050F00078026702560246023602270218020A02A6
:10510000FC01EF01E201D501C901BE01B201A70115
:105110009D01930189017F0176016E0165015D01A9
:1051200055014E0147014001390133012D0127018D
:1051300021011C01170112010E01090105010101E4
:10514000FD00FA00F700F400F100EE00EB00E900CA
:10515000E700E500E300E100DF00DE00DC00DB004B
:10516000DA00D900D800D700D700D600D600D60084
:10517000D500D500D500D500D500D500D600D60085
:10518000D600D700D700D800D800D900DA00DB005D
:10519000DB00DC00DD00DE00DF00E000E100E2001B
:1051A000E300E400E500E700E800E900EA00EB00C6
:1051B000EC00EE00EF00F000F100F200F400F5006A
:1051C000F600F700F800F900FB00FC00FD00FE000F
:1051D000FF000001010102010301050106010701B1
:1051E0000801080109010A010B010C010D010E0162
:1051F0000F010F011001110111011201130113011F
:1052000014011501150116011601170117011701E7
:1052100018011801180119011901190119011A01C0
:105220001A011A011A011A011A011A011A011A01A6
:105230001A011A011A011A011A011A011901190198
:105240001901190118011801180118011701170196
:10525000160116011601150115011401140113019F
:105260001301120112011101110110010F010F01AF
:105270000E010E010D010C010C010B010B010A01C5
:1052800009010901080107010701060105010501DE
:1052900004010301030102010101010100010001F8
:1052A000FF00FE00FE00FD00FC00FC00FB00FB0018
:1052B000FA00FA00F900F800F800F700F700F7002C
:1052C000F600F600F500F500F400F400F400F30039
:1052D000F300F300F200F200F200F200F100F1003E
:1052E000F100F100F100F100F100F000F000F00039
:1052F000F000F100F100F100F100F100F100F10027
:10530000F200F200F200F200F300F300F400F40007
:10531000F400F500F500F600F700F700F800F800DB
:10532000F900FA00FB00FB00FC00FD00FE00FF009E
:105330000001010102010301040105010601070149
:1053400008010A010B010C010E010F0110011201ED
:10535000130115011601180119011B011C011E0181
:105360002001210123012501270129012B012C0105
:105370002E01300132013401360139013B013D017A
:105380003F0141014301460148014A014D014F01DE
:1053900051015401560159015B015E016001630135
:1053A000660168016B016E0170017301760179017C
:1053B0007C017E018101840187018A018D019001B8
:1053C0009301960199019C01A001A301A601A901E5
:1053D000AC01B001B301B601BA01BD01C101C40104
:1053E000C701CB01CE01D201D601D901DD01E10116
:1053F000E401E801EC01EF01F301F701FB01FF011A
:10540000030207020B020F02130217021B021F0204
:10541000240228022C023102350239023E024202E5
:1054200047024C02500255025A025E0263026802B1
:105430006D02720277027C02810287028C02910265
:1054400097029C02A202A702AD02B302B802BE02FA
:10545000C402CA02D102D702DD02E302EA02F0026C
:10546000F702FE0205030C0313031A0321032903A9
:10547000300338033F0347034F03570360036803B8
:105480007003790382038B0394039D03A703B00386
:10549000BA03C403CE03D803E203E603E603E6033C
:1054A000E603E603E603E603E603E603E603E603B4
:1054B000E603E603E603E603E603E603E603E603A4
:1054C000E603E603E603E60319030B03FE02F1021B
:1054D000E402D802CC02C002B402A9029F029402E4
:1054E0008A02800276026D0264025B0253024A0263
:1054F00042023B0233022C0225021E021702110255
:105500000B020502FF01FA01F401EF01EA01E601D5
:10551000E101DD01D801D401D001CD01C901C601ED
:10552000C201BF01BC01B901B701B401B201AF01B1
:10553000AD01AB01A901A701A601A401A301A1012D
:10554000A0019F019E019D019C019B019A0199016F
:105550009901980198019701970197019601960189
:105560009601960196019601960197019701970180
:10557000970198019801990199019A019A019B015B
:105580009B019C019D019D019E019F019F01A00126
:10559000A101A201A201A301A401A501A601A701E5
:1055A000A701A801A901AA01AB01AC01AD01AD01A0
:1055B000AE01AF01B001B101B201B301B301B40159
:1055C000B501B601B701B801B801B901BA01BB0113
:1055D000BC01BC01BD01BE01BE01BF01C001C001D3
:1055E000C101C201C201C301C401C401C501C50199
:1055F000C601C601C701C701C801C801C801C90168
:10560000C901CA01CA01CA01CA01CB01CB01CB0140
:10561000CB01CC01CC01CC01CC01CC01CC01CD0122
:10562000CD01CD01CD01CD01CD01CD01CD01CD010A
:10563000CD01CD01CD01CC01CC01CC01CC01CC01FF
:10564000CC01CC01CB01CB01CB01CB01CA01CA01FA
:10565000CA01CA01C901C901C901C801C801C801FB
:10566000C701C701C701C601C601C601C501C50101
:10567000C401C401C401C301C301C201C201C1010B
:10568000C101C101C001C001BF01BF01BF01BE0115
:10569000BE01BD01BD01BC01BC01BC01BB01BB0120
:1056A000BB01BA01BA01B901B901B901B801B80128
:1056B000B801B701B701B701B701B601B601B6012C
:1056C000B601B501B501B501B501B501B501B50129
:1056D000B401B401B401B401B401B401B401B40122
:1056E000B401B401B401B501B501B501B501B5010D
:1056F000B601B601B601B601B701B701B701B801ED
:10570000B801B901B901BA01BA01BB01BB01BC01C1
:10571000BD01BD01BE01BF01C001C001C101C20187
:10572000C301C401C501C601C701C801C901CA013D
:10573000CB01CC01CE01CF01D001D101D301D401E5
:10574000D601D701D801DA01DC01DD01DF01E0017A
:10575000E201E401E601E701E901EB01ED01EF01FE
:10576000F101F301F501F701F901FB01FE0100026E
:1057700002020402070209020B020E0210021302C7
:10578000150218021B021D02200223022502280214
:105790002B022E023102340237023A023D0240024D
:1057A0004302460249024D025002530257025A0276
:1057B0005D026102640268026B026F02720276028D
:1057C0007A027D028102850289028C029002940293
:1057D00098029C02A002A402A802AC02B002B40289
:1057E000B802BC02C102C502C902CD02D202D60271
:1057F000DA02DF02E302E802EC02F102F502FA0249
:10580000FE02030307030C03110315031A031F030E
:10581000230328032D03320337033C0340034503CE
:105820004A034F03540359035E03630368036D0384
:10583000720377037C03820387038C03910396032F
:105840009B03A103A603AB03B003B603BB03C003D2
:10585000C603CB03D003D603DB03E003E603E60372
:10586000E603E603E603E603E603E603E603E603F0
:10587000E603E603E603E603E603E603E603E603E0
:10588000E603E603E603E603E603E603E603E603D0
:10589000E603E603E603E603E603E603E603E603C0
:1058A000E603E603E603E603E603E603E603E603B0
:1058B000390325031103FE02EC02DA02C802B70223
:1058C000A602960286027702680259024B023D0246
:1058D0003002230216020A02FE01F201E701DC0196
:1058E000D201C701BD01B401AA01A1019901900132
:1058F00088018001790171016A0163015D0156012E
:1059000050014A0145013F013A01350130012B01A7
:10591000270123011F011B011701140110010D01B3
:105920000A01070104010201FF00FD00FB00F9006C
:10593000F700F500F400F200F100F000EE00ED00D9
:10594000EC00EB00EB00EA00E900E900E800E80009
:10595000E800E800E700E700E700E700E800E8000B
:10596000E800E800E900E900E900EA00EB00EB00EC
:10597000EC00EC00ED00EE00EF00EF00F000F100B5
:10598000F200F300F400F500F500F600F700F8006F
:10599000F900FA00FB00FC00FD00FE00FF00000122
:1059A00002010301040105010601070108010901C3
:1059B0000A010B010C010D010E010F011001110173
:1059C000110112011301140115011601170118012B
:1059D000180119011A011B011B011C011D011E01E7
:1059E0001E011F011F0120012101210122012201AD
:1059F000230123012401240124012501250125017E
:105A00002601260126012701270127012701270159
:105A1000270128012801280128012801280128013F
:105A20002801280128012801270127012701270132
:105A3000270127012601260126012601250125012E
:105A40002501240124012401230123012301220132
:105A5000220121012101200120011F011F011E013E
:105A60001E011D011D011C011C011B011B011A014E
:105A70001901190118011801170117011601150163
:105A80001501140114011301120112011101110178
:105A900010010F010F010E010E010D010D010C018E
:105AA0000B010B010A010A010901090108010801A2
:105AB00007010701060106010501050105010401B1
:105AC00004010301030103010201020102010101BA
:105AD00001010101010100010001000100010001BB
