:100000000C94101B0C943F1B0C943F1B0C943F1B37
:100010000C943F1B0C943F1B0C943F1B0C943F1BF8
:100020000C943F1B0C943F1B0C943F1B0C943F1BE8
:100030000C943F1B0C943F1B0C943F1B0C943F1BD8
:100040000C943F1B0C943F1B0C943F1B0C943F1BC8
:100050000C943F1B0C943F1B0C943F1B0C943F1BB8
:100060000C943F1B0C94596E0C943F1B0C943F1B3B
:100070000C943F1B0C949F1B0C943F1B0C943F1B38
:100080000C943F1B0C943F1B0C943F1B0C948B6BEC
:100090000C94E06E0C943F1B0C944C6F0C943F1B23
:1000A0000C943F1B0C943F1B0C943F1B0C943F1B68
:1000B0000C943F1B0C943F1B0C943F1B0C943F1B58
:1000C0000C943F1B0C943F1B0C943F1B0000FA4206
:1000D0000000FA420000FA420000FA420000FA4230
:1000E0000000FA420000FA420000FA420000FA4220
:1000F0000000FA420000FA420000FA420000FA4210
:100100000000FA420000FA420000FA420000FA42FF
:100110000000FA420000FA420000FA420000FA42EF
:100120000000FA420000FA420000FA420000FA42DF
:100130000000FA420000FA420000FA420000FA42CF
:100140000000FA420000FA420000FA420000FA42BF
:100150000000FA420000FA420000FA429A99F8427E
:100160006666F6423333F4420000F2420000F04289
:100170000000EE423333EC426666EA426666E842CD
:100180009A99E6420000E5426666E342CDCCE14240
:100190003333E0429A99DE420000DD426666DB427C
:1001A0000000DB429A99D8423333D742CDCCD542B6
:1001B0006666D4420000D3429A99D1426666D04224
:1001C0003333CF420000CE42CDCCCC429A99CB42C1
:1001D0006666CA423333C9420000C8420000C742C3
:1001E0000000C642CDCCC4420000C4420000C3425D
:1001F0000000C242CDCCC042CDCCBF42CDCCBE422D
:10020000CDCCBD420000BD420000BC420000BB425C
:100210003333BA426666B9429A99B8429A99B7425C
:100220009A99B642CDCCB5420000B5423333B442C0
:100230006666B3429A99B242CDCCB1420000B14257
:100240003333B0426666AF429A99AE420000AE4286
:100250006666AD429A99AC42CDCCAB420000AB424F
:100260003333AA420000A942CDCCA8423333A8427E
:100270009A99A7420000A7423333A6429A99A54211
:100280000000A5423333A4429A99A3420000A3423E
:100290006666A242CDCCA1420000A1426666A042A1
:1002A000CDCC9F4233339F429A999E4200009E429A
:1002B0009A999D4200009D4266669C42CDCC9B422D
:1002C00033339B42CDCC9A4233339A429A99994226
:1002D0000000994266669842CDCC974233339742EC
:1002E000CDCC9642333396429A9995423333954218
:1002F000CDCC9442333394429A9993423333934210
:10030000CDCC924266669242CDCC9142333391423B
:10031000CDCC9042666690420000904266668F4265
:10032000CDCC8E4266668E4200008E4266668D425D
:10033000CDCC8C4266668C4200008C429A998B42EE
:1003400033338B42CDCC8A4266668A4200008A42B1
:100350009A99894233338942CDCC88426666884275
:100360000000884266668742CDCC86426666864239
:10037000000086429A99854233338542CDCC84422F
:1003800066668442000084429A99834233338342F2
:10039000CDCC824266668242000082429A998142B6
:1003A00033338142CDCC8042666680420000804279
:1003B0009A997F4233337F4266667E429A997D42A4
:1003C000CDCC7C4200007C4233337B4200007C4237
:1003D0009A997942CDCC7842000078429A99774236
:1003E00033337742666676429A997542CDCC744231
:1003F0000000744233337342666672429A997142C6
:10040000CDCC70420000704233336F42CDCC6E428F
:1004100066666E429A996D42CDCC6C4266666C42BD
:1004200000006C4233336B4266666A4200006A42E7
:1004300000006A42CDCC6842000068423333674214
:1004400066666642000066429A996542CDCC644277
:100450000000644233336342CDCC6242666662423E
:100460009A996142CDCC6042000060429A995F4205
:1004700033335F4266665E429A995D42CDCC5C4200
:1004800000005C429A995B4233335B4266665A4293
:1004900000005A429A995942CDCC58420000584225
:1004A0009A99574233335742CDCC564266665642EC
:1004B0009A99554233335542CDCC544200005442B0
:1004C00033335342CDCC5242666652429A995142DE
:1004D00033335142CDCC5042000050429A994F42A2
:1004E00033334F4266664E429A994D4233334D4202
:1004F000CDCC4C4200004C429A994B4233334B4294
:1005000066664A429A99494233334942CDCC4842C1
:10051000000048429A994742333347426666464252
:10052000000046429A99454233334542CDCC44427D
:10053000000044429A99434233334342CDCC424275
:10054000666642429A99414233334142CDCC4042A1
:10055000000040429A993F4233333F42CDCC3E4265
:1005600066663E429A993D4233333D42CDCC3C4291
:1005700000003C429A993B4233333B42CDCC3A4255
:1005800066663A429A99394233333942CDCC384281
:10059000000038429A993742333337426666364212
:1005A000000036429A993542CDCC344266663442D8
:1005B000000034429A99334233333342CDCC324235
:1005C00066663242000032429A993142CDCC3042C6
:1005D00066663042000030429A992F4233332F42F0
:1005E000CDCC2E4266662E4200002E429A992D42B4
:1005F00033332D42CDCC2C4200002C429A992B4211
:1006000033332B42CDCC2A4266662A4200002A426E
:100610009A992942CDCC2842666628420000284299
:100620009A99274233332742CDCC2642666626422A
:100630009A99254233332542CDCC24426666244222
:100640000000244233332342CDCC2242666622424C
:10065000000022429A992142CDCC20426666204277
:10066000000020429A991F4233331F42CDCC1E42D4
:1006700066661E4200001E429A991D4233331D4297
:10068000CDCC1C4266661C4200001C429A991B425B
:1006900033331B42CDCC1A4266661A4200001A421E
:1006A0009A99194233331942CDCC184266661842E2
:1006B000000018429A99174233331742CDCC1642A4
:1006C00066661642000016429A9915423333154267
:1006D000CDCC144266661442000014429A9913422B
:1006E00033331342CDCC12426666124200001242EE
:1006F0009A99114233331142CDCC1042000010427E
:100700009A990F4233330F42CDCC0E4266660E42A9
:1007100000000E429A990D4233330D42CDCC0C426B
:1007200000000C429A990B429A990B4233330B42C8
:10073000CDCC0A4266660A4200000A429A990942F2
:1007400033330942CDCC08426666084266660842E9
:10075000000008429A99074233330742CDCC064243
:1007600066660642000006429A9905423333054206
:10077000CDCC044266660442000004429A990342CA
:1007800033330342CDCC0242CDCC024266660242F4
:10079000000002429A99014233330142CDCC00421B
:1007A00066660042000000423333FF416666FE4148
:1007B0009A99FD41CDCCFC410000FC413333FB4113
:1007C0006666FA419A99F941CDCCF8410000F841AA
:1007D0003333F7416666F6419A99F541CDCCF44141
:1007E0000000F4413333F3416666F2419A99F141D6
:1007F0000000F0410000F0413333EF416666EE4106
:100800009A99ED41CDCCEC410000EC410000EC4167
:100810003333EB416666EA419A99E941CDCCE84130
:100820000000E8413333E7413333E7416666E64190
:100830009A99E541CDCCE4410000E4413333E341F2
:100840006666E2419A99E141CDCCE041CDCCE041F0
:100850000000E0413333DF416666DE419A99DD41B5
:10086000CDCCDC410000DC413333DB416666DA414C
:100870009A99D941CDCCD8410000D8410000D84147
:100880003333D7416666D6419A99D541CDCCD44110
:100890000000D4413333D3416666D2419A99D141A5
:1008A000CDCCD0410000D0413333CF416666CE413C
:1008B0009A99CD41CDCCCC410000CC413333CB41D2
:1008C0006666CA419A99C941CDCCC8410000C84169
:1008D0000000C8413333C7416666C6419A99C54195
:1008E000CDCCC4410000C4413333C3413333C34191
:1008F0006666C2419A99C141CDCCC0410000C04159
:100900003333BF413333BF416666BE419A99BD411F
:10091000CDCCBC410000BC413333BB413333BB4180
:100920006666BA419A99B941CDCCB8410000B84148
:100930003333B7416666B6419A99B5419A99B54144
:10094000CDCCB4410000B4413333B3416666B2410B
:100950009A99B141CDCCB0410000B0413333AF41A1
:100960006666AE419A99AD419A99AD41CDCCAC4104
:100970000000AC413333AB416666AA419A99A94164
:10098000CDCCA8410000A8413333A7416666A641FB
:100990009A99A541CDCCA4410000A4413333A34191
:1009A0006666A2419A99A141CDCCA0410000A04128
:1009B00033339F4133339F4166669E419A999D41EF
:1009C000CDCC9C41CDCC9C4100009C4133339B411C
:1009D00066669A419A999941CDCC9841CDCC98417F
:1009E00000009841333397416666964166669641AA
:1009F0009A999541CDCC9441000094413333934171
:100A0000666692419A9991419A999141CDCC9041D3
:100A10000000904133338F4166668E419A998D4133
:100A2000CDCC8C4100008C4100008C4133338B4194
:100A300066668A419A998941CDCC884100008841F7
:100A400033338741666686419A998541CDCC84418E
:100A50000000844133338341666682416666824189
:100A60009A998141CDCC80410000804166667E41EB
:100A7000CDCC7C4133337B419A9979410000784158
:100A800066667641CDCC7441333373419A99714196
:100A90000000704166666E41CDCC6C4133336B41D2
:100AA00033336B419A99694100006841666666413B
:100AB00066666641CDCC6441333363419A996141A6
:100AC0000000604166665E4166665E41CDCC5C4179
:100AD00033335B419A99594100005841666656414B
:100AE000CDCC544133335341333353419A9951411F
:100AF0000000504166664E41CDCC4C4133334B41F2
:100B00009A9949410000484166664641CDCC44412E
:100B1000333343419A9941419A9941410000404100
:100B200066663E41CDCC3C4133333B419A993941D5
:100B30000000384166663641CDCC34413333334111
:100B40009A9931410000304166662E41CDCC2C414E
:100B500033332B419A99294100002841666626418A
:100B6000CDCC2441333323419A99214100002041C7
:100B700066661E4166661E41CDCC1C4133331B4167
:100B80009A99194100001841000018416666164103
:100B9000CDCC1441333313419A99114100001041D7
:100BA00066660E4166660E41CDCC0C4133330B4177
:100BB0009A9909410000084166660641CDCC04417E
:100BC000333303419A99014100000041CDCCFC40F0
:100BD000CDCCFC409A99F9406666F6403333F34039
:100BE0000000F040CDCCEC409A99E9406666E640C2
:100BF0003333E3400000E040CDCCDC409A99D9404B
:100C00006666D6403333D3400000D040CDCCCC40D4
:100C10009A99C9406666C6403333C3400000C0405D
:100C2000CDCCBC409A99B9406666B6403333B340E8
:100C3000CDCCAC409A99A9406666A6403333A34018
:100C40000000A040CDCC9C409A99994066669640A1
:100C5000666696403333934000009040CDCC8C4084
:100C60009A9989406666864033338340000080400D
:100C70009A9979409A99794033337340CDCC6C403E
:100C800066666640000060409A995940333353408D
:100C9000CDCC4C4066664640000040409A993940B1
:100CA00033333340CDCC2C406666264000002040D4
:100CB0009A99194033331340CDCC0C4066660640F8
:100CC000000000406666E63F9A99D93FCDCCCC3F04
:100CD0000000C03F3333B33F6666A63F9A99993F01
:100CE000CDCC8C3F0000803FCDCC4C3F3333333FE5
:100CF0009A99193F0000003FCDCCCC3ECDCC4C3E64
:100D0000CDCCCC3D00000000CDCCCCBDCDCC4CBE7C
:100D10009A9999BECDCCCCBE000000BF9A9919BF5C
:100D2000333333BFCDCC4CBF666666BF000080BF97
:100D3000CDCC8CBF9A9999BF6666A6BF3333B3BF3B
:100D40000000C0BFCDCCCCBF9A99D9BF6666E6BFC4
:100D50003333F3BF000000C0666606C0CDCC0CC0C4
:100D6000333313C09A9919C0666626C0CDCC2CC007
:100D7000333333C09A9939C0000040C0CDCC4CC049
:100D8000333353C09A9959C0000060C0666666C08C
:100D9000333373C09A9979C0000080C0666686C0FC
:100DA0009A9989C0CDCC8CC0333393C0666696C007
:100DB0009A9999C00000A0C03333A3C06666A6C04C
:100DC0009A99A9C0CDCCACC00000B0C03333B3C039
:100DD0006666B6C09A99B9C0CDCCBCC00000C0C090
:100DE0006666C6C09A99C9C0CDCCCCC00000D0C040
:100DF0003333D3C09A99D9C0CDCCDCC00000E0C059
:100E00003333E3C06666E6C09A99E9C00000F0C0DB
:100E10003333F3C09A99F9C0CDCCFCC0000000C1B7
:100E2000333303C1CDCC04C1666606C19A9909C1AA
:100E300033330BC1CDCC0CC1000010C1333313C10F
:100E4000CDCC14C1666616C19A9919C1CDCC1CC10E
:100E5000000020C19A9921C1333323C1CDCC24C1D4
:100E6000666626C19A9929C133332BC1CDCC2CC1DA
:100E7000000030C19A9931C1333333C1666636C13F
:100E8000000038C19A9939C1CDCC3CC166663EC1DB
:100E9000000040C1333343C1666646C1000048C10B
:100EA0009A9949C1CDCC4CC1000050C1333353C1D4
:100EB000CDCC54C1666656C19A9959C1CDCC5CC19E
:100EC000000060C1333363C1666666C1000068C15B
:100ED0009A9969C1CDCC6CC1000070C1333373C124
:100EE000CDCC74C1666676C19A9979C1CDCC7CC1EE
:100EF00066667EC1000080C19A9981C1333383C187
:100F0000CDCC84C19A9985C1666686C1000088C12E
:100F10009A9989C133338BC1CDCC8CC166668EC1A1
:100F2000000090C19A9991C1333393C1CDCC94C143
:100F3000666696C1000098C19A9999C133339BC1E6
:100F4000CDCC9CC166669EC10000A0C19A99A1C18A
:100F50003333A3C1CDCCA4C16666A6C10000A8C12D
:100F60009A99A9C13333ABC10000ACC1CDCCACC19F
:100F70000000B0C19A99B1C13333B3C1CDCCB4C173
:100F80006666B6C10000B8C19A99B9C13333BBC116
:100F90006666BEC10000C0C19A99C1C1CDCCC4C1B2
:100FA0006666C6C10000C8C19A99C9C13333CBC1B6
:100FB0006666CEC10000D0C19A99D1C13333D3C186
:100FC000CDCCD4C10000D8C19A99D9C13333DBC18B
:100FD0006666DEC10000E0C13333E3C1CDCCE4C1BD
:100FE0006666E6C19A99E9C1CDCCECC10000F0C1BA
:100FF0009A99F1C1CDCCF4C16666F6C19A99F9C14E
:101000003333FBC16666FEC1000000C29A9901C27B
:10101000333303C2666604C2000006C29A9907C24F
:10102000333309C2CDCC0AC266660CC200000EC2C0
:101030009A990FC2333311C2CDCC12C2666614C264
:10104000000016C29A9917C29A9919C200001CC2D0
:1010500066661EC2000020C2000020C2000020C23E
:10106000000020C2000020C2000020C2000020C2F8
:10107000000020C2000020C2000020C2000020C2E8
:10108000000020C2000020C2000020C2000020C2D8
:10109000000020C2000020C2000020C2000020C2C8
:1010A000000020C2000020C2000020C2000020C2B8
:1010B000000020C2000020C2000020C2000020C2A8
:1010C000000020C2000020C2000020C200007041C9
:1010D000CDCCA041CDCCA041CDCCA041000036422A
:1010E00033337D429A9997420000A9423333B54287
:1010F000CDCCBD42CDCCC342CDCCB8423333B442CB
:101100009A99AF420000AB426666A642CDCCA1429E
:1011100033339D429A9998420000944266668F420A
:10112000CDCC8A42333386429A99814200007A427A
:10113000CDCC70429A99674266665E42333355421F
:1011400000004C42000036429A9933423333314218
:10115000CDCC2E4266662C4200002A429A99274244
:10116000333325426666244200002442333323424F
:1011700066662242000022423333214266662042E4
:101180000000204233331F4266661E4200001E42AA
:1011900033331D4266661C4200001C4233331B423F
:1011A000CDCC1A4200001A429A991942CDCC18426D
:1011B000666618429A99174233331742666616429A
:1011C0000000164233331542CDCC144200001442C5
:1011D0009A991342CDCC1242666612429A991142F4
:1011E00033331142666610420000104233330F421F
:1011F000CDCC0E4200000E429A990D42CDCC0C424D
:1012000066660C4200000C4200000C4200000C42DA
:1012100000000C4200000C4200000C4200000C4296
:1012200000000C4200000C4200000C4200000C4286
:1012300000000C4200000C4200000C4200000C4276
:1012400000000C4200000C4200000C4200000C4266
:1018E00000000C4266660C4266660C4266660C425C
:1018F00066660C4266660C42CDCC0C42CDCC0C42E6
:10190000CDCC0C42CDCC0C4233330D4233330D429F
:1019100033330D4233330D4233330D429A990D4226
:101920009A990D429A990D429A990D4200000E42E1
:1019300000000E4200000E4200000E4266660E429B
:1019400066660E4266660E4266660E42CDCC0E425A
:10195000CDCC0E42CDCC0E4233330F4233330F4247
:1019600033330F4233330F429A990F429A990F4201
:101970009A990F42000010420000104200001042ED
:1019800066661042666610426666104266661042DF
:10199000CDCC1042CDCC1042CDCC104233331142CD
:1019A00033331142333311429A9911429A991142B9
:1019B0009A991142000012420000124266661242D9
:1019C0006666124266661242CDCC1242CDCC1242FD
:1019D000CDCC124233331342333313429A9913421C
:1019E0009A9913429A99134200001442000014423B
:1019F000666614426666144266661442CDCC144292
:101A0000CDCC1442333315423333154233331542B0
:101A10009A9915429A991542000016420000164202
:101A20006666164266661642CDCC1642CDCC16428C
:101A3000CDCC164233331742333317429A991742AB
:101A40009A99174200001842000018426666184230
:101A500066661842CDCC1842CDCC184233331942B9
:101A6000333319429A9919429A99194200001A423D
:101A700066661A4266661A42CDCC1A42CDCC1A422C
:101A800033331B4233331B429A991B429A991B42B0
:101A900000001C4266661C4266661C42CDCC1C429D
:101AA000CDCC1C4233331D429A991D429A991D4256
:101AB00000001E4200001E4266661E42CDCC1E4241
:101AC000CDCC1E4233331F4233331F429A991F42FB
:101AD000000020420000204266662042CDCC204219
:101AE000CDCC2042333321429A9921429A99214206
:101AF0000000224266662242CDCC2242CDCC224258
:101B0000333323429A9923429A9923420000244274
:101B100066662442CDCC2442CDCC244233332542C8
:101B20009A99254200002642000026426666264217
:101B3000CDCC2642333327429A9927429A9927429D
:101B40000000284266662842CDCC28423333294221
:101B50009A9929429A99294200002A4266662A42A5
:101B6000CDCC2A4233332B429A992B4200002C428F
:101B700000002C4266662C42CDCC2C4233332D42E1
:101B80009A992D4200002E4266662E42CDCC2E42FE
:101B900033332F429A992F4200003042666630421A
:101BA000CDCC3042CDCC3042333331429A993142A0
:101BB0000000324266663242CDCC32423333334289
:101BC0009A99334200003442CDCC3442333335420B
:101BD0009A9935420000364266663642CDCC36428E
:101BE000333337429A9937420000384266663842AA
:101BF000CDCC38423333394200003A4266663A422D
:101C0000CDCC3A4233333B429A993B4200003C42AE
:101C100066663C4233333D429A993D4200003E4263
:101C200066663E42CDCC3E429A993F420000404219
:101C300066664042CDCC40429A9941420000424201
:101C400066664242CDCC4242333343429A99434284
:101C500000004442CDCC4442333345429A99454238
:101C60000000464266664642CDCC46429A994742BB
:101C70000000484266664842CDCC48423333494270
:101C800000004A4266664A42CDCC4A4233334B4258
:101C900000004C4266664C42CDCC4C429A994D4273
:101CA00000004E4266664E4233334F429A994F428D
:101CB00000005042CDCC5042333351429A995142A8
:101CC00066665242CDCC52423333534200005442F6
:101CD00066665442333355429A9955426666564277
:101CE000CDCC56429A9957420000584266665842F7
:101CF000333359429A99594266665A4233335B42AA
:101D00009A995B4266665C42CDCC5C429A995D4290
:101D100000005E42CDCC5E4233335F420000604241
:101D2000CDCC60423333614200006242CDCC62428E
:101D30003333634200006442CDCC644233336542A6
:101D400000006642CDCC66423333674200006842F1
:101D5000CDCC68429A99694200006A42CDCC6A4271
:101D60009A996B4266666C4233336D429A996D4222
:101D700066666E4233336F4200007042CDCC7042D3
:101D80009A99714266667242333373429A997342EA
:101D9000666674423333754200007642CDCC76429B
:101DA0009A997742666678423333794200007A42E4
:101DB000CDCC7A429A997B4266667C4233337D422F
:101DC00000007E42CDCC7E420000804266668042AA
:101DD000CDCC8042333381429A99814200008242C5
:101DE0006666824200008342333383429A9983427B
:101DF0000000844266668442CDCC844233338542FF
:101E00009A9985420000864266668642CDCC86421B
:101E1000333387429A998742000088426666884237
:101E2000CDCC8842333389429A99894200008A4254
:101E300066668A42CDCC8A4233338B429A998B4272
:101E400000008C4266668C42CDCC8C4233338D428E
:101E50009A998D4200008E4266668E42CDCC8E42AB
:101E600033338F429A998F420000904266669042C7
:101E7000CDCC9042333391429A99914200009242E4
:101E800066669242CDCC9242333393429A99934202
:101E90000000944266669442CDCC9442333395421E
:101EA0009A9995420000964266669642CDCC96423B
:101EB000333397429A999742000098426666984257
:101EC000CDCC9842333399429A99994200009A4274
:101ED00066669A42CDCC9A4233339B429A999B4292
:101EE00000009C4266669C42CDCC9C4233339D42AE
:101EF0009A999D4200009E4266669E42CDCC9E42CB
:101F000033339F429A999F420000A0429A99A0427F
:101F10003333A142CDCCA1426666A2420000A34267
:101F20009A99A3423333A442CDCCA4426666A5421B
:101F30000000A6429A99A6423333A742CDCCA742CD
:101F40006666A8420000A9429A99A9423333AA4280
:101F5000CDCCAA426666AB420000AC429A99AC4234
:101F60003333AD42CDCCAD426666AE420000AF42E7
:101F70009A99AF423333B042CDCCB0426666B1429B
:101F80000000B2429A99B2423333B342CDCCB3424D
:101F90006666B4420000B5429A99B5423333B64200
:101FA000CDCCB6426666B7420000B8429A99B842B4
:101FB0003333B942CDCCB9426666BA420000BB4267
:101FC0009A99BB423333BC42CDCCBC426666BD421B
:101FD0000000BE429A99BE423333BF42CDCCBF42CD
:101FE0006666C0420000C1426666C142CDCCC142B5
:101FF0003333C2429A99C2420000C3426666C3426A
:10200000CDCCC3423333C4429A99C4420000C54286
:102010006666C542CDCCC5423333C6426666C6420B
:102020009A99C642CDCCC6420000C7423333C7425C
:102030006666C7429A99C7429A99C7429A99C74217
:102040009A99C7429A99C7429A99C7429A99C742A0
:102050009A99C7429A99C7429A99C7429A99C74290
:102060009A99C7429A99C7429A99C7429A99C74280
:10207000000020419A9921419A9921419A99214140
:10208000000014429A995F4233338A429A999C42E3
:102090009A99A9429A99B2423333AD4266669F42F9
:1020A0009A99924233339042333387429A997D42D0
:1020B0009A996D42CDCC5E420000584200005042D9
:1020C0000000484233333F423333374233332F42E9
:1020D0009A992742CDCC204266661E4233331B427A
:1020E0009A9917423333134233330F42CDCC0A420D
:1020F000CDCC0642666602429A99FD419A99F54115
:102100006666EE416666EE419A99E5416666DE4195
:102110000000D8413333D7419A99D5416666D24100
:10212000CDCCD4416666CA413333C7413333C34152
:102130000000C041CDCCBC419A99B9416666B64118
:102140003333B3413333AF41CDCCAC416666AA41A2
:102150000000A8410000A8413333A7413333A74111
:102160003333A7413333A7416666A6416666A6416D
:102170006666A6419A99A5419A99A5419A99A54161
:10218000CDCCA441CDCCA441CDCCA4410000A441F0
:102190000000A4410000A4413333A3413333A341E1
:1021A0003333A3416666A2416666A2416666A241D8
:1021B0009A99A1419A99A1419A99A141CDCCA04166
:1021C000CDCCA041CDCCA0410000A0410000A04159
:1021D0000000A0410000A0410000A0410000A0417B
:1021E0000000A0410000A0410000A0410000A0416B
:1021F0000000A0410000A0410000A0410000A0415B
:102200000000A0410000A0410000A0410000A0414A
:1027D0000000A0410000A041CDCCA041CDCCA04143
:1027E000CDCCA0419A99A1419A99A1419A99A14130
:1027F0009A99A1416666A2416666A2416666A241B7
:102800003333A3413333A3413333A3410000A44105
:102810000000A4410000A441CDCCA441CDCCA441F2
:10282000CDCCA4419A99A5419A99A5419A99A541DF
:102830006666A6416666A6416666A6413333A74131
:102840003333A7413333A7410000A8410000A8411A
:102850000000A841CDCCA841CDCCA841CDCCA84109
:102860009A99A9419A99A9419A99A9416666AA415A
:102870006666AA416666AA413333AB413333AB4146
:102880003333AB410000AC410000AC410000AC412F
:10289000CDCCAC41CDCCAC41CDCCAC419A99AD4185
:1028A0009A99AD419A99AD416666AE416666AE4170
:1028B0006666AE413333AF413333AF413333AF415B
:1028C0000000B0410000B0410000B041CDCCB041AB
:1028D000CDCCB041CDCCB0419A99B1419A99B1419A
:1028E0009A99B1416666B2416666B2416666B24186
:1028F0003333B3413333B3413333B3413333B34170
:102900000000B4410000B4410000B441CDCCB4415A
:10291000CDCCB441CDCCB4419A99B5419A99B54149
:102920009A99B5416666B6416666B6416666B64135
:102930003333B7413333B7413333B7410000B84184
:102940000000B8410000B841CDCCB841CDCCB84171
:10295000CDCCB8419A99B9419A99B9419A99B9415E
:102960006666BA416666BA416666BA413333BB41B0
:102970003333BB413333BB410000BC410000BC4199
:102980000000BC41CDCCBC41CDCCBC41CDCCBC4188
:102990009A99BD419A99BD419A99BD416666BE41D9
:1029A0006666BE416666BE413333BF413333BF41C5
:1029B0003333BF410000C0410000C0410000C041AE
:1029C000CDCCC041CDCCC041CDCCC0419A99C14104
:1029D0009A99C1419A99C1416666C2416666C241EF
:1029E0006666C2413333C3413333C3413333C341DA
:1029F0000000C4410000C4410000C441CDCCC4412A
:102A0000CDCCC441CDCCC441CDCCC4419A99C541B3
:102A10009A99C5419A99C5416666C6416666C6419E
:102A20006666C6413333C7413333C7413333C74189
:102A30000000C8410000C8410000C841CDCCC841D9
:102A4000CDCCC841CDCCC8419A99C9419A99C941C8
:102A50009A99C9416666CA416666CA416666CA41B4
:102A60003333CB413333CB413333CB410000CC4103
:102A70000000CC410000CC41CDCCCC41CDCCCC41F0
:102A8000CDCCCC419A99CD419A99CD419A99CD41DD
:102A90006666CE416666CE416666CE413333CF412F
:102AA0003333CF413333CF410000D0410000D04118
:102AB0000000D041CDCCD041CDCCD0419A99D1416C
:102AC0009A99D1419A99D1416666D2416666D241BE
:102AD0003333D3413333D3413333D3410000D44173
:102AE0000000D441CDCCD441CDCCD441CDCCD441C7
:102AF0009A99D5419A99D5416666D6416666D6417E
:102B00006666D6413333D7413333D7410000D841CD
:102B10000000D841CDCCD841CDCCD8419A99D941EB
:102B20009A99D9416666DA416666DA416666DA41A3
:102B30003333DB413333DB410000DC410000DC4157
:102B4000CDCCDC41CDCCDC419A99DD419A99DD4177
:102B50006666DE413333DF413333DF410000E0415D
:102B60000000E0416666DE413333DF413333DF414D
:102B70000000E0410000E041CDCCE041CDCCE0419F
:102B80009A99E1419A99E1416666E2416666E241BD
:102B90003333E3410000E4410000E441CDCCE441A3
:102BA000CDCCE4419A99E5416666E6416666E64128
:102BB0003333E7410000E8410000E841CDCCE84173
:102BC000CDCCE8419A99E9416666EA416666EA41F8
:102BD0003333EB410000EC410000EC41CDCCEC4143
:102BE0009A99ED416666EE416666EE413333EF41F8
:102BF0000000F041CDCCF041CDCCF0419A99F141AB
:102C00006666F2413333F3413333F3410000F4415C
:102C1000CDCCF4419A99F5416666F6416666F64177
:102C20003333F7410000F841CDCCF8419A99F9418E
:102C30006666FA416666FA413333FB410000FC41A7
:102C4000CDCCFC419A99FD416666FE413333FF418C
:102C50000000004266660042CDCC004233330142A0
:102C60009A9901420000024266660242CDCC0242BD
:102C7000333303429A9903420000044266660442D9
:102C8000CDCC0442333305429A99054200000642F6
:102C900066660642333307429A99074200000842AB
:102CA00066660842CDCC08423333094200000A422E
:102CB00066660A42CDCC0A4233330B4200000C4216
:102CC00066660C42CDCC0C429A990D4200000E4231
:102CD00066660E4233330F429A990F42000010424B
:102CE000CDCC1042333311420000124266661242CC
:102CF000CDCC12429A99134200001442CDCC14421A
:102D00003333154200001642CDCC164233331742FE
:102D100000001842666618423333194200001A4216
:102D200066661A4233331B4200001C4266661C4230
:102D300033331D4200001E42CDCC1E4233331F42AE
:102D400000002042CDCC20429A9921426666224260
:102D5000CDCC22429A9923426666244233332542DF
:102D600000002642CDCC26429A9927426666284228
:102D70003333294200002A42CDCC2A4200002C42A3
:102D8000CDCC2C429A992D4266662E4233332F4287
:102D9000000030423333314200003242CDCC324267
:102DA00000003442CDCC34429A993542CDCC3642E3
:102DB0009A993742666638429A99394266663A422B
:102DC0009A993B4266663C429A993D42CDCC3E423E
:102DD0009A993F42CDCC40429A994142CDCC424251
:102DE00000004442333345420000464233334742F9
:102DF000666648429A994942CDCC4A4200004C420C
:102E000033334D4266664E429A994F42CDCC504282
:102E10000000524233335342666654429A995542F7
:102E2000CDCC5642000058429A995942CDCC5A42D4
:102E300000005C429A995D42CDCC5E420000604247
:102E40009A996142CDCC6242666664429A99654223
:102E5000333367426666684200006A429A996B4261
:102E6000CDCC6C4266666E4233336F42666670420A
:102E7000333371426666724233337342666674421C
:102E80009A99754233337742CDCC7842CDCC7A4291
:102E900066667C4266667E42000080420000814297
:102EA000CDCC8142CDCC82429A9983429A99844278
:102EB0006666854233338642333387420000884258
:102EC00000008942CDCC8942CDCC8A429A998B426E
:102ED0009A998C4266668D4266668E4233338F4283
:102EE0000000904200009142CDCC9142CDCC924264
:102EF0009A9993429A99944266669542666696427A
:102F000033339742333398420000994200009A428B
:102F1000CDCC9A429A999B429A999C4266669D4270
:102F200066669E4233339F423333A0420000A14283
:102F30000000A242CDCCA242CDCCA3429A99A44299
:102F40006666A5426666A6423333A7423333A8427B
:102F50000000A9420000AA42CDCCAA42CDCCAB428F
:102F60009A99AC429A99AD426666AE423333AF420B
:102F70006666B0426666B1426666B2426666B34253
:102F80009A99B4429A99B5429A99B6429A99B74297
:102F9000CDCCB842CDCCB942CDCCBA423333BC4211
:102FA0009A99BD420000BF426666BF42CDCCBF4287
:102FB000CDCCC0426666C1420000C2429A99C2426C
:102FC0006666C3423333C4420000C5426666C542EA
:102FD0009A99C542CDCCC5420000C6426666C6423B
:102FE0009A99C642CDCCC6429A99C7429A99C7428D
:102FF0009A99C7429A99C7429A99C7429A99C742E1
:103000009A99C7429A99C7429A99C7429A99C742D0
:103010009A99C7423412000091DC000000000000C1
:10302000010001006009280A26006009280A320010
:103030000700960008000A0019000A001E0064003C
:10304000A4062C01FA000000B00408003F000100B3
:103050001800690005003C000900640055000000EC
:10306000010000006C07C2013104C506AA09B10CB9
:10307000450F2913AD01EE034208F20AFA0C8C0F3A
:10308000FC121E020D053407BF0AEF0C46100D138B
:103090005A00D7005B01EF018A020F03D6035600E6
:1030A000C900A701310299021D03CD036D00030180
:1030B0007101270297024203D0030A0064008813BB
:1030C00088138813000000000000E20470FE000076
:1030D00000000000000000000000000000000000F0
:1030E00000000000000000000000000000000000E0
:1030F00000000000000000000000000000000000D0
:1031000000000000000000000000000000000000BF
:1031100000000000000000000000000000000000AF
:10312000000000000000000000000000000000009F
:10313000000000000000000000000000000000008F
:10314000000000000000000000000000000000007F
:10315000000000000000000000000000000000006F
:10316000000000000000000000000000000000005F
:10317000000000000000000000000000000000004F
:10318000000000000000000000000000000000003F
:10319000000000000000000000000000000000002F
:1031A000000000000000000000000000000000001F
:1031B000000000000000000000000000000000000F
:1031C00000000000000000000180018000000000FD
:1031D00000003408FC0814003408FC081400030044
:1031E000C80005000500050005000A003200E803DC
:1031F000640032000180E80305001E000000140096
:103200003200010001000100320032000000000025
:103210000000780500000000000000000000000031
:10322000000000000000000000000000000000009E
:10323000000000000000000000000000000000008E
:10324000000000000000000000000000000000007E
:10325000000000000000000000000000000000006E
:103260000000000000000000050050000000000009
:10327000000000000000000070FE70FE0000000072
:10328000000000000000000000000000000000003E
:10329000000000000000000000000000000000002E
:1032A000000000000000000000000000000000001E
:1032B000000000000000000000000000000000000E
:1032C00000000000000000000000000000000000FE
:1032D00000000000000000000000000000000000EE
:1032E00000000000000000000000000000000000DE
:1032F00000000000000000000000000000000000CE
:1033000000000000000000000000000000000000BD
:1033100000000000000000000000000000000000AD
:10332000000000000000000000000000000000009D
:10333000000000000000000000000000000000008D
:10334000000000000000000000000000000000007D
:10335000000000000000000000000000000000006D
:10336000000000000000000000000000000000005D
:10337000000000000000FF7FFF7F0400020001004A
:10338000280AF00AC800280AF00AC8000F005802EC
:1033900014000F0064006400C800F401C012E803C8
:1033A000E803FF7F88131400C8000A00C800C800A3
:1033B0006400D0026400FA002C0101000100B60391
:1033C0009808881388138813881388138813881320
:1033D0008813881388138813881388138813881315
:1033E000881388138813881388138813E803E80365
:1033F000E803E803E803E803E803E803E803E80375
:10340000E803E803E803E803E803E803E803E80364
:10341000E803E803E8031400C8008813881388133E
:10342000FF7FFF7FFF7FE204E204FF7FFF7FFF7FDC
:10343000FF7FFF7FFF7FFF7FFF7FFF7FFF7FFF7F9C
:10344000FF7FFF7FFF7FFF7FFF7FFF7FFF7FFF7F8C
:10345000FF7FFF7FFF7FFF7FFF7FFF7FFF7FFF7F7C
:10346000FF7FFF7FFF7FFF7FFF7FFF7FFF7FFF7F6C
:10347000FF7FFF7FFF7FFF7FFF7FFF7FFF7FFF7F5C
:10348000FF7FFF7FFF7FFF7FFF7FFF7FFF7FFF7F4C
:10349000FF7FFF7FFF7FFF7FFF7FFF7FFF7FFF7F3C
:1034A000FF7FFF7FFF7FFF7FFF7FFF7FFF7FFF7F2C
:1034B000FF7FFF7FFF7FFF7FFF7FFF7FFF7FFF7F1C
:1034C000FF7FFF7FFF7FFF7FFF7FFF7FFF7FFF7F0C
:1034D000FF7FFF7FFF7FFF7FFF7FFF7FFF7FFF7FFC
:1034E000FF7FFF7FFF7FFF7FFF7FFF7FFF7FFF7FEC
:1034F000FF7FFF7FFF7FFF7FFF7FFF7FFF7FFF7FDC
:10350000FF7FFF7FFF7FFF7FFF7FFF7FFF7FFF7FCB
:10351000FF7FFF7FFF7FFF7FFF7FFF7FFF7F6E616A
:103520006E00696E660000407A10F35A00A0724E79
:1035300018090010A5D4E80000E87648170000E458
:103540000B54020000CA9A3B000000E1F5050000A0
:1035500080969800000040420F000000A086010005
:103560000000102700000000E803000000006400D5
:10357000000000000A000000000001000000000040
:103580002C76D888DC674F0823DFC1DFAE59E1B164
:10359000B796E5E3E453C63AE651997696E8E6C273
:1035A0008426EB898C9B62ED407C6FFCEFBC9C9F7A
:1035B00040F2BAA56FA5F490055A2AF75C936B6C9C
:1035C000F9676DC11BFCE0E40D47FEF520E6B50090
:1035D000D0ED902E0300943577050080841E0800FE
:1035E00000204E0A000000C80C333333330F986EAE
:1035F00012831141EF8D2114893BE65516CFFEE66B
:10360000DB18D1844B381BF77C1D901DA4BBE42430
:10361000203284725E228100C9F124ECA1E53D27AD
:1036200011241FBECFEFD1E2DEBFCDBFE4E5F0E055
:1036300080818093871CE4E5F0E0108288E10FB67A
:10364000F89480936000109260000FBE15E0A0E037
:10365000B2E0ECE9FCE101E00BBF02C007900D9283
:10366000A634B107D9F71CE1A6E4B5E001C01D926C
:10367000A738B107E1F70E944F400C944C8E0C9490
:103680000000DF93CF93CDB7DEB7ECE7F0E083E443
:103690008083EAE7F0E08FE88083EBE7F0E01082D8
:1036A000EEE7F0E08FEF808310926F0510926E05C9
:1036B00010924F0510924E058091891B90918A1BA4
:1036C000AA2797FDA095BA2FBC01CD010E946A8759
:1036D000DC01CB01BC01CD0120E030E040E251E44F
:1036E0000E94CF86DC01CB01809362059093630535
:1036F000A0936405B093650580918B1B90918C1B02
:10370000AA2797FDA095BA2FBC01CD010E946A8718
:10371000DC01CB01BC01CD0120E030E040E251E40E
:103720000E94CF86DC01CB0180936A0590936B05E4
:10373000A0936C05B0936D05CF91DF9108951F9212
:103740000F920FB60F9200905B000F9211242F93EF
:103750003F934F935F936F937F938F939F93AF9319
:10376000BF93EF93FF93DF93CF9300D0CDB7DEB736
:10377000ECE7F0E08081282F30E03A8329836981EB
:103780007A816334710509F45CC089819A8184343B
:10379000910584F4E981FA81E134F10561F129812F
:1037A0003A8122343105DCF569817A816034710512
:1037B00071F0FEC189819A818434910509F435C183
:1037C000E981FA81E534F10509F484C1F1C1E8E742
:1037D000F0E08081918190935D0580935C05ECE73A
:1037E000F0E081E48083AAE7B0E0EAE7F0E08081DE
:1037F00080648C93DDC1E8E7F0E080819181909353
:103800005F0580935E05ECE7F0E082E48083AAE741
:10381000B0E0EAE7F0E0808180648C93C9C18091D8
:1038200070128F5F80937012E8E7F0E080819181E1
:103830009093610580936005ECE7F0E083E480837A
:10384000B7C180917012882F90E0DC01AF71B07029
:1038500080918812882F90E0AC0141705070609187
:103860008F0670919006E8E7F0E0208131818EEEBE
:1038700092E0FC014E9FC0014F9F900D5E9F900D06
:103880001124860F971F880F991FFC01E756F94FE7
:10389000318320838EEE92E09C01429FC001439FC2
:1038A000900D529F900D1124860F971F880F991F1E
:1038B000FC01E756F94F20813181CD01880F991F16
:1038C000FC01E153FD4E318320838091CE12813083
:1038D00061F4ECE7F0E084E48083AAE7B0E0EAE793
:1038E000F0E0808180648C9363C1ECE7F0E080E4D9
:1038F0008083AAE7B0E0EAE7F0E0808180648C93FF
:1039000080918F06909190068A3F910550F48091A6
:103910008F069091900601969093900680938F0663
:1039200004C01092900610928F0680918F0690919D
:1039300090062AE030E0B9010E943D8C009709F022
:1039400037C180918812882F90E09C0121703070DF
:103950004091CF195091D019E4E8F0E06081718175
:10396000C901880F991F820F931F880F991F880F15
:10397000991F880F991F820F931F840F951F880F1F
:10398000991FFC01E151F64E71836083E4E8F0E099
:103990001182108280917012882F90E0BC016F71AB
:1039A000707080918812882F90E09C012170307097
:1039B0004091CF195091D019C901880F991F820FDA
:1039C000931F880F991F880F991F880F991F820FC7
:1039D000931F840F951F880F991FFC01E151F64E2C
:1039E00020813181CB01880F991FFC01E757FD4EE3
:1039F000318320838091CF199091D019893191051D
:103A000050F48091CF199091D01901969093D019CC
:103A10008093CF19CDC01092D0191092CF198091F8
:103A200088128F5F80938812C3C080917012882F94
:103A300090E0DC01AF71B07080918812882F90E027
:103A40009C012170307040918F0650919006E8E7FC
:103A5000F0E0608171818EEE92E0FC012E9FC0014A
:103A60002F9F900D3E9F900D1124840F951F86501F
:103A70009F4F880F991FFC01E756F94F71836083B0
:103A80008EEE92E0BC01269FC001279F900D369FCD
:103A9000900D1124840F951F86509F4F880F991FFA
:103AA000FC01E756F94F20813181CD018096880FC6
:103AB000991FFC01E153FD4E31832083ECE7F0E0D8
:103AC00085E48083AAE7B0E0EAE7F0E080818064E3
:103AD0008C936EC080917012882F90E0DC01AF71E2
:103AE000B07080918812882F90E09C012170307016
:103AF00040918F0650919006E8E7F0E06081718177
:103B00008EEE92E0FC012E9FC0012F9F900D3E9FF4
:103B1000900D1124840F951F8C509E4F880F991F74
:103B2000FC01E756F94F718360838EEE92E0BC0191
:103B3000269FC001279F900D369F900D1124840F62
:103B4000951F8C509E4F880F991FFC01E756F94F27
:103B500020813181CD01805C9F4F880F991FFC012E
:103B6000E153FD4E3183208380918F069091900622
:103B700001969093900680938F0680918F06909186
:103B800090068A3F910549F41092900610928F0694
:103B9000809188128F5F80938812ECE7F0E081E4D7
:103BA0008083AAE7B0E0EAE7F0E0808180648C934C
:103BB0000F900F90CF91DF91FF91EF91BF91AF9157
:103BC0009F918F917F916F915F914F913F912F9135
:103BD0000F9000925B000F900FBE0F901F901895F2
:103BE000EF92FF920F931F93DF93CF93CDB7DEB782
:103BF00080919E1690919F16009709F4F3C0109241
:103C00009F1610929E168091500590915105A0919B
:103C10005205B0915305BC01CD012CEE31E548E7CA
:103C20005FE30E941E88DC01CB017C018D01809145
:103C30005C0590915D05CC01A0E0B0E0BC01CD0138
:103C40000E946887DC01CB01BC01CD012FE832EC7A
:103C500045EF5CE30E941E88DC01CB019C01AD01B5
:103C6000C801B7010E946786DC01CB018093500533
:103C700090935105A0935205B0935305809154053C
:103C800090915505A0915605B0915705BC01CD0105
:103C90002CEE31E548E75FE30E941E88DC01CB0192
:103CA0007C018D0180915E0590915F05CC01A0E0C3
:103CB000B0E0BC01CD010E946887DC01CB01BC01F2
:103CC000CD012FE832EC45EF5CE30E941E88DC0159
:103CD000CB019C01AD01C801B7010E946786DC01E0
:103CE000CB018093540590935505A0935605B0934E
:103CF00057058091580590915905A0915A05B091AA
:103D00005B05BC01CD012CEE31E548E75FE30E9485
:103D10001E88DC01CB017C018D01809160059091B2
:103D20006105CC01A0E0B0E0BC01CD010E94688734
:103D3000DC01CB01BC01CD012FE832EC45EF5CE3A7
:103D40000E941E88DC01CB019C01AD01C801B701B6
:103D50000E946786DC01CB0180935805909359053A
:103D6000A0935A05B0935B05809150059091510541
:103D7000A0915205B0915305BC01CD0126E535ED6A
:103D800049EB5EE30E941E88DC01CB0180934A056B
:103D900090934B05A0934C05B0934D05809154052D
:103DA00090915505A0915605B0915705BC01CD01E4
:103DB00028E738E744E45DE30E941E88DC01CB017C
:103DC000BC01CD0120E030E040E85FE30E9467865F
:103DD000DC01CB018093460590934705A0934805ED
:103DE000B0934905CF91DF911F910F91FF90EF9014
:103DF0000895DF93CF9300D000D000D0CDB7DEB7C9
:103E00008091A8169091A916009709F4F1C010921C
:103E1000A9161092A8168091580590915905A09165
:103E20005A05B0915B05BC01CD010E943C87DC01C5
:103E3000CB01880F991F880F991F84539F4F9E8332
:103E40008D838D819E81FC0185919591A591B49181
:103E500089839A83AB83BC83FE83ED8389819A81B6
:103E6000AB81BC818093660590936705A09368053C
:103E7000B09369058091660590916705A0916805EA
:103E8000B091690520916205309163054091640508
:103E900050916505BC01CD010E94CB8688230CF0B2
:103EA00044C080916E0590916F058530910550F466
:103EB00080916E0590916F05019690936F058093A8
:103EC0006E0537C08091660590916705A0916805E1
:103ED000B09169058093620590936305A093640592
:103EE000B09365058091620590916305A09164058A
:103EF000B0916505BC01CD0120E030E040E251E425
:103F00000E941E88DC01CB01BC01CD010E943787D5
:103F1000DC01CB019C018BE590E0B9010E94827726
:103F200010926F0510926E0504C010926F051092EA
:103F30006E058091660590916705A0916805B09126
:103F4000690520916A0530916B0540916C0550918F
:103F50006D05BC01CD010E941A8818160CF044C0F2
:103F600080914E0590914F058530910550F48091D8
:103F70004E0590914F05019690934F0580934E0505
:103F800037C08091660590916705A0916805B09152
:103F9000690580936A0590936B05A0936C05B093B7
:103FA0006D0580916A0590916B05A0916C05B091AB
:103FB0006D05BC01CD0120E030E040E251E40E94FB
:103FC0001E88DC01CB01BC01CD010E943787DC01DA
:103FD000CB019C018CE590E0B9010E9482771092A0
:103FE0004F0510924E0504C010924F0510924E05D9
:103FF00026960FB6F894DEBF0FBECDBFCF91DF91EE
:104000000895DF93CF93CDB7DEB7AEE2B0E0EEE236
:10401000F0E0808184608C93AEE2B0E0EEE2F0E00C
:10402000808188608C93A4E3B0E0E4E3F0E08081D9
:104030008F7E8C9385E090E00E94E06A80EA9FE0AA
:104040000E941321CF91DF910895DF93CF93CDB7D5
:10405000DEB7AEE2B0E0EEE2F0E0808188608C9303
:104060008AE00E940B6BAEE2B0E0EEE2F0E080810D
:1040700084608C938AE00E940B6BAEE2B0E0EEE2CB
:10408000F0E08081877F8C938AE00E940B6BAEE228
:10409000B0E0EEE2F0E080818B7F8C938AE00E94BA
:1040A0000B6BCF91DF910895DF93CF93CDB7DEB740
:1040B000AEE2B0E0EEE2F0E08081877F8C938AE0B0
:1040C0000E940B6BAEE2B0E0EEE2F0E08081846033
:1040D0008C938AE00E940B6BAEE2B0E0EEE2F0E07F
:1040E000808188608C938AE00E940B6BCF91DF9176
:1040F0000895DF93CF930F92CDB7DEB7AEE2B0E075
:10410000EEE2F0E0808184608C938AE00E940B6B89
:10411000ECE2F0E0808186958695869581708983B2
:10412000AEE2B0E0EEE2F0E080818B7F8C938AE03B
:104130000E940B6B89810F90CF91DF910895DF93DF
:10414000CF9300D00F92CDB7DEB78B831A8219823E
:104150002EC08B81882344F4AEE2B0E0EEE2F0E0C2
:10416000808188608C9307C0AEE2B0E0EEE2F0E0C0
:104170008081877F8C938B81880F8B83AEE2B0E048
:10418000EEE2F0E0808184608C938AE00E940B6B09
:10419000AEE2B0E0EEE2F0E080818B7F8C938AE0CB
:1041A0000E940B6B89819A8101969A838983898108
:1041B0009A818830910568F20E9479200F900F90C3
:1041C0000F90CF91DF910895DF93CF9300D00F929E
:1041D000CDB7DEB79B838A8319820E94252088E9A8
:1041E0000E949F20882319F08981816089838A81B8
:1041F0009B81892F99270E949F20882319F089810C
:10420000826089838A810E949F20882319F4898192
:10421000846089830E94542089810F900F900F90B1
:10422000CF91DF910895DF93CF9300D0CDB7DEB764
:104230009A83898389819A81CC01A0E0B0E0BC0196
:10424000CD010E946887DC01CB01BC01CD012DEBC3
:1042500037E346E855E30E941E88DC01CB01BC0130
:10426000CD0120E030E048EC52E40E94CF86DC0132
:10427000CB01BC01CD0120E030E44CE956E40E94C2
:104280001E88DC01CB01BC01CD0120E030E040EA1A
:104290005AE30E94CF86DC01CB01BC01CD010E9414
:1042A0003C87DC01CB019F700E94E4200F900F90AF
:1042B000CF91DF910895DF93CF93CDB7DEB7E1E2E1
:1042C000F0E088E38083E2E2F0E01082E4E2F0E0F4
:1042D00080E38083E5E2F0E082E88083E7E2F0E0DB
:1042E0001082E8E2F0E08FEF8083EAE2F0E088EB12
:1042F0008083EBE2F0E08CE08083EDE2F0E08EEC96
:104300008083EEE2F0E08FE48083E0E3F0E010826F
:10431000E1E3F0E01082E3E3F0E088E18083E4E3AE
:10432000F0E080E18083CF91DF910895DF93CF9318
:10433000CDB7DEB780917E12813041F4A5E2B0E0C6
:10434000E5E2F0E080818F7E8C9307C0A5E2B0E0CB
:10435000E5E2F0E0808180618C93CF91DF91089558
:10436000DF93CF93CDB7DEB780917E12813041F4D9
:10437000A5E2B0E0E5E2F0E0808180618C9307C0C7
:10438000A5E2B0E0E5E2F0E080818F7E8C93CF91F2
:10439000DF910895DF93CF93CDB7DEB7809186127A
:1043A000813041F4A5E2B0E0E5E2F0E080818F7D6C
:1043B0008C9307C0A5E2B0E0E5E2F0E08081806286
:1043C0008C93CF91DF910895DF93CF93CDB7DEB774
:1043D00080918612813041F4A5E2B0E0E5E2F0E0A0
:1043E000808180628C9307C0A5E2B0E0E5E2F0E056
:1043F00080818F7D8C93CF91DF910895DF93CF9350
:10440000CDB7DEB76C970FB6F894DEBF0FBECDBF49
:104410001092900610928F0610922106109220069C
:1044200010928E0610928D068091CE12882309F08C
:1044300061C08091E31A9091E41AAA2797FDA09594
:10444000BA2FBC01CD010E946A87DC01CB01BC01FF
:10445000CD012FE632E143E85AE30E941E88DC01D9
:10446000CB01BC01CD0120E030E040EA5BE30E94DB
:10447000CF86DC01CB01BC01CD010E943C87DC0171
:10448000CB0190939806809397068091E51A9091BE
:10449000E61AAA2797FDA095BA2FBC01CD010E946C
:1044A0006A87DC01CB01BC01CD012FE632E143E894
:1044B0005AE30E941E88DC01CB01BC01CD0120E043
:1044C00030E040EA5BE30E94CF86DC01CB01BC0117
:1044D000CD010E943C87DC01CB0190936512809353
:1044E00064128091E71A9091E81A90935312809386
:1044F000521260C08091E91A9091EA1AAA2797FD9A
:10450000A095BA2FBC01CD010E946A87DC01CB01C6
:10451000BC01CD012FE632E143E85AE30E941E8838
:10452000DC01CB01BC01CD0120E030E040EA5BE3DF
:104530000E94CF86DC01CB01BC01CD010E943C87EB
:10454000DC01CB0190939806809397068091EB1A3B
:104550009091EC1AAA2797FDA095BA2FBC01CD0126
:104560000E946A87DC01CB01BC01CD012FE632E15C
:1045700043E85AE30E941E88DC01CB01BC01CD0157
:1045800020E030E040EA5BE30E94CF86DC01CB0113
:10459000BC01CD010E943C87DC01CB0190936512E8
:1045A000809364128091ED1A9091EE1A90935312B9
:1045B000809352128091EF1A9091F01A9093820694
:1045C000809381068091F11A9091F21A909357127C
:1045D000809356128091F31A9091F41AAA2797FDAE
:1045E000A095BA2FBC01CD010E946A87DC01CB01E6
:1045F000BC01CD0120E030E44CE156E40E94CF86BE
:10460000DC01CB018093890690938A06A0938B06E8
:10461000B0938C068FEF809322068FEF8093230652
:104620008FEF809324068091F51A9091F61A80936B
:1046300080068091F71A9091F81AAA2797FDA09505
:10464000BA2FBC01CD010E946A87DC01CB01BC01FD
:10465000CD012FE632E143E85AE30E941E88DC01D7
:10466000CB018093601290936112A0936212B09379
:1046700063128091F91A9091FA1A909359128093CB
:1046800058128091FB1A9091FC1A90932606809301
:1046900025068091FD1A9091FE1A909355128093F1
:1046A00054128091FF1A9091001BAA2797FDA095A4
:1046B000BA2FBC01CD010E946A87DC01CB01BC018D
:1046C000CD012FE632E143E85AE30E941E88DC0167
:1046D000CB018093850690938606A0938706B093BE
:1046E00088068091011B9091021BAA2797FDA09537
:1046F000BA2FBC01CD010E946A87DC01CB01BC014D
:10470000CD012FE632E143E85AE30E941E88DC0126
:10471000CB018093661290936712A0936812B093B6
:1047200069128091031B9091041B90931F06809344
:104730001E068091051B9091061B892F9927809357
:1047400051128091051B9091061B80937B068091EE
:104750007B068D3F1CF48DEF80937B0680917B1B45
:1047600090917C1B90938406809383068091251BF7
:104770009091261BAA2797FDA095BA2FBC01CD01C9
:104780000E946A87DC01CB01BC01CD012FE632E13A
:1047900043E85AE30E941E88DC01CB018093270680
:1047A00090932806A0932906B0932A068091271B90
:1047B0009091281BAA2797FDA095BA2FBC01CD0187
:1047C0000E946A87DC01CB01BC01CD012FE632E1FA
:1047D00043E85AE30E941E88DC01CB0180932B063C
:1047E00090932C06A0932D06B0932E068091291B42
:1047F00090912A1BAA2797FDA095BA2FBC01CD0145
:104800000E946A87DC01CB01BC01CD012FE632E1B9
:1048100043E85AE30E941E88DC01CB0180932F06F7
:1048200090933006A0933106B093320680912B1BF3
:1048300090912C1BAA2797FDA095BA2FBC01CD0102
:104840000E946A87DC01CB01BC01CD012FE632E179
:1048500043E85AE30E941E88DC01CB0180933306B3
:1048600090933406A0933506B093360680912D1BA5
:1048700090912E1BAA2797FDA095BA2FBC01CD01C0
:104880000E946A87DC01CB01BC01CD012FE632E139
:1048900043E85AE30E941E88DC01CB01809337066F
:1048A00090933806A0933906B0933A0680912F1B57
:1048B0009091301BAA2797FDA095BA2FBC01CD017E
:1048C0000E946A87DC01CB01BC01CD012FE632E1F9
:1048D00043E85AE30E941E88DC01CB0180933B062B
:1048E00090933C06A0933D06B0933E068091311B09
:1048F0009091321BAA2797FDA095BA2FBC01CD013C
:104900000E946A87DC01CB01BC01CD012FE632E1B8
:1049100043E85AE30E941E88DC01CB0180933F06E6
:1049200090934006A0934106B09342068091331BBA
:104930009091341BAA2797FDA095BA2FBC01CD01F9
:104940000E946A87DC01CB01BC01CD012FE632E178
:1049500043E85AE30E941E88DC01CB0180934306A2
:1049600090934406A0934506B09346068091351B6C
:104970009091361BAA2797FDA095BA2FBC01CD01B7
:104980000E946A87DC01CB01BC01CD012FE632E138
:1049900043E85AE30E941E88DC01CB01809347065E
:1049A00090934806A0934906B0934A068091371B1E
:1049B0009091381BAA2797FDA095BA2FBC01CD0175
:1049C0000E946A87DC01CB01BC01CD012FE632E1F8
:1049D00043E85AE30E941E88DC01CB0180934B061A
:1049E00090934C06A0934D06B0934E068091391BD0
:1049F00090913A1BAA2797FDA095BA2FBC01CD0133
:104A00000E946A87DC01CB01BC01CD012FE632E1B7
:104A100043E85AE30E941E88DC01CB0180934F06D5
:104A200090935006A0935106B093520680913B1B81
:104A300090913C1BAA2797FDA095BA2FBC01CD01F0
:104A40000E946A87DC01CB01BC01CD012FE632E177
:104A500043E85AE30E941E88DC01CB018093530691
:104A600090935406A0935506B093560680913D1B33
:104A700090913E1BAA2797FDA095BA2FBC01CD01AE
:104A80000E946A87DC01CB01BC01CD012FE632E137
:104A900043E85AE30E941E88DC01CB01809357064D
:104AA00090935806A0935906B0935A0680913F1BE5
:104AB0009091401BAA2797FDA095BA2FBC01CD016C
:104AC0000E946A87DC01CB01BC01CD012FE632E1F7
:104AD00043E85AE30E941E88DC01CB0180935B0609
:104AE00090935C06A0935D06B0935E068091411B97
:104AF0009091421BAA2797FDA095BA2FBC01CD012A
:104B00000E946A87DC01CB01BC01CD012FE632E1B6
:104B100043E85AE30E941E88DC01CB0180935F06C4
:104B200090936006A0936106B09362068091431B48
:104B30009091441BAA2797FDA095BA2FBC01CD01E7
:104B40000E946A87DC01CB01BC01CD012FE632E176
:104B500043E85AE30E941E88DC01CB018093630680
:104B600090936406A0936506B09366068091451BFA
:104B70009091461BAA2797FDA095BA2FBC01CD01A5
:104B80000E946A87DC01CB01BC01CD012FE632E136
:104B900043E85AE30E941E88DC01CB01809367063C
:104BA00090936806A0936906B0936A068091471BAC
:104BB0009091481BAA2797FDA095BA2FBC01CD0163
:104BC0000E946A87DC01CB01BC01CD012FE632E1F6
:104BD00043E85AE30E941E88DC01CB0180936B06F8
:104BE00090936C06A0936D06B0936E068091491B5E
:104BF00090914A1BAA2797FDA095BA2FBC01CD0121
:104C00000E946A87DC01CB01BC01CD012FE632E1B5
:104C100043E85AE30E941E88DC01CB0180936F06B3
:104C200090937006A0937106B093720680914B1B0F
:104C300090914C1BAA2797FDA095BA2FBC01CD01DE
:104C40000E946A87DC01CB01BC01CD012FE632E175
:104C500043E85AE30E941E88DC01CB01809373066F
:104C600090937406A0937506B093760680914D1BC1
:104C700090914E1BAA2797FDA095BA2FBC01CD019C
:104C80000E946A87DC01CB01BC01CD012FE632E135
:104C900043E85AE30E941E88DC01CB01809377062B
:104CA00090937806A0937906B0937A068091CE12FD
:104CB000882309F0E1C080E990E39C8F8B8F8B8D76
:104CC0009C8DFC01859194919A8F898FFC8FEB8F3D
:104CD000898D9A8DCC01A0E0B0E0BC01CD010E948D
:104CE0006887DC01CB018093CA059093CB05A09324
:104CF000CC05B093CD0582E990E3988F8F8B8F8997
:104D0000988DFC01859194919E8B8D8BF88FEF8B04
:104D10008D899E89CC01A0E0B0E0BC01CD010E944C
:104D20006887DC01CB018093CE059093CF05A093DB
:104D3000D005B093D10584E990E39C8B8B8B8B8954
:104D40009C89FC01859194919A8B898BFC8BEB8BD0
:104D500089899A89CC01A0E0B0E0BC01CD010E9414
:104D60006887DC01CB018093D2059093D305A09393
:104D7000D405B093D50586E990E3988B8F878F850E
:104D80009889FC01859194919E878D87F88BEF8798
:104D90008D859E85CC01A0E0B0E0BC01CD010E94D4
:104DA0006887DC01CB018093D6059093D705A0934B
:104DB000D805B093D90588E990E39C878B878B85CC
:104DC0009C85FC01859194919A878987FC87EB8764
:104DD00089859A85CC01A0E0B0E0BC01CD010E949C
:104DE0006887DC01CB018093DA059093DB05A09303
:104DF000DC05B093DD058AE990E398878F838F8186
:104E00009885FC01859194919E838D83F887EF832B
:104E10008D819E81CC01A0E0B0E0BC01CD010E945B
:104E20006887DC01CB018093DE059093DF05A093BA
:104E3000E005B093E1058CE990E39C838B838B8143
:104E40009C81FC01859194919A838983FC83EB83F7
:104E500089819A81CC01A0E0B0E0BC01CD010E9423
:104E60006887DC01CB018093E2059093E305A09372
:104E7000E405B093E505CEC180914F1B9091501B86
:104E8000AA2797FDA095BA2FBC01CD010E946A8781
:104E9000DC01CB018093CA059093CB05A093CC0590
:104EA000B093CD058091511B9091521BAA2797FD7D
:104EB000A095BA2FBC01CD010E946A87DC01CB010D
:104EC0008093CE059093CF05A093D005B093D105E4
:104ED0008091531B9091541BAA2797FDA095BA2F40
:104EE000BC01CD010E946A87DC01CB018093D20511
:104EF0009093D305A093D405B093D5058091551B0D
:104F00009091561BAA2797FDA095BA2FBC01CD0101
:104F10000E946A87DC01CB018093D6059093D70568
:104F2000A093D805B093D9058091571B9091581B39
:104F3000AA2797FDA095BA2FBC01CD010E946A87D0
:104F4000DC01CB018093DA059093DB05A093DC05AF
:104F5000B093DD058091591B90915A1BAA2797FDAC
:104F6000A095BA2FBC01CD010E946A87DC01CB015C
:104F70008093DE059093DF05A093E005B093E105F3
:104F800080915B1B90915C1BAA2797FDA095BA2F7F
:104F9000BC01CD010E946A87DC01CB018093E20550
:104FA0009093E305A093E405B093E50580915D1B24
:104FB00090915E1BAA2797FDA095BA2FBC01CD0149
:104FC0000E946A87DC01CB018093E6059093E70598
:104FD000A093E805B093E90580915F1B9091601B59
:104FE000AA2797FDA095BA2FBC01CD010E946A8720
:104FF000DC01CB018093EA059093EB05A093EC05CF
:10500000B093ED058091611B9091621BAA2797FDDB
:10501000A095BA2FBC01CD010E946A87DC01CB01AB
:105020008093EE059093EF05A093F005B093F10502
:105030008091631B9091641BAA2797FDA095BA2FBE
:10504000BC01CD010E946A87DC01CB018093F2058F
:105050009093F305A093F405B093F5058091651B3B
:105060009091661BAA2797FDA095BA2FBC01CD0190
:105070000E946A87DC01CB018093F6059093F705C7
:10508000A093F805B093F9058091671B9091681B78
:10509000AA2797FDA095BA2FBC01CD010E946A876F
:1050A000DC01CB018093FA059093FB05A093FC05EE
:1050B000B093FD058091691B90916A1BAA2797FD0B
:1050C000A095BA2FBC01CD010E946A87DC01CB01FB
:1050D0008093FE059093FF05A0930006B093010610
:1050E00080916B1B90916C1BAA2797FDA095BA2FFE
:1050F000BC01CD010E946A87DC01CB0180930206CE
:1051000090930306A0930406B093050680916D1B4F
:1051100090916E1BAA2797FDA095BA2FBC01CD01D7
:105120000E946A87DC01CB018093060690930706F4
:10513000A0930806B093090680916F1B9091701B95
:10514000AA2797FDA095BA2FBC01CD010E946A87BE
:10515000DC01CB0180930A0690930B06A0930C060A
:10516000B0930D068091711B9091721BAA2797FD39
:10517000A095BA2FBC01CD010E946A87DC01CB014A
:1051800080930E0690930F06A0931006B09311061D
:105190008091731B9091741BAA2797FDA095BA2F3D
:1051A000BC01CD010E946A87DC01CB01809312060D
:1051B00090931306A0931406B09315068091751B67
:1051C0009091761BAA2797FDA095BA2FBC01CD011F
:1051D0000E946A87DC01CB01809316069093170624
:1051E000A0931806B09319068091771B9091781BB5
:1051F000AA2797FDA095BA2FBC01CD010E946A870E
:10520000DC01CB0180931A0690931B06A0931C0629
:10521000B0931D0680E060E00E94043E80E061E003
:105220000E94043E80E062E00E94043E80E063E071
:105230000E94043E80E064E00E94043E80E065E05D
:105240000E94043E80E066E00E94043E81E060E04F
:105250000E94043E81E061E00E94043E81E062E041
:105260000E94043E81E063E00E94043E81E064E02D
:105270000E94043E81E065E00E94043E81E066E019
:105280000E94043E82E060E00E94043E82E061E011
:105290000E94043E82E062E00E94043E82E063E0FD
:1052A0000E94043E82E064E00E94043E82E065E0E9
:1052B0000E94043E82E066E00E94043E80E090E0AE
:1052C000A0E0B0E080937C0690937D06A0937E06DC
:1052D000B0937F066C960FB6F894DEBF0FBECDBFBD
:1052E000CF91DF9108958F929F92AF92BF92CF920C
:1052F000DF92EF92FF920F931F93DF93CF93CDB77F
:10530000DEB7C354D0400FB6F894DEBF0FBECDBF9A
:105310009DAB8CAB7FAB6EAB8091CE12813029F40C
:1053200083E090E09A8F898F04C081E090E09A8FAB
:10533000898F1C8E1B8E0C94D33581E090E099A34D
:1053400088A38EA99FA923E18239920729F48EE2CE
:1053500095E19DA78CA706C08EA99FA98E5C904061
:105360009DA78CA71D8E8B8D9C8D2EA93FA9459640
:10537000880F991F880F991FF901E80FF91F80E026
:1053800090E0A0E0B0E080839183A283B3838B8D13
:105390009C8D2EA93FA9880F991FF901E80FF91FCD
:1053A000118210828B8D9C8D2EA93FA90396880FA8
:1053B000991FF901E80FF91F118210828B8D9C8DC6
:1053C0002EA93FA90396880F991F880F991FF901ED
:1053D000E80FF91F80E090ECAFE7B4E4808391839D
:1053E000A283B3838B8D9C8D2EA93FA90696880F2F
:1053F000991F880F991FF901E80FF91F80E090E0CD
:10540000A0E0B0E080839183A283B3838B8D9C8DD9
:105410002EA93FA94296880F991FF901E80FF91F9D
:10542000118210828B8D9C8D2EA93FA94596880FE5
:10543000991FF901E80FF91F118210828B8D9C8D45
:105440002EA93FA90C96880F991F880F991FF90163
:10545000E80FF91F80E090E0A0E0B0E08083918346
:10546000A283B3838B8D9C8D2EA93FA90F96880FA5
:10547000991F880F991FF901E80FF91F80E090E04C
:10548000A0E0B0E080839183A283B383188E1F8A4B
:105490001E8A1D8A1BA21AA25AC28AA19BA19C0124
:1054A000220F331F8CA99DA9FC01E20FF31F8081FD
:1054B00091819F8F8E8F8D8D282F30E024963FAF66
:1054C0002EAF249724968EAD9FAD24978130910501
:1054D00061F124962EAD3FAD24972230310509F4B9
:1054E00096C024968EAD9FAD2497009709F002C117
:1054F00081E090E099A388A32091970630919806C7
:105500008E8D9F8D8217930718F481E08D8FF2C0E6
:1055100020916412309165128E8D9F8D2817390766
:1055200008F0E8C082E08D8FE5C0209197063091A9
:1055300098068E8D9F8D8217930730F48AA19BA1C8
:10554000893F910509F05DC08AA19BA1893F910522
:1055500029F488A199A1019699A388A32091810695
:105560003091820688A199A128173907C0F56B8D63
:105570007C8D8B8D9C8D2EA93FA9880F991FF901D9
:10558000E80FF91F80819181AC014F5F5F4F2EA919
:105590003FA9CB01880F991FF901E80FF91F51832B
:1055A00040836B8D7C8D8B8D9C8D2EA93FA903969E
:1055B000880F991FF901E80FF91F2081318188A117
:1055C00099A1A901480F591F2EA93FA9CB01039604
:1055D000880F991FF901E80FF91F5183408320912B
:1055E0006412309165128E8D9F8D2817390738F41B
:1055F00082E08D8F81E090E099A388A37BC01D8E0F
:1056000079C088A199A1019699A388A373C020911C
:105610006412309165128E8D9F8D2817390730F4F2
:105620008AA19BA1893F910509F05FC08AA19BA136
:10563000893F910529F488A199A1019699A388A38E
:10564000209181063091820688A199A128173907F7
:10565000D0F56B8D7C8D8B8D9C8D2EA93FA94296AC
:10566000880F991FF901E80FF91F80819181AC0122
:105670004F5F5F4F2EA93FA9CB014296880F991F1C
:10568000F901E80FF91F518340836B8D7C8D8B8D61
:105690009C8D2EA93FA94596880F991FF901E80F07
:1056A000F91F2081318188A199A1A901480F591FB3
:1056B0002EA93FA9CB014596880F991FF901E80F44
:1056C000F91F5183408320919706309198068E8D63
:1056D0009F8D8217930738F481E08D8F81E090E0F1
:1056E00099A388A307C01D8E05C088A199A1019622
:1056F00099A388A38E8D9F8DCC01A0E0B0E0BC0162
:10570000CD010E9468877B018C018B8D9C8D2EA919
:105710003FA90396880F991F880F991FF901E80F79
:10572000F91F2081318142815381C801B7010E9454
:10573000CB868823ECF40B8D1C8D8E8D9F8DCC0138
:10574000A0E0B0E0BC01CD010E9468879B01AC01E4
:105750006EA97FA9C8010396880F991F880F991F0A
:10576000FB01E80FF91F20833183428353833DC03F
:105770008E8D9F8DCC01A0E0B0E0BC01CD010E94D8
:1057800068877B018C018B8D9C8D2EA93FA90C967F
:10579000880F991F880F991FF901E80FF91F2081C1
:1057A000318142815381C801B7010E941A881816BD
:1057B000E4F40B8D1C8D8E8D9F8DCC01A0E0B0E0AC
:1057C000BC01CD010E9468879B01AC016EA97FA935
:1057D000C8010C96880F991F880F991FFB01E80FCD
:1057E000F91F20833183428353838E8D9F8D22E066
:1057F00080309207D0F58F89988D0196988F8F8B86
:10580000CB8CDC8C8B8D9C8D2EA93FA90696880FA6
:10581000991F880F991FF901E80FF91FE080F180A7
:10582000028113818E8D9F8DCC01A0E0B0E0BC0180
:10583000CD010E9468879B01AC01C801B7010E949D
:105840006786DC01CB019C01AD016EA97FA9C60171
:105850000696880F991F880F991FFB01E80FF91F03
:10586000208331834283538339C08D899E89019679
:105870009E8B8D8BCB8CDC8C8B8D9C8D2EA93FA928
:105880000F96880F991F880F991FF901E80FF91FCC
:10589000E080F180028113818E8D9F8DCC01A0E08C
:1058A000B0E0BC01CD010E9468879B01AC01C8013A
:1058B000B7010E946786DC01CB019C01AD016EA996
:1058C0007FA9C6010F96880F991F880F991FFB01AA
:1058D000E80FF91F2083318342835383CB8CDC8C08
:1058E0008B8D9C8D2EA93FA94596880F991F880FF7
:1058F000991FF901E80FF91FE080F18002811381FF
:105900008E8D9F8DCC01A0E0B0E0BC01CD010E9446
:1059100068879B01AC01C801B7010E946786DC0162
:10592000CB019C01AD016EA97FA9C6014596880FE8
:10593000991F880F991FFB01E80FF91F20833183FE
:10594000428353838AA19BA101969BA38AA38AA128
:105950009BA18A3F910508F4A0CD0B8D1C8D8B8DEA
:105960009C8D2EA93FA90396880F991F880F991F18
:10597000F901E80FF91F80819181A281B381BC01F7
:10598000CD0120E030E040EA5BE30E941E88DC01AC
:10599000CB019C01AD016EA97FA9C8010396880FB8
:1059A000991F880F991FFB01E80FF91F208331838E
:1059B000428353838F89988D009709F43FC0CB8C25
:1059C000DC8C8B8D9C8D2EA93FA90696880F991F84
:1059D000880F991FF901E80FF91FE080F18002811B
:1059E00013818F89988DCC01A0E0B0E0BC01CD017E
:1059F0000E9468879B01AC01C801B7010E94CF8655
:105A0000DC01CB01BC01CD0120E030E040EA5BE3EA
:105A10000E941E88DC01CB019C01AD016EA97FA90B
:105A2000C6010696880F991F880F991FFB01E80F82
:105A3000F91F208331834283538321C0AB8DBC8DFA
:105A40008B8D9C8D2EA93FA90396880F991F880FD7
:105A5000991FF901E80FF91F20813181428153819B
:105A60006EA97FA9CD010696880F991F880F991FEF
:105A7000FB01E80FF91F20833183428353830B8D91
:105A80001C8D8B8D9C8D2EA93FA90C96880F991F7C
:105A9000880F991FF901E80FF91F80819181A28178
:105AA000B381BC01CD0120E030E040EA5BE30E941D
:105AB0001E88DC01CB019C01AD016EA97FA9C80144
:105AC0000C96880F991F880F991FFB01E80FF91F8B
:105AD00020833183428353838D899E89009709F403
:105AE0003FC0CB8CDC8C8B8D9C8D2EA93FA90F9653
:105AF000880F991F880F991FF901E80FF91FE0809F
:105B0000F180028113818D899E89CC01A0E0B0E0F3
:105B1000BC01CD010E9468879B01AC01C801B7019F
:105B20000E94CF86DC01CB01BC01CD0120E030E03A
:105B300040EA5BE30E941E88DC01CB019C01AD01C1
:105B40006EA97FA9C6010F96880F991F880F991F0C
:105B5000FB01E80FF91F208331834283538321C067
:105B6000AB8DBC8D8B8D9C8D2EA93FA90C96880F7B
:105B7000991F880F991FF901E80FF91F20813181C2
:105B8000428153816EA97FA9CD010F96880F991F7D
:105B9000880F991FFB01E80FF91F2083318342838F
:105BA00053830B8D1C8D8B8D9C8D2EA93FA9459603
:105BB000880F991F880F991FF901E80FF91F80813D
:105BC0009181A281B381BC01CD0120E030E04AE7A0
:105BD00053E40E94CF86DC01CB01BC01CD0120E063
:105BE00030E040EA5BE30E941E88DC01CB019C01AF
:105BF000AD016EA97FA9C8014596880F991F880F2E
:105C0000991FFB01E80FF91F2083318342835383DF
:105C10008B8D9C8D2EA93FA94596880F991F880FC3
:105C2000991FF901E80FF91FE080F18002811381CB
:105C30008B8D9C8D2CA53DA54596880F991F880FAF
:105C4000991FF901E80FF91F2081318142815381A9
:105C5000C801B7010E946686DC01CB0188A799A71D
:105C6000AAA7BBA7EB8DFC8D88A599A5AAA5BBA566
:105C70009C01AD015F776EA97FA9CF014896880F7F
:105C8000991F880F991FFB01E80FF91F20833183AB
:105C900042835383CB8CDC8C8B8D9C8D2EA93FA9AA
:105CA0000C96880F991F880F991FF901E80FF91FAB
:105CB000E080F180028113818B8D9C8D2EA93FA9FC
:105CC0000396880F991F880F991FF901E80FF91F94
:105CD0002081318142815381C801B7010E946686CB
:105CE000DC01CB019C01AD016EA97FA9C6014B96D9
:105CF000880F991F880F991FFB01E80FF91F208358
:105D0000318342835383CB8CDC8C8B8D9C8D2EA96D
:105D10003FA90F96880F991F880F991FF901E80F67
:105D2000F91FE080F180028113818B8D9C8D2EA95B
:105D30003FA90696880F991F880F991FF901E80F50
:105D4000F91F2081318142815381C801B7010E942E
:105D50006686DC01CB019C01AD016EA97FA9C6015D
:105D60004E96880F991F880F991FFB01E80FF91FA6
:105D700020833183428353838B8D9C8D2EA93FA931
:105D80004B96880F991F880F991FF901E80FF91F8B
:105D900080819181A281B381BC01CD0120E030E0FE
:105DA00040E050E00E94CB868823A1F48B8D9C8D2F
:105DB0002EA93FA94E96880F991F880F991FF901A8
:105DC000E80FF91F80E090E0A0EAB0E480839183BF
:105DD000A283B3838B8D9C8D2EA93FA94E96880FED
:105DE000991F880F991FF901E80FF91FE080F180D2
:105DF000028113818B8D9C8D9C01220F331F220FFA
:105E0000331FC901880F991F880F991F880F991F89
:105E1000821B930BFC01E55CF94F208131814281AB
:105E20005381C801B7010E941A8818160CF081C06E
:105E30008B8C9C8C8B8D9C8D9C01220F331F220F91
:105E4000331FC901880F991F880F991F880F991F49
:105E5000821B930BFC01E252FA4FA080B180C280FA
:105E6000D3808B8D9C8D2EA93FA94E96880F991FAC
:105E7000880F991FF901E80FF91FE080F180028176
:105E800013818B8D9C8D9C01220F331F220F331F9A
:105E9000C901880F991F880F991F880F991F821BAE
:105EA000930BFC01E55CF94F2081318142815381E4
:105EB000C801B7010E946686DC01CB017C018D011F
:105EC0008B8D9C8D9C01220F331F220F331FC90124
:105ED000880F991F880F991F880F991F821B930B9A
:105EE000FC01E857FA4F2081318142815381C8017A
:105EF000B7010E94CF86DC01CB019C01AD01C60138
:105F0000B5010E946786DC01CB01BC01CD010E9476
:105F10003C87DC01CB01AC012EA93FA9C401885B01
:105F20009F4F880F991FF901E80FF91F5183408394
:105F3000ADC38B8D9C8D2EA93FA94E96880F991FBE
:105F4000880F991FF901E80FF91FE080F1800281A5
:105F500013818B8D9C8D9C01220F331F220F331FC9
:105F6000C901880F991F880F991F880F991F821BDD
:105F7000930BFC01E95CF94F20813181428153810F
:105F8000C801B7010E941A8818160CF081C08B8CCA
:105F90009C8C8B8D9C8D9C01220F331F220F331FF5
:105FA000C901880F991F880F991F880F991F821B9D
:105FB000930BFC01E652FA4FA080B180C280D380DF
:105FC0008B8D9C8D2EA93FA94E96880F991F880F07
:105FD000991FF901E80FF91FE080F1800281138118
:105FE0008B8D9C8D9C01220F331F220F331FC90103
:105FF000880F991F880F991F880F991F821B930B79
:10600000FC01E95CF94F2081318142815381C80153
:10601000B7010E946686DC01CB017C018D018B8D6E
:106020009C8D9C01220F331F220F331FC901880F43
:10603000991F880F991F880F991F821B930BFC01D2
:10604000EC57FA4F2081318142815381C801B70159
:106050000E94CF86DC01CB019C01AD01C601B501D8
:106060000E946786DC01CB01BC01CD010E943C8708
:10607000DC01CB01AC012EA93FA9C401885B9F4F75
:10608000880F991FF901E80FF91F51834083FEC261
:106090008B8D9C8D2EA93FA94E96880F991F880F36
:1060A000991FF901E80FF91FE080F1800281138147
:1060B0008B8D9C8D9C01220F331F220F331FC90132
:1060C000880F991F880F991F880F991F821B930BA8
:1060D000FC01ED5CF94F2081318142815381C8017F
:1060E000B7010E941A8818160CF081C08B8C9C8C0A
:1060F0008B8D9C8D9C01220F331F220F331FC901F2
:10610000880F991F880F991F880F991F821B930B67
:10611000FC01EA52FA4FA080B180C280D3808B8DFF
:106120009C8D2EA93FA94E96880F991F880F991F05
:10613000F901E80FF91FE080F180028113818B8D56
:106140009C8D9C01220F331F220F331FC901880F22
:10615000991F880F991F880F991F821B930BFC01B1
:10616000ED5CF94F2081318142815381C801B70133
:106170000E946686DC01CB017C018D018B8D9C8D9C
:106180009C01220F331F220F331FC901880F991F53
:10619000880F991F880F991F821B930BFC01E058F1
:1061A000FA4F2081318142815381C801B7010E9499
:1061B000CF86DC01CB019C01AD01C601B5010E9477
:1061C0006786DC01CB01BC01CD010E943C87DC016C
:1061D000CB01AC012EA93FA9C401885B9F4F880F5A
:1061E000991FF901E80FF91F518340834FC28B8D2E
:1061F0009C8D2EA93FA94E96880F991F880F991F35
:10620000F901E80FF91FE080F180028113818B8D85
:106210009C8D9C01220F331F220F331FC901880F51
:10622000991F880F991F880F991F821B930BFC01E0
:10623000E15DF94F2081318142815381C801B7016D
:106240000E941A8818160CF081C08B8C9C8C8B8D48
:106250009C8D9C01220F331F220F331FC901880F11
:10626000991F880F991F880F991F821B930BFC01A0
:10627000EE52FA4FA080B180C280D3808B8D9C8D6E
:106280002EA93FA94E96880F991F880F991FF901D3
:10629000E80FF91FE080F180028113818B8D9C8DC6
:1062A0009C01220F331F220F331FC901880F991F32
:1062B000880F991F880F991F821B930BFC01E15DCA
:1062C000F94F2081318142815381C801B7010E9479
:1062D0006686DC01CB017C018D018B8D9C8D9C0140
:1062E000220F331F220F331FC901880F991F880FF8
:1062F000991F880F991F821B930BFC01E458FA4FDA
:106300002081318142815381C801B7010E94CF862B
:10631000DC01CB019C01AD01C601B5010E9467867D
:10632000DC01CB01BC01CD010E943C87DC01CB012B
:10633000AC012EA93FA9C401885B9F4F880F991F0C
:10634000F901E80FF91F51834083A0C18B8D9C8D0B
:106350002EA93FA94E96880F991F880F991FF90102
:10636000E80FF91FE080F180028113812B8D3C8DB5
:10637000C901880F991F880F991F880F991F821BC9
:10638000930B0196880F991F880F991FFC01E95DF7
:10639000F94F2081318142815381C801B7010E94A8
:1063A0001A8818160CF081C08B8C9C8C2B8D3C8D20
:1063B000C901880F991F880F991F880F991F821B89
:1063C000930B0196880F991F880F991FFC01E653C4
:1063D000FA4FA080B180C280D3808B8D9C8D2EA976
:1063E0003FA94E96880F991F880F991FF901E80F52
:1063F000F91FE080F180028113812B8D3C8DC90152
:10640000880F991F880F991F880F991F821B930B64
:106410000196880F991F880F991FFC01E95DF94FBC
:106420002081318142815381C801B7010E94668673
:10643000DC01CB017C018D018B8D9C8D9C01220F99
:10644000331F220F331FC901880F991F880F991F0F
:10645000880F991F821B930BFC01E858FA4F20818B
:10646000318142815381C801B7010E94CF86DC018E
:10647000CB019C01AD01C601B5010E946786DC011C
:10648000CB01BC01CD010E943C87DC01CB01AC01FA
:106490002EA93FA9C401885B9F4F880F991FF9015E
:1064A000E80FF91F51834083F1C08B8D9C8D2EA97D
:1064B0003FA94E96880F991F880F991FF901E80F81
:1064C000F91FE080F180028113818B8D9C8D9C01EE
:1064D000220F331F220F331FC901880F991F880F06
:1064E000991F880F991F821B930BFC01E95DF94FDF
:1064F0002081318142815381C801B7010E941A88ED
:1065000018160CF081C08B8C9C8C8B8D9C8D9C0103
:10651000220F331F220F331FC901880F991F880FC5
:10652000991F880F991F821B930BFC01E653FA4FAA
:10653000A080B180C280D3808B8D9C8D2EA93FA975
:106540004E96880F991F880F991FF901E80FF91FC0
:10655000E080F180028113818B8D9C8D9C01220F44
:10656000331F220F331FC901880F991F880F991FEE
:10657000880F991F821B930BFC01E95DF94F208165
:10658000318142815381C801B7010E946686DC01D6
:10659000CB017C018D012B8D3C8DC901880F991F8A
:1065A000880F991F880F991F821B930B0196880FE4
:1065B000991F880F991FFC01E059FA4F2081318102
:1065C00042815381C801B7010E94CF86DC01CB0113
:1065D0009C01AD01C601B5010E946786DC01CB01BB
:1065E000BC01CD010E943C87DC01CB01AC012EA98E
:1065F0003FA9C401885B9F4F880F991FF901E80FDD
:10660000F91F5183408342C0CB8CDC8C8B8D9C8DD9
:106610002EA93FA94E96880F991F880F991FF9013F
:10662000E80FF91FE080F180028113818B8D9C8D32
:106630009C01220F331F220F331FC901880F991F9E
:10664000880F991F880F991F821B930BFC01E0593B
:10665000FA4F2081318142815381C801B7010E94E4
:10666000CF86DC01CB01BC01CD010E943C87DC015F
:10667000CB01AC012EA93FA9C601885B9F4F880FB3
:10668000991FF901E80FF91F518340838B8D9C8D71
:106690002EA93FA9885B9F4F880F991FF901E80F2A
:1066A000F91F8081918133E0893E930780F08B8DC3
:1066B0009C8D9C01220F331FCE010196820F931FE8
:1066C000FC01BD9688EE93E0918380831AC06B8DA8
:1066D0007C8D8B8D9C8D2EA93FA9885B9F4F880F49
:1066E000991FF901E80FF91F408151819B01220F89
:1066F000331FCE010196820F931FFC01BD9651837B
:1067000040838B8D9C8D2EA93FA9885B9F4F880F5E
:10671000991FF901E80FF91F408151818B8D9C8DE4
:106720002CA53DA5885B9F4F880F991FF901E80FA5
