:100000000C94B1180C94E6180C94E6180C94E618AD
:100010000C94E6180C94E6180C94E6180C94E61868
:100020000C94E6180C94E6180C94E6180C94E61858
:100030000C94E6180C94E6180C94E6180C94E61848
:100040000C94E6180C94E6180C94E6180C94E61838
:100050000C94E6180C94E6180C94E6180C94E61828
:100060000C94E6180C94B9790C94E6180C94E618E4
:100070000C94E6180C944B190C94E6180C94E618A2
:100080000C94E6180C94E6180C94E6180C9415776A
:100090000C94457A0C94E6180C94AF7A0C94E618FC
:1000A0000C94E6180C94E6180C94E6180C94E618D8
:1000B0000C94E6180C94E6180C94E6180C94E618C8
:1000C0000C94E6180C94E6180C94E6185E5B5E5BE4
:1000D0005E5B5E5B5E5B755BA75B195B475B305B82
:1000E000895C895CBA5C895C895CFB5C275D275D07
:1000F000275D275D268533855885AE85E185148685
:10010000AE85E1851486238632864186168823884B
:100110004A885988688877889E88C588CF88E98802
:1001200010891F892E893D894C895B896A89798963
:1001300088898889B589C189CD89DB89E789158A4C
:10014000438A718A9F8ACD8AFB8A258B538B818B48
:10015000AF8BDD8B0B8C398C638C918CBF8CED8CD1
:100160001B8D498D778DA18DC58DE98D0D8E318EBD
:10017000558E798E998EBD8EE18E058F298F4D8F8C
:10018000718F918FB58FD98FFD8F21904590699098
:1001900089909790509150915091A590B390C190B3
:1001A000CF90F5901B912991509150915091509181
:1001B0005091509150915091509150915091509137
:1001C0005091509150915091509150915091509127
:1001D0005091509150915091509150915091509117
:1001E0005091509150915091509150915091509107
:1001F00050915091509150915091509150915091F7
:1002000050915091509150915091509150915091E6
:1002100050915091509150915091509150915091D6
:1002200050915091509150915091509150915091C6
:1002300050915091509150915091509150915091B6
:1002400050915091509150915091509150915091A6
:100250005091509150915091509150915091509196
:100260005091509150915091509150915091509186
:100270005091509150915091509150915091509176
:100280005091509150915091509150915091509166
:100290005091509150915091A185509168867786E8
:1002A00086869586A486B386C286D186E086EF864A
:1002B000FE8625874C875B876A877987888797873B
:1002C000A687B587C487D387E28709886E616E00E9
:1002D000696E660000407A10F35A00A0724E180949
:1002E0000010A5D4E80000E87648170000E40B549D
:1002F000020000CA9A3B000000E1F505000080966C
:100300009800000040420F000000A086010000009D
:10031000102700000000E803000000006400000057
:1003200000000A00000000000100000000002C7620
:10033000D888DC674F0823DFC1DFAE59E1B1B7963B
:10034000E5E3E453C63AE651997696E8E6C2842698
:10035000EB898C9B62ED407C6FFCEFBC9C9F40F274
:10036000BAA56FA5F490055A2AF75C936B6CF967F0
:100370006DC11BFCE0E40D47FEF520E6B500D0EDB5
:10038000902E0300943577050080841E080000201D
:100390004E0A000000C80C333333330F986E1283BB
:1003A0001141EF8D2114893BE65516CFFEE6DB188F
:1003B000D1844B381BF77C1D901DA4BBE424203254
:1003C00084725E228100C9F124ECA1E53D27000082
:1003D000FA420000FA420000FA420000FA4200002D
:1003E000FA420000FA420000FA420000FA4200001D
:1003F000FA420000FA420000FA420000FA4200000D
:10040000FA420000FA420000FA420000FA420000FC
:10041000FA420000FA420000FA420000FA420000EC
:10042000FA420000FA420000FA420000FA420000DC
:10043000FA420000FA420000FA420000FA420000CC
:10044000FA420000FA420000FA420000FA420000BC
:10045000FA420000FA420000FA420000FA429A9979
:10046000F8426666F6423333F4420000F24200007E
:10047000F0420000EE423333EC426666EA426666C2
:10048000E8429A99E6420000E5426666E342CDCC36
:10049000E1423333E0429A99DE420000DD42666673
:1004A000DB420000DB429A99D8423333D742CDCCAD
:1004B000D5426666D4420000D3429A99D14266661C
:1004C000D0423333CF420000CE42CDCCCC429A99B9
:1004D000CB426666CA423333C9420000C8420000BC
:1004E000C7420000C642CDCCC4420000C442000056
:1004F000C3420000C242CDCCC042CDCCBF42CDCC25
:10050000BE42CDCCBD420000BD420000BC42000056
:10051000BB423333BA426666B9429A99B8429A9955
:10052000B7429A99B642CDCCB5420000B5423333BA
:10053000B4426666B3429A99B242CDCCB142000051
:10054000B1423333B0426666AF429A99AE42000080
:10055000AE426666AD429A99AC42CDCCAB42000049
:10056000AB423333AA420000A942CDCCA842333378
:10057000A8429A99A7420000A7423333A6429A990B
:10058000A5420000A5423333A4429A99A342000039
:10059000A3426666A242CDCCA1420000A14266669B
:1005A000A042CDCC9F4233339F429A999E42000095
:1005B0009E429A999D4200009D4266669C42CDCC27
:1005C0009B4233339B42CDCC9A4233339A429A9921
:1005D00099420000994266669842CDCC97423333E7
:1005E0009742CDCC9642333396429A999542333313
:1005F0009542CDCC9442333394429A99934233330B
:100600009342CDCC924266669242CDCC9142333336
:100610009142CDCC90426666904200009042666660
:100620008F42CDCC8E4266668E4200008E42666658
:100630008D42CDCC8C4266668C4200008C429A99E9
:100640008B4233338B42CDCC8A4266668A420000AD
:100650008A429A99894233338942CDCC8842666670
:1006600088420000884266668742CDCC8642666634
:100670008642000086429A99854233338542CDCC2A
:10068000844266668442000084429A9983423333EE
:100690008342CDCC824266668242000082429A99B1
:1006A000814233338142CDCC804266668042000075
:1006B00080429A997F4233337F4266667E429A999E
:1006C0007D42CDCC7C4200007C4233337B42000033
:1006D0007C429A997942CDCC7842000078429A992E
:1006E000774233337742666676429A997542CDCC2B
:1006F00074420000744233337342666672429A99C0
:100700007142CDCC70420000704233336F42CDCC89
:100710006E4266666E429A996D42CDCC6C426666B8
:100720006C4200006C4233336B4266666A420000E2
:100730006A4200006A42CDCC68420000684233330E
:10074000674266666642000066429A996542CDCC71
:1007500064420000644233336342CDCC6242666639
:1007600062429A996142CDCC6042000060429A99FF
:100770005F4233335F4266665E429A995D42CDCCFA
:100780005C4200005C429A995B4233335B4266668E
:100790005A4200005A429A995942CDCC5842000020
:1007A00058429A99574233335742CDCC56426666E7
:1007B00056429A99554233335542CDCC54420000AB
:1007C000544233335342CDCC5242666652429A99D8
:1007D000514233335142CDCC5042000050429A999D
:1007E0004F4233334F4266664E429A994D423333FD
:1007F0004D42CDCC4C4200004C429A994B4233338F
:100800004B4266664A429A99494233334942CDCCBB
:100810004842000048429A9947423333474266664D
:100820004642000046429A99454233334542CDCC78
:100830004442000044429A99434233334342CDCC70
:100840004242666642429A99414233334142CDCC9C
:100850004042000040429A993F4233333F42CDCC60
:100860003E4266663E429A993D4233333D42CDCC8C
:100870003C4200003C429A993B4233333B42CDCC50
:100880003A4266663A429A99394233333942CDCC7C
:100890003842000038429A9937423333374266660D
:1008A0003642000036429A993542CDCC34426666D3
:1008B0003442000034429A99334233333342CDCC30
:1008C000324266663242000032429A993142CDCCC1
:1008D000304266663042000030429A992F423333EC
:1008E0002F42CDCC2E4266662E4200002E429A99AF
:1008F0002D4233332D42CDCC2C4200002C429A990C
:100900002B4233332B42CDCC2A4266662A4200006A
:100910002A429A992942CDCC284266662842000094
:1009200028429A99274233332742CDCC2642666625
:1009300026429A99254233332542CDCC244266661D
:1009400024420000244233332342CDCC2242666647
:100950002242000022429A992142CDCC2042666672
:100960002042000020429A991F4233331F42CDCCCF
:100970001E4266661E4200001E429A991D42333393
:100980001D42CDCC1C4266661C4200001C429A9956
:100990001B4233331B42CDCC1A4266661A4200001A
:1009A0001A429A99194233331942CDCC18426666DD
:1009B0001842000018429A99174233331742CDCC9F
:1009C000164266661642000016429A991542333363
:1009D0001542CDCC144266661442000014429A9926
:1009E000134233331342CDCC1242666612420000EA
:1009F00012429A99114233331142CDCC1042000079
:100A000010429A990F4233330F42CDCC0E426666A4
:100A10000E4200000E429A990D4233330D42CDCC66
:100A20000C4200000C429A990B429A990B423333C4
:100A30000B42CDCC0A4266660A4200000A429A99ED
:100A4000094233330942CDCC0842666608426666E5
:100A50000842000008429A99074233330742CDCC3E
:100A6000064266660642000006429A990542333302
:100A70000542CDCC044266660442000004429A99C5
:100A8000034233330342CDCC0242CDCC02426666F0
:100A90000242000002429A99014233330142CDCC16
:100AA000004266660042000000423333FF41666642
:100AB000FE419A99FD41CDCCFC410000FC4133330D
:100AC000FB416666FA419A99F941CDCCF8410000A4
:100AD000F8413333F7416666F6419A99F541CDCC3A
:100AE000F4410000F4413333F3416666F2419A99D0
:100AF000F1410000F0410000F0413333EF41666600
:100B0000EE419A99ED41CDCCEC410000EC41000062
:100B1000EC413333EB416666EA419A99E941CDCC29
:100B2000E8410000E8413333E7413333E74166668B
:100B3000E6419A99E541CDCCE4410000E4413333EC
:100B4000E3416666E2419A99E141CDCCE041CDCCEA
:100B5000E0410000E0413333DF416666DE419A99AF
:100B6000DD41CDCCDC410000DC413333DB41666646
:100B7000DA419A99D941CDCCD8410000D841000042
:100B8000D8413333D7416666D6419A99D541CDCC09
:100B9000D4410000D4413333D3416666D2419A999F
:100BA000D141CDCCD0410000D0413333CF41666636
:100BB000CE419A99CD41CDCCCC410000CC413333CC
:100BC000CB416666CA419A99C941CDCCC841000063
:100BD000C8410000C8413333C7416666C6419A998F
:100BE000C541CDCCC4410000C4413333C34133338C
:100BF000C3416666C2419A99C141CDCCC041000053
:100C0000C0413333BF413333BF416666BE419A9919
:100C1000BD41CDCCBC410000BC413333BB4133337B
:100C2000BB416666BA419A99B941CDCCB841000042
:100C3000B8413333B7416666B6419A99B5419A993E
:100C4000B541CDCCB4410000B4413333B341666605
:100C5000B2419A99B141CDCCB0410000B04133339B
:100C6000AF416666AE419A99AD419A99AD41CDCCFE
:100C7000AC410000AC413333AB416666AA419A995E
:100C8000A941CDCCA8410000A8413333A7416666F5
:100C9000A6419A99A541CDCCA4410000A44133338B
:100CA000A3416666A2419A99A141CDCCA041000022
:100CB000A04133339F4133339F4166669E419A99E9
:100CC0009D41CDCC9C41CDCC9C4100009C41333317
:100CD0009B4166669A419A999941CDCC9841CDCC79
:100CE00098410000984133339741666696416666A5
:100CF00096419A999541CDCC94410000944133336B
:100D00009341666692419A9991419A999141CDCCCD
:100D100090410000904133338F4166668E419A992D
:100D20008D41CDCC8C4100008C4100008C4133338F
:100D30008B4166668A419A998941CDCC88410000F1
:100D4000884133338741666686419A998541CDCC87
:100D50008441000084413333834166668241666684
:100D600082419A998141CDCC8041000080416666E4
:100D70007E41CDCC7C4133337B419A99794100004F
:100D8000784166667641CDCC7441333373419A998C
:100D900071410000704166666E41CDCC6C413333C9
:100DA0006B4133336B419A99694100006841666633
:100DB000664166666641CDCC6441333363419A999E
:100DC00061410000604166665E4166665E41CDCC71
:100DD0005C4133335B419A99594100005841666642
:100DE0005641CDCC544133335341333353419A9917
:100DF00051410000504166664E41CDCC4C413333E9
:100E00004B419A9949410000484166664641CDCC24
:100E10004441333343419A9941419A9941410000F9
:100E2000404166663E41CDCC3C4133333B419A99CB
:100E300039410000384166663641CDCC3441333308
:100E400033419A9931410000304166662E41CDCC44
:100E50002C4133332B419A99294100002841666681
:100E60002641CDCC2441333323419A9921410000BE
:100E7000204166661E4166661E41CDCC1C4133335F
:100E80001B419A99194100001841000018416666FB
:100E90001641CDCC1441333313419A9911410000CE
:100EA000104166660E4166660E41CDCC0C4133336F
:100EB0000B419A9909410000084166660641CDCC74
:100EC0000441333303419A99014100000041CDCCE4
:100ED000FC40CDCCFC409A99F9406666F64033332D
:100EE000F3400000F040CDCCEC409A99E9406666B2
:100EF000E6403333E3400000E040CDCCDC409A993B
:100F0000D9406666D6403333D3400000D040CDCCC4
:100F1000CC409A99C9406666C6403333C34000004E
:100F2000C040CDCCBC409A99B9406666B6403333D8
:100F3000B340CDCCAC409A99A9406666A640333305
:100F4000A3400000A040CDCC9C409A999940666691
:100F50009640666696403333934000009040CDCC77
:100F60008C409A99894066668640333383400000FE
:100F700080409A9979409A99794033337340CDCC27
:100F80006C4066666640000060409A995940333371
:100F90005340CDCC4C4066664640000040409A9994
:100FA000394033333340CDCC2C40666626400000B8
:100FB00020409A99194033331340CDCC0C406666DB
:100FC0000640000000406666E63F9A99D93FCDCCC6
:100FD000CC3F0000C03F3333B33F6666A63F9A99CB
:100FE000993FCDCC8C3F0000803FCDCC4C3F33337C
:100FF000333F9A99193F0000003FCDCCCC3ECDCC79
:101000004C3ECDCCCC3D00000000CDCCCCBDCDCCF9
:101010004CBE9A9999BECDCCCCBE000000BF9A9927
:1010200019BF333333BFCDCC4CBF666666BF0000FB
:1010300080BFCDCC8CBF9A9999BF6666A6BF33336B
:10104000B3BF0000C0BFCDCCCCBF9A99D9BF6666F4
:10105000E6BF3333F3BF000000C0666606C0CDCCE8
:101060000CC0333313C09A9919C0666626C0CDCC24
:101070002CC0333333C09A9939C0000040C0CDCC66
:101080004CC0333353C09A9959C0000060C06666A3
:1010900066C0333373C09A9979C0000080C0666619
:1010A00086C09A9989C0CDCC8CC0333393C0666614
:1010B00096C09A9999C00000A0C03333A3C0666659
:1010C000A6C09A99A9C0CDCCACC00000B0C0333343
:1010D000B3C06666B6C09A99B9C0CDCCBCC000009A
:1010E000C0C06666C6C09A99C9C0CDCCCCC000004D
:1010F000D0C03333D3C09A99D9C0CDCCDCC0000066
:10110000E0C03333E3C06666E6C09A99E9C00000E8
:10111000F0C03333F3C09A99F9C0CDCCFCC00000C5
:1011200000C1333303C1CDCC04C1666606C19A99B0
:1011300009C133330BC1CDCC0CC1000010C1333316
:1011400013C1CDCC14C1666616C19A9919C1CDCC14
:101150001CC1000020C19A9921C1333323C1CDCCD9
:1011600024C1666626C19A9929C133332BC1CDCCDF
:101170002CC1000030C19A9931C1333333C1666646
:1011800036C1000038C19A9939C1CDCC3CC16666E0
:101190003EC1000040C1333343C1666646C1000012
:1011A00048C19A9949C1CDCC4CC1000050C13333DC
:1011B00053C1CDCC54C1666656C19A9959C1CDCCA4
:1011C0005CC1000060C1333363C1666666C1000064
:1011D00068C19A9969C1CDCC6CC1000070C133332C
:1011E00073C1CDCC74C1666676C19A9979C1CDCCF4
:1011F0007CC166667EC1000080C19A9981C133338B
:1012000083C1CDCC84C19A9985C1666686C1000030
:1012100088C19A9989C133338BC1CDCC8CC16666A4
:101220008EC1000090C19A9991C1333393C1CDCC46
:1012300094C1666696C1000098C19A9999C13333EA
:101240009BC1CDCC9CC166669EC10000A0C19A998D
:10125000A1C13333A3C1CDCCA4C16666A6C1000031
:10126000A8C19A99A9C13333ABC10000ACC1CDCCA0
:10127000ACC10000B0C19A99B1C13333B3C1CDCC78
:10128000B4C16666B6C10000B8C19A99B9C133331A
:10129000BBC16666BEC10000C0C19A99C1C1CDCCB8
:1012A000C4C16666C6C10000C8C19A99C9C13333BA
:1012B000CBC16666CEC10000D0C19A99D1C133338B
:1012C000D3C1CDCCD4C10000D8C19A99D9C1333390
:1012D000DBC16666DEC10000E0C13333E3C1CDCCC3
:1012E000E4C16666E6C19A99E9C1CDCCECC10000C3
:1012F000F0C19A99F1C1CDCCF4C16666F6C19A9954
:10130000F9C13333FBC16666FEC1000000C29A9981
:1013100001C2333303C2666604C2000006C29A9952
:1013200007C2333309C2CDCC0AC266660CC20000C4
:101330000EC29A990FC2333311C2CDCC12C2666667
:1013400014C2000016C29A9917C29A9919C20000D5
:101350001CC266661EC2000020C2000020C200003F
:1013600020C2000020C2000020C2000020C20000F5
:1013700020C2000020C2000020C2000020C20000E5
:1013800020C2000020C2000020C2000020C20000D5
:1013900020C2000020C2000020C2000020C20000C5
:1013A00020C2000020C2000020C2000020C20000B5
:1013B00020C2000020C2000020C2000020C20000A5
:1013C00020C2000020C2000020C2000020C2000194
:1013D00001010101020202020203030304050506E2
:1013E000070708090A0C0D0E0F11121416181A1C03
:1013F0001D1E1F202122233412000094DC00000057
:10140000000000010001006009280A260060092888
:101410000A23000700960008000A0032000A001E96
:10142000006400A4062C01FA000000B00408003F8C
:101430000001001800690005003C00090064005527
:10144000000000010000006C07C2013104C506AABB
:1014500009B10C450F2913AD01EE034208F20AFA57
:101460000C8C0FFC121E020D053407BF0AEF0C4650
:10147000100D13E6008501670211033C037C03DFB6
:10148000036C00B80025010402A7023E03DB0377CA
:1014900000CB0045013C02C9024B03DC030A006497
:1014A00000881388138813000000000000E2047015
:1014B000FE0000000000000000000000000000002E
:1014C000000000000000000000000000000000001C
:1014D000000000000000000000000000000000000C
:1014E00000000000000000000000000000000000FC
:1014F00000000000000000000000000000000000EC
:1015000000000000000000000000000000000000DB
:1015100000000000000000000000000000000000CB
:1015200000000000000000000000000000000000BB
:1015300000000000000000000000000000000000AB
:10154000000000000000000000000000000000009B
:10155000000000000000000000000000000000008B
:10156000000000000000000000000000000000007B
:10157000000000000000000000000000000000006B
:10158000000000000000000000000000000000005B
:10159000000000000000000000000000000000004B
:1015A0000000000000000094EC2B00C8002C010398
:1015B000000200050003000400020084030500058A
:1015C0000005008200960009000A00050004001AC8
:1015D0000046005000AC0D000000000000000000BC
:1015E0000000000000000000000000FA0000000001
:1015F0000094FC9600C900C701F6028A03D3038554
:101600000357032903FB02CD029F02710243021517
:1016100002C701BB01AF01A3019B01980195019194
:10162000018E018B018701840181017E017B01789C
:1016300001750172016F016C01690166016301604E
:10164000015E015E015E015E015E015E015E015EA2
:10165000015E015E015E015E015E015E015E015E92
:10166000015E015E015E015E015E015E015E015E82
:10167000015E015E015E015E015E015E015E015E72
:10168000015E015E015E015E015E015E015E015E62
:10169000015E015E015E015E015E015E015E015E52
:1016A000015E015E015E015E015E015E015E015E42
:1016B000015E015E015E015E015E015E015E015E32
:1016C000015E015E015E015E015E015E015E015E22
:1016D000015E015E015E015E015E015E015E015E12
:1016E000015E015E015E015E015E015E015E015E02
:1016F000015E015E015E015E015E015E015E015EF2
:10170000015E015E015E015E015E015E015E015EE1
:10171000015E015E015E015E015E015E015E015ED1
:10172000015E015E015E015E015E015E015E015EC1
:10173000015E015E015E015E015E015E015E015EB1
:10174000015E015E015E015E015E015E015E015EA1
:10175000015E015E015E015E015E015E015E015E91
:10176000015E015E015E015E015E015E015E015E81
:10177000015E015E015E015E015E015E015E015E71
:10178000015E015E015E015E015E015E015E015E61
:10179000015E015E015E015E015E015E015E015E51
:1017A000015E015E015E015E015E015E015E015E41
:1017B000015E015E015E015E015E015E015E015E31
:1017C000015E015E015E015E015E015E015E015E21
:1017D000015E015E015E015E015E015E015E015E11
:1017E000015E015E015E015E015E015E015E015E01
:1017F000015E015E015E015E015F015F015F0160EC
:1018000001600161016101620162016301630164C0
:10181000016401650165016601660167016801688F
:1018200001690169016A016B016B016C016D016E57
:10183000016E016F01700171017101720173017418
:10184000017501750176017701780179017A017BD3
:10185000017C017D017E017F018001810182018384
:1018600001840185018701880189018A018B018D2D
:10187000018E018F019001920193019401960197CD
:101880000199019A019C019D019F01A001A201A360
:1018900001A501A701A801AA01AC01AE01AF01B1E8
:1018A00001B301B501B701B901BA01BC01BE01C064
:1018B00001C201C501C701C901CB01CD01CF01D2D0
:1018C00001D401D601D901DB01DD01E001E201E52E
:1018D00001E701E901EC01EE01F001F301F501F787
:1018E00001FA01FC01FF010202040207020A020CD4
:1018F000020F021202150218021B021D022002240E
:101900000227022A022D023002330237023A023D38
:10191000024102440248024B024F02520256025A4E
:10192000025E026102650269026D0271027502794E
:10193000027D02820286028A028F02920296029A37
:10194000029E02A202A602AA02AE02B202B602BA27
:1019500002BE02C202C602CA02CE02D202D602DA17
:1019600002DE02E202E602EA02EE02F202F602FA07
:1019700002FE02020306030A030E03120316031AF1
:10198000031E03230329032F0335033B03410347AE
:10199000034D03530359035F0365036B037103771F
:1019A000037D03830389038F0395039B03A103A78F
:1019B00003AD03B303B903BF03C503C903CD03D10B
:1019C00003D503D903DD03E003E203E403E603E602
:1019D00003E603E603E603E603E60364006500723C
:1019E00001B30250036203DD02A40252021C02F49E
:1019F00001CA01A3018C017B01660151013D012A4D
:101A0000011F010E010B010A01F900F000E800E0DE
:101A100000D800D200D100D100D000D000CF00CE3D
:101A200000CE00CD00CC00CC00CB00CA00CA00C95B
:101A300000C800C800C800C800C800C800C800C866
:101A400000C800C800C800C800C800C800C800C856
:101A500000C800C800C800C800C800C800C800C846
:101A600000C800C800C800C800C800C800C800C836
:101A700000C800C800C800C800C800C800C800C826
:101A800000C800C800C800C800C800C800C800C816
:101A900000C800C800C800C800C800C800C800C806
:101AA00000C800C800C800C800C800C800C800C8F6
:101AB00000C800C800C800C800C800C800C800C8E6
:101AC00000C800C800C800C800C800C800C800C8D6
:101AD00000C800C800C800C800C800C800C800C8C6
:101AE00000C800C800C800C800C800C800C800C8B6
:101AF00000C800C800C800C800C800C800C800C8A6
:101B000000C800C800C800C800C800C800C800C895
:101B100000C800C800C800C800C800C800C800C885
:101B200000C800C800C800C800C800C800C800C875
:101B300000C800C800C800C800C800C800C800C865
:101B400000C800C800C800C800C800C800C800C855
:101B500000C800C800C800C800C800C800C800C845
:101B600000C800C800C800C800C800C800C800C835
:101B700000C800C800C800C800C800C800C800C825
:101B800000C800C800C800C800C800C800C800C815
:101B900000C800C800C800C800C800C800C800C805
:101BA00000C800C800C800C800C800C800C800C8F5
:101BB00000C800C800C900C900CA00CA00CB00CCD8
:101BC00000CC00CD00CE00CE00CF00D000D000D1A0
:101BD00000D200D200D300D400D400D500D600D665
:101BE00000D700D800D800D900DA00DA00DB00DC2A
:101BF00000DC00DD00DE00DE00DF00E000E000E1F0
:101C000000E100E200E300E300E400E500E500E6B7
:101C100000E700E700E800E900E900EA00EB00EB7C
:101C200000EC00ED00ED00EE00EF00EF00F000F141
:101C300000F100F200F300F300F400F500F500F607
:101C400000F600F700F800F800F900FA00FA00FBCF
:101C500000FC00FC00FD00FE00FE00FF0000010093
:101C60000101010201020103010401040105010651
:101C70000107010801080109010A010B010C010C0F
:101C8000010D010E010F01100111011201130114C8
:101C90000115011601170118011701180119011A80
:101CA000011B011C011D011E012001210122012334
:101CB0000125012601270129012A012C012D012FCF
:101CC000013001320134013501370139013A013C5B
:101CD000013E01400142014401460148014A014CD4
:101CE000014E0150015301550157015A015C015F3A
:101CF000016201640167016A016D016F0172017582
:101D00000179017C017F018201860189018D0190A9
:101D100001940197019B019F01A301A701AB01B0B1
:101D200001B401B801BD01C201C601CB01D001D58A
:101D300001DA01DF01E401EA01EF01F501FB010134
:101D40000207020D0213021902200226022D02349C
:101D5000023B0242024902500256025B02600266E6
:101D6000026E0277028002890292029B02A402ADF7
:101D700002B602BF02C802D002D902E202EB02F4AC
:101D800002FD0206030F03180321032A0333033B5A
:101D90000344034D0356035F03680372037C038708
:101DA0000391039C03A603B403BD03C403CA03D178
:101DB00003D903DC03DE03E103E603E603E603E6FF
:101DC00003E603E60400000000000001800180003B
:101DD00000000000003408FC0814003408FC08145B
:101DE000000300C80005000500050005000A0032D8
:101DF00000E803640032000180E80305001E0000D3
:101E00000014003200010001000100320032000025
:101E10000000000000780500000000000000000045
:101E200000000000000000000000000000000000B2
:101E300000000000000000000000000000000000A2
:101E40000000000000000000000000000000000092
:101E50000000000000000000000000000000000082
:101E6000000000000000000000000005005000001D
:101E7000000000000000000000000070FE70FE0086
:101E80000000000000000000000000000000000052
:101E90000000000000000000000000000000000042
:101EA0000000000000000000000000000000000032
:101EB0000000000000000000000000000000000022
:101EC0000000000000000000000000000000000012
:101ED0000000000000000000000000000000000002
:101EE00000000000000000000000000000000000F2
:101EF00000000000000000000000000000000000E2
:101F000000000000000000000000000000000000D1
:101F100000000000000000000000000000000000C1
:101F200000000000000000000000000000000000B1
:101F300000000000000000000000000000000000A1
:101F40000000000000000000000000000000000091
:101F50000000000000000000000000000000000081
:101F60000000000000000000000000000000000071
:101F7000000000000000000A000A0032000000001B
:101F8000000000000000000000000003000300004B
:101F90000032000A000500050005000000140032B0
:101FA000001E00D00700000000000000000000003C
:101FB0000000000000000000000000000000000021
:101FC00000FE00FC00F900F700F500F300F000EE61
:101FD00000EC00EB00E900E700E600E400E300E1CC
:101FE00000E000DF00DD00DC00DB00DA00D900D813
:101FF00000D700D700D600D500D500D400D300D339
:1020000000D200D200D200D100D100D100D000D047
:1020100000D000D000D000D000CF00CF00CF00CF44
:1020200000CF00CF00CF00CF00D000D000D000D034
:1020300000D000D000D000D000D100D100D100D01D
:1020400000CF00CE00CD00CC00CC00CB00CA00CA2F
:1020500000C900C900C800C800C800C800C800C83E
:1020600000C800C800C800C800C800C800C800C830
:1020700000C800C800C800C800C800C800C800C820
:1020800000C800C800C800C800C900C900C900CA0B
:1020900000CA00CB00CB00CB00CC00CC00CD00CDE3
:1020A00000CE00CE00CF00CF00D000D000D100D1B4
:1020B00000D200D300D300D400D400D500D500D680
:1020C00000D700D700D800D800D900D900D900D94E
:1020D00000D900D900D800D800D800D800D800D73F
:1020E00000D700D700D700D600D600D600D600D53E
:1020F00000D500D500D500D400D400D400D300D33F
:1021000000D300D300D200D200D200D100D100D140
:1021100000D000D000D000CF00CF00CF00CE00CE46
:1021200000CE00CD00CD00CD00CC00CC00CC00CB4B
:1021300000CB00CB00CA00CA00CA00CA00C900C94F
:1021400000C900C800C800C800C800C800C800C84E
:1021500000C800C800C800C800C800C800C800C83F
:1021600000C800C800C800C800C800C800C800C82F
:1021700000C800C800C800C800C800C800C800C81F
:1021800000C800C800C800C800C800C800C800C80F
:1021900000C800C800C800C800C800C800C800C8FF
:1021A00000C800C800C800C800C800C800C800C8EF
:1021B00000C800C800C800C800C800C800C800C8DF
:1021C00000C800C800C800C800C800C800C800C8CF
:1021D00000C900C900CA00CA00CB00CB00CC00CCAB
:1021E00000CD00CD00CE00CE00CF00D000D000D179
:1021F00000D100D200D300D300D400D500D600D641
:1022000000D700D800D900DA00DA00DB00DC00DDFE
:1022100000DE00DF00E000E100E100E200E300E4B6
:1022200000E500E600E700E800E900EB00EC00ED67
:1022300000EE00EF00F000F100F200F400F500F60F
:1022400000F700F800FA00FB00FC00FE00FF0000B1
:10225000010101030104010601070108010A010B44
:10226000010D010E011001110113011401160117D6
:102270000119011A011C011D011F01210122012464
:10228000012601270129012B012D012E01300132E8
:102290000134013601370139013B013D013F014164
:1022A0000143014501470149014B014D014F0151D6
:1022B0000153015501570159015B015E0160016243
:1022C000016401660169016B016D017001720175A4
:1022D00001770179017C017E0181018301860189F9
:1022E000018B018E0191019301960199019C019F3F
:1022F00001A101A401A701AA01AD01B001B401B778
:1023000001BA01BD01C001C401C701CA01CE01D19A
:1023100001D501D801DC01E001E301E701EB01EFA8
:1023200001F301F701FB01FF01030207020B021099
:1023300002140218021D02220226022B023002356C
:10234000023A023F02440249024E02530259025E1F
:102350000264026A026F0275027B02810287028EAA
:102360000294029A02A102A802AE02B502BC02C304
:1023700002CB02D202DA02E102E902F102F9020121
:1023800003090311031A0323032C0335033E0347F8
:102390000350035A0364036D0376037F038803919C
:1023A000039A03A303AC03B50324011B0112010923
:1023B000010001F800F000E900E100DA00D300CDEF
:1023C00000C600C000BA00B400AF00AA00A4009F7D
:1023D000009B00960092008D008900860082007E9E
:1023E000007B007800740071006F006C006900676A
:1023F00000640064006400640064006400640064BD
:1024000000640064006400640064006400640064AC
:10241000006400640064006400640064006400649C
:10242000006400640064006400640064006400648C
:10265000006500650065006600660066006700674B
:10266000006700670068006800680068006900692A
:1026700000690069006A006A006A006A006B006B0A
:10268000006B006B006C006C006C006C006D006DEA
:10269000006D006E006E006E006E006F006F006FC8
:1026A00000700070007100710071007200720073A0
:1026B000007300740074007500760076007700786F
:1026C00000780079007A007B007B007C007D007E32
:1026D000007F0080008200830084008500870088DE
:1026E0000089008B008D008E00900092009400966F
:1026F0000098009A009C009E00A100A300A600A8DC
:1027000000AB00AE00B100B400B700BB00BE00C219
:1027100000C500C900CD00D100D600DA00DF00E31B
:1027200000E800ED00F300F800FE000301090110CD
:102730000116011C0123012A013101390140014820
:10274000015001590161016A0173017D0186019007
:10275000019A01A501B001BB01C601D201DE01EA67
:1027600001F701040212021F022D023C024B025A21
:10277000026A027A028A029B02AC02BE02D202E71D
:1027800002FD0214032B0342035A0373038D03A6B5
:10279000030000000000000000FF7FFF7F04000234
:1027A000000100280AF00AC800280AF00AC8000F31
:1027B00000580214000F0064006400C800F401C057
:1027C00012E803E803FF7F88131400C8000A00C85A
:1027D00000C8006400D0026400FA002C010100016E
:1027E00000B6039808881388138813881388138801
:1027F0001388138813881388138813881388138801
:10280000138813881388138813881388138813E890
:1028100003E803E803E803E803E803E803E803E860
:1028200003E803E803E803E803E803E803E803E850
:1028300003E803E803E803E8031400C800881388EA
:10284000138813FF7FFF7FFF7FE204E204FF7FFF17
:102850007FFF7FFF7FFF7FFF7FFF7FFF7FFF7FFF88
:102860007FFF7FFF7FFF7FFF7FFF7FFF7FFF7FFF78
:102870007FFF7FFF7FFF7FFF7FFF7FFF7FFF7FFF68
:102880007FFF7FFF7FFF7FFF7FFF7FFF7FFF7FFF58
:102890007FFF7FFF7FFF7FFF7FFF7FFF7FFF7FFF48
:1028A0007FFF7FFF7FFF7FFF7FFF7FFF7FFF7FFF38
:1028B0007FFF7FFF7FFF7FFF7FFF7FFF7FFF7FFF28
:1028C0007FFF7FFF7FFF7FFF7FFF7FFF7FFF7FFF18
:1028D0007FFF7FFF7FFF7FFF7FFF7FFF7FFF7FFF08
:1028E0007FFF7FFF7FFF7FFF7FFF7FFF7FFF7FFFF8
:1028F0007FFF7FFF7FFF7FFF7FFF7FFF7FFF7FFFE8
:102900007FFF7FFF7FFF7FFF7FFF7FFF7FFF7FFFD7
:102910007FFF7FFF7FFF7FFF7FFF7FFF7FFF7FFFC7
:102920007FFF7FFF7FFF7FFF7FFF7FFF7FFF7FFFB7
:102930007FFF7FFF7FFF7FFF7FFF7FFF7FFF7FFFA7
:102940007F0200000064002C01F4010A000A000A62
:10295000000A000A000A00E8031E001E000A00C860
:10296000002C0114000F000F000A00C800C800640A
:102970000088131400FF7FFF7FFF7FFF7FFF7FFF33
:102980007FFF7FFF7F00000000FF7F00000000E668
:1029900003E603E603E603E603E603E603E603E2F3
:1029A00003C503A8038B036E03510334031703FA13
:1029B00002DF02D602CD02C402BD02B502AE02A7FA
:1029C00002A1029A0294028E02880282027D02789B
:1029D0000273026E026A02650261025D02590255CB
:1029E0000252024E024B0248024502420240023DA0
:1029F000023B02380236023402320230022F022D2C
:102A0000022C022A02290228022702260225022479
:102A1000022302230222022102210221022002209B
:102A20000220022002200220022002200220022096
:102A3000022002200221022102210222022202237C
:102A4000022302240224022502260226022702274C
:102A500002280229022A022A022B022C022D022D10
:102A6000022E022F023002310231023202330234CE
:102A7000023502350236023702380239023A023A8A
:102A8000023B023C023D023E023E023F0240024146
:102A90000242024202430244024502450246024704
:102AA0000247024802490249024A024B024B024CC9
:102AB000024D024D024E024E024F024F0250025191
:102AC000025102520252025302530254025402545F
:102AD0000255025502560256025602570257025834
:102AE00002580258025902590259025A025A025A0D
:102AF000025A025B025B025B025C025C025C025CEB
:102B0000025D025D025D025D025D025E025E025ECA
:102B1000025E025F025F025F025F025F02600260AC
:102B20000260026002600261026102610261026190
:102B30000262026202620262026302630263026371
:102B4000026402640264026502650265026502664F
:102B5000026602660267026702670268026802692B
:102B600002690269026A026A026B026B026C026C01
:102B7000026D026D026E026E026F027002700271CF
:102B80000271027202730273027402750276027697
:102B90000277027802790279027A027B027C027D56
:102BA000027E027F02800281028202830284028509
:102BB0000286028702880289028A028B028C028EB8
:102BC000028F02900291029302940295029702985A
:102BD0000299029B029C029D029F02A002A202A3F4
:102BE00002A502A602A802A902AB02AD02AE02B083
:102BF00002B202B302B502B702B802BA02BC02BE08
:102C000002BF02C102C302C502C702C902CA02CC86
:102C100002CE02D002D202D402D602D802DA02DCFC
:102C200002DE02E002E202E402E602E802EA02EC6C
:102C300002EF02F102F302F502F702F902FB02FED3
:102C400002000302030403060309030B030D030F31
:102C50000311031403160318031A031D031F032192
:102C6000032303260328032A032C032F03310333F2
:102C700003350338033A033C033F03410343034551
:102C80000348034A034C034E0351035303550357B0
:102C9000035A035C035E0360036303650367036910
:102CA000036B036E03700372037403760379037B73
:102CB000037D037F0381038303850388038A038CD9
:102CC000038E03900392039403960399039B039D41
:102CD000039F03A103A303A503A703A903AB03ADAC
:102CE00003B003B203B403B603B803BA03BC03BE14
:102CF00003C003C203C403C603C803CB03CD03CF81
:102D000003D103D303D503D703D903DC03DE03E0E8
:102D100003E203E403E603E603E603E603E603E671
:102D200003E603E603E603E603E603E603E603E65B
:102D300003E603E603E603E603E603E603E603E64B
:102D400003E603E603E603E603E603E603E603E63B
:102D500003E603E603E603E603E603E603E603E62B
:102D600003E603E603E603E603E603E603E603E61B
:102D700003E603E603E603E603E603E603E603E60B
:102D800003E603E603E603E603E603D103AC0387A9
:102D90000362033D031803F302C902BA02AB029CAB
:102DA000028E0280027302660259024D0241023510
:102DB000022A02200217020D020402FC01F301EBB9
:102DC00001E301DC01D401CD01C601BF01B901B3AA
:102DD00001AD01A701A1019C01970192018D01881C
:102DE00001840180017C017801740170016D016A28
:102DF000016601630161015E015B015901570154E4
:102E000001520150014E014D014B0149014801475A
:102E10000145014401430142014101400140013F9C
:102E2000013E013E013D013D013D013C013C013CB3
:102E3000013C013C013C013C013C013C013C013DA9
:102E4000013D013D013D013E013E013F013F013F8A
:102E5000014001400141014201420143014301445B
:102E60000145014501460147014701480149014922
:102E7000014A014B014C014C014D014E014E014FE5
:102E800001510152015101520153015501540155A3
:102E9000015601560157015801580159015A015A6A
:102EA000015B015C015C015D015D015E015E015F32
:102EB00001600160016101610162016201630163FE
:102EC00001640164016401650165016601660166D2
:102ED00001670167016701680168016801680169AC
:102EE000016901690169016A016A016A016A016A8D
:102EF000016B016B016B016B016B016B016B016B72
:102F0000016C016C016C016C016C016C016C016C59
:102F1000016C016C016C016C016C016C016C016C49
:102F2000016C016C016C016C016C016C016C016C39
:102F3000016C016C016C016C016C016C016C016C29
:102F4000016B016B016B016B016B016B016B016B21
:102F5000016B016B016B016B016B016B016B016B11
:102F6000016B016C016C016C016C016C016C016CFA
:102F7000016C016C016C016C016D016D016D016DE5
:102F8000016D016D016E016E016E016E016F016FC9
:102F9000016F0170017001700171017101710172A5
:102FA000017201720173017301740174017501757D
:102FB000017601760177017801780179017A017A49
:102FC000017B017C017C017D017E017F017F01800D
:102FD00001810182018301840185018601860187C7
:102FE00001880189018B018C018D018E018F019077
:102FF0000191019201940195019601970199019A1D
:10300000019B019D019E019F01A101A201A401A5B7
:1030100001A701A801AA01AB01AD01AF01B001B246
:1030200001B401B501B701B901BB01BC01BE01C0CA
:1030300001C201C401C601C801CA01CD01CF01D13D
:1030400001D301D601D801DA01DD01DF01E101E49C
:1030500001E601E901EB01EE01F101F301F601F8EE
:1030600001FB01FE0101020302060209020C020F2C
:10307000021202150218021B021E0221022402275C
:10308000022A022E023102340237023B023E024281
:1030900002450248024C025002530257025B025E94
:1030A00002620266026A026E027102750279027E93
:1030B00002820286028A028E02930297029B02A07B
:1030C00002A402A902AE02B202B702BC02C102C54A
:1030D00002CA02CF02D502DA02DF02E402EA02EFFC
:1030E00002F502FA02000306030B03110317031D86
:1030F0000324032A03300336033D0344034A0351E8
:103100000358035F0366036D0375037C0383038B1E
:103110000393039B03A303AB03B303BC03C403CD1B
:1031200003D503DE03E603E603E603E603E603E670
:1031300003E603E603E603E603E603E603E603E647
:1031400003E603E603E603E603E603E603E603E637
:1031500003E603E603E603E603E603E603E603000D
:10316000000011241FBECFEFD1E2DEBFCDBF84E54A
:1031700090E0FC0180818093D31D84E590E0FC0108
:1031800010820FB6F894A8958091600088618093B2
:103190006000109260000FBE000015E0A0E0B2E0F9
:1031A000E0EAF9E301E00BBF02C007900D92AA37F5
:1031B000B107D9F72DE1AAE7B5E001C01D92A33D03
:1031C000B207E1F70E9468480C94CE9C0C94000072
:1031D000CF93DF93CDB7DEB78CE790E023E4FC011B
:1031E00020838AE790E02FE8FC0120838BE790E0C2
:1031F000FC0110828EE790E02FEFFC0120831092FB
:10320000A6051092A505109285051092840580915F
:103210008F1C9091901C092E000CAA0BBB0BBC01BB
:10322000CD010E94CD95DC01CB0120E030E040E2F1
:1032300051E4BC01CD010E942395DC01CB018093B8
:10324000990590939A05A0939B05B0939C05809156
:10325000911C9091921C092E000CAA0BBB0BBC0177
:10326000CD010E94CD95DC01CB0120E030E040E2B1
:1032700051E4BC01CD010E942395DC01CB01809378
:10328000A1059093A205A093A305B093A405000007
:10329000DF91CF9108951F920F9200905F000F92DF
:1032A000112400905B000F922F933F934F935F93F5
:1032B0006F937F938F939F93AF93BF93EF93FF93FE
:1032C000CF93DF93CDB7DEB78CE790E0DC018C9134
:1032D000882F90E08234910509F447C0833491052A
:1032E0003CF48034910589F08134910531F118C2A4
:1032F0008434910509F44BC1843491050CF449C020
:103300008534910509F49AC10BC288E790E0FC016D
:103310008081918190939305809392058CE790E052
:1033200021E4DC012C938AE790E02AE730E0F90100
:1033300020812064DC012C93F3C188E790E0FC013C
:103340008081918190939505809394058CE790E01E
:1033500022E4DC012C938AE790E02AE730E0F901CF
:1033600020812064DC012C93DBC18091C7128F5F28
:103370008093C71288E790E0FC018081918190934F
:103380009705809396058CE790E023E4DC012C936D
:10339000C7C18091C712882F90E0AC014F715527AB
:1033A0008091E012882F90E09C012170332780915A
:1033B000D6069091D70668E770E0DB01ED91FC91AD
:1033C000AEEEB2E02A9FB0012B9F700D3A9F700DB8
:1033D0001124680F791F660F771F6C51794FDB013D
:1033E000ED93FC93EEEEF2E02E9FB0012F9F700D57
:1033F0003E9F700D1124860F971F880F991F8C51C7
:10340000994FFC0120813181CA01880F991F885D85
:103410009C4EDC012D933C9380912613813079F4EE
:103420008CE790E024E4FC0120838AE790E02AE71F
:1034300030E0D9012C912064FC01208370C18CE71D
:1034400090E020E4DC012C938AE790E02AE730E06A
:10345000F90120812064DC012C938091D6069091A3
:10346000D7068A3F910550F48091D6069091D706F1
:1034700001969093D7068093D60604C01092D70683
:103480001092D6064091D6065091D7069A01ADEC1F
:10349000BCEC0E94E89A96958795969587959695A7
:1034A0008795880F991F9C01220F331F220F331F0E
:1034B000820F931FFA01E81BF90BCF01892B09F04A
:1034C0002EC18091E012882F90E0BC0161707727B7
:1034D0008091C51A9091C61A24E830E0D9012D9147
:1034E0003C91E9E1E69FA001E79F500D1124840F74
:1034F000951F880F991F8D50954EFC0131832083B5
:1035000084E890E0DC0111961C921E928091C71213
:10351000882F90E08F7199272091E012222F30E0C0
:10352000B901617077272091C51A3091C61AE9E177
:10353000E69FA001E79F500D1124240F351F220F95
:10354000331F2D50354EF90120813181880F991F8D
:103550008F519D4EDC012D933C938091C51A909123
:10356000C61A499750F48091C51A9091C61A0196CF
:103570009093C61A8093C51AD2C01092C61A1092A0
:10358000C51A8091E0128F5F8093E012C8C08091CD
:10359000C712882F90E0AC014F7155278091E0123F
:1035A000882F90E09C01217033278091D60690915E
:1035B000D70668E770E0DB01ED91FC91AEEEB2E07A
:1035C0002A9FB0012B9F700D3A9F700D1124680F38
:1035D000791F66507F4F660F771F6C51794FDB0163
:1035E000ED93FC93EEEEF2E02E9FB0012F9F700D55
:1035F0003E9F700D1124860F971F86509F4F880F96
:10360000991F8C51994FFC0120813181CA0180960C
:10361000880F991F885D9C4EDC012D933C938CE7AD
:1036200090E025E4FC0120838AE790E02AE730E07F
:10363000D9012C912064FC01208372C08091C712B3
:10364000882F90E0AC014F7155278091E012882FB0
:1036500090E09C01217033278091D6069091D70687
:1036600068E770E0DB01ED91FC91AEEEB2E02A9FDD
:10367000B0012B9F700D3A9F700D1124680F791FB8
:103680006C507E4F660F771F6C51794FDB01ED93C5
:10369000FC93EEEEF2E02E9FB0012F9F700D3E9F47
:1036A000700D1124860F971F8C509E4F880F991F05
:1036B0008C51994FFC0120813181CA01805C9F4F60
:1036C000880F991F885D9C4EDC012D933C9380915F
:1036D000D6069091D70601969093D7068093D6068A
:1036E0008091D6069091D7068A3F910549F41092B1
:1036F000D7061092D6068091E0128F5F8093E01279
:103700008CE790E021E4FC0120838AE790E02AE73F
:1037100030E0D9012C912064FC01208301C000001D
:103720000000DF91CF91FF91EF91BF91AF919F91F9
:103730008F917F916F915F914F913F912F910F905A
:1037400000925B000F9000925F000F901F90189501
:10375000CF92DF92EF92FF92CF93DF93CDB7DEB798
:103760008091901790919117892B09F4F3C01092D2
:103770009117109290178091860590918705A091DE
:103780008805B09189052CEE31E548E75FE3BC017F
:10379000CD010E948296DC01CB016C017D018091FC
:1037A000920590919305CC01A0E0B0E0BC01CD0161
:1037B0000E94CB95DC01CB012FE832EC45EF5CE3B6
:1037C000BC01CD010E948296DC01CB019C01AD01C0
:1037D000C701B6010E94B294DC01CB01809386053B
:1037E00090938705A0938805B093890580918A05F9
:1037F00090918B05A0918C05B0918D052CEE31E553
:1038000048E75FE3BC01CD010E948296DC01CB0159
:103810006C017D018091940590919505CC01A0E00B
:10382000B0E0BC01CD010E94CB95DC01CB012FE8BB
:1038300032EC45EF5CE3BC01CD010E948296DC01D5
:10384000CB019C01AD01C701B6010E94B294DC011D
:10385000CB0180938A0590938B05A0938C05B09340
:103860008D0580918E0590918F05A0919005B09166
:1038700091052CEE31E548E75FE3BC01CD010E94E4
:103880008296DC01CB016C017D01809196059091BF
:103890009705CC01A0E0B0E0BC01CD010E94CB9522
:1038A000DC01CB012FE832EC45EF5CE3BC01CD013C
:1038B0000E948296DC01CB019C01AD01C701B601DB
:1038C0000E94B294DC01CB0180938E0590938F050A
:1038D000A0939005B09391058091860590918705FE
:1038E000A0918805B091890526E535ED49EB5EE3A9
:1038F000BC01CD010E948296DC01CB018093800542
:1039000090938105A0938205B093830580918A05E9
:1039100090918B05A0918C05B0918D0528E738E733
:1039200044E45DE3BC01CD010E948296DC01CB0141
:1039300020E030E040E85FE3BC01CD010E94B2949A
:10394000DC01CB0180937C0590937D05A0937E05DF
:10395000B0937F050000DF91CF91FF90EF90DF9053
:10396000CF900895CF93DF9300D000D000D0CDB793
:10397000DEB780919A1790919B17892B09F43EC16D
:1039800010929B1710929A1780918E0590918F0537
:10399000A0919005B0919105BC01CD010E949C952C
:1039A000DC01CB01880F991F880F991F82539C4F10
:1039B0009A83898389819A819C01F90185919591E6
:1039C000A591B4919F018B839C83AD83BE833A8381
:1039D00029838B819C81AD81BE8180939D059093CD
:1039E0009E05A0939F05B093A00580919D059091A1
:1039F0009E05A0919F05B091A00520919905309159
:103A00009A0540919B0550919C05BC01CD010E94F7
:103A10001E9588230CF042C08091A5059091A605C3
:103A2000059750F48091A5059091A6050196909375
:103A3000A6058093A50536C080919D0590919E05B1
:103A4000A0919F05B091A0058093990590939A0548
:103A5000A0939B05B0939C058091990590919A0540
:103A6000A0919B05B0919C0520E030E040E251E43C
:103A7000BC01CD010E948296DC01CB01BC01CD01CD
:103A80000E949595DC01CB01BC018BE590E00E9482
:103A9000D1841092A6051092A50504C01092A60527
:103AA0001092A50580919D0590919E05A0919F057E
:103AB000B091A0052091A1053091A2054091A305E8
:103AC0005091A405BC01CD010E947D9618160CF002
:103AD00042C08091840590918505059750F48091AE
:103AE00084059091850501969093850580938405C2
:103AF00036C080919D0590919E05A0919F05B09143
:103B0000A0058093A1059093A205A093A305B0936F
:103B1000A4058091A1059091A205A091A305B09163
:103B2000A40520E030E040E251E4BC01CD010E9458
:103B30008296DC01CB01BC01CD010E949595DC0190
:103B4000CB01BC018CE590E00E94D18410928505E8
:103B50001092840504C0109285051092840580910E
:103B60009D0590919E05A0919F05B091A00520E034
:103B700030E040E552E4BC01CD010E94B194DC018B
:103B8000CB0120E030E0A901BC01CD010E941E95CF
:103B900088231CF41092980531C080919D05909166
:103BA0009E05A0919F05B091A00520E030E040E582
:103BB00052E4BC01CD010E94B194DC01CB0120E0B4
:103BC00030E040E252E4BC01CD010E947D9618161F
:103BD00024F488E28093980511C080919D0590910E
:103BE0009E05A0919F05B091A005BC01CD010E944A
:103BF0009C95DC01CB0184538093980500002696A8
:103C00000FB6F894DEBF0FBECDBFDF91CF91089500
:103C1000CF93DF93CDB7DEB78EE290E02EE230E0B7
:103C2000F90120812460FC0120838EE290E02EE2E5
:103C300030E0F90120812860FC01208384E390E0DA
:103C400024E330E0F90120812F7EFC01208385E010
:103C500090E00E94687680EA9FE00E943D1F00008D
:103C6000DF91CF910895CF93DF93CDB7DEB78EE28A
:103C700090E02EE230E0F90120812860FC012083F1
:103C80008AE00E948F768EE290E02EE230E0F90129
:103C900020812460FC0120838AE00E948F768EE2DE
:103CA00090E02EE230E0F9012081277FFC012083A3
:103CB0008AE00E948F768EE290E02EE230E0F901F9
:103CC00020812B7FFC0120838AE00E948F760000F8
:103CD000DF91CF910895CF93DF93CDB7DEB78EE21A
:103CE00090E02EE230E0F9012081277FFC01208363
:103CF0008AE00E948F768EE290E02EE230E0F901B9
:103D000020812460FC0120838AE00E948F768EE26D
:103D100090E02EE230E0F90120812860FC01208350
:103D20008AE00E948F760000DF91CF910895CF93B3
:103D3000DF931F92CDB7DEB78EE290E02EE230E047
:103D4000F90120812460FC0120838AE00E948F76A3
:103D50008CE290E0FC018081869586958695817045
:103D600089838EE290E02EE230E0F90120812B7F02
:103D7000FC0120838AE00E948F7689810F90DF9179
:103D8000CF910895CF93DF9300D01F92CDB7DEB7C8
:103D90008B831A82198236C08B81882354F48EE279
:103DA00090E02EE230E0F90120812860FC012083C0
:103DB00009C08EE290E02EE230E0F9012081277FF9
:103DC000FC0120838B81880F8B838EE290E02EE2B2
:103DD00030E0F90120812460FC0120838AE00E9408
:103DE0008F768EE290E02EE230E0F90120812B7F89
:103DF000FC0120838AE00E948F7689819A81019656
:103E00009A83898389819A81089730F20E94971E4C
:103E10000F900F900F90DF91CF910895CF93DF9384
:103E200000D01F92CDB7DEB79B838A8319820E9490
:103E3000331E88E90E94C21E882319F0898181609F
:103E400089838A819B81892F99270E94C21E88239A
:103E500019F08981826089838A810E94C21E882329
:103E600019F48981846089830E946B1E89810F9077
:103E70000F900F90DF91CF910895CF93DF9300D0F3
:103E8000CDB7DEB79A83898389819A81CC01A0E07E
:103E9000B0E0BC01CD010E94CB95DC01CB012DEB44
:103EA00037E346E855E3BC01CD010E948296DC0170
:103EB000CB0120E030E048EC52E4BC01CD010E948F
:103EC0002395DC01CB0120E030E44CE956E4BC0151
:103ED000CD010E948296DC01CB0120E030E040EA77
:103EE0005AE3BC01CD010E942395DC01CB01BC014A
:103EF000CD010E949C95DC01CB019F700E940E1F9A
:103F00000F900F90DF91CF910895CF93DF93CDB7AE
:103F1000DEB781E290E028E3FC01208382E290E0BA
:103F2000FC01108284E290E020E3FC01208385E222
:103F300090E022E8FC01208387E290E0FC011082FF
:103F400088E290E02FEFFC0120838AE290E028EBEA
:103F5000FC0120838BE290E02CE0FC0120838DE2C9
:103F600090E02EECFC0120838EE290E02FE4FC0137
:103F7000208380E390E0FC01108281E390E0FC016B
:103F8000108283E390E028E1FC01208384E390E049
:103F900020E1FC0120830000DF91CF910895CF93B1
:103FA000DF93CDB7DEB78091D512813051F485E231
:103FB00090E025E230E0F90120812F7EFC01208392
:103FC00009C085E290E025E230E0F901208120611E
:103FD000FC0120830000DF91CF910895CF93DF9300
:103FE000CDB7DEB78091D512813051F485E290E0F3
:103FF00025E230E0F90120812061FC01208309C025
:1040000085E290E025E230E0F90120812F7EFC017D
:1040100020830000DF91CF910895CF93DF93CDB738
:10402000DEB78091DE12813051F485E290E025E226
:1040300030E0F90120812F7DFC01208309C085E259
:1040400090E025E230E0F90120812062FC0120832C
:104050000000DF91CF910895CF93DF93CDB7DEB706
:104060008091DE12813051F485E290E025E230E06B
:10407000F90120812062FC01208309C085E290E0E3
:1040800025E230E0F90120812F7DFC012083000032
:10409000DF91CF910895CF93DF93CDB7DEB7109224
:1040A000D7061092D6061092600610925F06109204
:1040B000D5061092D40680912613882309F069C092
:1040C0008091E91B9091EA1B092E000CAA0BBB0BF7
:1040D000BC01CD010E94CD95DC01CB012FE632E180
:1040E00043E85AE3BC01CD010E948296DC01CB017A
:1040F00020E030E040EA5BE3BC01CD010E94239563
:10410000DC01CB01BC01CD010E949C95DC01CB01FF
:104110009093E3068093E2068091EB1B9091EC1B59
:10412000092E000CAA0BBB0BBC01CD010E94CD9542
:10413000DC01CB012FE632E143E85AE3BC01CD01BB
:104140000E948296DC01CB0120E030E040EA5BE394
:10415000BC01CD010E942395DC01CB01BC01CD0146
:104160000E949C95DC01CB019093BC128093BB1202
:104170008091ED1B9091EE1B90939E1280939D1267
:1041800080918B1D90918C1D90935C0680935B06B3
:1041900060C08091EF1B9091F01B092E000CAA0BC0
:1041A000BB0BBC01CD010E94CD95DC01CB012FE6FC
:1041B00032E143E85AE3BC01CD010E948296DC0162
:1041C000CB0120E030E040EA5BE3BC01CD010E947E
:1041D0002395DC01CB01BC01CD010E949C95DC0143
:1041E000CB019093E3068093E2068091F11B9091BE
:1041F000F21B092E000CAA0BBB0BBC01CD010E94C7
:10420000CD95DC01CB012FE632E143E85AE3BC0156
:10421000CD010E948296DC01CB0120E030E040EA33
:104220005BE3BC01CD010E942395DC01CB01BC0105
:10423000CD010E949C95DC01CB019093BC12809330
:10424000BB128091F31B9091F41B90939E1280936C
:104250009D128091F51B9091F61B9093C706809359
:10426000C6068091F71B9091F81B9093A61280933D
:10427000A5128091F91B9091FA1B092E000CAA0B34
:10428000BB0BBC01CD010E94CD95DC01CB0120E030
:1042900030E44CE156E4BC01CD010E942395DC01E1
:1042A000CB018093D0069093D106A093D206B09311
:1042B000D3068FEF809361068FEF809362068FEFB6
:1042C000809363068091FB1B9091FC1B8093C10639
:1042D0008091FD1B9091FE1B092E000CAA0BBB0BBD
:1042E000BC01CD010E94CD95DC01CB012FE632E16E
:1042F00043E85AE3BC01CD010E948296DC01CB0168
:104300008093B3129093B412A093B512B093B612E7
:104310008091FF1B9091001C9093AA128093A91288
:104320008091011C9091021C909365068093640615
:104330008091031C9091041C9093A2128093A1126F
:104340008091B51D9091B61D909367068093660687
:1043500080918D1D90918E1D90935E0680935D06D9
:1043600080918F1D9091901D9093CB068093CA06EB
:104370008091911D9091921D9093B8128093B712E5
:104380008091931D9091941D9093A4128093A312F9
:104390008091951D9091961D9093A01280939F12ED
:1043A0008091971D9091981D9093B2128093B112B5
:1043B0008091991D90919A1D9093A8128093A712B5
:1043C00080919B1D90919C1D909304068093030601
:1043D00080919D1D90919E1D9093BA128093B91269
:1043E00080919F1D9091A01D092E000CAA0BBB0B64
:1043F000BC01CD010E94CD95DC01CB0120E030E075
:1044000048EC52E4BC01CD010E942395DC01CB01B4
:104410008093D8069093D906A093DA06B093DB0672
:104420008091A11D9091A21D092E000CAA0BBB0B1F
:10443000BC01CD010E94CD95DC01CB0120E030E034
:1044400048EC52E4BC01CD010E942395DC01CB0174
:104450008093C2069093C306A093C406B093C5068A
:104460008091A31D9091A41D909302068093010654
:104470008091051C9091061C092E000CAA0BBB0B09
:10448000BC01CD010E94CD95DC01CB012FE632E1CC
:1044900043E85AE3BC01CD010E948296DC01CB01C6
:1044A0008093CC069093CD06A093CE06B093CF0612
:1044B0008091071C9091081C092E000CAA0BBB0BC5
:1044C000BC01CD010E94CD95DC01CB012FE632E18C
:1044D00043E85AE3BC01CD010E948296DC01CB0186
:1044E0008093BD129093BE12A093BF12B093C012DE
:1044F0008091091C90910A1C90935A06809359064A
:1045000080910B1C90910C1C892F992780939C12F1
:1045100080910B1C90910C1C8093BC068091811C97
:104520009091821C9093C9068093C80680912B1CA1
:1045300090912C1C092E000CAA0BBB0BBC01CD01C9
:104540000E94CD95DC01CB012FE632E143E85AE32E
:10455000BC01CD010E948296DC01CB0180936806EC
:1045600090936906A0936A06B0936B0680912D1C08
:1045700090912E1C092E000CAA0BBB0BBC01CD0187
:104580000E94CD95DC01CB012FE632E143E85AE3EE
:10459000BC01CD010E948296DC01CB0180936C06A8
:1045A00090936D06A0936E06B0936F0680912F1CBA
:1045B0009091301C092E000CAA0BBB0BBC01CD0145
:1045C0000E94CD95DC01CB012FE632E143E85AE3AE
:1045D000BC01CD010E948296DC01CB018093700664
:1045E00090937106A0937206B09373068091311C6C
:1045F0009091321C092E000CAA0BBB0BBC01CD0103
:104600000E94CD95DC01CB012FE632E143E85AE36D
:10461000BC01CD010E948296DC01CB01809374061F
:1046200090937506A0937606B09377068091331C1D
:104630009091341C092E000CAA0BBB0BBC01CD01C0
:104640000E94CD95DC01CB012FE632E143E85AE32D
:10465000BC01CD010E948296DC01CB0180937806DB
:1046600090937906A0937A06B0937B068091351CCF
:104670009091361C092E000CAA0BBB0BBC01CD017E
:104680000E94CD95DC01CB012FE632E143E85AE3ED
:10469000BC01CD010E948296DC01CB0180937C0697
:1046A00090937D06A0937E06B0937F068091371C81
:1046B0009091381C092E000CAA0BBB0BBC01CD013C
:1046C0000E94CD95DC01CB012FE632E143E85AE3AD
:1046D000BC01CD010E948296DC01CB018093800653
:1046E00090938106A0938206B09383068091391C33
:1046F00090913A1C092E000CAA0BBB0BBC01CD01FA
:104700000E94CD95DC01CB012FE632E143E85AE36C
:10471000BC01CD010E948296DC01CB01809384060E
:1047200090938506A0938606B093870680913B1CE4
:1047300090913C1C092E000CAA0BBB0BBC01CD01B7
:104740000E94CD95DC01CB012FE632E143E85AE32C
:10475000BC01CD010E948296DC01CB0180938806CA
:1047600090938906A0938A06B0938B0680913D1C96
:1047700090913E1C092E000CAA0BBB0BBC01CD0175
:104780000E94CD95DC01CB012FE632E143E85AE3EC
:10479000BC01CD010E948296DC01CB0180938C0686
:1047A00090938D06A0938E06B0938F0680913F1C48
:1047B0009091401C092E000CAA0BBB0BBC01CD0133
:1047C0000E94CD95DC01CB012FE632E143E85AE3AC
:1047D000BC01CD010E948296DC01CB018093900642
:1047E00090939106A0939206B09393068091411CFA
:1047F0009091421C092E000CAA0BBB0BBC01CD01F1
:104800000E94CD95DC01CB012FE632E143E85AE36B
:10481000BC01CD010E948296DC01CB0180939406FD
:1048200090939506A0939606B09397068091431CAB
:104830009091441C092E000CAA0BBB0BBC01CD01AE
:104840000E94CD95DC01CB012FE632E143E85AE32B
:10485000BC01CD010E948296DC01CB0180939806B9
:1048600090939906A0939A06B0939B068091451C5D
:104870009091461C092E000CAA0BBB0BBC01CD016C
:104880000E94CD95DC01CB012FE632E143E85AE3EB
:10489000BC01CD010E948296DC01CB0180939C0675
:1048A00090939D06A0939E06B0939F068091471C0F
:1048B0009091481C092E000CAA0BBB0BBC01CD012A
:1048C0000E94CD95DC01CB012FE632E143E85AE3AB
:1048D000BC01CD010E948296DC01CB018093A00631
:1048E0009093A106A093A206B093A3068091491CC1
:1048F00090914A1C092E000CAA0BBB0BBC01CD01E8
:104900000E94CD95DC01CB012FE632E143E85AE36A
:10491000BC01CD010E948296DC01CB018093A406EC
:104920009093A506A093A606B093A70680914B1C72
:1049300090914C1C092E000CAA0BBB0BBC01CD01A5
:104940000E94CD95DC01CB012FE632E143E85AE32A
:10495000BC01CD010E948296DC01CB018093A806A8
:104960009093A906A093AA06B093AB0680914D1C24
:1049700090914E1C092E000CAA0BBB0BBC01CD0163
:104980000E94CD95DC01CB012FE632E143E85AE3EA
:10499000BC01CD010E948296DC01CB018093AC0664
:1049A0009093AD06A093AE06B093AF0680914F1CD6
:1049B0009091501C092E000CAA0BBB0BBC01CD0121
:1049C0000E94CD95DC01CB012FE632E143E85AE3AA
:1049D000BC01CD010E948296DC01CB018093B00620
:1049E0009093B106A093B206B093B3068091511C88
:1049F0009091521C092E000CAA0BBB0BBC01CD01DF
:104A00000E94CD95DC01CB012FE632E143E85AE369
:104A1000BC01CD010E948296DC01CB018093B406DB
:104A20009093B506A093B606B093B7068091531C39
:104A30009091541C092E000CAA0BBB0BBC01CD019C
:104A40000E94CD95DC01CB012FE632E143E85AE329
:104A5000BC01CD010E948296DC01CB018093B80697
:104A60009093B906A093BA06B093BB068091261323
:104A7000882309F09BC08091551C9091561C092EEB
:104A8000000CAA0BBB0BBC01CD010E94CD95DC0133
:104A9000CB018093050690930606A0930706B0937A
:104AA00008068091571C9091581C092E000CAA0BE7
:104AB000BB0BBC01CD010E94CD95DC01CB018093E5
:104AC000090690930A06A0930B06B0930C068091FA
:104AD000591C90915A1C092E000CAA0BBB0BBC014F
:104AE000CD010E94CD95DC01CB0180930D06909302
:104AF0000E06A0930F06B093100680915B1C909158
:104B00005C1C092E000CAA0BBB0BBC01CD010E9442
:104B1000CD95DC01CB018093110690931206A093F2
:104B20001306B093140680915D1C90915E1C092EB3
:104B3000000CAA0BBB0BBC01CD010E94CD95DC0182
:104B4000CB018093150690931606A0931706B09399
:104B5000180680915F1C9091601C092E000CAA0B16
:104B6000BB0BBC01CD010E94CD95DC01CB01809334
:104B7000190690931A06A0931B06B0931C06809109
:104B8000611C9091621C092E000CAA0BBB0BBC018E
:104B9000CD010E94CD95DC01CB0180931D06909341
:104BA0001E06A0931F06B0932006CEC18091551C0F
:104BB0009091561C092E000CAA0BBB0BBC01CD0119
:104BC0000E94CD95DC01CB018093050690930606EB
:104BD000A0930706B09308068091571C9091581C2B
:104BE000092E000CAA0BBB0BBC01CD010E94CD9578
:104BF000DC01CB018093090690930A06A0930B0673
:104C0000B0930C068091591C90915A1C092E000CEF
:104C1000AA0BBB0BBC01CD010E94CD95DC01CB01E1
:104C200080930D0690930E06A0930F06B093100686
:104C300080915B1C90915C1C092E000CAA0BBB0B95
:104C4000BC01CD010E94CD95DC01CB018093110602
:104C500090931206A0931306B093140680915D1CE6
:104C600090915E1C092E000CAA0BBB0BBC01CD0160
:104C70000E94CD95DC01CB0180931506909316061A
:104C8000A0931706B093180680915F1C9091601C4A
:104C9000092E000CAA0BBB0BBC01CD010E94CD95C7
:104CA000DC01CB018093190690931A06A0931B0692
:104CB000B0931C068091611C9091621C092E000C1F
:104CC000AA0BBB0BBC01CD010E94CD95DC01CB0131
:104CD00080931D0690931E06A0931F06B093200696
:104CE0008091631C9091641C092E000CAA0BBB0BD5
:104CF000BC01CD010E94CD95DC01CB018093210642
:104D000090932206A0932306B09324068091651CFD
:104D10009091661C092E000CAA0BBB0BBC01CD01A7
:104D20000E94CD95DC01CB01809325069093260649
:104D3000A0932706B09328068091671C9091681C69
:104D4000092E000CAA0BBB0BBC01CD010E94CD9516
:104D5000DC01CB018093290690932A06A0932B06B1
:104D6000B0932C068091691C90916A1C092E000C4E
:104D7000AA0BBB0BBC01CD010E94CD95DC01CB0180
:104D800080932D0690932E06A0932F06B0933006A5
:104D900080916B1C90916C1C092E000CAA0BBB0B14
:104DA000BC01CD010E94CD95DC01CB018093310681
:104DB00090933206A0933306B093340680916D1C15
:104DC00090916E1C092E000CAA0BBB0BBC01CD01EF
:104DD0000E94CD95DC01CB01809335069093360679
:104DE000A0933706B093380680916F1C9091701C89
:104DF000092E000CAA0BBB0BBC01CD010E94CD9566
:104E0000DC01CB018093390690933A06A0933B06D0
:104E1000B0933C068091711C9091721C092E000C7D
:104E2000AA0BBB0BBC01CD010E94CD95DC01CB01CF
:104E300080933D0690933E06A0933F06B0934006B4
:104E40008091731C9091741C092E000CAA0BBB0B53
:104E5000BC01CD010E94CD95DC01CB0180934106C0
:104E600090934206A0934306B09344068091751C2C
:104E70009091761C092E000CAA0BBB0BBC01CD0136
:104E80000E94CD95DC01CB018093450690934606A8
:104E9000A0934706B09348068091771C9091781CA8
:104EA000092E000CAA0BBB0BBC01CD010E94CD95B5
:104EB000DC01CB018093490690934A06A0934B06F0
:104EC000B0934C068091791C90917A1C092E000CAD
:104ED000AA0BBB0BBC01CD010E94CD95DC01CB011F
:104EE00080934D0690934E06A0934F06B0935006C4
:104EF00080917B1C90917C1C092E000CAA0BBB0B93
:104F0000BC01CD010E94CD95DC01CB0180935106FF
:104F100090935206A0935306B093540680917D1C43
:104F200090917E1C092E000CAA0BBB0BBC01CD017D
:104F30000E94CD95DC01CB018093550690935606D7
:104F4000A0935706B093580660E080E00E94164692
:104F500061E080E00E94164662E080E00E94164612
:104F600063E080E00E94164664E080E00E941646FE
:104F700065E080E00E94164666E080E00E941646EA
:104F800060E081E00E94164661E081E00E941646E2
:104F900062E081E00E94164663E081E00E941646CE
:104FA00064E081E00E94164665E081E00E941646BA
:104FB00066E081E00E94164660E082E00E941646AC
:104FC00061E082E00E94164662E082E00E9416469E
:104FD00063E082E00E94164664E082E00E9416468A
:104FE00065E082E00E94164666E082E00E94164676
:104FF0001092BD061092BE061092BF061092C00617
:105000000000DF91CF9108958F929F92AF92BF924F
:10501000CF92DF92EF92FF920F931F93CF93DF9384
:10502000CDB7DEB7C954D1090FB6F894DEBF0FBEB5
:10503000CDBF9E012A5B3F4FF90191838083CE0152
:10504000885B9F4FFC0171836083809126138130C0
:1050500029F483E090E09B878A871CC081E090E080
:105060009B878A8780919805882F90E082539C4E79
:105070009EA78DA78DA59EA5FC0184918FA72FA526
:10508000CE01885B9F4FFC01808191818C519F4FA5
:10509000FC012083198618860C94B53981E090E0D4
:1050A0009E838D83CE01885B9F4FFC01808191811F
:1050B0008B5E934129F48DEE95E19A8389830AC032
:1050C000CE01885B9F4FFC0180819181815091408E
:1050D0009A8389831F82CE01885B9F4FFC012081C8
:1050E0003181888599854596880F991F880F991F6A
:1050F000820F931FFC011082118212821382CE0153
:10510000885B9F4FFC012081318188859985880FBC
:10511000991F820F931FFC0111821082CE01885BC0
:105120009F4FFC0120813181888599850396880FE6
:10513000991F820F931FFC0111821082CE01885BA0
:105140009F4FFC0120813181888599850396880FC6
:10515000991F880F991F280F391F80E090ECAFE747
:10516000B4E4F90180839183A283B383CE01885B89
:105170009F4FFC0120813181888599850696880F93
:10518000991F880F991F820F931FFC0110821182B3
:1051900012821382CE01885B9F4FFC0120813181F6
:1051A000888599854296880F991F820F931FFC016D
:1051B00011821082CE01885B9F4FFC0120813181DA
:1051C000888599854596880F991F820F931FFC014A
:1051D00011821082CE01885B9F4FFC0120813181BA
:1051E000888599850C96880F991F880F991F820FC3
:1051F000931FFC011082118212821382CE01885B00
:105200009F4FFC0120813181888599850F96880FF9
:10521000991F880F991F820F931FFC011082118222
:10522000128213821D861C861F861E868091DD12C7
:10523000813051F5CE01885B9F4FFC012081318187
:10524000888599858D599F4F880F991F820F931FCD
:10525000FC0111821082198E188E1A8E1B8E1C8EE4
:105260001E8E1D8E18A21F8E1AA219A21EA21DA28A
:1052700019AA18AA18A61FA21CA21BA21AA619A630
:105280001BAA1AAA1CA61BA61C821B823CC58B81CA
:105290009C81880F991F9E012A5B3F4FF901208155
:1052A0003181820F931FFC01808191819DAB8CAB7A
:1052B0008F81882F90E08130910509F440C08230C1
:1052C000910509F4FBC1892B09F0C0C381E090E08E
:1052D0009E838D83CE01885B9F4FFC0180819181ED
:1052E0008C519F4FFC018081282F30E08091E20695
:1052F0009091E306280F391F8CA99DA98217930767
:1053000018F481E08F839DC3CE01885B9F4FFC0121
:10531000808191818C519F4FFC018081282F30E04A
:105320008091BB129091BC12280F391F8CA99DA9A6
:105330002817390708F085C382E08F8382C38091E4
:10534000DD12813009F01DC1CE01885B9F4FFC0149
:10535000808191818C519F4FFC018081282F30E00A
:105360008091E2069091E306280F391F8CA99DA930
:105370008217930730F48B819C81893F910509F056
:10538000C6C08B819C81893F9105E9F4CE01885B81
:105390009F4FFC01808191818C519F4FFC01808146
:1053A000282F30E08091E2069091E306280F391F04
:1053B0008CA99DA98217930730F48D819E81019657
:1053C0009E838D8381C08091C6069091C7062D81F2
:1053D0003E818217930708F077C02B813C818D8135
:1053E0009E818217930708F06FC0CE01885B9F4FA4
:1053F000FC012081318188859985880F991F820F52
:10540000931FFC01808191819C012F5F3F4FCE0152
:10541000885B9F4FFC014081518188859985880F69
:10542000991F840F951FFC0131832083CE01885B77
:105430009F4FFC0120813181888599850396880FD3
:10544000991F820F931FFC01208131818D819E81E4
:10545000280F391FCE01885B9F4FFC01408151818D
:10546000888599850396880F991F840F951FFC01E5
:10547000318320838DA19EA1892BB9F02DA13EA15E
:105480008D819E81A901481B590BCA0199231CF4E7
:1054900091958195910999AB88AB2FA138A588A9E1
:1054A00099A9820F931F98A78FA38D819E819EA398
:1054B0008DA329A13AA18D819E812817390720F457
:1054C0008D819E819AA389A3CE01885B9F4FFC01A9
:1054D000808191818C519F4FFC018081282F30E089
:1054E0008091BB129091BC12280F391F8CA99DA9E5
:1054F0002817390738F482E08F8381E090E09E839B
:105500008D8301C01F821B8E1C8E1A8ED6C08D818A
:105510009E8101969E838D83288D398D8CA99DA9AE
:10552000A901481B590BCA0199231CF49195819537
:10553000910903970CF487C2288D398D8CA99DA9F8
:105540002817390758F41C8E8B8D8F5F8B8F8B8DAE
:10555000833008F478C281E08A8F75C21B8E8C8DEF
:105560008F5F8C8F8C8D833008F46DC28A8D813073
:1055700029F48D8D9E8D01969E8F8D8F82E08A8F6E
:1055800062C2CE01885B9F4FFC01808191818C516A
:105590009F4FFC018081282F30E08091E20690919E
:1055A000E306280F391F8CA99DA98217930730F4B1
:1055B0008B819C81893F910509F079C08B819C8109
:1055C000893F910529F48D819E8101969E838D836B
:1055D0008091C6069091C7062D813E818217930760
:1055E00008F045C0CE01885B9F4FFC0120813181CE
:1055F00088859985880F991F820F931FFC018081F0
:1056000091819C012F5F3F4FCE01885B9F4FFC0132
:105610004081518188859985880F991F840F951F36
:10562000FC0131832083CE01885B9F4FFC012081E8
:105630003181888599850396880F991F820F931F62
:10564000FC01208131818D819E81280F391FCE017F
:10565000885B9F4FFC014081518188859985039625
:10566000880F991F840F951FFC0131832083CE0181
:10567000885B9F4FFC01808191818C519F4FFC0181
:105680008081282F30E08091BB129091BC12280FAE
:10569000391F8CA99DA92817390738F482E08F8318
:1056A00081E090E09E838D8308C01F8206C08D81BB
:1056B0009E8101969E838D83C6C1C5C18091DD12F6
:1056C000813009F01FC1CE01885B9F4FFC018081B2
:1056D00091818C519F4FFC018081282F30E0809177
:1056E000BB129091BC12280F391F8CA99DA92817B5
:1056F000390730F48B819C81893F910509F0C8C03E
:105700008B819C81893F9105E9F4CE01885B9F4F95
:10571000FC01808191818C519F4FFC018081282F59
:1057200030E08091BB129091BC12280F391F8CA9D8
:105730009DA92817390730F48D819E8101969E839B
:105740008D8383C08091C6069091C7062D813E81CE
:105750008217930708F079C02B813C818D819E814F
:105760008217930708F071C0CE01885B9F4FFC0140
:1057700020813181888599854296880F991F820FF3
:10578000931FFC01808191819C012F5F3F4FCE01CF
:10579000885B9F4FFC0140815181888599854296A5
:1057A000880F991F840F951FFC0131832083CE0140
:1057B000885B9F4FFC0120813181888599854596C2
:1057C000880F991F820F931FFC01208131818D81E9
:1057D0009E81280F391FCE01885B9F4FFC014081BD
:1057E0005181888599854596880F991F840F951F4B
:1057F000FC013183208389A59AA5892BB9F029A5BD
:105800003AA58D819E81A901481B590BCA01992394
:105810001CF49195819591099BAB8AAB2BA53CA576
:105820008AA99BA9820F931F9CA78BA78D819E811C
:105830009AA789A72BA13CA18D819E8128173907A2
:1058400020F48D819E819CA38BA3CE01885B9F4F0A
:10585000FC01808191818C519F4FFC018081282F18
:1058600030E08091E2069091E306280F391F8CA961
:105870009DA98217930738F481E08F8381E090E03F
:105880009E838D8301C01F821B8E1C8E1A8ED8C0F2
:105890008D819E8101969E838D83288D398D8CA963
:1058A0009DA9A901481B590BCA0199231CF4919584
:1058B0008195910903970CF4C8C0288D398D8CA966
:1058C0009DA92817390798F41C8E8B8D8F5F8B8FBD
:1058D0008B8D833008F4B9C08A8D823029F48F8D86
:1058E00098A1019698A38F8F81E08A8FAEC01B8EFE
:1058F0008C8D8F5F8C8F8C8D833008F4A6C082E0F6
:105900008A8FA3C0CE01885B9F4FFC01808191816B
:105910008C519F4FFC018081282F30E08091BB1279
:105920009091BC12280F391F8CA99DA928173907FF
:1059300030F48B819C81893F910509F07BC08B817C
:105940009C81893F910529F48D819E8101969E83DA
:105950008D838091C6069091C7062D813E81821766
:10596000930708F047C0CE01885B9F4FFC01208160
:105970003181888599854296880F991F820F931FE0
:10598000FC01808191819C012F5F3F4FCE01885B9C
:105990009F4FFC0140815181888599854296880FEF
:1059A000991F840F951FFC0131832083CE01885BF2
:1059B0009F4FFC0120813181888599854596880F0C
:1059C000991F820F931FFC01208131818D819E815F
:1059D000280F391FCE01885B9F4FFC014081518108
:1059E000888599854596880F991F840F951FFC011E
:1059F00031832083CE01885B9F4FFC0180819181A0
:105A00008C519F4FFC018081282F30E08091E2066D
:105A10009091E306280F391F8CA99DA9821793073F
:105A200038F481E08F8381E090E09E838D8308C00D
:105A30001F8206C08D819E8101969E838D8305C045
:105A400004C0000003C0000001C000008CA99DA993
:105A5000CC01A0E0B0E0BC01CD010E94CB957B0160
:105A60008C01CE01885B9F4FFC01208131818885AC
:105A700099850396880F991F880F991F820F931F8E
:105A8000FC0180819181A281B3819C01AD01C8019B
:105A9000B7010E941E9588230CF58CA99DA9CC0105
:105AA000A0E0B0E0BC01CD010E94CB95DC01CB01B0
:105AB0009E01285B3F4FF90140815181288539853E
:105AC0002D5F3F4F220F331F220F331F240F351F2F
:105AD000F90180839183A283B38347C08CA99DA9D8
:105AE000CC01A0E0B0E0BC01CD010E94CB957B01D0
:105AF0008C01CE01885B9F4FFC012081318188851C
:105B000099850C96880F991F880F991F820F931FF4
:105B1000FC0180819181A281B3819C01AD01C8010A
:105B2000B7010E947D96181604F58CA99DA9CC0199
:105B3000A0E0B0E0BC01CD010E94CB95DC01CB011F
:105B40009E01285B3F4FF9014081518128853985AD
:105B5000245F3F4F220F331F220F331F240F351FA7
:105B6000F90180839183A283B3838CA99DA98115B8
:105B7000924008F042C08C859D8501969D878C8758
:105B8000CE01885B9F4FFC012081318188859985FA
:105B90000696880F991F880F991F820F931FFC018B
:105BA000C080D180E280F3808CA99DA9CC01A0E0C7
:105BB000B0E0BC01CD010E94CB95DC01CB019C0182
:105BC000AD01C701B6010E94B294DC01CB019E0178
:105BD000285B3F4FF90140815181288539852A5F33
:105BE0003F4F220F331F220F331F240F351FF901A0
:105BF00080839183A283B38341C08E859F85019664
:105C00009F878E87CE01885B9F4FFC012081318169
:105C1000888599850F96880F991F880F991F820F85
:105C2000931FFC01C080D180E280F3808CA99DA9E4
:105C3000CC01A0E0B0E0BC01CD010E94CB95DC011D
:105C4000CB019C01AD01C701B6010E94B294DC01F9
:105C5000CB019E01285B3F4FF9014081518128858E
:105C60003985215F3F4F220F331F220F331F240F2F
:105C7000351FF90180839183A283B383CE01885BB2
:105C80009F4FFC0120813181888599854596880F39
:105C9000991F880F991F820F931FFC01C080D1802C
:105CA000E280F3808CA99DA9CC01A0E0B0E0BC010A
:105CB000CD010E94CB95DC01CB019C01AD01C70158
:105CC000B6010E94B294DC01CB019E01285B3F4FDC
:105CD000F90140815181288539852B5E3F4F220F84
:105CE000331F220F331F240F351FF9018083918347
:105CF000A283B3838CA99DA9998F888F8B819C8166
