:100000000C948C180C94C1180C94C1180C94C11841
:100010000C94C1180C94C1180C94C1180C94C118FC
:100020000C94C1180C94C1180C94C1180C94C118EC
:100030000C94C1180C94C1180C94C1180C94C118DC
:100040000C94C1180C94C1180C94C1180C94C118CC
:100050000C94C1180C94C1180C94C1180C94C118BC
:100060000C94C1180C94B2780C94C1180C94C1185B
:100070000C94C1180C9426190C94C1180C94C11836
:100080000C94C1180C94C1180C94C1180C940E76E1
:100090000C943E790C94C1180C94A8790C94C11856
:1000A0000C94C1180C94C1180C94C1180C94C1186C
:1000B0000C94C1180C94C1180C94C1180C94C1185C
:1000C0000C94C1180C94C1180C94C118125B125BEB
:1000D000125B125B125B295B5B5BCD5AFB5AE45AE5
:1000E0003D5C3D5C6E5C3D5C3D5CAF5CDB5CDB5C69
:1000F000DB5CDB5C0684138438848E84C184F484E6
:100100008E84C184F484038512852185F686038755
:100110002A873987488757877E87A587AF87C9870A
:10012000F087FF870E881D882C883B884A8859886D
:10013000688868889588A188AD88BB88C788F58855
:10014000238951897F89AD89DB89058A338A618A50
:100150008F8ABD8AEB8A198B438B718B9F8BCD8BDA
:10016000FB8B298C578C818CA58CC98CED8C118DC7
:10017000358D598D798D9D8DC18DE58D098E2D8E95
:10018000518E718E958EB98EDD8E018F258F498FA0
:10019000698F778F309030903090858F938FA18FBB
:1001A000AF8FD58FFB8F099030903090309030908A
:1001B000309030903090309030903090309030903F
:1001C000309030903090309030903090309030902F
:1001D000309030903090309030903090309030901F
:1001E000309030903090309030903090309030900F
:1001F00030903090309030903090309030903090FF
:1002000030903090309030903090309030903090EE
:1002100030903090309030903090309030903090DE
:1002200030903090309030903090309030903090CE
:1002300030903090309030903090309030903090BE
:1002400030903090309030903090309030903090AE
:10025000309030903090309030903090309030909E
:10026000309030903090309030903090309030908E
:10027000309030903090309030903090309030907E
:10028000309030903090309030903090309030906E
:1002900030903090309030908184488557856685C5
:1002A000758584859385A285B185C085CF85DE85DA
:1002B00005862C863B864A8659866886778686869A
:1002C0009586A486B386C286E9866E616E00696EE5
:1002D000660000407A10F35A00A0724E1809001010
:1002E000A5D4E80000E87648170000E40B540200AB
:1002F00000CA9A3B000000E1F505000080969800D6
:10030000000040420F000000A086010000001027FE
:1003100000000000E803000000006400000000008E
:100320000A00000000000100000000002C76D888C0
:10033000DC674F0823DFC1DFAE59E1B1B796E5E3D3
:10034000E453C63AE651997696E8E6C28426EB89EC
:100350008C9B62ED407C6FFCEFBC9C9F40F2BAA589
:100360006FA5F490055A2AF75C936B6CF9676DC121
:100370001BFCE0E40D47FEF520E6B500D0ED902E25
:100380000300943577050080841E080000204E0A83
:10039000000000C80C333333330F986E12831141C1
:1003A000EF8D2114893BE65516CFFEE6DB18D1848C
:1003B0004B381BF77C1D901DA4BBE42420328472B3
:1003C0005E228100C9F124ECA1E53D270000FA423C
:1003D0000000FA420000FA420000FA420000FA422D
:1003E0000000FA420000FA420000FA420000FA421D
:1003F0000000FA420000FA420000FA420000FA420D
:100400000000FA420000FA420000FA420000FA42FC
:100410000000FA420000FA420000FA420000FA42EC
:100420000000FA420000FA420000FA420000FA42DC
:100430000000FA420000FA420000FA420000FA42CC
:100440000000FA420000FA420000FA420000FA42BC
:100450000000FA420000FA420000FA429A99F8427B
:100460006666F6423333F4420000F2420000F04286
:100470000000EE423333EC426666EA426666E842CA
:100480009A99E6420000E5426666E342CDCCE1423D
:100490003333E0429A99DE420000DD426666DB4279
:1004A0000000DB429A99D8423333D742CDCCD542B3
:1004B0006666D4420000D3429A99D1426666D04221
:1004C0003333CF420000CE42CDCCCC429A99CB42BE
:1004D0006666CA423333C9420000C8420000C742C0
:1004E0000000C642CDCCC4420000C4420000C3425A
:1004F0000000C242CDCCC042CDCCBF42CDCCBE422A
:10050000CDCCBD420000BD420000BC420000BB4259
:100510003333BA426666B9429A99B8429A99B74259
:100520009A99B642CDCCB5420000B5423333B442BD
:100530006666B3429A99B242CDCCB1420000B14254
:100540003333B0426666AF429A99AE420000AE4283
:100550006666AD429A99AC42CDCCAB420000AB424C
:100560003333AA420000A942CDCCA8423333A8427B
:100570009A99A7420000A7423333A6429A99A5420E
:100580000000A5423333A4429A99A3420000A3423B
:100590006666A242CDCCA1420000A1426666A0429E
:1005A000CDCC9F4233339F429A999E4200009E4297
:1005B0009A999D4200009D4266669C42CDCC9B422A
:1005C00033339B42CDCC9A4233339A429A99994223
:1005D0000000994266669842CDCC974233339742E9
:1005E000CDCC9642333396429A9995423333954215
:1005F000CDCC9442333394429A999342333393420D
:10060000CDCC924266669242CDCC91423333914238
:10061000CDCC9042666690420000904266668F4262
:10062000CDCC8E4266668E4200008E4266668D425A
:10063000CDCC8C4266668C4200008C429A998B42EB
:1006400033338B42CDCC8A4266668A4200008A42AE
:100650009A99894233338942CDCC88426666884272
:100660000000884266668742CDCC86426666864236
:10067000000086429A99854233338542CDCC84422C
:1006800066668442000084429A99834233338342EF
:10069000CDCC824266668242000082429A998142B3
:1006A00033338142CDCC8042666680420000804276
:1006B0009A997F4233337F4266667E429A997D42A1
:1006C000CDCC7C4200007C4233337B4200007C4234
:1006D0009A997942CDCC7842000078429A99774233
:1006E00033337742666676429A997542CDCC74422E
:1006F0000000744233337342666672429A997142C3
:10070000CDCC70420000704233336F42CDCC6E428C
:1007100066666E429A996D42CDCC6C4266666C42BA
:1007200000006C4233336B4266666A4200006A42E4
:1007300000006A42CDCC6842000068423333674211
:1007400066666642000066429A996542CDCC644274
:100750000000644233336342CDCC6242666662423B
:100760009A996142CDCC6042000060429A995F4202
:1007700033335F4266665E429A995D42CDCC5C42FD
:1007800000005C429A995B4233335B4266665A4290
:1007900000005A429A995942CDCC58420000584222
:1007A0009A99574233335742CDCC564266665642E9
:1007B0009A99554233335542CDCC544200005442AD
:1007C00033335342CDCC5242666652429A995142DB
:1007D00033335142CDCC5042000050429A994F429F
:1007E00033334F4266664E429A994D4233334D42FF
:1007F000CDCC4C4200004C429A994B4233334B4291
:1008000066664A429A99494233334942CDCC4842BE
:10081000000048429A99474233334742666646424F
:10082000000046429A99454233334542CDCC44427A
:10083000000044429A99434233334342CDCC424272
:10084000666642429A99414233334142CDCC40429E
:10085000000040429A993F4233333F42CDCC3E4262
:1008600066663E429A993D4233333D42CDCC3C428E
:1008700000003C429A993B4233333B42CDCC3A4252
:1008800066663A429A99394233333942CDCC38427E
:10089000000038429A99374233333742666636420F
:1008A000000036429A993542CDCC344266663442D5
:1008B000000034429A99334233333342CDCC324232
:1008C00066663242000032429A993142CDCC3042C3
:1008D00066663042000030429A992F4233332F42ED
:1008E000CDCC2E4266662E4200002E429A992D42B1
:1008F00033332D42CDCC2C4200002C429A992B420E
:1009000033332B42CDCC2A4266662A4200002A426B
:100910009A992942CDCC2842666628420000284296
:100920009A99274233332742CDCC26426666264227
:100930009A99254233332542CDCC2442666624421F
:100940000000244233332342CDCC22426666224249
:10095000000022429A992142CDCC20426666204274
:10096000000020429A991F4233331F42CDCC1E42D1
:1009700066661E4200001E429A991D4233331D4294
:10098000CDCC1C4266661C4200001C429A991B4258
:1009900033331B42CDCC1A4266661A4200001A421B
:1009A0009A99194233331942CDCC184266661842DF
:1009B000000018429A99174233331742CDCC1642A1
:1009C00066661642000016429A9915423333154264
:1009D000CDCC144266661442000014429A99134228
:1009E00033331342CDCC12426666124200001242EB
:1009F0009A99114233331142CDCC1042000010427B
:100A00009A990F4233330F42CDCC0E4266660E42A6
:100A100000000E429A990D4233330D42CDCC0C4268
:100A200000000C429A990B429A990B4233330B42C5
:100A3000CDCC0A4266660A4200000A429A990942EF
:100A400033330942CDCC08426666084266660842E6
:100A5000000008429A99074233330742CDCC064240
:100A600066660642000006429A9905423333054203
:100A7000CDCC044266660442000004429A990342C7
:100A800033330342CDCC0242CDCC024266660242F1
:100A9000000002429A99014233330142CDCC004218
:100AA00066660042000000423333FF416666FE4145
:100AB0009A99FD41CDCCFC410000FC413333FB4110
:100AC0006666FA419A99F941CDCCF8410000F841A7
:100AD0003333F7416666F6419A99F541CDCCF4413E
:100AE0000000F4413333F3416666F2419A99F141D3
:100AF0000000F0410000F0413333EF416666EE4103
:100B00009A99ED41CDCCEC410000EC410000EC4164
:100B10003333EB416666EA419A99E941CDCCE8412D
:100B20000000E8413333E7413333E7416666E6418D
:100B30009A99E541CDCCE4410000E4413333E341EF
:100B40006666E2419A99E141CDCCE041CDCCE041ED
:100B50000000E0413333DF416666DE419A99DD41B2
:100B6000CDCCDC410000DC413333DB416666DA4149
:100B70009A99D941CDCCD8410000D8410000D84144
:100B80003333D7416666D6419A99D541CDCCD4410D
:100B90000000D4413333D3416666D2419A99D141A2
:100BA000CDCCD0410000D0413333CF416666CE4139
:100BB0009A99CD41CDCCCC410000CC413333CB41CF
:100BC0006666CA419A99C941CDCCC8410000C84166
:100BD0000000C8413333C7416666C6419A99C54192
:100BE000CDCCC4410000C4413333C3413333C3418E
:100BF0006666C2419A99C141CDCCC0410000C04156
:100C00003333BF413333BF416666BE419A99BD411C
:100C1000CDCCBC410000BC413333BB413333BB417D
:100C20006666BA419A99B941CDCCB8410000B84145
:100C30003333B7416666B6419A99B5419A99B54141
:100C4000CDCCB4410000B4413333B3416666B24108
:100C50009A99B141CDCCB0410000B0413333AF419E
:100C60006666AE419A99AD419A99AD41CDCCAC4101
:100C70000000AC413333AB416666AA419A99A94161
:100C8000CDCCA8410000A8413333A7416666A641F8
:100C90009A99A541CDCCA4410000A4413333A3418E
:100CA0006666A2419A99A141CDCCA0410000A04125
:100CB00033339F4133339F4166669E419A999D41EC
:100CC000CDCC9C41CDCC9C4100009C4133339B4119
:100CD00066669A419A999941CDCC9841CDCC98417C
:100CE00000009841333397416666964166669641A7
:100CF0009A999541CDCC944100009441333393416E
:100D0000666692419A9991419A999141CDCC9041D0
:100D10000000904133338F4166668E419A998D4130
:100D2000CDCC8C4100008C4100008C4133338B4191
:100D300066668A419A998941CDCC884100008841F4
:100D400033338741666686419A998541CDCC84418B
:100D50000000844133338341666682416666824186
:100D60009A998141CDCC80410000804166667E41E8
:100D7000CDCC7C4133337B419A9979410000784155
:100D800066667641CDCC7441333373419A99714193
:100D90000000704166666E41CDCC6C4133336B41CF
:100DA00033336B419A996941000068416666664138
:100DB00066666641CDCC6441333363419A996141A3
:100DC0000000604166665E4166665E41CDCC5C4176
:100DD00033335B419A995941000058416666564148
:100DE000CDCC544133335341333353419A9951411C
:100DF0000000504166664E41CDCC4C4133334B41EF
:100E00009A9949410000484166664641CDCC44412B
:100E1000333343419A9941419A99414100004041FD
:100E200066663E41CDCC3C4133333B419A993941D2
:100E30000000384166663641CDCC3441333333410E
:100E40009A9931410000304166662E41CDCC2C414B
:100E500033332B419A992941000028416666264187
:100E6000CDCC2441333323419A99214100002041C4
:100E700066661E4166661E41CDCC1C4133331B4164
:100E80009A99194100001841000018416666164100
:100E9000CDCC1441333313419A99114100001041D4
:100EA00066660E4166660E41CDCC0C4133330B4174
:100EB0009A9909410000084166660641CDCC04417B
:100EC000333303419A99014100000041CDCCFC40ED
:100ED000CDCCFC409A99F9406666F6403333F34036
:100EE0000000F040CDCCEC409A99E9406666E640BF
:100EF0003333E3400000E040CDCCDC409A99D94048
:100F00006666D6403333D3400000D040CDCCCC40D1
:100F10009A99C9406666C6403333C3400000C0405A
:100F2000CDCCBC409A99B9406666B6403333B340E5
:100F3000CDCCAC409A99A9406666A6403333A34015
:100F40000000A040CDCC9C409A999940666696409E
:100F5000666696403333934000009040CDCC8C4081
:100F60009A9989406666864033338340000080400A
:100F70009A9979409A99794033337340CDCC6C403B
:100F800066666640000060409A995940333353408A
:100F9000CDCC4C4066664640000040409A993940AE
:100FA00033333340CDCC2C406666264000002040D1
:100FB0009A99194033331340CDCC0C4066660640F5
:100FC000000000406666E63F9A99D93FCDCCCC3F01
:100FD0000000C03F3333B33F6666A63F9A99993FFE
:100FE000CDCC8C3F0000803FCDCC4C3F3333333FE2
:100FF0009A99193F0000003FCDCCCC3ECDCC4C3E61
:10100000CDCCCC3D00000000CDCCCCBDCDCC4CBE79
:101010009A9999BECDCCCCBE000000BF9A9919BF59
:10102000333333BFCDCC4CBF666666BF000080BF94
:10103000CDCC8CBF9A9999BF6666A6BF3333B3BF38
:101040000000C0BFCDCCCCBF9A99D9BF6666E6BFC1
:101050003333F3BF000000C0666606C0CDCC0CC0C1
:10106000333313C09A9919C0666626C0CDCC2CC004
:10107000333333C09A9939C0000040C0CDCC4CC046
:10108000333353C09A9959C0000060C0666666C089
:10109000333373C09A9979C0000080C0666686C0F9
:1010A0009A9989C0CDCC8CC0333393C0666696C004
:1010B0009A9999C00000A0C03333A3C06666A6C049
:1010C0009A99A9C0CDCCACC00000B0C03333B3C036
:1010D0006666B6C09A99B9C0CDCCBCC00000C0C08D
:1010E0006666C6C09A99C9C0CDCCCCC00000D0C03D
:1010F0003333D3C09A99D9C0CDCCDCC00000E0C056
:101100003333E3C06666E6C09A99E9C00000F0C0D8
:101110003333F3C09A99F9C0CDCCFCC0000000C1B4
:10112000333303C1CDCC04C1666606C19A9909C1A7
:1011300033330BC1CDCC0CC1000010C1333313C10C
:10114000CDCC14C1666616C19A9919C1CDCC1CC10B
:10115000000020C19A9921C1333323C1CDCC24C1D1
:10116000666626C19A9929C133332BC1CDCC2CC1D7
:10117000000030C19A9931C1333333C1666636C13C
:10118000000038C19A9939C1CDCC3CC166663EC1D8
:10119000000040C1333343C1666646C1000048C108
:1011A0009A9949C1CDCC4CC1000050C1333353C1D1
:1011B000CDCC54C1666656C19A9959C1CDCC5CC19B
:1011C000000060C1333363C1666666C1000068C158
:1011D0009A9969C1CDCC6CC1000070C1333373C121
:1011E000CDCC74C1666676C19A9979C1CDCC7CC1EB
:1011F00066667EC1000080C19A9981C1333383C184
:10120000CDCC84C19A9985C1666686C1000088C12B
:101210009A9989C133338BC1CDCC8CC166668EC19E
:10122000000090C19A9991C1333393C1CDCC94C140
:10123000666696C1000098C19A9999C133339BC1E3
:10124000CDCC9CC166669EC10000A0C19A99A1C187
:101250003333A3C1CDCCA4C16666A6C10000A8C12A
:101260009A99A9C13333ABC10000ACC1CDCCACC19C
:101270000000B0C19A99B1C13333B3C1CDCCB4C170
:101280006666B6C10000B8C19A99B9C13333BBC113
:101290006666BEC10000C0C19A99C1C1CDCCC4C1AF
:1012A0006666C6C10000C8C19A99C9C13333CBC1B3
:1012B0006666CEC10000D0C19A99D1C13333D3C183
:1012C000CDCCD4C10000D8C19A99D9C13333DBC188
:1012D0006666DEC10000E0C13333E3C1CDCCE4C1BA
:1012E0006666E6C19A99E9C1CDCCECC10000F0C1B7
:1012F0009A99F1C1CDCCF4C16666F6C19A99F9C14B
:101300003333FBC16666FEC1000000C29A9901C278
:10131000333303C2666604C2000006C29A9907C24C
:10132000333309C2CDCC0AC266660CC200000EC2BD
:101330009A990FC2333311C2CDCC12C2666614C261
:10134000000016C29A9917C29A9919C200001CC2CD
:1013500066661EC2000020C2000020C2000020C23B
:10136000000020C2000020C2000020C2000020C2F5
:10137000000020C2000020C2000020C2000020C2E5
:10138000000020C2000020C2000020C2000020C2D5
:10139000000020C2000020C2000020C2000020C2C5
:1013A000000020C2000020C2000020C2000020C2B5
:1013B000000020C2000020C2000020C2000020C2A5
:1013C000000020C2000020C2000020C20001010174
:1013D00001010202020202030303040505060707D6
:1013E00008090A0C0D0E0F11121416181A1C1D1ED6
:1013F0001F202122233412000095DC000000000091
:1014000000010001006009280A26006009280A235B
:10141000000700960008000A0032000A001E00645F
:1014200000A4062C01FA000000B00408003F0001EF
:10143000001800690005003C000900640055000028
:1014400000010000006C07C2013104C506AA09B101
:101450000C450F2913AD01EE034208F20AFA0C8C79
:101460000FFC121E020D053407BF0AEF0C46100DCB
:10147000135A00D7005B01EF018A020F03D603560F
:1014800000C900A701310299021D03CD036D0003BD
:10149000017101270297024203D0030A0064008809
:1014A0001388138813000000000000E20470FE009F
:1014B000000000000000000000000000000000002C
:1014C000000000000000000000000000000000001C
:1014D000000000000000000000000000000000000C
:1014E00000000000000000000000000000000000FC
:1014F00000000000000000000000000000000000EC
:1015000000000000000000000000000000000000DB
:1015100000000000000000000000000000000000CB
:1015200000000000000000000000000000000000BB
:1015300000000000000000000000000000000000AB
:10154000000000000000000000000000000000009B
:10155000000000000000000000000000000000008B
:10156000000000000000000000000000000000007B
:10157000000000000000000000000000000000006B
:10158000000000000000000000000000000000005B
:10159000000000000000000000000000000000004B
:1015A00000000000002B00C8002C01030002000511
:1015B000000300040002008403050005000500820A
:1015C00000960009000A00050004001A00460050B9
:1015D00000AC0D00003930000000009600C900C7C3
:1015E00001F6028A03D303850357032903FB02CDC7
:1015F000029F02710243021502C701BB01AF01A3A2
:10160000019B019801950191018E018B0187018455
:101610000181017E017B017801750172016F016C0E
:101620000169016601630160015E015E015E015EA8
:10163000015E015E015E015E015E015E015E015EB2
:10164000015E015E015E015E015E015E015E015EA2
:10165000015E015E015E015E015E015E015E015E92
:10166000015E015E015E015E015E015E015E015E82
:10167000015E015E015E015E015E015E015E015E72
:10168000015E015E015E015E015E015E015E015E62
:10169000015E015E015E015E015E015E015E015E52
:1016A000015E015E015E015E015E015E015E015E42
:1016B000015E015E015E015E015E015E015E015E32
:1016C000015E015E015E015E015E015E015E015E22
:1016D000015E015E015E015E015E015E015E015E12
:1016E000015E015E015E015E015E015E015E015E02
:1016F000015E015E015E015E015E015E015E015EF2
:10170000015E015E015E015E015E015E015E015EE1
:10171000015E015E015E015E015E015E015E015ED1
:10172000015E015E015E015E015E015E015E015EC1
:10173000015E015E015E015E015E015E015E015EB1
:10174000015E015E015E015E015E015E015E015EA1
:10175000015E015E015E015E015E015E015E015E91
:10176000015E015E015E015E015E015E015E015E81
:10177000015E015E015E015E015E015E015E015E71
:10178000015E015E015E015E015E015E015E015E61
:10179000015E015E015E015E015E015E015E015E51
:1017A000015E015E015E015E015E015E015E015E41
:1017B000015E015E015E015E015E015E015E015E31
:1017C000015E015E015E015E015E015E015E015E21
:1017D000015E015E015E015E015E015E015E015E11
:1017E000015F015F015F01600160016101610162F0
:1017F00001620163016301640164016501650166C1
:10180000016601670168016801690169016A016B8C
:10181000016B016C016D016E016E016F0170017150
:10182000017101720173017401750175017601770F
:1018300001780179017A017B017C017D017E017FC4
:101840000180018101820183018401850187018872
:101850000189018A018B018D018E018F0190019216
:1018600001930194019601970199019A019C019DB0
:10187000019F01A001A201A301A501A701A801AA3E
:1018800001AC01AE01AF01B101B301B501B701B9BE
:1018900001BA01BC01BE01C001C201C501C701C935
:1018A00001CB01CD01CF01D201D401D601D901DB99
:1018B00001DD01E001E201E501E701E901EC01EEF2
:1018C00001F001F301F501F701FA01FC01FF01024A
:1018D00002040207020A020C020F02120215021889
:1018E000021B021D022002240227022A022D0230BE
:1018F00002330237023A023D024102440248024BDF
:10190000024F02520256025A025E026102650269E9
:10191000026D027102750279027D02820286028ADC
:10192000028F02920296029A029E02A202A602AAC6
:1019300002AE02B202B602BA02BE02C202C602CAB7
:1019400002CE02D202D602DA02DE02E202E602EAA7
:1019500002EE02F202F602FA02FE02020306030A95
:10196000030E03120316031A031E03230329032F76
:101970000335033B03410347034D03530359035FFF
:101980000365036B03710377037D03830389038F6F
:101990000395039B03A103A703AD03B303B903BFDF
:1019A00003C503C903CD03D103D503D903DD03E088
:1019B00003E203E403E603E603E603E603E603E6E5
:1019C00003E603640065007201B30250036203DDA5
:1019D00002A40252021C02F401CA01A3018C017B81
:1019E00001660151013D012A011F010E010B010A8F
:1019F00001F900F000E800E000D800D200D100D1E9
:101A000000D000D000CF00CE00CE00CD00CC00CC66
:101A100000CB00CA00CA00C900C800C800C800C87E
:101A200000C800C800C800C800C800C800C800C876
:101A300000C800C800C800C800C800C800C800C866
:101A400000C800C800C800C800C800C800C800C856
:101A500000C800C800C800C800C800C800C800C846
:101A600000C800C800C800C800C800C800C800C836
:101A700000C800C800C800C800C800C800C800C826
:101A800000C800C800C800C800C800C800C800C816
:101A900000C800C800C800C800C800C800C800C806
:101AA00000C800C800C800C800C800C800C800C8F6
:101AB00000C800C800C800C800C800C800C800C8E6
:101AC00000C800C800C800C800C800C800C800C8D6
:101AD00000C800C800C800C800C800C800C800C8C6
:101AE00000C800C800C800C800C800C800C800C8B6
:101AF00000C800C800C800C800C800C800C800C8A6
:101B000000C800C800C800C800C800C800C800C895
:101B100000C800C800C800C800C800C800C800C885
:101B200000C800C800C800C800C800C800C800C875
:101B300000C800C800C800C800C800C800C800C865
:101B400000C800C800C800C800C800C800C800C855
:101B500000C800C800C800C800C800C800C800C845
:101B600000C800C800C800C800C800C800C800C835
:101B700000C800C800C800C800C800C800C800C825
:101B800000C800C800C800C800C800C800C800C815
:101B900000C800C800C800C800C800C800C900C903
:101BA00000CA00CA00CB00CC00CC00CD00CE00CED5
:101BB00000CF00D000D000D100D200D200D300D49A
:101BC00000D400D500D600D600D700D800D800D960
:101BD00000DA00DA00DB00DC00DC00DD00DE00DE25
:101BE00000DF00E000E000E100E100E200E300E3EC
:101BF00000E400E500E500E600E700E700E800E9B2
:101C000000E900EA00EB00EB00EC00ED00ED00EE77
:101C100000EF00EF00F000F100F100F200F300F33C
:101C200000F400F500F500F600F600F700F800F803
:101C300000F900FA00FA00FB00FC00FC00FD00FEC9
:101C400000FE00FF0000010001010102010201038A
:101C50000104010401050106010701080108010949
:101C6000010A010B010C010C010D010E010F011005
:101C700001110112011301140115011601170118B8
:101C8000011701180119011A011B011C011D011E78
:101C9000012001210122012301250126012701291B
:101CA000012A012C012D012F0130013201340135AF
:101CB00001370139013A013C013E01400142014432
:101CC00001460148014A014C014E015001530155A2
:101CD0000157015A015C015F016201640167016AF9
:101CE000016D016F017201750179017C017F018233
:101CF00001860189018D019001940197019B019F4B
:101D000001A301A701AB01B001B401B801BD01C23B
:101D100001C601CB01D001D501DA01DF01E401EAFE
:101D200001EF01F501FB01010207020D0213021987
:101D300002200226022D0234023B024202490250D6
:101D40000256025B02600266026E0277028002891E
:101D50000292029B02A402AD02B602BF02C802D0E8
:101D600002D902E202EB02F402FD0206030F03189D
:101D70000321032A0333033B0344034D0356035F4C
:101D800003680372037C03870391039C03A603B4D7
:101D900003BD03C403CA03D103D903DC03DE03E19B
:101DA00003E603E603E603E603E6030000000000A3
:101DB00000018001800000000000003408FC0814CD
:101DC000003408FC0814000300C8000500050005E5
:101DD0000005000A003200E803640032000180E8D8
:101DE0000305001E00000014003200010001000184
:101DF0000032003200000000000000780500000002
:101E000000000000000000000000000000000000D2
:101E100000000000000000000000000000000000C2
:101E200000000000000000000000000000000000B2
:101E300000000000000000000000000000000000A2
:101E40000000000000000000000000000000000092
:101E5000000500500000000000000000000000002D
:101E60000070FE70FE000000000000000000000096
:101E70000000000000000000000000000000000062
:101E80000000000000000000000000000000000052
:101E90000000000000000000000000000000000042
:101EA0000000000000000000000000000000000032
:101EB0000000000000000000000000000000000022
:101EC0000000000000000000000000000000000012
:101ED0000000000000000000000000000000000002
:101EE00000000000000000000000000000000000F2
:101EF00000000000000000000000000000000000E2
:101F000000000000000000000000000000000000D1
:101F100000000000000000000000000000000000C1
:101F200000000000000000000000000000000000B1
:101F300000000000000000000000000000000000A1
:101F40000000000000000000000000000000000091
:101F500000000000000000000000000A000A00323B
:101F6000000000000000000000000000000000036E
:101F7000000300000032000A000500050005000013
:101F800000140032001E00D0070000000000000016
:101F9000002401260129012B012E013001320134D8
:101FA00001370139013B013D013F0140014201443C
:101FB000014601470149014A014701450142013FEC
:101FC000013C013A0137013501320130012D012B6D
:101FD0000128012601230121011E011C011A0118FB
:101FE000011501130110010E010C01090107010582
:101FF0000103010101FF00FE00FC00FA00F900F7F7
:1020000000F600F500F300F200F100F000EF00EE42
:1020100000ED00EC00EB00EA00EA00E900E800E86F
:1020200000E700E700E600E600E600E500E500E581
:1020300000E500E400E400E400E400E400E400E47F
:1020400000E400E400E400E400E500E500E500E56C
:1020500000E600E600E600E600E700E700E700E84B
:1020600000E800E900E900E900EA00EA00EB00EB23
:1020700000EC00EC00ED00ED00EE00EE00EF00EFF4
:1020800000F000F100F100F200F200F300F300F4C0
:1020900000F500F500F600F600F700F700F800F88C
:1020A00000F900FA00FA00FB00FB00FC00FC00FD58
:1020B00000FD00FE00FE00FF00FF00000100010126
:1020C00001010102010201030103010401040105F0
:1020D00001050106010601060107010701070108C4
:1020E0000108010901090109010A010A010A010A9D
:1020F000010B010B010B010C010C010C010C010D7A
:10210000010D010D010D010D010E010E010E010E5B
:10211000010E010E010F010F010F010F010F010F41
:10212000010F010F010F011001100110011001102A
:102130000110011001100110011001100110011017
:102140000110011001100110011001100110011007
:1021500001100110010F010F010F010F010F010FFD
:10216000010E010E010E010E010E010E010E010EF7
:10217000010E010E010D010D010D010D010D010DED
:10218000010D010D010D010D010D010D010D010DDF
:10219000010E010E010E010E010E010E010E010FC6
:1021A000010F010F010F01100110011001100111A9
:1021B0000111011101120112011301130114011483
:1021C0000114011501160116011701170118011953
:1021D0000119011A011B011B011C011D011E011E19
:1021E000011F0120012001210122012301240125D9
:1021F00001250126012701280129012A012B012C93
:10220000012D012E0130013101320133013401363B
:10221000013701380139013A013B013D013E013FDF
:102220000140014201430144014601470148014A7E
:10223000014B014D014E0150015101530154015612
:1022400001580159015B015D015F01600162016498
:1022500001660168016A016C016E0170017201740E
:1022600001760178017A017D017F01810183018678
:102270000188018A018C018E0190019201940197DD
:102280000199019B019D019F01A101A401A601A843
:1022900001AB01AD01AF01B201B401B701B901BC9D
:1022A00001BE01C101C401C601C901CC01CE01D1E9
:1022B00001D401D701DA01DD01E001E301E601E922
:1022C00001EC01EF01F201F501F801FC01FF01024F
:1022D00002060209020D021002140217021B021F5D
:1022E00002230226022A022E02320236023A023E5D
:1022F00002420247024B024F02540258025D026141
:102300000266026A026F02740279027E0283028808
:10231000028D02920297029D02A202A802AD02B3B0
:1023200002B902BE02C402CA02D002D702DD02E331
:1023300002EA02F002F702FD0204030B0312031982
:1023400003200326032B03300336033B03400346DD
:10235000034B03500356035B03610366036C037175
:102360000377037C03820387038D0392039703980B
:102370000399039A039C039D0363015B0154014D80
:102380000146014001390133012D01270121011BC3
:1023900001160111010B0106010101FD00F800F415
:1023A00000EF00EB00E700E300DF00DB00D800D324
:1023B00000CE00C900C500C000BC00B800B400B029
:1023C00000AD00A900A600A300A0009D009A009700
:1023D00000930090008D008A0088008500830081B2
:1023E000007E007C007B0079007700750073007030
:1023F000006F006D006B0069006800670065006495
:1024000000640064006400640064006400640064AC
:10241000006400640064006400640064006400649C
:10242000006400640064006400640064006400648C
:102430000064006400640064006400650065006678
:10244000006700680069006A006B006B006C006D3B
:10245000006E006F007000710071007200730074F4
:102460000075007500760077007800790079007AB1
:10247000007B007C007D007D007E007F008000816D
:10248000008100820083008400840085008600872C
:102490000087008800890089008A008B008B008BF0
:1024A000008C008C008C008C008D008D008D008DC8
:1024B000008D008E008E008E008E008E008F008FAB
:1024C000008F008F008F008F008F008F008F008E95
:1024D000008E008E008E008E008E008E008D008D8E
:1024E000008D008D008D008D008C008C008C008C88
:1024F000008B008B008B008B008A008A008A008A88
:102500000089008900890089008800880088008887
:10251000008700870087008600860086008500858A
:102520000085008400840083008300830082008291
:102530000082008100810081008000800080007F97
:10254000007F007F007F007E007E007E007E007D99
:10255000007D007D007D007D007D007C007C007C96
:10256000007C007C007C007C007C007C007C007C8B
:10257000007C007C007C007C007B007B007B007B7F
:10258000007B007B007B007B007B007B007B007B73
:10259000007B007B007B007B007B007B007B007B63
:1025A000007B007B007C007C007C007C007C007C4D
:1025B000007D007D007D007D007E007E007E007F2E
:1025C000007F007F00800080008100810081008208
:1025D00000820083008300840084008500850086DB
:1025E0000087008700870088008800890089008AAA
:1025F000008A008A008B008B008C008C008D008D7F
:10260000008E008E008F008F00900090009100924D
:102610000092009300930094009400950096009619
:1026200000970097009800990099009A009B009BE2
:10263000009C009D009D009E009F009F00A000A1A7
:1026400000A200A200A300A400A500A500A600A768
:1026500000A800A900AA00AA00AB00AC00AD00AE23
:1026600000AF00B000B100B200B300B400B500B6D6
:1026700000B700B900BA00BB00BC00BD00BF00C07D
:1026800000C100C200C400C500C700C800CA00CB1A
:1026900000CD00CE00D000D200D400D500D700D9A4
:1026A00000DB00DD00DF00E100E300E500E800EA18
:1026B00000EC00EF00F100F400F600F900FC00FF70
:1026C000000201050108010B010E0112011501199B
:1026D000011C012001240128012C013001340139A1
:1026E000013D01420146014B01500155015B016072
:1026F0000166016B01710177017D0184018A0191FD
:102700000198019F01A601AD01B501BC01C401CD35
:1027100001D501DD01E601EF01F80102020C02160C
:102720000220022A02350240024A02560261026D6C
:10273000027902850291029E02AB02B902C702D55C
:1027400002E302F2020103100320033103410352AA
:10275000036303750387039A03AD03C003D403E641
:1027600003000000000000FF7FFF7F040002000163
:1027700000280AF00AC800280AF00AC8000F00580A
:102780000214000F0064006400C800F401C012E8E5
:1027900003E803FF7F88131400C8000A00C800C8BC
:1027A000006400D0026400FA002C0101000100B6B0
:1027B000039808881388138813881388138813884C
:1027C0001388138813881388138813881388138831
:1027D00013881388138813881388138813E803E871
:1027E00003E803E803E803E803E803E803E803E891
:1027F00003E803E803E803E803E803E803E803E881
:1028000003E803E803E8031400C80088138813886A
:1028100013FF7FFF7FFF7FE204E204FF7FFF7FFF64
:102820007FFF7FFF7FFF7FFF7FFF7FFF7FFF7FFFB8
:102830007FFF7FFF7FFF7FFF7FFF7FFF7FFF7FFFA8
:102840007FFF7FFF7FFF7FFF7FFF7FFF7FFF7FFF98
:102850007FFF7FFF7FFF7FFF7FFF7FFF7FFF7FFF88
:102860007FFF7FFF7FFF7FFF7FFF7FFF7FFF7FFF78
:102870007FFF7FFF7FFF7FFF7FFF7FFF7FFF7FFF68
:102880007FFF7FFF7FFF7FFF7FFF7FFF7FFF7FFF58
:102890007FFF7FFF7FFF7FFF7FFF7FFF7FFF7FFF48
:1028A0007FFF7FFF7FFF7FFF7FFF7FFF7FFF7FFF38
:1028B0007FFF7FFF7FFF7FFF7FFF7FFF7FFF7FFF28
:1028C0007FFF7FFF7FFF7FFF7FFF7FFF7FFF7FFF18
:1028D0007FFF7FFF7FFF7FFF7FFF7FFF7FFF7FFF08
:1028E0007FFF7FFF7FFF7FFF7FFF7FFF7FFF7FFFF8
:1028F0007FFF7FFF7FFF7FFF7FFF7FFF7FFF7FFFE8
:102900007FFF7FFF7FFF7FFF7FFF7FFF7FFF7F02D4
:102910000064002C01F4010A000A000A000A000AFF
:10292000000A00E8031E001E000A00C8002C011463
:10293000000F000F000A00C800C8006400881314CC
:10294000000000000000009C038B037A036A035A16
:10295000034A033B032C031E0310030203F502E8A2
:1029600002DB02D002C602BC02B202A902A0029798
:10297000028F0286027E0276026F026702600259AF
:102980000252024B0245023E02380232022C02275A
:102990000221021C02170212020D020902040200A7
:1029A00002FC01F801F401F001EC01E901E501E2AA
:1029B00001DF01DC01D901D601D301D101CE01CC67
:1029C00001CA01C801C501C301C201C001BE01BCE9
:1029D00001BB01B901B801B701B501B401B301B23E
:1029E00001B101B001AF01AE01AE01AD01AC01AC6E
:1029F00001AB01AB01AA01AA01AA01A901A901A980
:102A000001A901A901A901A901A901A901A901A976
:102A100001A901A901A901A901AA01AA01AA01AA62
:102A200001AB01AB01AB01AC01AC01AD01AD01AD3E
:102A300001AE01AE01AF01AF01B001B001B101B112
:102A400001B201B201B301B401B401B501B501B6DF
:102A500001B601B701B701B801B901B901BA01BAAC
:102A600001BB01BC01BC01BD01BD01BE01BE01BF76
:102A700001C001C001C101C101C201C201C301C342
:102A800001C401C401C501C501C601C601C701C712
:102A900001C801C801C901C901CA01CA01CB01CBE2
:102AA00001CB01CC01CC01CD01CD01CD01CE01CEB8
:102AB00001CE01CF01CF01D001D001D001D101D190
:102AC00001D101D101D201D201D201D301D301D36D
:102AD00001D301D401D401D401D401D501D501D54C
:102AE00001D501D601D601D601D601D601D701D72D
:102AF00001D701D701D701D801D801D801D801D811
:102B000001D901D901D901D901D901DA01DA01DAF2
:102B100001DA01DA01DA01DB01DB01DB01DB01DBD8
:102B200001DC01DC01DC01DC01DD01DD01DD01DDB9
:102B300001DD01DE01DE01DE01DE01DF01DF01DF9B
:102B400001E001E001E001E001E101E101E101E278
:102B500001E201E301E301E301E401E401E401E551
:102B600001E501E601E601E701E701E801E801E925
:102B700001E901EA01EA01EB01EB01EC01EC01EDF5
:102B800001EE01EE01EF01F001F001F101F201F3BC
:102B900001F401F401F501F601F701F801F901FA78
:102BA00001FB01FC01FD01FE01FF01000201020227
:102BB000020302040205020602070208020A020BCF
:102BC000020C020D020E0210021102120213021573
:102BD000021602170219021A021C021D021E02200E
:102BE000022102230224022602270229022A022CA1
:102BF000022E022F0231023202340236023702392B
:102C0000023B023D023E0240024202440247024AA7
:102C1000024C024F025202540257025A025C025FF7
:102C2000026202650268026A026D02700273027635
:102C30000279027C027F028202850288028B028E68
:102C4000029102940297029A029D02A002A302A698
:102C500002A902AC02AF02B202B602B902BC02BFC4
:102C600002C202C502C802CC02CF02D202D502D8EB
:102C700002DC02DF02E202E502E802EC02EF02F20D
:102C800002F502F802FC02FF020203050309030C2D
:102C9000030F031203150319031C031F032203254B
:102CA0000329032C032F033203350339033C033F6D
:102CB000034203450348034B034F03520355035894
:102CC000035B035E036103640367036A036D0370C0
:102CD000037303760379037C037F038203850388F0
:102CE000038B038E0391039403970399039C039F23
:102CF00003A303A703AA03AE03B103B503B903BC3F
:102D000003C003C303C703CA03CF03D403D903DE3D
:102D100003E303E603E603E603E603E603E603E66E
:102D200003E603E603E603E603E603E603E603AB96
:102D30000393037B0365034E03390324030F03FB53
:102D400002E702D402C202AF029E028C027C026B36
:102D5000025B024C023D022E02200212020502F822
:102D600001EB01DF01D301C701BC01B101A6019C48
:102D700001920188017F0176016D0165015D0155B8
:102D8000014D0146013E01380131012A0124011E95
:102D900001190113010E0109010401FF00FB00F6F6
:102DA00000F200EE00EE00EE00EE00EE00EE00EEAF
:102DB00000EB00E800E600E300E100DF00DD00DBFF
:102DC00000D900D700D600D400D300D200D100CF64
:102DD00000CE00CE00CD00CC00CB00CB00CA00CA94
:102DE00000CA00C900C900C900C900C900C900C99A
:102DF00000C900CA00CA00CA00CB00CB00CC00CC7E
:102E000000CD00CD00CE00CE00CF00CF00D000D04E
:102E100000D100D200D200D300D400D500D500D616
:102E200000D700D700D800D900DA00DA00DB00DCD8
:102E300000DC00DD00DE00DF00DF00E000E100E19B
:102E400000E200E300E300E400E500E500E600E75F
:102E500000E700E800E800E900EA00EA00EB00EB28
:102E600000EC00EC00ED00ED00EE00EE00EE00EFF7
:102E700000EF00F000F000F000F100F100F100F2CE
:102E800000F200F200F200F300F300F300F300F3AD
:102E900000F400F400F400F400F400F400F400F492
:102EA00000F400F500F500F500F500F500F500F57B
:102EB00000F500F500F400F400F400F400F400F470
:102EC00000F400F400F400F400F400F300F300F365
:102ED00000F300F300F300F200F200F200F200F25F
:102EE00000F200F100F100F100F100F100F000F05B
:102EF00000F000F000F000EF00EF00EF00EF00EF57
:102F000000EE00EE00EE00EE00EE00ED00ED00ED54
:102F100000ED00ED00ED00ED00EC00EC00EC00EC4D
:102F200000EC00EC00EC00EC00EC00EC00EB00EB43
:102F300000EB00EB00EB00EB00EB00EB00EB00EB39
:102F400000EB00EC00EC00EC00EC00EC00EC00EC22
:102F500000EC00EC00ED00ED00ED00ED00ED00EE0A
:102F600000EE00EE00EF00EF00EF00EF00F000F0E9
:102F700000F100F100F100F200F200F300F300F4C0
:102F800000F400F500F500F600F600F700F700F891
:102F900000F900F900FA00FB00FB00FC00FD00FE58
:102FA00000FE00FF00000101010201030103010412
:102FB00001050106010701080109010A010B010CC5
:102FC000010D010E010F0110011201130114011571
:102FD000011601170119011A011B011D011E011F14
:102FE00001210123012401260128012A012C012E9F
:102FF00001300132013401360138013A013C013F10
:1030000001410143014501470149014C014E015075
:10301000015301550157015A015C015F01610164CF
:1030200001660169016B016E01700173017601781F
:10303000017B017E0180018301860189018C018F62
:10304000019101940197019A019D01A001A301A79B
:1030500001AA01AD01B001B301B701BA01BD01C1BF
:1030600001C401C801CB01CF01D201D601DA01DDD3
:1030700001E101E501E901ED01F001F401F901FDD2
:10308000010102050209020D02120216021B021FB3
:1030900002240229022D02320237023C024102467A
:1030A000024B02500256025B02610266026C027120
:1030B0000277027D02830289028F0296029C02A39C
:1030C00002A902B002B702BE02C502CC02D302DBE3
:1030D00002E202EA02F202FA0202030B0315031FE4
:1030E00003290333033E03490354035F036A037652
:1030F0000382038E039B03A703B403C103CF03DC46
:1031000003D603E503E603E603E603E603E603E688
:1031100003E603E603E6030011241FBECFEFD1E26E
:10312000DEBFCDBF84E590E0FC0180818093B71DB8
:1031300084E590E0FC0110820FB6F894A895809188
:103140006000886180936000109260000FBE0000F4
:1031500015E0A0E0B2E0EAEDF3E301E00BBF02C04E
:1031600007900D92A237B107D9F72DE1A2E7B5E09C
:1031700001C01D92A73BB207E1F70E9441480C94A1
:10318000EB990C940000CF93DF93CDB7DEB78CE7BB
:1031900090E023E4FC0120838AE790E02FE8FC0123
:1031A00020838BE790E0FC0110828EE790E02FEF08
:1031B000FC01208310929E0510929D0510927B05C4
:1031C00010927A058091871C9091881C092E000C22
:1031D000AA0BBB0BBC01CD010E94EA92DC01CB0122
:1031E00020E030E040E251E4BC01CD010E94409279
:1031F000DC01CB018093910590939205A0939305F8
:10320000B09394058091891C90918A1C092E000C22
:10321000AA0BBB0BBC01CD010E94EA92DC01CB01E1
:1032200020E030E040E251E4BC01CD010E94409238
:10323000DC01CB018093990590939A05A0939B059F
:10324000B0939C050000DF91CF9108951F920F92DB
:1032500000905F000F92112400905B000F922F935B
:103260003F934F935F936F937F938F939F93AF930E
:10327000BF93EF93FF93CF93DF93CDB7DEB78CE788
:1032800090E0DC018C91882F90E08234910509F464
:1032900047C0833491053CF48034910589F0813432
:1032A000910531F118C28434910509F44BC184347D
:1032B00091050CF449C08534910509F49AC10BC2FB
:1032C00088E790E0FC018081918190938B05809349
:1032D0008A058CE790E021E4DC012C938AE790E0FA
:1032E0002AE730E0F90120812064DC012C93F3C14E
:1032F00088E790E0FC018081918190938D05809317
:103300008C058CE790E022E4DC012C938AE790E0C6
:103310002AE730E0F90120812064DC012C93DBC135
:103320008091BF128F5F8093BF1288E790E0FC010D
:103330008081918190938F0580938E058CE790E03A
:1033400023E4DC012C93C7C18091BF12882F90E049
:10335000AC014F7155278091D812882F90E09C01C5
:10336000217033278091CE069091CF0668E770E0F8
:10337000DB01ED91FC91AEEEB2E02A9FB0012B9FF4
:10338000700D3A9F700D1124680F791F660F771F1B
:103390006452794FDB01ED93FC93EEEEF2E02E9F49
:1033A000B0012F9F700D3E9F700D1124860F971F47
:1033B000880F991F8452994FFC0120813181CA01E5
:1033C000880F991F805E9C4EDC012D933C93809169
:1033D0001E13813079F48CE790E024E4FC01208313
:1033E0008AE790E02AE730E0D9012C912064FC01C3
:1033F000208370C18CE790E020E4DC012C938AE705
:1034000090E02AE730E0F90120812064DC012C9370
:103410008091CE069091CF068A3F910550F480911D
:10342000CE069091CF0601969093CF068093CE065C
:1034300004C01092CF061092CE064091CE06509155
:10344000CF069A01ADECBCEC0E9405989695879545
:103450009695879596958795880F991F9C01220FC1
:10346000331F220F331F820F931FFA01E81BF90B42
:10347000CF01892B09F02EC18091D812882F90E0BE
:10348000BC01617077278091BD1A9091BE1A24E823
:1034900030E0D9012D913C91E9E1E69FA001E79F41
:1034A000500D1124840F951F880F991F8551954E3B
:1034B000FC013183208384E890E0DC0111961C92AA
:1034C0001E928091BF12882F90E08F7199272091D2
:1034D000D812222F30E0B901617077272091BD1AF0
:1034E0003091BE1AE9E1E69FA001E79F500D11243B
:1034F000240F351F220F331F2551354EF90120812E
:103500003181880F991F87529D4EDC012D933C938A
:103510008091BD1A9091BE1A499750F48091BD1ABE
:103520009091BE1A01969093BE1A8093BD1AD2C094
:103530001092BE1A1092BD1A8091D8128F5F80939C
:10354000D812C8C08091BF12882F90E0AC014F7193
:1035500055278091D812882F90E09C012170332745
:103560008091CE069091CF0668E770E0DB01ED9187
:10357000FC91AEEEB2E02A9FB0012B9F700D3A9FF6
:10358000700D1124680F791F66507F4F660F771FEB
:103590006452794FDB01ED93FC93EEEEF2E02E9F47
:1035A000B0012F9F700D3E9F700D1124860F971F45
:1035B00086509F4F880F991F8452994FFC0120819C
:1035C0003181CA018096880F991F805E9C4EDC0174
:1035D0002D933C938CE790E025E4FC0120838AE75F
:1035E00090E02AE730E0D9012C912064FC0120838F
:1035F00072C08091BF12882F90E0AC014F715527A7
:103600008091D812882F90E09C01217033278091FF
:10361000CE069091CF0668E770E0DB01ED91FC915A
:10362000AEEEB2E02A9FB0012B9F700D3A9F700D55
:103630001124680F791F6C507E4F660F771F6452FC
:10364000794FDB01ED93FC93EEEEF2E02E9FB0019B
:103650002F9F700D3E9F700D1124860F971F8C5069
:103660009E4F880F991F8452994FFC012081318110
:10367000CA01805C9F4F880F991F805E9C4EDC01C1
:103680002D933C938091CE069091CF060196909316
:10369000CF068093CE068091CE069091CF068A3FCA
:1036A000910549F41092CF061092CE068091D8125F
:1036B0008F5F8093D8128CE790E021E4FC01208397
:1036C0008AE790E02AE730E0D9012C912064FC01E0
:1036D000208301C000000000DF91CF91FF91EF91A6
:1036E000BF91AF919F918F917F916F915F914F911A
:1036F0003F912F910F9000925B000F9000925F001E
:103700000F901F901895CF92DF92EF92FF92CF9378
:10371000DF93CDB7DEB78091881790918917892BF9
:1037200009F4F3C0109289171092881780917C05D4
:1037300090917D05A0917E05B0917F052CEE31E53D
:1037400048E75FE3BC01CD010E949F93DC01CB0100
:103750006C017D0180918A0590918B05CC01A0E0E0
:10376000B0E0BC01CD010E94E892DC01CB012FE862
:1037700032EC45EF5CE3BC01CD010E949F93DC017C
:10378000CB019C01AD01C701B6010E94CF91DC01C4
:10379000CB0180937C0590937D05A0937E05B0932B
:1037A0007F058091800590918105A0918205B0915F
:1037B00083052CEE31E548E75FE3BC01CD010E94B3
:1037C0009F93DC01CB016C017D0180918C05909170
:1037D0008D05CC01A0E0B0E0BC01CD010E94E892D3
:1037E000DC01CB012FE832EC45EF5CE3BC01CD01FD
:1037F0000E949F93DC01CB019C01AD01C701B60182
:103800000E94CF91DC01CB018093800590938105CC
:10381000A0938205B09383058091840590918505DE
:10382000A0918605B09187052CEE31E548E75FE36E
:10383000BC01CD010E949F93DC01CB016C017D0195
:1038400080918E0590918F05CC01A0E0B0E0BC0185
:10385000CD010E94E892DC01CB012FE832EC45EF6C
:103860005CE3BC01CD010E949F93DC01CB019C0174
:10387000AD01C701B6010E94CF91DC01CB0180935D
:10388000840590938505A0938605B0938705809164
:103890007C0590917D05A0917E05B0917F0526E580
:1038A00035ED49EB5EE3BC01CD010E949F93DC0145
:1038B000CB018093760590937705A0937805B0931C
:1038C00079058091800590918105A0918205B09144
:1038D000830528E738E744E45DE3BC01CD010E949D
:1038E0009F93DC01CB0120E030E040E85FE3BC01C6
:1038F000CD010E94CF91DC01CB01809372059093A2
:103900007305A0937405B09375050000DF91CF9106
:10391000FF90EF90DF90CF900895CF93DF9300D08A
:1039200000D000D0CDB7DEB7809192179091931759
:10393000892B09F43EC1109293171092921780912F
:10394000840590918505A0918605B0918705BC01FD
:10395000CD010E94B992DC01CB01880F991F880F1D
:10396000991F84539C4F9A83898389819A819C01F2
:10397000F90185919591A591B4919F018B839C83C9
:10398000AD83BE833A8329838B819C81AD81BE81C7
:103990008093950590939605A0939705B09398050D
:1039A0008091950590919605A0919705B091980505
:1039B0002091910530919205409193055091940585
:1039C000BC01CD010E943B9288230CF042C0809143
:1039D0009D0590919E05059750F480919D059091CD
:1039E0009E05019690939E0580939D0536C080911B
:1039F000950590919605A0919705B09198058093B3
:103A0000910590939205A0939305B09394058091AE
:103A1000910590919205A0919305B091940520E0B5
:103A200030E040E251E4BC01CD010E949F93DC01F3
:103A3000CB01BC01CD010E94B292DC01CB01BC01E3
:103A40008BE590E00E94BA8310929E0510929D052E
:103A500004C010929E0510929D058091950590914D
:103A60009605A0919705B091980520919905309100
:103A70009A0540919B0550919C05BC01CD010E9487
:103A80009A9318160CF042C080917A0590917B05AC
:103A9000059750F480917A0590917B05019690935B
:103AA0007B0580937A0536C08091950590919605A7
:103AB000A0919705B09198058093990590939A05E8
:103AC000A0939B05B0939C058091990590919A05D0
:103AD000A0919B05B0919C0520E030E040E251E4CC
:103AE000BC01CD010E949F93DC01CB01BC01CD0143
:103AF0000E94B292DC01CB01BC018CE590E00E94F7
:103B0000BA8310927B0510927A0504C010927B054F
:103B100010927A058091950590919605A091970550
:103B2000B091980520E030E040E552E4BC01CD01C1
:103B30000E94CE91DC01CB0120E030E0A901BC0164
:103B4000CD010E943B9288231CF41092900531C055
:103B50008091950590919605A0919705B091980553
:103B600020E030E040E552E4BC01CD010E94CE915E
:103B7000DC01CB0120E030E040E252E4BC01CD01A9
:103B80000E949A93181624F488E28093900511C03D
:103B90008091950590919605A0919705B091980513
:103BA000BC01CD010E94B992DC01CB01845380930A
:103BB0009005000026960FB6F894DEBF0FBECDBF6D
:103BC000DF91CF910895CF93DF93CDB7DEB78EE22B
:103BD00090E02EE230E0F90120812460FC01208396
:103BE0008EE290E02EE230E0F90120812860FC01B5
:103BF000208384E390E024E330E0F90120812F7EEC
:103C0000FC01208385E090E00E94617580EA9FE0DE
:103C10000E94181F0000DF91CF910895CF93DF938A
:103C2000CDB7DEB78EE290E02EE230E0F9012081E0
:103C30002860FC0120838AE00E9488758EE290E073
:103C40002EE230E0F90120812460FC0120838AE02B
:103C50000E9488758EE290E02EE230E0F90120812A
:103C6000277FFC0120838AE00E9488758EE290E025
:103C70002EE230E0F90120812B7FFC0120838AE0D5
:103C80000E9488750000DF91CF910895CF93DF9354
:103C9000CDB7DEB78EE290E02EE230E0F901208170
:103CA000277FFC0120838AE00E9488758EE290E0E5
:103CB0002EE230E0F90120812460FC0120838AE0BB
:103CC0000E9488758EE290E02EE230E0F9012081BA
:103CD0002860FC0120838AE00E9488750000DF9143
:103CE000CF910895CF93DF931F92CDB7DEB78EE2C9
:103CF00090E02EE230E0F90120812460FC01208375
:103D00008AE00E9488758CE290E0FC0180818695B3
:103D100086958695817089838EE290E02EE230E070
:103D2000F90120812B7FFC0120838AE00E948875A5
:103D300089810F90DF91CF910895CF93DF9300D0C9
:103D40001F92CDB7DEB78B831A82198236C08B8162
:103D5000882354F48EE290E02EE230E0F9012081D5
:103D60002860FC01208309C08EE290E02EE230E062
:103D7000F9012081277FFC0120838B81880F8B83B1
:103D80008EE290E02EE230E0F90120812460FC0117
:103D900020838AE00E9488758EE290E02EE230E077
:103DA000F90120812B7FFC0120838AE00E94887525
:103DB00089819A8101969A83898389819A8108975A
:103DC00030F20E94721E0F900F900F90DF91CF91F2
:103DD0000895CF93DF9300D01F92CDB7DEB79B83BA
:103DE0008A8319820E940E1E88E90E949D1E8823E4
:103DF00019F08981816089838A819B81892F992724
:103E00000E949D1E882319F08981826089838A819E
:103E10000E949D1E882319F48981846089830E94F1
:103E2000461E89810F900F900F90DF91CF910895DA
:103E3000CF93DF9300D0CDB7DEB79A838983898192
:103E40009A81CC01A0E0B0E0BC01CD010E94E892D3
:103E5000DC01CB012DEB37E346E855E3BC01CD0196
:103E60000E949F93DC01CB0120E030E048EC52E45B
:103E7000BC01CD010E944092DC01CB0120E030E486
:103E80004CE956E4BC01CD010E949F93DC01CB01BB
:103E900020E030E040EA5AE3BC01CD010E944092AC
:103EA000DC01CB01BC01CD010E94B992DC01CB0148
:103EB0009F700E94E91E0F900F90DF91CF9108959F
:103EC000CF93DF93CDB7DEB781E290E028E3FC012A
:103ED000208382E290E0FC01108284E290E020E303
:103EE000FC01208385E290E022E8FC01208387E248
:103EF00090E0FC01108288E290E02FEFFC0120832B
:103F00008AE290E028EBFC0120838BE290E02CE039
:103F1000FC0120838DE290E02EECFC0120838EE2F8
:103F200090E02FE4FC01208380E390E0FC0110820C
:103F300081E390E0FC01108283E390E028E1FC0142
:103F4000208384E390E020E1FC0120830000DF91E6
:103F5000CF910895CF93DF93CDB7DEB78091CD1287
:103F6000813051F485E290E025E230E0F9012081D2
:103F70002F7EFC01208309C085E290E025E230E03D
:103F8000F90120812061FC0120830000DF91CF91A5
:103F90000895CF93DF93CDB7DEB78091CD128130F6
:103FA00051F485E290E025E230E0F90120812061C2
:103FB000FC01208309C085E290E025E230E0F901B0
:103FC00020812F7EFC0120830000DF91CF91089596
:103FD000CF93DF93CDB7DEB78091D612813051F405
:103FE00085E290E025E230E0F90120812F7DFC019F
:103FF000208309C085E290E025E230E0F9012081CC
:104000002062FC0120830000DF91CF910895CF93BF
:10401000DF93CDB7DEB78091D612813051F485E2BF
:1040200090E025E230E0F90120812062FC0120834C
:1040300009C085E290E025E230E0F90120812F7D82
:10404000FC0120830000DF91CF910895CF93DF938F
:10405000CDB7DEB71092CF061092CE06109258065A
:10406000109257061092CD061092CC0680911E1326
:10407000882309F069C08091E11B9091E21B092E11
:10408000000CAA0BBB0BBC01CD010E94EA92DC0123
:10409000CB012FE632E143E85AE3BC01CD010E9497
:1040A0009F93DC01CB0120E030E040EA5BE3BC0100
:1040B000CD010E944092DC01CB01BC01CD010E94E8
:1040C000B992DC01CB019093DB068093DA068091F4
:1040D000E31B9091E41B092E000CAA0BBB0BBC0147
:1040E000CD010E94EA92DC01CB012FE632E143E8E8
:1040F0005AE3BC01CD010E949F93DC01CB0120E07B
:1041000030E040EA5BE3BC01CD010E944092DC015B
:10411000CB01BC01CD010E94B992DC01CB0190938F
:10412000B4128093B3128091E51B9091E61B90939B
:104130009612809395128091811D9091821D90938B
:1041400054068093530660C08091E71B9091E81B52
:10415000092E000CAA0BBB0BBC01CD010E94EA92F8
:10416000DC01CB012FE632E143E85AE3BC01CD018B
:104170000E949F93DC01CB0120E030E040EA5BE34A
:10418000BC01CD010E944092DC01CB01BC01CD01FC
:104190000E94B992DC01CB019093DB068093DA0692
:1041A0008091E91B9091EA1B092E000CAA0BBB0B16
:1041B000BC01CD010E94EA92DC01CB012FE632E185
:1041C00043E85AE3BC01CD010E949F93DC01CB017F
:1041D00020E030E040EA5BE3BC01CD010E94409268
:1041E000DC01CB01BC01CD010E94B992DC01CB0105
:1041F0009093B4128093B3128091EB1B9091EC1BBF
:1042000090939612809395128091ED1B9091EE1BE6
:104210009093BF068093BE068091EF1B9091F01B98
:1042200090939E1280939D128091F11B9091F21BAE
:10423000092E000CAA0BBB0BBC01CD010E94EA9217
:10424000DC01CB0120E030E44CE156E4BC01CD01BF
:104250000E944092DC01CB018093C8069093C9066E
:10426000A093CA06B093CB068FEF809359068FEFC9
:1042700080935A068FEF80935B068091F31B909199
:10428000F41B8093B9068091F51B9091F61B092EC3
:10429000000CAA0BBB0BBC01CD010E94EA92DC0111
:1042A000CB012FE632E143E85AE3BC01CD010E9485
:1042B0009F93DC01CB018093AB129093AC12A0933F
:1042C000AD12B093AE128091F71B9091F81B9093B2
:1042D000A2128093A1128091F91B9091FA1B9093E6
:1042E0005D0680935C068091FB1B9091FC1B909374
:1042F0009A12809399128091AB1D9091AC1D90936E
:104300005F0680935E068091831D9091841D90933B
:104310005606809355068091851D9091861D909339
:10432000C3068093C2068091871D9091881D90934B
:10433000B0128093AF128091891D90918A1D909345
:104340009C1280939B1280918B1D90918C1D909359
:1043500098128093971280918D1D90918E1D90934D
:10436000AA128093A91280918F1D9091901D909315
:10437000A01280939F128091911D9091921D909315
:10438000FC058093FB058091931D9091941D909363
:10439000B2128093B1128091951D9091961D092EB5
:1043A000000CAA0BBB0BBC01CD010E94EA92DC0100
:1043B000CB0120E030E048EC52E4BC01CD010E948A
:1043C0004092DC01CB018093D0069093D106A0935C
:1043D000D206B093D3068091971D9091981D092E17
:1043E000000CAA0BBB0BBC01CD010E94EA92DC01C0
:1043F000CB0120E030E048EC52E4BC01CD010E944A
:104400004092DC01CB018093BA069093BB06A09347
:10441000BC06B093BD068091991D90919A1D909312
:10442000FA058093F9058091FD1B9091FE1B092EE2
:10443000000CAA0BBB0BBC01CD010E94EA92DC016F
:10444000CB012FE632E143E85AE3BC01CD010E94E3
:104450009F93DC01CB018093C4069093C506A09383
:10446000C606B093C7068091FF1B9091001C092ED1
:10447000000CAA0BBB0BBC01CD010E94EA92DC012F
:10448000CB012FE632E143E85AE3BC01CD010E94A3
:104490009F93DC01CB018093B5129093B612A09349
:1044A000B712B093B8128091011C9091021C9093A6
:1044B0005206809351068091031C9091041C892F11
:1044C0009927809394128091031C9091041C8093EF
:1044D000B4068091791C90917A1C9093C1068093C8
:1044E000C0068091231C9091241C092E000CAA0B5D
:1044F000BB0BBC01CD010E94EA92DC01CB012FE68F
:1045000032E143E85AE3BC01CD010E949F93DC01F4
:10451000CB018093600690936106A0936206B093EE
:1045200063068091251C9091261C092E000CAA0B75
:10453000BB0BBC01CD010E94EA92DC01CB012FE64E
:1045400032E143E85AE3BC01CD010E949F93DC01B4
:10455000CB018093640690936506A0936606B093A2
:1045600067068091271C9091281C092E000CAA0B2D
:10457000BB0BBC01CD010E94EA92DC01CB012FE60E
:1045800032E143E85AE3BC01CD010E949F93DC0174
:10459000CB018093680690936906A0936A06B09356
:1045A0006B068091291C90912A1C092E000CAA0BE5
:1045B000BB0BBC01CD010E94EA92DC01CB012FE6CE
:1045C00032E143E85AE3BC01CD010E949F93DC0134
:1045D000CB0180936C0690936D06A0936E06B0930A
:1045E0006F0680912B1C90912C1C092E000CAA0B9D
:1045F000BB0BBC01CD010E94EA92DC01CB012FE68E
:1046000032E143E85AE3BC01CD010E949F93DC01F3
:10461000CB018093700690937106A0937206B093BD
:10462000730680912D1C90912E1C092E000CAA0B54
:10463000BB0BBC01CD010E94EA92DC01CB012FE64D
:1046400032E143E85AE3BC01CD010E949F93DC01B3
:10465000CB018093740690937506A0937606B09371
:10466000770680912F1C9091301C092E000CAA0B0C
:10467000BB0BBC01CD010E94EA92DC01CB012FE60D
:1046800032E143E85AE3BC01CD010E949F93DC0173
:10469000CB018093780690937906A0937A06B09325
:1046A0007B068091311C9091321C092E000CAA0BC4
:1046B000BB0BBC01CD010E94EA92DC01CB012FE6CD
:1046C00032E143E85AE3BC01CD010E949F93DC0133
:1046D000CB0180937C0690937D06A0937E06B093D9
:1046E0007F068091331C9091341C092E000CAA0B7C
:1046F000BB0BBC01CD010E94EA92DC01CB012FE68D
:1047000032E143E85AE3BC01CD010E949F93DC01F2
:10471000CB018093800690938106A0938206B0938C
:1047200083068091351C9091361C092E000CAA0B33
:10473000BB0BBC01CD010E94EA92DC01CB012FE64C
:1047400032E143E85AE3BC01CD010E949F93DC01B2
:10475000CB018093840690938506A0938606B09340
:1047600087068091371C9091381C092E000CAA0BEB
:10477000BB0BBC01CD010E94EA92DC01CB012FE60C
:1047800032E143E85AE3BC01CD010E949F93DC0172
:10479000CB018093880690938906A0938A06B093F4
:1047A0008B068091391C90913A1C092E000CAA0BA3
:1047B000BB0BBC01CD010E94EA92DC01CB012FE6CC
:1047C00032E143E85AE3BC01CD010E949F93DC0132
:1047D000CB0180938C0690938D06A0938E06B093A8
:1047E0008F0680913B1C90913C1C092E000CAA0B5B
:1047F000BB0BBC01CD010E94EA92DC01CB012FE68C
:1048000032E143E85AE3BC01CD010E949F93DC01F1
:10481000CB018093900690939106A0939206B0935B
:10482000930680913D1C90913E1C092E000CAA0B12
:10483000BB0BBC01CD010E94EA92DC01CB012FE64B
:1048400032E143E85AE3BC01CD010E949F93DC01B1
:10485000CB018093940690939506A0939606B0930F
:10486000970680913F1C9091401C092E000CAA0BCA
:10487000BB0BBC01CD010E94EA92DC01CB012FE60B
:1048800032E143E85AE3BC01CD010E949F93DC0171
:10489000CB018093980690939906A0939A06B093C3
:1048A0009B068091411C9091421C092E000CAA0B82
:1048B000BB0BBC01CD010E94EA92DC01CB012FE6CB
:1048C00032E143E85AE3BC01CD010E949F93DC0131
:1048D000CB0180939C0690939D06A0939E06B09377
:1048E0009F068091431C9091441C092E000CAA0B3A
:1048F000BB0BBC01CD010E94EA92DC01CB012FE68B
:1049000032E143E85AE3BC01CD010E949F93DC01F0
:10491000CB018093A0069093A106A093A206B0932A
:10492000A3068091451C9091461C092E000CAA0BF1
:10493000BB0BBC01CD010E94EA92DC01CB012FE64A
:1049400032E143E85AE3BC01CD010E949F93DC01B0
:10495000CB018093A4069093A506A093A606B093DE
:10496000A7068091471C9091481C092E000CAA0BA9
:10497000BB0BBC01CD010E94EA92DC01CB012FE60A
:1049800032E143E85AE3BC01CD010E949F93DC0170
:10499000CB018093A8069093A906A093AA06B09392
:1049A000AB068091491C90914A1C092E000CAA0B61
:1049B000BB0BBC01CD010E94EA92DC01CB012FE6CA
:1049C00032E143E85AE3BC01CD010E949F93DC0130
:1049D000CB018093AC069093AD06A093AE06B09346
:1049E000AF0680914B1C90914C1C092E000CAA0B19
:1049F000BB0BBC01CD010E94EA92DC01CB012FE68A
:104A000032E143E85AE3BC01CD010E949F93DC01EF
:104A1000CB018093B0069093B106A093B206B093F9
:104A2000B30680911E13882309F09BC080914D1C12
:104A300090914E1C092E000CAA0BBB0BBC01CD01A2
:104A40000E94EA92DC01CB018093FD059093FE0564
:104A5000A093FF05B093000680914F1C9091501CCD
:104A6000092E000CAA0BBB0BBC01CD010E94EA92DF
:104A7000DC01CB018093010690930206A09303060C
:104A8000B09304068091511C9091521C092E000C89
:104A9000AA0BBB0BBC01CD010E94EA92DC01CB0149
:104AA0008093050690930606A0930706B093080628
:104AB0008091531C9091541C092E000CAA0BBB0B27
:104AC000BC01CD010E94EA92DC01CB018093090672
:104AD00090930A06A0930B06B0930C068091551C88
:104AE0009091561C092E000CAA0BBB0BBC01CD01EA
:104AF0000E94EA92DC01CB0180930D0690930E0692
:104B0000A0930F06B09310068091571C9091581CEB
:104B1000092E000CAA0BBB0BBC01CD010E94EA922E
:104B2000DC01CB018093110690931206A09313062B
:104B3000B09314068091591C90915A1C092E000CB8
:104B4000AA0BBB0BBC01CD010E94EA92DC01CB0198
:104B50008093150690931606A0931706B093180637
:104B6000CEC180914D1C90914E1C092E000CAA0BB9
:104B7000BB0BBC01CD010E94EA92DC01CB0180930A
:104B8000FD059093FE05A093FF05B093000680916C
:104B90004F1C9091501C092E000CAA0BBB0BBC01A2
:104BA000CD010E94EA92DC01CB0180930106909333
:104BB0000206A0930306B09304068091511C9091C5
:104BC000521C092E000CAA0BBB0BBC01CD010E948C
:104BD000EA92DC01CB018093050690930606A09330
:104BE0000706B09308068091531C9091541C092E1F
:104BF000000CAA0BBB0BBC01CD010E94EA92DC01A8
:104C0000CB018093090690930A06A0930B06B093FC
:104C10000C068091551C9091561C092E000CAA0B75
:104C2000BB0BBC01CD010E94EA92DC01CB01809359
:104C30000D0690930E06A0930F06B0931006809178
:104C4000571C9091581C092E000CAA0BBB0BBC01E1
:104C5000CD010E94EA92DC01CB0180931106909372
:104C60001206A0931306B09314068091591C9091DC
:104C70005A1C092E000CAA0BBB0BBC01CD010E94D3
:104C8000EA92DC01CB018093150690931606A0935F
:104C90001706B093180680915B1C90915C1C092E3E
:104CA000000CAA0BBB0BBC01CD010E94EA92DC01F7
:104CB000CB018093190690931A06A0931B06B0931C
:104CC0001C0680915D1C90915E1C092E000CAA0BA5
:104CD000BB0BBC01CD010E94EA92DC01CB018093A9
:104CE0001D0690931E06A0931F06B0932006809188
:104CF0005F1C9091601C092E000CAA0BBB0BBC0121
:104D0000CD010E94EA92DC01CB01809321069093B1
:104D10002206A0932306B09324068091611C9091F3
:104D2000621C092E000CAA0BBB0BBC01CD010E941A
:104D3000EA92DC01CB018093250690932606A0938E
:104D40002706B09328068091631C9091641C092E5D
:104D5000000CAA0BBB0BBC01CD010E94EA92DC0146
:104D6000CB018093290690932A06A0932B06B0933B
:104D70002C068091651C9091661C092E000CAA0BD4
:104D8000BB0BBC01CD010E94EA92DC01CB018093F8
:104D90002D0690932E06A0932F06B0933006809197
:104DA000671C9091681C092E000CAA0BBB0BBC0160
:104DB000CD010E94EA92DC01CB01809331069093F1
:104DC0003206A0933306B09334068091691C90910B
:104DD0006A1C092E000CAA0BBB0BBC01CD010E9462
:104DE000EA92DC01CB018093350690933606A093BE
:104DF0003706B093380680916B1C90916C1C092E7D
:104E0000000CAA0BBB0BBC01CD010E94EA92DC0195
:104E1000CB018093390690933A06A0933B06B0935A
:104E20003C0680916D1C90916E1C092E000CAA0B03
:104E3000BB0BBC01CD010E94EA92DC01CB01809347
:104E40003D0690933E06A0933F06B09340068091A6
:104E50006F1C9091701C092E000CAA0BBB0BBC019F
:104E6000CD010E94EA92DC01CB0180934106909330
:104E70004206A0934306B09344068091711C909122
:104E8000721C092E000CAA0BBB0BBC01CD010E94A9
:104E9000EA92DC01CB018093450690934606A093ED
:104EA0004706B09348068091731C9091741C092E9C
:104EB000000CAA0BBB0BBC01CD010E94EA92DC01E5
:104EC000CB018093490690934A06A0934B06B0937A
:104ED0004C068091751C9091761C092E000CAA0B33
:104EE000BB0BBC01CD010E94EA92DC01CB01809397
:104EF0004D0690934E06A0934F06B093500660E087
:104F000080E00E94F14561E080E00E94F14562E0AE
:104F100080E00E94F14563E080E00E94F14564E09A
:104F200080E00E94F14565E080E00E94F14566E086
:104F300080E00E94F14560E081E00E94F14561E07F
:104F400081E00E94F14562E081E00E94F14563E06A
:104F500081E00E94F14564E081E00E94F14565E056
:104F600081E00E94F14566E081E00E94F14560E049
:104F700082E00E94F14561E082E00E94F14562E03A
:104F800082E00E94F14563E082E00E94F14564E026
:104F900082E00E94F14565E082E00E94F14566E012
:104FA00082E00E94F1451092B5061092B60610926A
:104FB000B7061092B8060000DF91CF9108958F9246
:104FC0009F92AF92BF92CF92DF92EF92FF920F9398
:104FD0001F93CF93DF93CDB7DEB7C954D1090FB676
:104FE000F894DEBF0FBECDBF9E012A5B3F4FF90193
:104FF00091838083CE01885B9F4FFC017183608326
:1050000080911E13813029F483E090E09B878A878A
:105010001CC081E090E09B878A8780919005882F53
:1050200090E084539C4E9EA78DA78DA59EA5FC0164
:1050300084918FA72FA5CE01885B9F4FFC018081B3
:1050400091818C519F4FFC012083198618860C9406
:10505000903981E090E09E838D83CE01885B9F4FE5
:10506000FC0180819181835E934129F485EE95E175
:105070009A8389830AC0CE01885B9F4FFC0180819F
:105080009181815091409A8389831F82CE01885BF0
:105090009F4FFC0120813181888599854596880F35
:1050A000991F880F991F820F931FFC011082118294
:1050B00012821382CE01885B9F4FFC0120813181D7
:1050C00088859985880F991F820F931FFC01118293
:1050D0001082CE01885B9F4FFC0120813181888541
:1050E00099850396880F991F820F931FFC011182E7
:1050F0001082CE01885B9F4FFC0120813181888521
:1051000099850396880F991F880F991F280F391FBB
:1051100080E090ECAFE7B4E4F90180839183A2834F
:10512000B383CE01885B9F4FFC012081318188854C
:1051300099850696880F991F880F991F820F931FD4
:10514000FC011082118212821382CE01885B9F4F74
:10515000FC0120813181888599854296880F991FAD
:10516000820F931FFC0111821082CE01885B9F4F3A
:10517000FC0120813181888599854596880F991F8A
:10518000820F931FFC0111821082CE01885B9F4F1A
:10519000FC0120813181888599850C96880F991FA3
:1051A000880F991F820F931FFC01108211821282B7
:1051B0001382CE01885B9F4FFC012081318188855D
:1051C00099850F96880F991F880F991F820F931F3B
:1051D000FC0110821182128213821D861C861F869A
:1051E0001E868091D512813051F5CE01885B9F4F8C
:1051F000FC0120813181888599858D599F4F880FC9
:10520000991F820F931FFC0111821082198E188E34
:105210001A8E1B8E1C8E1E8E1D8E18A21F8E1AA219
:1052200019A21EA21DA219AA18AA18A61FA21CA282
:105230001BA21AA619A61BAA1AAA1CA61BA61C8288
:105240001B823CC58B819C81880F991F9E012A5B24
:105250003F4FF90120813181820F931FFC01808132
:1052600091819DAB8CAB8F81882F90E0813091052F
:1052700009F440C08230910509F4FBC1892B09F083
:10528000C0C381E090E09E838D83CE01885B9F4FF9
:10529000FC01808191818C519F4FFC018081282FDE
:1052A00030E08091DA069091DB06280F391F8CA937
:1052B0009DA98217930718F481E08F839DC3CE01C7
:1052C000885B9F4FFC01808191818C519F4FFC0135
:1052D0008081282F30E08091B3129091B412280F72
:1052E000391F8CA99DA92817390708F085C382E0CA
:1052F0008F8382C38091D512813009F01DC1CE0108
:10530000885B9F4FFC01808191818C519F4FFC01F4
:105310008081282F30E08091DA069091DB06280FFB
:10532000391F8CA99DA98217930730F48B819C812A
:10533000893F910509F0C6C08B819C81893F910509
:10534000E9F4CE01885B9F4FFC01808191818C51F3
:105350009F4FFC018081282F30E08091DA069091E8
:10536000DB06280F391F8CA99DA98217930730F4FB
:105370008D819E8101969E838D8381C08091BE0622
:105380009091BF062D813E818217930708F077C068
:105390002B813C818D819E818217930708F06FC01D
:1053A000CE01885B9F4FFC012081318188859985E2
:1053B000880F991F820F931FFC01808191819C01AE
:1053C0002F5F3F4FCE01885B9F4FFC014081518191
:1053D00088859985880F991F840F951FFC0131835B
:1053E0002083CE01885B9F4FFC012081318188851D
:1053F00099850396880F991F820F931FFC012081C6
:1054000031818D819E81280F391FCE01885B9F4F8E
:10541000FC0140815181888599850396880F991FE9
:10542000840F951FFC01318320838DA19EA1892BC0
:10543000B9F02DA13EA18D819E81A901481B590B78
:10544000CA0199231CF491958195910999AB88AB78
:105450002FA138A588A999A9820F931F98A78FA378
:105460008D819E819EA38DA329A13AA18D819E81CC
:105470002817390720F48D819E819AA389A3CE0134
:10548000885B9F4FFC01808191818C519F4FFC0173
:105490008081282F30E08091B3129091B412280FB0
:1054A000391F8CA99DA92817390738F482E08F830A
:1054B00081E090E09E838D8301C01F821B8E1C8E35
:1054C0001A8ED6C08D819E8101969E838D83288DF4
:1054D000398D8CA99DA9A901481B590BCA01992393
:1054E0001CF491958195910903970CF487C2288D3E
:1054F000398D8CA99DA92817390758F41C8E8B8DDE
:105500008F5F8B8F8B8D833008F478C281E08A8F18
:1055100075C21B8E8C8D8F5F8C8F8C8D833008F4C1
:105520006DC28A8D813029F48D8D9E8D01969E8F5E
:105530008D8F82E08A8F62C2CE01885B9F4FFC0113
:10554000808191818C519F4FFC018081282F30E018
:105550008091DA069091DB06280F391F8CA99DA94E
:105560008217930730F48B819C81893F910509F064
:1055700079C08B819C81893F910529F48D819E8121
:1055800001969E838D838091BE069091BF062D81EA
:105590003E818217930708F045C0CE01885B9F4F7C
:1055A000FC012081318188859985880F991F820FA0
:1055B000931FFC01808191819C012F5F3F4FCE01A1
:1055C000885B9F4FFC014081518188859985880FB8
:1055D000991F840F951FFC0131832083CE01885BC6
:1055E0009F4FFC0120813181888599850396880F22
:1055F000991F820F931FFC01208131818D819E8133
:10560000280F391FCE01885B9F4FFC0140815181DB
:10561000888599850396880F991F840F951FFC0133
:1056200031832083CE01885B9F4FFC018081918173
:105630008C519F4FFC018081282F30E08091B31264
:105640009091B412280F391F8CA99DA928173907EA
:1056500038F482E08F8381E090E09E838D8308C0E0
:105660001F8206C08D819E8101969E838D83C6C157
:10567000C5C18091D512813009F01FC1CE01885B70
:105680009F4FFC01808191818C519F4FFC01808153
:10569000282F30E08091B3129091B412280F391F57
:1056A0008CA99DA92817390730F48B819C81893FEB
:1056B000910509F0C8C08B819C81893F9105E9F46F
:1056C000CE01885B9F4FFC01808191818C519F4F5F
:1056D000FC018081282F30E08091B3129091B412A8
:1056E000280F391F8CA99DA92817390730F48D81FF
:1056F0009E8101969E838D8383C08091BE0690918A
:10570000BF062D813E818217930708F079C02B8157
:105710003C818D819E818217930708F071C0CE0174
:10572000885B9F4FFC012081318188859985429655
:10573000880F991F820F931FFC01808191819C012A
:105740002F5F3F4FCE01885B9F4FFC01408151810D
:10575000888599854296880F991F840F951FFC01B3
:1057600031832083CE01885B9F4FFC0120813181F2
:10577000888599854596880F991F820F931FFC0194
:10578000208131818D819E81280F391FCE01885B58
:105790009F4FFC0140815181888599854596880FEE
:1057A000991F840F951FFC013183208389A59AA539
:1057B000892BB9F029A53AA58D819E81A901481BA5
:1057C000590BCA0199231CF49195819591099BABC2
:1057D0008AAB2BA53CA58AA99BA9820F931F9CA7E6
:1057E0008BA78D819E819AA789A72BA13CA18D8132
:1057F0009E812817390720F48D819E819CA38BA35D
:10580000CE01885B9F4FFC01808191818C519F4F1D
:10581000FC018081282F30E08091DA069091DB0630
:10582000280F391F8CA99DA98217930738F481E0AE
:105830008F8381E090E09E838D8301C01F821B8E49
:105840001C8E1A8ED8C08D819E8101969E838D8379
:10585000288D398D8CA99DA9A901481B590BCA0116
:1058600099231CF491958195910903970CF4C8C074
:10587000288D398D8CA99DA92817390798F41C8E7D
:105880008B8D8F5F8B8F8B8D833008F4B9C08A8DA1
:10589000823029F48F8D98A1019698A38F8F81E093
:1058A0008A8FAEC01B8E8C8D8F5F8C8F8C8D8330DA
:1058B00008F4A6C082E08A8FA3C0CE01885B9F4F08
:1058C000FC01808191818C519F4FFC018081282FA8
:1058D00030E08091B3129091B412280F391F8CA937
:1058E0009DA92817390730F48B819C81893F910548
:1058F00009F07BC08B819C81893F910529F48D81C2
:105900009E8101969E838D838091BE069091BF06F5
:105910002D813E818217930708F047C0CE01885B36
:105920009F4FFC0120813181888599854296880F9F
:10593000991F820F931FFC01808191819C012F5F31
:105940003F4FCE01885B9F4FFC014081518188858C
:1059500099854296880F991F840F951FFC0131830A
:105960002083CE01885B9F4FFC0120813181888597
:1059700099854596880F991F820F931FFC012081FE
:1059800031818D819E81280F391FCE01885B9F4F09
:10599000FC0140815181888599854596880F991F22
:1059A000840F951FFC0131832083CE01885B9F4FBC
:1059B000FC01808191818C519F4FFC018081282FB7
:1059C00030E08091DA069091DB06280F391F8CA910
:1059D0009DA98217930738F481E08F8381E090E0DE
:1059E0009E838D8308C01F8206C08D819E81019693
:1059F0009E838D8305C004C0000003C0000001C069
:105A000000008CA99DA9CC01A0E0B0E0BC01CD01B3
:105A10000E94E8927B018C01CE01885B9F4FFC01C4
:105A200020813181888599850396880F991F880F79
:105A3000991F820F931FFC0180819181A281B38104
:105A40009C01AD01C801B7010E943B9288230CF56F
:105A50008CA99DA9CC01A0E0B0E0BC01CD010E94C1
:105A6000E892DC01CB019E01285B3F4FF9014081A8
:105A70005181288539852D5F3F4F220F331F220F1B
:105A8000331F240F351FF90180839183A283B383D1
:105A900047C08CA99DA9CC01A0E0B0E0BC01CD011C
:105AA0000E94E8927B018C01CE01885B9F4FFC0134
:105AB00020813181888599850C96880F991F880FE0
:105AC000991F820F931FFC0180819181A281B38174
:105AD0009C01AD01C801B7010E949A93181604F504
