:100000000C946B1C0C94A01C0C94A01C0C94A01CB5
:100010000C94A01C0C94A01C0C94A01C0C94A01C70
:100020000C94A01C0C94A01C0C94A01C0C94A01C60
:100030000C94A01C0C94A01C0C94A01C0C94A01C50
:100040000C94A01C0C94A01C0C94A01C0C94A01C40
:100050000C94A01C0C94A01C0C94A01C0C94A01C30
:100060000C94A01C0C94CB7C0C94A01C0C94A01C95
:100070000C94A01C0C94051D0C94A01C0C94A01CAA
:100080000C94A01C0C94A01C0C94A01C0C94277A1B
:100090000C94577D0C94A01C0C94C17D0C94A01C56
:1000A0000C94A01C0C94A01C0C94A01C0C94A01CE0
:1000B0000C94A01C0C94A01C0C94A01C0C94A01CD0
:1000C0000C94A01C0C94A01C0C94A01C2D5F2D5F04
:1000D0002D5F2D5F2D5F445F765FE85E165FFF5EEC
:1000E00058605860896058605860CA60F660F66071
:1000F000F660F6601A8827884C88A288D588088917
:10010000A288D5880889178926893589FD8A0A8BAE
:10011000318B408B4F8B5E8B858BAC8BB68BD08BB2
:10012000F78B068C158C248C338C428C518C608C14
:100130006F8C6F8C9C8CA88CB48CC28CCE8CFC8CFD
:100140002A8D588D868DB48DE28D0C8E3A8E688EF8
:10015000968EC48EF28E208F4A8F788FA68FD48F82
:10016000029030905E908890AC90D090F49018916E
:100170003C9160918091A491C891EC91109234923D
:10018000589278929C92C092E49208932C93509348
:1001900070937E933794379437948C939A93A89363
:1001A000B693DC9302941094379437943794379431
:1001B00037943794379437943794379437943794E7
:1001C00037943794379437943794379437943794D7
:1001D00037943794379437943794379437943794C7
:1001E00037943794379437943794379437943794B7
:1001F00037943794379437943794379437943794A7
:100200003794379437943794379437943794379496
:100210003794379437943794379437943794379486
:100220003794379437943794379437943794379476
:100230003794379437943794379437943794379466
:100240003794379437943794379437943794379456
:100250003794379437943794379437943794379446
:100260003794379437943794379437943794379436
:100270003794379437943794379437943794379426
:100280003794379437943794379437943794379416
:10029000379437943794379495885C896B897A8939
:1002A00089899889A789B689C589D489E389F2891A
:1002B000198A408A4F8A5E8A6D8A7C8A8B8A9A8ADA
:1002C000A98AB88AC78AD68A6E616E00696E66008E
:1002D00000407A10F35A00A0724E18090010A5D4FD
:1002E000E80000E87648170000E40B54020000CA5A
:1002F0009A3B000000E1F5050000809698000000A0
:1003000040420F000000A0860100000010270000FE
:100310000000E803000000006400000000000A0084
:10032000000000000100000000002C76D888DC6787
:100330004F0823DFC1DFAE59E1B1B796E5E3E453DF
:10034000C63AE651997696E8E6C28426EB898C9BFC
:1003500062ED407C6FFCEFBC9C9F40F2BAA56FA59C
:10036000F490055A2AF75C936B6CF9676DC11BFC1E
:10037000E0E40D47FEF520E6B500D0ED902E030039
:10038000943577050080841E080000204E0A000086
:1003900000C80C333333330F986E12831141EF8D45
:1003A0002114893BE65516CFFEE6DB18D1844B3885
:1003B0001BF77C1D901DA4BBE424203284725E22B6
:1003C0008100C9F124ECA1E53D270000FA420000BC
:1003D000FA420000FA420000FA420000FA4200002D
:1003E000FA420000FA420000FA420000FA4200001D
:1003F000FA420000FA420000FA420000FA4200000D
:10040000FA420000FA420000FA420000FA420000FC
:10041000FA420000FA420000FA420000FA420000EC
:10042000FA420000FA420000FA420000FA420000DC
:10043000FA420000FA420000FA420000FA420000CC
:10044000FA420000FA420000FA420000FA420000BC
:10045000FA420000FA420000FA429A99F8426666AF
:10046000F6423333F4420000F2420000F042000052
:10047000EE423333EC426666EA426666E8429A9997
:10048000E6420000E5426666E342CDCCE14233330A
:10049000E0429A99DE420000DD426666DB420000DF
:1004A000DB429A99D8423333D742CDCCD5426666E7
:1004B000D4420000D3429A99D1426666D042333387
:1004C000CF420000CE42CDCCCC429A99CB42666658
:1004D000CA423333C9420000C8420000C74200008C
:1004E000C642CDCCC4420000C4420000C34200005A
:1004F000C242CDCCC042CDCCBF42CDCCBE42CDCC91
:10050000BD420000BD420000BC420000BB4233338C
:10051000BA426666B9429A99B8429A99B7429A998C
:10052000B642CDCCB5420000B5423333B442666624
:10053000B3429A99B242CDCCB1420000B1423333BA
:10054000B0426666AF429A99AE420000AE4266661D
:10055000AD429A99AC42CDCCAB420000AB423333B2
:10056000AA420000A942CDCCA8423333A8429A99AE
:10057000A7420000A7423333A6429A99A542000041
:10058000A5423333A4429A99A3420000A34266666F
:10059000A242CDCCA1420000A1426666A042CDCCD1
:1005A0009F4233339F429A999E4200009E429A99FD
:1005B0009D4200009D4266669C42CDCC9B423333F7
:1005C0009B42CDCC9A4233339A429A999942000089
:1005D000994266669842CDCC974233339742CDCC50
:1005E0009642333396429A99954233339542CDCC15
:1005F0009442333394429A99934233339342CDCC0D
:10060000924266669242CDCC914233339142CDCC38
:100610009042666690420000904266668F42CDCC62
:100620008E4266668E4200008E4266668D42CDCC5A
:100630008C4266668C4200008C429A998B4233331E
:100640008B42CDCC8A4266668A4200008A429A99E1
:10065000894233338942CDCC8842666688420000A5
:10066000884266668742CDCC864266668642000036
:1006700086429A99854233338542CDCC8442666660
:100680008442000084429A99834233338342CDCC22
:10069000824266668242000082429A9981423333E6
:1006A0008142CDCC804266668042000080429A99A9
:1006B0007F4233337F4266667E429A997D42CDCC3B
:1006C0007C4200007C4233337B4200007C429A999A
:1006D0007942CDCC7842000078429A997742333300
:1006E0007742666676429A997542CDCC7442000094
:1006F000744233337342666672429A997142CDCC2A
:1007000070420000704233336F42CDCC6E42666659
:100710006E429A996D42CDCC6C4266666C42000086
:100720006C4233336B4266666A4200006A420000E4
:100730006A42CDCC68420000684233336742666645
:100740006642000066429A996542CDCC6442000040
:10075000644233336342CDCC6242666662429A9908
:100760006142CDCC6042000060429A995F423333CF
:100770005F4266665E429A995D42CDCC5C42000063
:100780005C429A995B4233335B4266665A42000090
:100790005A429A995942CDCC5842000058429A99EF
:1007A000574233335742CDCC5642666656429A99E9
:1007B000554233335542CDCC54420000544233337A
:1007C0005342CDCC5242666652429A9951423333DB
:1007D0005142CDCC5042000050429A994F4233339F
:1007E0004F4266664E429A994D4233334D42CDCCCC
:1007F0004C4200004C429A994B4233334B4266665E
:100800004A429A99494233334942CDCC484200008A
:1008100048429A994742333347426666464200004F
:1008200046429A99454233334542CDCC444200007A
:1008300044429A99434233334342CDCC42426666A6
:1008400042429A99414233334142CDCC404200006A
:1008500040429A993F4233333F42CDCC3E42666696
:100860003E429A993D4233333D42CDCC3C4200005A
:100870003C429A993B4233333B42CDCC3A42666686
:100880003A429A99394233333942CDCC384200004A
:1008900038429A993742333337426666364200000F
:1008A00036429A993542CDCC3442666634420000D5
:1008B00034429A99334233333342CDCC3242666666
:1008C0003242000032429A993142CDCC30426666C3
:1008D0003042000030429A992F4233332F42CDCC20
:1008E0002E4266662E4200002E429A992D423333E4
:1008F0002D42CDCC2C4200002C429A992B4233330E
:100900002B42CDCC2A4266662A4200002A429A999E
:100910002942CDCC284266662842000028429A9996
:10092000274233332742CDCC2642666626429A9927
:10093000254233332542CDCC244266662442000052
:10094000244233332342CDCC224266662242000049
:1009500022429A992142CDCC204266662042000074
:1009600020429A991F4233331F42CDCC1E42666605
:100970001E4200001E429A991D4233331D42CDCCC7
:100980001C4266661C4200001C429A991B4233338B
:100990001B42CDCC1A4266661A4200001A429A994E
:1009A000194233331942CDCC184266661842000012
:1009B00018429A99174233331742CDCC16426666D5
:1009C0001642000016429A99154233331542CDCC97
:1009D000144266661442000014429A99134233335B
:1009E0001342CDCC124266661242000012429A991E
:1009F000114233331142CDCC1042000010429A997B
:100A00000F4233330F42CDCC0E4266660E420000D9
:100A10000E429A990D4233330D42CDCC0C42000068
:100A20000C429A990B429A990B4233330B42CDCC2C
:100A30000A4266660A4200000A429A990942333322
:100A40000942CDCC0842666608426666084200004C
:100A500008429A99074233330742CDCC0642666674
:100A60000642000006429A99054233330542CDCC36
:100A7000044266660442000004429A9903423333FA
:100A80000342CDCC0242CDCC024266660242000057
:100A900002429A99014233330142CDCC004266664C
:100AA0000042000000423333FF416666FE419A99DE
:100AB000FD41CDCCFC410000FC413333FB41666677
:100AC000FA419A99F941CDCCF8410000F84133330D
:100AD000F7416666F6419A99F541CDCCF4410000A4
:100AE000F4413333F3416666F2419A99F1410000D3
:100AF000F0410000F0413333EF416666EE419A99D0
:100B0000ED41CDCCEC410000EC410000EC41333331
:100B1000EB416666EA419A99E941CDCCE841000093
:100B2000E8413333E7413333E7416666E6419A995A
:100B3000E541CDCCE4410000E4413333E341666656
:100B4000E2419A99E141CDCCE041CDCCE0410000B9
:100B5000E0413333DF416666DE419A99DD41CDCC19
:100B6000DC410000DC413333DB416666DA419A99AF
:100B7000D941CDCCD8410000D8410000D841333311
:100B8000D7416666D6419A99D541CDCCD441000073
:100B9000D4413333D3416666D2419A99D141CDCC09
:100BA000D0410000D0413333CF416666CE419A999F
:100BB000CD41CDCCCC410000CC413333CB41666636
:100BC000CA419A99C941CDCCC8410000C841000032
:100BD000C8413333C7416666C6419A99C541CDCCF9
:100BE000C4410000C4413333C3413333C34166665B
:100BF000C2419A99C141CDCCC0410000C0413333BC
:100C0000BF413333BF416666BE419A99BD41CDCCE9
:100C1000BC410000BC413333BB413333BB4166664A
:100C2000BA419A99B941CDCCB8410000B8413333AB
:100C3000B7416666B6419A99B5419A99B541CDCC0E
:100C4000B4410000B4413333B3416666B2419A996E
:100C5000B141CDCCB0410000B0413333AF41666605
:100C6000AE419A99AD419A99AD41CDCCAC410000CD
:100C7000AC413333AB416666AA419A99A941CDCCC8
:100C8000A8410000A8413333A7416666A6419A995E
:100C9000A541CDCCA4410000A4413333A3416666F5
:100CA000A2419A99A141CDCCA0410000A04133338B
:100CB0009F4133339F4166669E419A999D41CDCCB9
:100CC0009C41CDCC9C4100009C4133339B416666E6
:100CD0009A419A999941CDCC9841CDCC9841000048
:100CE00098413333974166669641666696419A9974
:100CF0009541CDCC944100009441333393416666D5
:100D000092419A9991419A999141CDCC904100009C
:100D1000904133338F4166668E419A998D41CDCC97
:100D20008C4100008C4100008C4133338B4166665E
:100D30008A419A998941CDCC88410000884133335A
:100D40008741666686419A998541CDCC84410000F1
:100D500084413333834166668241666682419A9953
:100D60008141CDCC80410000804166667E41CDCC82
:100D70007C4133337B419A99794100007841666622
:100D80007641CDCC7441333373419A99714100005F
:100D9000704166666E41CDCC6C4133336B41333369
:100DA0006B419A99694100006841666666416666D2
:100DB0006641CDCC6441333363419A99614100006F
:100DC000604166665E4166665E41CDCC5C41333310
:100DD0005B419A9959410000584166665641CDCC15
:100DE000544133335341333353419A9951410000B5
:100DF000504166664E41CDCC4C4133334B419A99BC
:100E000049410000484166664641CDCC44413333F8
:100E100043419A9941419A99414100004041666697
:100E20003E41CDCC3C4133333B419A99394100009E
:100E3000384166663641CDCC3441333333419A99DB
:100E400031410000304166662E41CDCC2C41333318
:100E50002B419A9929410000284166662641CDCC54
:100E60002441333323419A99214100002041666691
:100E70001E4166661E41CDCC1C4133331B419A99FD
:100E80001941000018410000184166661641CDCC9A
:100E90001441333313419A991141000010416666A1
:100EA0000E4166660E41CDCC0C4133330B419A990D
:100EB00009410000084166660641CDCC0441333348
:100EC00003419A99014100000041CDCCFC40CDCCBA
:100ED000FC409A99F9406666F6403333F3400000CF
:100EE000F040CDCCEC409A99E9406666E640333359
:100EF000E3400000E040CDCCDC409A99D9406666E2
:100F0000D6403333D3400000D040CDCCCC409A996A
:100F1000C9406666C6403333C3400000C040CDCCF4
:100F2000BC409A99B9406666B6403333B340CDCCE5
:100F3000AC409A99A9406666A6403333A3400000AE
:100F4000A040CDCC9C409A999940666696406666D2
:100F500096403333934000009040CDCC8C409A991A
:100F600089406666864033338340000080409A990A
:100F700079409A99794033337340CDCC6C406666A2
:100F80006640000060409A99594033335340CDCCBD
:100F90004C4066664640000040409A9939403333E1
:100FA0003340CDCC2C4066662640000020409A9904
:100FB000194033331340CDCC0C4066660640000028
:100FC00000406666E63F9A99D93FCDCCCC3F000001
:100FD000C03F3333B33F6666A63F9A99993FCDCC65
:100FE0008C3F0000803FCDCC4C3F3333333F9A9948
:100FF000193F0000003FCDCCCC3ECDCC4C3ECDCCFB
:10100000CC3D00000000CDCCCCBDCDCC4CBE9A99DF
:1010100099BECDCCCCBE000000BF9A9919BF333326
:1010200033BFCDCC4CBF666666BF000080BFCDCC61
:101030008CBF9A9999BF6666A6BF3333B3BF0000D1
:10104000C0BFCDCCCCBF9A99D9BF6666E6BF33335B
:10105000F3BF000000C0666606C0CDCC0CC03333C1
:1010600013C09A9919C0666626C0CDCC2CC0333304
:1010700033C09A9939C0000040C0CDCC4CC0333346
:1010800053C09A9959C0000060C0666666C0333389
:1010900073C09A9979C0000080C0666686C09A992C
:1010A00089C0CDCC8CC0333393C0666696C09A9904
:1010B00099C00000A0C03333A3C06666A6C09A9949
:1010C000A9C0CDCCACC00000B0C03333B3C066669D
:1010D000B6C09A99B9C0CDCCBCC00000C0C066668D
:1010E000C6C09A99C9C0CDCCCCC00000D0C03333A3
:1010F000D3C09A99D9C0CDCCDCC00000E0C0333356
:10110000E3C06666E6C09A99E9C00000F0C03333D8
:10111000F3C09A99F9C0CDCCFCC0000000C13333B4
:1011200003C1CDCC04C1666606C19A9909C13333A7
:101130000BC1CDCC0CC1000010C1333313C1CDCCD9
:1011400014C1666616C19A9919C1CDCC1CC10000A4
:1011500020C19A9921C1333323C1CDCC24C1666605
:1011600026C19A9929C133332BC1CDCC2CC10000A3
:1011700030C19A9931C1333333C1666636C100003C
:1011800038C19A9939C1CDCC3CC166663EC10000D8
:1011900040C1333343C1666646C1000048C19A99D5
:1011A00049C1CDCC4CC1000050C1333353C1CDCC6B
:1011B00054C1666656C19A9959C1CDCC5CC1000034
:1011C00060C1333363C1666666C1000068C19A9925
:1011D00069C1CDCC6CC1000070C1333373C1CDCCBB
:1011E00074C1666676C19A9979C1CDCC7CC16666B8
:1011F0007EC1000080C19A9981C1333383C1CDCCB7
:1012000084C19A9985C1666686C1000088C19A9991
:1012100089C133338BC1CDCC8CC166668EC10000D1
:1012200090C19A9991C1333393C1CDCC94C1666674
:1012300096C1000098C19A9999C133339BC1CDCC16
:101240009CC166669EC10000A0C19A99A1C13333BA
:10125000A3C1CDCCA4C16666A6C10000A8C19A995D
:10126000A9C13333ABC10000ACC1CDCCACC10000CF
:10127000B0C19A99B1C13333B3C1CDCCB4C16666A4
:10128000B6C10000B8C19A99B9C13333BBC1666613
:10129000BEC10000C0C19A99C1C1CDCCC4C16666AF
:1012A000C6C10000C8C19A99C9C13333CBC16666B3
:1012B000CEC10000D0C19A99D1C13333D3C1CDCCB6
:1012C000D4C10000D8C19A99D9C13333DBC1666655
:1012D000DEC10000E0C13333E3C1CDCCE4C16666BA
:1012E000E6C19A99E9C1CDCCECC10000F0C19A9950
:1012F000F1C1CDCCF4C16666F6C19A99F9C1333318
:10130000FBC16666FEC1000000C29A9901C2333378
:1013100003C2666604C2000006C29A9907C233334C
:1013200009C2CDCC0AC266660CC200000EC29A99F0
:101330000FC2333311C2CDCC12C2666614C2000094
:1013400016C29A9917C29A9919C200001CC2666601
:101350001EC2000020C2000020C2000020C2000007
:1013600020C2000020C2000020C2000020C20000F5
:1013700020C2000020C2000020C2000020C20000E5
:1013800020C2000020C2000020C2000020C20000D5
:1013900020C2000020C2000020C2000020C20000C5
:1013A00020C2000020C2000020C2000020C20000B5
:1013B00020C2000020C2000020C2000020C20000A5
:1013C00020C2000020C2000020C200010101010172
:1013D00002020202020303030405050607070809C7
:1013E0000A0C0D0E0F11121416181A1C1D1E1F20A8
:1013F00021222300007041CDCCA041CDCCA041CD15
:10140000CCA0410000364233337D429A9997420086
:1014100000A9423333B542CDCCBD42CDCCC342CD81
:10142000CCB8423333B4429A99AF420000AB426623
:1014300066A642CDCCA14233339D429A9998420090
:1014400000944266668F42CDCC8A42333386429AFC
:1014500099814200007A42CDCC70429A99674266E7
:10146000665E423333554200004C42000036429AD9
:1014700099334233333142CDCC2E4266662C420042
:10148000002A429A99274233332542666624420055
:101490000024423333234266662242000022423354
:1014A000332142666620420000204233331F4266E9
:1014B000661E4200001E4233331D4266661C420017
:1014C000001C4233331B42CDCC1A4200001A429A10
:1014D000991942CDCC1842666618429A9917423340
:1014E000331742666616420000164233331542CD6A
:1014F000CC1442000014429A991342CDCC12426699
:101500006612429A991142333311426666104200C4
:1015100000104233330F42CDCC0E4200000E429AEF
:10152000990D42CDCC0C4266660C4200000C420084
:10153000000C4200000C4200000C4200000C420073
:10154000000C4200000C4200000C4200000C420063
:10155000000C4200000C4200000C4200000C420053
:10156000000C4200000C4200000C4200000C420043
:101C0000000C4200000C4200000C4266660C42666A
:101C1000660C4266660C4266660C4266660C42CDF5
:101C2000CC0C42CDCC0C42CDCC0C42CDCC0C4233B2
:101C3000330D4233330D4233330D4233330D4233D0
:101C4000330D429A990D429A990D429A990D429AF2
:101C5000990D4200000E4200000E4200000E4200AC
:101C6000000E4266660E4266660E4266660E42666A
:101C7000660E42CDCC0E42CDCC0E42CDCC0E4233C0
:101C8000330F4233330F4233330F4233330F429A11
:101C9000990F429A990F429A990F42000010420000
:101CA00000104200001042666610426666104266EE
:101CB00066104266661042CDCC1042CDCC1042CDAB
:101CC000CC10423333114233331142333311429A31
:101CD0009911429A9911429A9911420000124200B8
:101CE000001242666612426666124266661242CD73
:101CF000CC1242CDCC1242CDCC12423333134233FC
:101D00003313429A9913429A9913429A99134200B3
:101D1000001442000014426666144266661442666D
:101D2000661442CDCC1442CDCC1442333315423329
:101D3000331542333315429A9915429A9915420048
:101D4000001642000016426666164266661642CDCE
:101D5000CC1642CDCC1642CDCC164233331742338B
:101D60003317429A9917429A991742000018420075
:101D70000018426666184266661842CDCC1842CDFD
:101D8000CC184233331942333319429A9919429A83
:101D900099194200001A4266661A4266661A42CDD6
:101DA000CC1A42CDCC1A4233331B4233331B429AF6
:101DB000991B429A991B4200001C4266661C4266AF
:101DC000661C42CDCC1C42CDCC1C4233331D429A02
:101DD000991D429A991D4200001E4200001E426653
:101DE000661E42CDCC1E42CDCC1E4233331F423341
:101DF000331F429A991F4200002042000020426691
:101E0000662042CDCC2042CDCC2042333321429AB1
:101E10009921429A9921420000224266662242CDCF
:101E2000CC2242CDCC2242333323429A9923429A88
:101E30009923420000244266662442CDCC2442CD40
:101E4000CC2442333325429A992542000026420091
:101E500000264266662642CDCC2642333327429A7C
:101E60009927429A9927420000284266662842CD67
:101E7000CC2842333329429A9929429A992942001F
:101E8000002A4266662A42CDCC2A4233332B429A3C
:101E9000992B4200002C4200002C4266662C42CD59
:101EA000CC2C4233332D429A992D4200002E4266AB
:101EB000662E42CDCC2E4233332F429A992F4200C8
:101EC00000304266663042CDCC3042CDCC30423319
:101ED0003331429A9931420000324266663242CD35
:101EE000CC3242333333429A99334200003442CDEC
:101EF000CC3442333335429A99354200003642663B
:101F0000663642CDCC3642333337429A9937420057
:101F100000384266663842CDCC384233333942000D
:101F2000003A4266663A42CDCC3A4233333B429A5B
:101F3000993B4200003C4266663C4233333D429A44
:101F4000993D4200003E4266663E42CDCC3E429AFA
:101F5000993F420000404266664042CDCC40429AE2
:101F60009941420000424266664242CDCC42423331
:101F70003343429A99434200004442CDCC44423319
:101F80003345429A9945420000464266664642CD34
:101F9000CC46429A9947420000484266664842CD84
:101FA000CC48423333494200004A4266664A42CD39
:101FB000CC4A4233334B4200004C4266664C42CD21
:101FC000CC4C429A994D4200004E4266664E4233D6
:101FD000334F429A994F4200005042CDCC50423389
:101FE0003351429A99514266665242CDCC524233A5
:101FF0003353420000544266665442333355429A8A
:1020000099554266665642CDCC56429A995742003F
:1020100000584266665842333359429A995942668B
:10202000665A4233335B429A995B4266665C42CDA4
:10203000CC5C429A995D4200005E42CDCC5E423358
:10204000335F4200006042CDCC60423333614200D6
:10205000006242CDCC62423333634200006442CD21
:10206000CC64423333654200006642CDCC664233D5
:1020700033674200006842CDCC68429A99694200B9
:10208000006A42CDCC6A429A996B4266666C4233D2
:10209000336D429A996D4266666E4233336F4200E9
:1020A000007042CDCC70429A99714266667242339A
:1020B0003373429A997342666674423333754200B1
:1020C000007642CDCC76429A997742666678423362
:1020D00033794200007A42CDCC7A429A997B4266AB
:1020E000667C4233337D4200007E42CDCC7E42008E
:1020F00000804266668042CDCC8042333381429A72
:102100009981420000824266668242000083423327
:102110003383429A9983420000844266668442CDAA
:10212000CC8442333385429A9985420000864266C8
:10213000668642CDCC8642333387429A99874200E5
:1021400000884266668842CDCC8842333389429A01
:1021500099894200008A4266668A42CDCC8A42331F
:10216000338B429A998B4200008C4266668C42CD3A
:10217000CC8C4233338D429A998D4200008E426658
:10218000668E42CDCC8E4233338F429A998F420075
:1021900000904266669042CDCC9042333391429A91
:1021A0009991420000924266669242CDCC924233AF
:1021B0003393429A9993420000944266669442CDCA
:1021C000CC9442333395429A9995420000964266E8
:1021D000669642CDCC9642333397429A9997420005
:1021E00000984266669842CDCC9842333399429A21
:1021F00099994200009A4266669A42CDCC9A42333F
:10220000339B429A999B4200009C4266669C42CD59
:10221000CC9C4233339D429A999D4200009E426677
:10222000669E42CDCC9E4233339F429A999F420094
:1022300000A0429A99A0423333A142CDCCA142667C
:1022400066A2420000A3429A99A3423333A442CD2E
:10225000CCA4426666A5420000A6429A99A64233E3
:1022600033A742CDCCA7426666A8420000A9429A95
:1022700099A9423333AA42CDCCAA426666AB42004A
:1022800000AC429A99AC423333AD42CDCCAD4266FC
:1022900066AE420000AF429A99AF423333B042CDAE
:1022A000CCB0426666B1420000B2429A99B2423363
:1022B00033B342CDCCB3426666B4420000B5429A15
:1022C00099B5423333B642CDCCB6426666B74200CA
:1022D00000B8429A99B8423333B942CDCCB942667C
:1022E00066BA420000BB429A99BB423333BC42CD2E
:1022F000CCBC426666BD420000BE429A99BE4233E3
:1023000033BF42CDCCBF426666C0420000C14266C8
:1023100066C142CDCCC1423333C2429A99C2420017
:1023200000C3426666C342CDCCC3423333C4429A33
:1023300099C4420000C5426666C542CDCCC5423351
:1023400033C6426666C6429A99C642CDCCC64200A2
:1023500000C7423333C7426666C7429A99C7429A5A
:1023600099C7429A99C7429A99C7429A99C7429A7D
:1023700099C7429A99C7429A99C7429A99C7429A6D
:1023800099C7429A99C7429A99C7429A99C7429A5D
:1023900099C7429A99C742000020419A9921419ACF
:1023A0009921419A992141000014429A995F423340
:1023B000338A429A999C429A99A9429A99B2423395
:1023C00033AD4266669F429A9992423333904233CC
:1023D0003387429A997D429A996D42CDCC5E4200F4
:1023E000005842000050420000484233333F42331D
:1023F00033374233332F429A992742CDCC2042665D
:10240000661E4233331B429A9917423333134233C9
:10241000330F42CDCC0A42CDCC0642666602429AC8
:1024200099FD419A99F5416666EE416666EE419ADC
:1024300099E5416666DE410000D8413333D7419AC1
:1024400099D5416666D241CDCCD4416666CA413346
:1024500033C7413333C3410000C041CDCCBC419AA6
:1024600099B9416666B6413333B3413333AF41CD99
:10247000CCAC416666AA410000A8410000A84133E7
:1024800033A7413333A7413333A7413333A74166E1
:1024900066A6416666A6416666A6419A99A5419AD6
:1024A00099A5419A99A541CDCCA441CDCCA441CDCB
:1024B000CCA4410000A4410000A4410000A4413389
:1024C00033A3413333A3413333A3416666A241664C
:1024D00066A2416666A2419A99A1419A99A1419A40
:1024E00099A141CDCCA041CDCCA041CDCCA0410003
:1024F00000A0410000A0410000A0410000A0410058
:1025000000A0410000A0410000A0410000A0410047
:1025100000A0410000A0410000A0410000A0410037
:1025200000A0410000A0410000A0410000A0410027
:102AF00000A0410000A0410000A0410000A041CD85
:102B0000CCA041CDCCA041CDCCA0419A99A1419A75
:102B100099A1419A99A1419A99A1416666A24166FB
:102B200066A2416666A2413333A3413333A34133E6
:102B300033A3410000A4410000A4410000A441CD02
:102B4000CCA441CDCCA441CDCCA4419A99A5419A25
:102B500099A5419A99A5416666A6416666A6416611
:102B600066A6413333A7413333A7413333A741002E
:102B700000A8410000A8410000A841CDCCA841CD4B
:102B8000CCA841CDCCA8419A99A9419A99A9419A3A
:102B900099A9416666AA416666AA416666AA41335A
:102BA00033AB413333AB413333AB410000AC410075
:102BB00000AC410000AC41CDCCAC41CDCCAC41CD62
:102BC000CCAC419A99AD419A99AD419A99AD416683
:102BD00066AE416666AE416666AE413333AF4133A1
:102BE00033AF413333AF410000B0410000B041008A
:102BF00000B041CDCCB041CDCCB041CDCCB0419AAC
:102C000099B1419A99B1419A99B1416666B24166CA
:102C100066B2416666B2413333B3413333B34133B5
:102C200033B3413333B3410000B4410000B4410039
:102C300000B441CDCCB441CDCCB441CDCCB4419A5B
:102C400099B5419A99B5419A99B5416666B641667A
:102C500066B6416666B6413333B7413333B7413365
:102C600033B7410000B8410000B8410000B841CD81
:102C7000CCB841CDCCB841CDCCB8419A99B9419AA4
:102C800099B9419A99B9416666BA416666BA416690
:102C900066BA413333BB413333BB413333BB4100AD
:102CA00000BC410000BC410000BC41CDCCBC41CDCA
:102CB000CCBC41CDCCBC419A99BD419A99BD419AB9
:102CC00099BD416666BE416666BE416666BE4133D9
:102CD00033BF413333BF413333BF410000C04100F4
:102CE00000C0410000C041CDCCC041CDCCC041CDE1
:102CF000CCC0419A99C1419A99C1419A99C1416602
:102D000066C2416666C2416666C2413333C341331F
:102D100033C3413333C3410000C4410000C4410008
:102D200000C441CDCCC441CDCCC441CDCCC441CDF7
:102D3000CCC4419A99C5419A99C5419A99C54166B1
:102D400066C6416666C6416666C6413333C74133CF
:102D500033C7413333C7410000C8410000C84100B8
:102D600000C841CDCCC841CDCCC841CDCCC8419ADA
:102D700099C9419A99C9419A99C9416666CA4166F9
:102D800066CA416666CA413333CB413333CB4133E4
:102D900033CB410000CC410000CC410000CC41CD00
:102DA000CCCC41CDCCCC41CDCCCC419A99CD419A23
:102DB00099CD419A99CD416666CE416666CE41660F
:102DC00066CE413333CF413333CF413333CF41002C
:102DD00000D0410000D0410000D041CDCCD041CD49
:102DE000CCD0419A99D1419A99D1419A99D14166D1
:102DF00066D2416666D2413333D3413333D3413354
:102E000033D3410000D4410000D441CDCCD441CDD6
:102E1000CCD441CDCCD4419A99D5419A99D541662B
:102E200066D6416666D6416666D6413333D74133AE
:102E300033D7410000D8410000D841CDCCD841CD96
:102E4000CCD8419A99D9419A99D9416666DA4166B6
:102E500066DA416666DA413333DB413333DB410006
:102E600000DC410000DC41CDCCDC41CDCCDC419A22
:102E700099DD419A99DD416666DE413333DF4133A6
:102E800033DF410000E0410000E0416666DE41338F
:102E900033DF413333DF410000E0410000E041CD4A
:102EA000CCE041CDCCE0419A99E1419A99E141666B
:102EB00066E2416666E2413333E3410000E44100EB
:102EC00000E441CDCCE441CDCCE4419A99E54166A2
:102ED00066E6416666E6413333E7410000E84100BB
:102EE00000E841CDCCE841CDCCE8419A99E9416672
:102EF00066EA416666EA413333EB410000EC41008B
:102F000000EC41CDCCEC419A99ED416666EE41660C
:102F100066EE413333EF410000F041CDCCF041CDBE
:102F2000CCF0419A99F1416666F2413333F3413373
:102F300033F3410000F441CDCCF4419A99F5416658
:102F400066F6416666F6413333F7410000F841CD3D
:102F5000CCF8419A99F9416666FA416666FA4133BE
:102F600033FB410000FC41CDCCFC419A99FD416608
:102F700066FE413333FF410000004266660042CDE9
:102F8000CC0042333301429A99014200000242666A
:102F9000660242CDCC0242333303429A9903420087
:102FA00000044266660442CDCC0442333305429AA3
:102FB0009905420000064266660642333307429A8C
:102FC0009907420000084266660842CDCC084233A9
:102FD00033094200000A4266660A42CDCC0A4233F7
:102FE000330B4200000C4266660C42CDCC0C429A78
:102FF000990D4200000E4266660E4233330F429A2C
:10300000990F4200001042CDCC10423333114200E0
:1030100000124266661242CDCC12429A99134200C7
:10302000001442CDCC14423333154200001642CD79
:10303000CC164233331742000018426666184233FA
:1030400033194200001A4266661A4233331B4200AB
:10305000001C4266661C4233331D4200001E42CDF6
:10306000CC1E4233331F4200002042CDCC20429A76
:1030700099214266662242CDCC22429A9923426629
:103080006624423333254200002642CDCC26429AA4
:10309000992742666628423333294200002A42CDEE
:1030A000CC2A4200002C42CDCC2C429A992D42666B
:1030B000662E4233332F4200003042333331420018
:1030C000003242CDCC324200003442CDCC34429A60
:1030D000993542CDCC36429A993742666638429A43
:1030E00099394266663A429A993B4266663C429AF0
:1030F000993D42CDCC3E429A993F42CDCC40429A36
:10310000994142CDCC424200004442333345420013
:1031100000464233334742666648429A994942CD57
:10312000CC4A4200004C4233334D4266664E429ACE
:10313000994F42CDCC504200005242333353426645
:103140006654429A995542CDCC5642000058429A54
:10315000995942CDCC5A4200005C429A995D42CDC9
:10316000CC5E42000060429A996142CDCC624266D8
:103170006664429A996542333367426666684200E4
:10318000006A429A996B42CDCC6C4266666E4233BD
:10319000336F426666704233337142666672423301
:1031A000337342666674429A99754233337742CDDF
:1031B000CC7842CDCC7A4266667C4266667E42001E
:1031C00000804200008142CDCC8142CDCC82429A27
:1031D0009983429A998442666685423333864233A4
:1031E0003387420000884200008942CDCC8942CD1D
:1031F000CC8A429A998B429A998C4266668D426635
:10320000668E4233338F420000904200009142CDDF
:10321000CC9142CDCC92429A9993429A999442662B
:10322000669542666696423333974233339842003E
:1032300000994200009A42CDCC9A429A999B429AB8
:10324000999C4266669D4266669E4233339F423336
:1032500033A0420000A1420000A242CDCCA242CD48
:10326000CCA3429A99A4426666A5426666A64233FA
:1032700033A7423333A8420000A9420000AA42CD3E
:10328000CCAA42CDCCAB429A99AC429A99AD426657
:1032900066AE423333AF426666B0426666B142669E
:1032A00066B2426666B3429A99B4429A99B5429A16
:1032B00099B6429A99B742CDCCB842CDCCB942CD5D
:1032C000CCBA423333BC429A99BD420000BF426639
:1032D00066BF42CDCCBF42CDCCC0426666C1420083
:1032E00000C2429A99C2426666C3423333C4420066
:1032F00000C5426666C5429A99C542CDCCC542001A
:1033000000C6426666C6429A99C642CDCCC6429A6B
:1033100099C7429A99C7429A99C7429A99C7429ABD
:1033200099C7429A99C7429A99C7429A99C7429AAD
:1033300099C7429A99C7429A99C74234120000939A
:10334000DC000000000000010001006009280A26DE
:10335000006009280A32000700960008000A0032BF
:10336000000A001E006400A4062C01FA000000B050
:103370000408003F0001001800690005003C000936
:1033800000640055000000010000006C07C201311C
:1033900004C506AA09B10C450F2913AD01EE03427D
:1033A00008F20AFA0C8C0FFC121E020D053407BF3E
:1033B0000AEF0C46100D135A00D7005B01EF018A8B
:1033C000020F03D6035600C900A701310299021D5E
:1033D00003CD036D0003017101270297024203D060
:1033E000030A00640088138813881300000000009B
:1033F00000E20470FE000000000000000000000079
:1034000000000000000000000000000000000000BC
:1034100000000000000000000000000000000000AC
:10342000000000000000000000000000000000009C
:10343000000000000000000000000000000000008C
:10344000000000000000000000000000000000007C
:10345000000000000000000000000000000000006C
:10346000000000000000000000000000000000005C
:10347000000000000000000000000000000000004C
:10348000000000000000000000000000000000003C
:10349000000000000000000000000000000000002C
:1034A000000000000000000000000000000000001C
:1034B000000000000000000000000000000000000C
:1034C00000000000000000000000000000000000FC
:1034D00000000000000000000000000000000000EC
:1034E00000000000000000000000002B00C8002CBD
:1034F000010300020005000300040002008403052C
:1035000000050005008200960009000A000500047D
:10351000001A0046005000AC0D0000000000000141
:103520008001800000000000003408FC0814003412
:1035300008FC0814000300C800050005000500058C
:10354000000A003200E803640032000180E803054D
:10355000001E0000001400320001000100010032D2
:1035600000320000000000000078050000000000AC
:10357000000000000000000000000000000000004B
:10358000000000000000000000000000000000003B
:10359000000000000000000000000000000000002B
:1035A000000000000000000000000000000000001B
:1035B0000000000000000000000000000000000506
:1035C000005000000000000000000000000000703B
:1035D000FE70FE000000000000000000000000007F
:1035E00000000000000000000000000000000000DB
:1035F00000000000000000000000000000000000CB
:1036000000000000000000000000000000000000BA
:1036100000000000000000000000000000000000AA
:10362000000000000000000000000000000000009A
:10363000000000000000000000000000000000008A
:10364000000000000000000000000000000000007A
:10365000000000000000000000000000000000006A
:10366000000000000000000000000000000000005A
:10367000000000000000000000000000000000004A
:10368000000000000000000000000000000000003A
:10369000000000000000000000000000000000002A
:1036A000000000000000000000000000000000001A
:1036B000000000000000000000000000000000000A
:1036C0000000000000000000000A000A00320000B4
:1036D00000000000000000000000000000030003E4
:1036E00000000032000A000500050005000000147B
:1036F0000032001E00D007000000000000FF7FFF26
:103700007F040002000100280AF00AC800280AF01D
:103710000AC8000F00580214000F0064006400C8BB
:1037200000F401C012E803E803FF7F88131400C807
:10373000000A00C800C8006400D0026400FA002C2F
:103740000101000100B603980888138813881388C4
:103750001388138813881388138813881388138891
:103760001388138813881388138813881388138881
:10377000138813E803E803E803E803E803E803E831
:1037800003E803E803E803E803E803E803E803E8E1
:1037900003E803E803E803E803E803E8031400C8C8
:1037A00000881388138813FF7FFF7FFF7FE204E206
:1037B00004FF7FFF7FFF7FFF7FFF7FFF7FFF7FFF94
:1037C0007FFF7FFF7FFF7FFF7FFF7FFF7FFF7FFF09
:1037D0007FFF7FFF7FFF7FFF7FFF7FFF7FFF7FFFF9
:1037E0007FFF7FFF7FFF7FFF7FFF7FFF7FFF7FFFE9
:1037F0007FFF7FFF7FFF7FFF7FFF7FFF7FFF7FFFD9
:103800007FFF7FFF7FFF7FFF7FFF7FFF7FFF7FFFC8
:103810007FFF7FFF7FFF7FFF7FFF7FFF7FFF7FFFB8
:103820007FFF7FFF7FFF7FFF7FFF7FFF7FFF7FFFA8
:103830007FFF7FFF7FFF7FFF7FFF7FFF7FFF7FFF98
:103840007FFF7FFF7FFF7FFF7FFF7FFF7FFF7FFF88
:103850007FFF7FFF7FFF7FFF7FFF7FFF7FFF7FFF78
:103860007FFF7FFF7FFF7FFF7FFF7FFF7FFF7FFF68
:103870007FFF7FFF7FFF7FFF7FFF7FFF7FFF7FFF58
:103880007FFF7FFF7FFF7FFF7FFF7FFF7FFF7FFF48
:103890007FFF7FFF7FFF7FFF7FFF7FFF7FFF7FFF38
:1038A0007FFF7FFF7F020064002C01F4010A000A01
:1038B000000A000A000A000A00E8031E001E000AAF
:1038C00000C8002C0114000F000F000A00C800C837
:1038D00000640088130011241FBECFEFD1E2DEBFC9
:1038E000CDBF84E590E0FC0180818093B21D84E52A
:1038F00090E0FC0110820FB6F894A89580916000CA
:10390000886180936000109260000FBE000015E097
:10391000A0E0B2E0E0E9FBE301E00BBF02C00790EA
:103920000D92A237B107D9F72DE1A2E7B5E001C0AA
:103930001D92A23BB207E1F70E947C4C0C94C69DFD
:103940000C940000CF93DF93CDB7DEB78CE790E007
:1039500023E4FC0120838AE790E02FE8FC01208328
:103960008BE790E0FC0110828EE790E02FEFFC01E6
:10397000208310929C0510929B0510927B0510925B
:103980007A058091841C9091851C092E000CAA0B4D
:10399000BB0BBC01CD010E94C596DC01CB0120E030
:1039A00030E040E251E4BC01CD010E941B96DC01F5
:1039B000CB0180938F0590939005A0939105B093D0
:1039C00092058091861C9091871C092E000CAA0BF1
:1039D000BB0BBC01CD010E94C596DC01CB0120E0F0
:1039E00030E040E251E4BC01CD010E941B96DC01B5
:1039F000CB018093970590939805A0939905B09378
:103A00009A050000DF91CF9108951F920F920090C8
:103A10005F000F92112400905B000F922F933F9351
:103A20004F935F936F937F938F939F93AF93BF93C6
:103A3000EF93FF93CF93DF93CDB7DEB78CE790E0A2
:103A4000DC018C91882F90E08234910509F447C005
:103A5000833491053CF48034910589F081349105DB
:103A600031F118C28434910509F44BC184349105B5
:103A70000CF449C08534910509F49AC10BC288E75A
:103A800090E0FC0180819181909389058093880565
:103A90008CE790E021E4DC012C938AE790E02AE7B0
:103AA00030E0F90120812064DC012C93F3C188E728
:103AB00090E0FC018081918190938B0580938A0531
:103AC0008CE790E022E4DC012C938AE790E02AE77F
:103AD00030E0F90120812064DC012C93DBC180916E
:103AE000BD128F5F8093BD1288E790E0FC0180815A
:103AF000918190938D0580938C058CE790E023E471
:103B0000DC012C93C7C18091BD12882F90E0AC01DD
:103B10004F7155278091D612882F90E09C0121701B
:103B200033278091CC069091CD0668E770E0DB01E9
:103B3000ED91FC91AEEEB2E02A9FB0012B9F700D8B
:103B40003A9F700D1124680F791F660F771F665218
:103B5000794FDB01ED93FC93EEEEF2E02E9FB00186
:103B60002F9F700D3E9F700D1124860F971F880F99
:103B7000991F8652994FFC0120813181CA01880F1B
:103B8000991F835E9C4EDC012D933C9380911C1306
:103B9000813079F48CE790E024E4FC0120838AE70B
:103BA00090E02AE730E0D9012C912064FC012083C9
:103BB00070C18CE790E020E4DC012C938AE790E070
:103BC0002AE730E0F90120812064DC012C93809108
:103BD000CC069091CD068A3F910550F48091CC0699
:103BE0009091CD0601969093CD068093CC0604C0AB
:103BF0001092CD061092CC064091CC065091CD0685
:103C00009A01ADECBCEC0E94E09B96958795969549
:103C1000879596958795880F991F9C01220F331FD2
:103C2000220F331F820F931FFA01E81BF90BCF01FC
:103C3000892B09F02EC18091D612882F90E0BC010B
:103C4000617077278091BA1A9091BB1A24E830E00E
:103C5000D9012D913C91E9E1E69FA001E79F500D2C
:103C60001124840F951F880F991F8851954EFC01D0
:103C70003183208384E890E0DC0111961C921E922F
:103C80008091BD12882F90E08F7199272091D612D4
:103C9000222F30E0B901617077272091BA1A309154
:103CA000BB1AE9E1E69FA001E79F500D1124240F04
:103CB000351F220F331F2851354EF90120813181E4
:103CC000880F991F89529D4EDC012D933C93809162
:103CD000BA1A9091BB1A499750F48091BA1A9091F0
:103CE000BB1A01969093BB1A8093BA1AD2C0109255
:103CF000BB1A1092BA1A8091D6128F5F8093D61297
:103D0000C8C08091BD12882F90E0AC014F7155273B
:103D10008091D612882F90E09C01217033278091EA
:103D2000CC069091CD0668E770E0DB01ED91FC9147
:103D3000AEEEB2E02A9FB0012B9F700D3A9F700D3E
:103D40001124680F791F66507F4F660F771F6652E8
:103D5000794FDB01ED93FC93EEEEF2E02E9FB00184
:103D60002F9F700D3E9F700D1124860F971F865058
:103D70009F4F880F991F8652994FFC0120813181F6
:103D8000CA018096880F991F835E9C4EDC012D939B
:103D90003C938CE790E025E4FC0120838AE790E0E7
:103DA0002AE730E0D9012C912064FC01208372C005
:103DB0008091BD12882F90E0AC014F715527809102
:103DC000D612882F90E09C01217033278091CC0679
:103DD0009091CD0668E770E0DB01ED91FC91AEEECD
:103DE000B2E02A9FB0012B9F700D3A9F700D1124F5
:103DF000680F791F6C507E4F660F771F6652794FA0
:103E0000DB01ED93FC93EEEEF2E02E9FB0012F9FCD
:103E1000700D3E9F700D1124860F971F8C509E4F82
:103E2000880F991F8652994FFC0120813181CA0168
:103E3000805C9F4F880F991F835E9C4EDC012D9301
:103E40003C938091CC069091CD0601969093CD063F
:103E50008093CC068091CC069091CD068A3F910547
:103E600049F41092CD061092CC068091D6128F5F45
:103E70008093D6128CE790E021E4FC0120838AE74E
:103E800090E02AE730E0D9012C912064FC012083E6
:103E900001C000000000DF91CF91FF91EF91BF9131
:103EA000AF919F918F917F916F915F914F913F91D2
:103EB0002F910F9000925B000F9000925F000F9087
:103EC0001F901895CF92DF92EF92FF92CF93DF93DE
:103ED000CDB7DEB78091851790918617892B09F4AD
:103EE000F3C0109286171092851780917C059091EF
:103EF0007D05A0917E05B0917F052CEE31E548E768
:103F00005FE3BC01CD010E947A97DC01CB016C011B
:103F10007D018091880590918905CC01A0E0B0E0F9
:103F2000BC01CD010E94C396DC01CB012FE832EC2D
:103F300045EF5CE3BC01CD010E947A97DC01CB0127
:103F40009C01AD01C701B6010E94AA95DC01CB011D
:103F500080937C0590937D05A0937E05B0937F05AB
:103F60008091800590918105A0918205B091830593
:103F70002CEE31E548E75FE3BC01CD010E947A9762
:103F8000DC01CB016C017D0180918A0590918B054C
:103F9000CC01A0E0B0E0BC01CD010E94C396DC01E1
:103FA000CB012FE832EC45EF5CE3BC01CD010E9470
:103FB0007A97DC01CB019C01AD01C701B6010E94DB
:103FC000AA95DC01CB018093800590938105A09395
:103FD0008205B09383058091840590918505A09119
:103FE0008605B09187052CEE31E548E75FE3BC011B
:103FF000CD010E947A97DC01CB016C017D0180919B
:104000008C0590918D05CC01A0E0B0E0BC01CD0104
:104010000E94C396DC01CB012FE832EC45EF5CE354
:10402000BC01CD010E947A97DC01CB019C01AD015E
:10403000C701B6010E94AA95DC01CB0180938405DB
:1040400090938505A0938605B093870580917C05A4
:1040500090917D05A0917E05B0917F0526E535ED17
:1040600049EB5EE3BC01CD010E947A97DC01CB01F4
:104070008093760590937705A0937805B0937905A2
:104080008091800590918105A0918205B091830572
:1040900028E738E744E45DE3BC01CD010E947A974C
:1040A000DC01CB0120E030E040E85FE3BC01CD0162
:1040B0000E94AA95DC01CB01809372059093730551
:1040C000A0937405B09375050000DF91CF91FF9028
:1040D000EF90DF90CF900895CF93DF9300D000D082
:1040E00000D0CDB7DEB780918F1790919017892BB4
:1040F00009F43EC11092901710928F178091840599
:1041000090918505A0918605B0918705BC01CD01F0
:104110000E949496DC01CB01880F991F880F991F8C
:1041200086539C4F9A83898389819A819C01F901E6
:1041300085919591A591B4919F018B839C83AD83CB
:10414000BE833A8329838B819C81AD81BE8180931C
:10415000930590939405A0939505B093960580914F
:10416000930590919405A0919505B09196052091A5
:104170008F05309190054091910550919205BC01B9
:10418000CD010E94169688230CF042C080919B05B9
:1041900090919C05059750F480919B0590919C050A
:1041A000019690939C0580939B0536C08091930562
:1041B00090919405A0919505B091960580938F05F7
:1041C00090939005A0939105B093920580918F05EF
:1041D00090919005A0919105B091920520E030E07A
:1041E00040E251E4BC01CD010E947A97DC01CB0191
:1041F000BC01CD010E948D96DC01CB01BC018BE599
:1042000090E00E94D38710929C0510929B0504C0F9
:1042100010929C0510929B058091930590919405B6
:10422000A0919505B091960520919705309198053C
:104230004091990550919A05BC01CD010E94759756
:1042400018160CF042C080917A0590917B05059775
:1042500050F480917A0590917B05019690937B05AF
:1042600080937A0536C08091930590919405A09132
:104270009505B09196058093970590939805A09326
:104280009905B0939A058091970590919805A09112
:104290009905B0919A0520E030E040E251E4BC017C
:1042A000CD010E947A97DC01CB01BC01CD010E94B7
:1042B0008D96DC01CB01BC018CE590E00E94D38798
:1042C00010927B0510927A0504C010927B05109223
:1042D0007A058091930590919405A0919505B091F0
:1042E000960520E030E040E552E4BC01CD010E949B
:1042F000A995DC01CB0120E030E0A901BC01CD0192
:104300000E94169688231CF410928E0531C080916D
:10431000930590919405A0919505B091960520E0A4
:1043200030E040E552E4BC01CD010E94A995DC01DA
:10433000CB0120E030E040E252E4BC01CD010E941C
:104340007597181624F488E280938E0511C0809129
:10435000930590919405A0919505B0919605BC01A7
:10436000CD010E949496DC01CB01845380938E058D
:10437000000026960FB6F894DEBF0FBECDBFDF91CA
:10438000CF910895CF93DF93CDB7DEB78EE290E063
:104390002EE230E0F90120812460FC0120838EE2CE
:1043A00090E02EE230E0F90120812860FC012083BA
:1043B00084E390E024E330E0F90120812F7EFC01CA
:1043C000208385E090E00E947A7980EA9FE00E9455
:1043D000F7220000DF91CF910895CF93DF93CDB7FF
:1043E000DEB78EE290E02EE230E0F9012081286015
:1043F000FC0120838AE00E94A1798EE290E02EE207
:1044000030E0F90120812460FC0120838AE00E94D1
:10441000A1798EE290E02EE230E0F9012081277F41
:10442000FC0120838AE00E94A1798EE290E02EE2D6
:1044300030E0F90120812B7FFC0120838AE00E947B
:10444000A1790000DF91CF910895CF93DF93CDB78D
:10445000DEB78EE290E02EE230E0F9012081277F86
:10446000FC0120838AE00E94A1798EE290E02EE296
:1044700030E0F90120812460FC0120838AE00E9461
:10448000A1798EE290E02EE230E0F90120812860EF
:10449000FC0120838AE00E94A1790000DF91CF9186
:1044A0000895CF93DF931F92CDB7DEB78EE290E0F1
:1044B0002EE230E0F90120812460FC0120838AE0B3
:1044C0000E94A1798CE290E0FC018081869586951E
:1044D0008695817089838EE290E02EE230E0F901CA
:1044E00020812B7FFC0120838AE00E94A1798981B1
:1044F0000F90DF91CF910895CF93DF9300D01F925B
:10450000CDB7DEB78B831A82198236C08B818823A0
:1045100054F48EE290E02EE230E0F9012081286030
:10452000FC01208309C08EE290E02EE230E0F90128
:104530002081277FFC0120838B81880F8B838EE273
:1045400090E02EE230E0F90120812460FC0120831C
:104550008AE00E94A1798EE290E02EE230E0F9013B
:1045600020812B7FFC0120838AE00E94A179898130
:104570009A8101969A83898389819A81089730F27A
:104580000E9451220F900F900F90DF91CF910895CC
:10459000CF93DF9300D01F92CDB7DEB79B838A8382
:1045A00019820E94ED2188E90E947C22882319F05B
:1045B0008981816089838A819B81892F99270E94C3
:1045C0007C22882319F08981826089838A810E94F4
:1045D0007C22882319F48981846089830E942522A2
:1045E00089810F900F900F90DF91CF910895CF9315
:1045F000DF9300D0CDB7DEB79A83898389819A8112
:10460000CC01A0E0B0E0BC01CD010E94C396DC016A
:10461000CB012DEB37E346E855E3BC01CD010E9409
:104620007A97DC01CB0120E030E048EC52E4BC0199
:10463000CD010E941B96DC01CB0120E030E44CE967
:1046400056E4BC01CD010E947A97DC01CB0120E049
:1046500030E040EA5AE3BC01CD010E941B96DC0128
:10466000CB01BC01CD010E949496DC01CB019F706F
:104670000E94C8220F900F90DF91CF910895CF93A1
:10468000DF93CDB7DEB781E290E028E3FC01208321
:1046900082E290E0FC01108284E290E020E3FC01E1
:1046A000208385E290E022E8FC01208387E290E00D
:1046B000FC01108288E290E02FEFFC0120838AE267
:1046C00090E028EBFC0120838BE290E02CE0FC01E1
:1046D00020838DE290E02EECFC0120838EE290E0BE
:1046E0002FE4FC01208380E390E0FC01108281E351
:1046F00090E0FC01108283E390E028E1FC0120833C
:1047000084E390E020E1FC0120830000DF91CF9161
:104710000895CF93DF93CDB7DEB78091CB12813070
:1047200051F485E290E025E230E0F90120812F7E0E
:10473000FC01208309C085E290E025E230E0F90128
:1047400020812061FC0120830000DF91CF9108953A
:10475000CF93DF93CDB7DEB78091CB12813051F488
:1047600085E290E025E230E0F90120812061FC0142
:10477000208309C085E290E025E230E0F901208144
:104780002F7EFC0120830000DF91CF910895CF930D
:10479000DF93CDB7DEB78091D412813051F485E23A
:1047A00090E025E230E0F90120812F7DFC0120839B
:1047B00009C085E290E025E230E0F9012081206225
:1047C000FC0120830000DF91CF910895CF93DF9308
:1047D000CDB7DEB78091D412813051F485E290E0FC
:1047E00025E230E0F90120812062FC01208309C02C
:1047F00085E290E025E230E0F90120812F7DFC0187
:1048000020830000DF91CF910895CF93DF93CDB740
:10481000DEB76C970FB6F894DEBF0FBECDBF109217
:10482000CD061092CC0610925606109255061092A4
:10483000CB061092CA0680911C13882309F069C028
:104840008091DE1B9091DF1B092E000CAA0BBB0B85
:10485000BC01CD010E94C596DC01CB012FE632E1FF
:1048600043E85AE3BC01CD010E947A97DC01CB01F9
:1048700020E030E040EA5BE3BC01CD010E941B96E2
:10488000DC01CB01BC01CD010E949496DC01CB017F
:104890009093D9068093D8068091E01B9091E11BFC
:1048A000092E000CAA0BBB0BBC01CD010E94C596C2
:1048B000DC01CB012FE632E143E85AE3BC01CD0134
:1048C0000E947A97DC01CB0120E030E040EA5BE314
:1048D000BC01CD010E941B96DC01CB01BC01CD01C6
:1048E0000E949496DC01CB019093B2128093B11296
:1048F0008091E21B9091E31B90939412809393120A
:1049000080917E1D90917F1D909352068093510659
:1049100060C08091E41B9091E51B092E000CAA0B4E
:10492000BB0BBC01CD010E94C596DC01CB012FE67B
:1049300032E143E85AE3BC01CD010E947A97DC01E1
:10494000CB0120E030E040EA5BE3BC01CD010E94F6
:104950001B96DC01CB01BC01CD010E949496DC01C9
:10496000CB019093D9068093D8068091E61B909155
:10497000E71B092E000CAA0BBB0BBC01CD010E944A
:10498000C596DC01CB012FE632E143E85AE3BC01D6
:10499000CD010E947A97DC01CB0120E030E040EAB3
:1049A0005BE3BC01CD010E941B96DC01CB01BC0185
:1049B000CD010E949496DC01CB019093B2128093BA
:1049C000B1128091E81B9091E91B9093941280930F
:1049D00093128091EA1B9091EB1B9093BD068093FC
:1049E000BC068091EC1B9091ED1B90939C128093E0
:1049F0009B128091EE1B9091EF1B092E000CAA0BCD
:104A0000BB0BBC01CD010E94C596DC01CB0120E0AF
:104A100030E44CE156E4BC01CD010E941B96DC0160
:104A2000CB018093C6069093C706A093C806B093A7
:104A3000C9068FEF809357068FEF809358068FEF4C
:104A4000809359068091F01B9091F11B8093B706DB
:104A50008091F21B9091F31B092E000CAA0BBB0B4B
:104A6000BC01CD010E94C596DC01CB012FE632E1ED
:104A700043E85AE3BC01CD010E947A97DC01CB01E7
:104A80008093A9129093AA12A093AB12B093AC1288
:104A90008091F41B9091F51B9093A01280939F122C
:104AA0008091F61B9091F71B90935B0680935A06BA
:104AB0008091F81B9091F91B909398128093971214
:104AC0008091A81D9091A91D90935D0680935C062E
:104AD0008091801D9091811D909354068093530680
:104AE0008091821D9091831D9093C1068093C00692
:104AF0008091841D9091851D9093AE128093AD128C
:104B00008091861D9091871D90939A12809399129F
:104B10008091881D9091891D909396128093951293
:104B200080918A1D90918B1D9093A8128093A7125B
:104B300080918C1D90918D1D90939E1280939D125B
:104B400080918E1D90918F1D9093FA058093F905A9
:104B50008091901D9091911D9093B0128093AF120F
:104B60008091921D9091931D092E000CAA0BBB0BF6
:104B7000BC01CD010E94C596DC01CB0120E030E0F4
:104B800048EC52E4BC01CD010E941B96DC01CB0134
:104B90008093CE069093CF06A093D006B093D10613
:104BA0008091941D9091951D092E000CAA0BBB0BB2
:104BB000BC01CD010E94C596DC01CB0120E030E0B4
:104BC00048EC52E4BC01CD010E941B96DC01CB01F4
:104BD0008093B8069093B906A093BA06B093BB062B
:104BE0008091961D9091971D9093F8058093F705FD
:104BF0008091FA1B9091FB1B092E000CAA0BBB0B9A
:104C0000BC01CD010E94C596DC01CB012FE632E14B
:104C100043E85AE3BC01CD010E947A97DC01CB0145
:104C20008093C2069093C306A093C406B093C506B2
:104C30008091FC1B9091FD1B092E000CAA0BBB0B55
:104C4000BC01CD010E94C596DC01CB012FE632E10B
:104C500043E85AE3BC01CD010E947A97DC01CB0105
:104C60008093B3129093B412A093B512B093B6127E
:104C70008091FE1B9091FF1B9093500680934F06EE
:104C80008091001C9091011C892F9927809392128A
:104C90008091001C9091011C8093B2068091761C3B
:104CA0009091771C9093BF068093BE068091201C44
:104CB0009091211C092E000CAA0BBB0BBC01CD014D
:104CC0000E94C596DC01CB012FE632E143E85AE3AE
:104CD000BC01CD010E947A97DC01CB0180935E0676
:104CE00090935F06A0936006B09361068091221CAA
:104CF0009091231C092E000CAA0BBB0BBC01CD010B
:104D00000E94C596DC01CB012FE632E143E85AE36D
:104D1000BC01CD010E947A97DC01CB018093620631
:104D200090936306A0936406B09365068091241C5B
:104D30009091251C092E000CAA0BBB0BBC01CD01C8
:104D40000E94C596DC01CB012FE632E143E85AE32D
:104D5000BC01CD010E947A97DC01CB0180936606ED
:104D600090936706A0936806B09369068091261C0D
:104D70009091271C092E000CAA0BBB0BBC01CD0186
:104D80000E94C596DC01CB012FE632E143E85AE3ED
:104D9000BC01CD010E947A97DC01CB0180936A06A9
:104DA00090936B06A0936C06B0936D068091281CBF
:104DB0009091291C092E000CAA0BBB0BBC01CD0144
:104DC0000E94C596DC01CB012FE632E143E85AE3AD
:104DD000BC01CD010E947A97DC01CB0180936E0665
:104DE00090936F06A0937006B093710680912A1C71
:104DF00090912B1C092E000CAA0BBB0BBC01CD0102
:104E00000E94C596DC01CB012FE632E143E85AE36C
:104E1000BC01CD010E947A97DC01CB018093720620
:104E200090937306A0937406B093750680912C1C22
:104E300090912D1C092E000CAA0BBB0BBC01CD01BF
:104E40000E94C596DC01CB012FE632E143E85AE32C
:104E5000BC01CD010E947A97DC01CB0180937606DC
:104E600090937706A0937806B093790680912E1CD4
:104E700090912F1C092E000CAA0BBB0BBC01CD017D
:104E80000E94C596DC01CB012FE632E143E85AE3EC
:104E9000BC01CD010E947A97DC01CB0180937A0698
:104EA00090937B06A0937C06B0937D068091301C86
:104EB0009091311C092E000CAA0BBB0BBC01CD013B
:104EC0000E94C596DC01CB012FE632E143E85AE3AC
:104ED000BC01CD010E947A97DC01CB0180937E0654
:104EE00090937F06A0938006B09381068091321C38
:104EF0009091331C092E000CAA0BBB0BBC01CD01F9
:104F00000E94C596DC01CB012FE632E143E85AE36B
:104F1000BC01CD010E947A97DC01CB01809382060F
:104F200090938306A0938406B09385068091341CE9
:104F30009091351C092E000CAA0BBB0BBC01CD01B6
:104F40000E94C596DC01CB012FE632E143E85AE32B
:104F5000BC01CD010E947A97DC01CB0180938606CB
:104F600090938706A0938806B09389068091361C9B
:104F70009091371C092E000CAA0BBB0BBC01CD0174
:104F80000E94C596DC01CB012FE632E143E85AE3EB
:104F9000BC01CD010E947A97DC01CB0180938A0687
:104FA00090938B06A0938C06B0938D068091381C4D
:104FB0009091391C092E000CAA0BBB0BBC01CD0132
:104FC0000E94C596DC01CB012FE632E143E85AE3AB
:104FD000BC01CD010E947A97DC01CB0180938E0643
:104FE00090938F06A0939006B093910680913A1CFF
:104FF00090913B1C092E000CAA0BBB0BBC01CD01F0
:105000000E94C596DC01CB012FE632E143E85AE36A
:10501000BC01CD010E947A97DC01CB0180939206FE
:1050200090939306A0939406B093950680913C1CB0
:1050300090913D1C092E000CAA0BBB0BBC01CD01AD
:105040000E94C596DC01CB012FE632E143E85AE32A
:10505000BC01CD010E947A97DC01CB0180939606BA
:1050600090939706A0939806B093990680913E1C62
:1050700090913F1C092E000CAA0BBB0BBC01CD016B
:105080000E94C596DC01CB012FE632E143E85AE3EA
:10509000BC01CD010E947A97DC01CB0180939A0676
:1050A00090939B06A0939C06B0939D068091401C14
:1050B0009091411C092E000CAA0BBB0BBC01CD0129
:1050C0000E94C596DC01CB012FE632E143E85AE3AA
:1050D000BC01CD010E947A97DC01CB0180939E0632
:1050E00090939F06A093A006B093A1068091421CC6
:1050F0009091431C092E000CAA0BBB0BBC01CD01E7
:105100000E94C596DC01CB012FE632E143E85AE369
:10511000BC01CD010E947A97DC01CB018093A206ED
:105120009093A306A093A406B093A5068091441C77
:105130009091451C092E000CAA0BBB0BBC01CD01A4
:105140000E94C596DC01CB012FE632E143E85AE329
:10515000BC01CD010E947A97DC01CB018093A606A9
:105160009093A706A093A806B093A9068091461C29
:105170009091471C092E000CAA0BBB0BBC01CD0162
:105180000E94C596DC01CB012FE632E143E85AE3E9
:10519000BC01CD010E947A97DC01CB018093AA0665
:1051A0009093AB06A093AC06B093AD068091481CDB
:1051B0009091491C092E000CAA0BBB0BBC01CD0120
:1051C0000E94C596DC01CB012FE632E143E85AE3A9
:1051D000BC01CD010E947A97DC01CB018093AE0621
:1051E0009093AF06A093B006B093B10680911C13C4
:1051F000882309F088C18091D312813009F09BC0C7
:1052000080914A1C90914B1C092E000CAA0BBB0BE1
:10521000BC01CD010E94C596DC01CB018093FB054A
:105220009093FC05A093FD05B093FE0580914C1C66
:1052300090914D1C092E000CAA0BBB0BBC01CD019B
:105240000E94C596DC01CB018093FF059093000678
:10525000A0930106B093020680914E1C90914F1CC2
:10526000092E000CAA0BBB0BBC01CD010E94C596F8
:10527000DC01CB018093030690930406A0930506FE
:10528000B09306068091501C9091511C092E000C81
:10529000AA0BBB0BBC01CD010E94C596DC01CB0162
:1052A0008093070690930806A0930906B0930A0618
:1052B0008091521C9091531C092E000CAA0BBB0B21
:1052C000BC01CD010E94C596DC01CB0180930B0689
:1052D00090930C06A0930D06B0930E068091541C7B
:1052E0009091551C092E000CAA0BBB0BBC01CD01E3
:1052F0000E94C596DC01CB0180930F0690931006A7
:10530000A0931106B09312068091561C9091571CE1
:10531000092E000CAA0BBB0BBC01CD010E94C59647
:10532000DC01CB018093130690931406A09315061D
:10533000B0931606B6C287EB93E39A83898389817B
:105340009A81FC0125913491CF013C832B839A8370
:1053500089838B819C81CC01A0E0B0E0BC01CD01B0
:105360000E94C396DC01CB018093FB059093FC0562
:10537000A093FD05B093FE0589EB93E39E838D8397
:105380008D819E81FC0125913491CF0138872F8337
:105390009E838D838F819885CC01A0E0B0E0BC0115
:1053A000CD010E94C396DC01CB018093FF05909351
:1053B0000006A0930106B09302068BEB93E39A8755
:1053C000898789859A85FC0125913491CF013C8795
:1053D0002B879A8789878B859C85CC01A0E0B0E0DC
:1053E000BC01CD010E94C396DC01CB018093030672
:1053F00090930406A0930506B09306068DEB93E305
:105400009E878D878D859E85FC0125913491CF01E6
:10541000388B2F879E878D878F859889CC01A0E058
:10542000B0E0BC01CD010E94C396DC01CB018093AA
:10543000070690930806A0930906B0930A068FEB1F
:1054400093E39A8B898B89899A89FC012591349100
:10545000CF013C8B2B8B9A8B898B8B899C89CC01C0
:10546000A0E0B0E0BC01CD010E94C396DC01CB01FD
:1054700080930B0690930C06A0930D06B0930E0636
:1054800081EC93E39E8B8D8B8D899E89FC01259108
:105490003491CF01388F2F8B9E8B8D8B8F89988D78
:1054A000CC01A0E0B0E0BC01CD010E94C396DC01BC
:1054B000CB0180930F0690931006A0931106B09332
:1054C000120683EC93E39A8F898F898D9A8DFC0164
:1054D00025913491CF013C8F2B8F9A8F898F8B8DA3
:1054E0009C8DCC01A0E0B0E0BC01CD010E94C39630
:1054F000DC01CB018093130690931406A09315064C
:10550000B0931606CEC180914A1C90914B1C092E77
:10551000000CAA0BBB0BBC01CD010E94C596DC019F
:10552000CB018093FB059093FC05A093FD05B09300
:10553000FE0580914C1C90914D1C092E000CAA0B6D
:10554000BB0BBC01CD010E94C596DC01CB01809351
:10555000FF0590930006A0930106B0930206809188
:105560004E1C90914F1C092E000CAA0BBB0BBC01CA
:10557000CD010E94C596DC01CB0180930306909378
:105580000406A0930506B09306068091501C9091E6
:10559000511C092E000CAA0BBB0BBC01CD010E94B3
:1055A000C596DC01CB018093070690930806A09373
:1055B0000906B0930A068091521C9091531C092E43
:1055C000000CAA0BBB0BBC01CD010E94C596DC01EF
:1055D000CB0180930B0690930C06A0930D06B0931D
:1055E0000E068091541C9091551C092E000CAA0B9C
:1055F000BB0BBC01CD010E94C596DC01CB018093A1
:105600000F0690931006A0931106B0931206809196
:10561000561C9091571C092E000CAA0BBB0BBC0109
:10562000CD010E94C596DC01CB01809313069093B7
:105630001406A0931506B09316068091581C9091FD
:10564000591C092E000CAA0BBB0BBC01CD010E94FA
:10565000C596DC01CB018093170690931806A093A2
:105660001906B0931A0680915A1C90915B1C092E62
:10567000000CAA0BBB0BBC01CD010E94C596DC013E
:10568000CB0180931B0690931C06A0931D06B0933C
:105690001E0680915C1C90915D1C092E000CAA0BCB
:1056A000BB0BBC01CD010E94C596DC01CB018093F0
:1056B0001F0690932006A0932106B09322068091A6
:1056C0005E1C90915F1C092E000CAA0BBB0BBC0149
:1056D000CD010E94C596DC01CB01809323069093F7
:1056E0002406A0932506B09326068091601C909115
:1056F000611C092E000CAA0BBB0BBC01CD010E9442
:10570000C596DC01CB018093270690932806A093D1
:105710002906B0932A068091621C9091631C092E81
:10572000000CAA0BBB0BBC01CD010E94C596DC018D
:10573000CB0180932B0690932C06A0932D06B0935B
:105740002E068091641C9091651C092E000CAA0BFA
:10575000BB0BBC01CD010E94C596DC01CB0180933F
:105760002F0690933006A0933106B09332068091B5
:10577000661C9091671C092E000CAA0BBB0BBC0188
:10578000CD010E94C596DC01CB0180933306909336
:105790003406A0933506B09336068091681C90912C
:1057A000691C092E000CAA0BBB0BBC01CD010E9489
:1057B000C596DC01CB018093370690933806A09301
:1057C0003906B0933A0680916A1C90916B1C092EA1
:1057D000000CAA0BBB0BBC01CD010E94C596DC01DD
:1057E000CB0180933B0690933C06A0933D06B0937B
:1057F0003E0680916C1C90916D1C092E000CAA0B2A
:10580000BB0BBC01CD010E94C596DC01CB0180938E
:105810003F0690934006A0934106B09342068091C4
:105820006E1C90916F1C092E000CAA0BBB0BBC01C7
:10583000CD010E94C596DC01CB0180934306909375
:105840004406A0934506B09346068091701C909143
:10585000711C092E000CAA0BBB0BBC01CD010E94D0
:10586000C596DC01CB018093470690934806A09330
:105870004906B0934A068091721C9091731C092EC0
:10588000000CAA0BBB0BBC01CD010E94C596DC012C
:10589000CB0180934B0690934C06A0934D06B0939A
:1058A0004E0660E080E00E942C4A61E080E00E94A9
:1058B0002C4A62E080E00E942C4A63E080E00E9473
:1058C0002C4A64E080E00E942C4A65E080E00E945F
:1058D0002C4A66E080E00E942C4A60E081E00E9451
:1058E0002C4A61E081E00E942C4A62E081E00E9443
:1058F0002C4A63E081E00E942C4A64E081E00E942F
:105900002C4A65E081E00E942C4A66E081E00E941A
:105910002C4A60E082E00E942C4A61E082E00E9412
:105920002C4A62E082E00E942C4A63E082E00E94FE
:105930002C4A64E082E00E942C4A65E082E00E94EA
:105940002C4A66E082E00E942C4A1092B306109224
:10595000B4061092B5061092B60600006C960FB60B
:10596000F894DEBF0FBECDBFDF91CF9108958F9227
:105970009F92AF92BF92CF92DF92EF92FF920F93DE
:105980001F93CF93DF93CDB7DEB7C555D1090FB6BF
:10599000F894DEBF0FBECDBF9E012E5A3F4FF901D6
:1059A00091838083CE018C5A9F4FFC017183608369
:1059B00080911C13813029F483E090E09B878A87D3
:1059C0001CC081E090E09B878A8780918E05882F9C
:1059D00090E086539C4E9EA78DA78DA59EA5FC01A9
:1059E00084918FA72FA5CE018C5A9F4FFC018081F7
:1059F00091818C519F4FFC012083198618860C944D
:105A0000683E81E090E09E838D83CE018C5A9F4F4B
:105A1000FC0180819181805E934129F482EE95E1C1
:105A20009A8389830AC0CE018C5A9F4FFC018081E2
:105A30009181815091409A8389831F82CE018C5A33
:105A40009F4FFC0120813181888599854596880F7B
:105A5000991F880F991F820F931FFC0110821182DA
:105A600012821382CE018C5A9F4FFC01208131811A
:105A700088859985880F991F820F931FFC011182D9
:105A80001082CE018C5A9F4FFC0120813181888584
:105A900099850396880F991F820F931FFC0111822D
:105AA0001082CE018C5A9F4FFC0120813181888564
:105AB00099850396880F991F880F991F280F391F02
:105AC00080E090ECAFE7B4E4F90180839183A28396
:105AD000B383CE018C5A9F4FFC0120813181888590
:105AE00099850696880F991F880F991F820F931F1B
:105AF000FC011082118212821382CE018C5A9F4FB8
:105B0000FC0120813181888599854296880F991FF3
:105B1000820F931FFC0111821082CE018C5A9F4F7D
:105B2000FC0120813181888599854596880F991FD0
:105B3000820F931FFC0111821082CE018C5A9F4F5D
:105B4000FC0120813181888599850C96880F991FE9
:105B5000880F991F820F931FFC01108211821282FD
:105B60001382CE018C5A9F4FFC01208131818885A0
:105B700099850F96880F991F880F991F820F931F81
:105B8000FC0110821182128213821D861C861F86E0
:105B90001E868091D312813051F5CE018C5A9F4FD1
:105BA000FC0120813181888599858D599F4F880F0F
:105BB000991F820F931FFC0111821082198E188E7B
:105BC0001A8E1B8E1C8E1E8E1D8E18A21F8E1AA260
:105BD00019A21EA21DA219AA18AA18A61FA21CA2C9
:105BE0001BA21AA619A61BAA1AAA1CA61BA61C82CF
:105BF0001B823CC58B819C81880F991F9E012E5A68
:105C00003F4FF90120813181820F931FFC01808178
:105C100091819DAB8CAB8F81882F90E08130910575
:105C200009F440C08230910509F4FBC1892B09F0C9
:105C3000C0C381E090E09E838D83CE018C5A9F4F3C
:105C4000FC01808191818C519F4FFC018081282F24
:105C500030E08091D8069091D906280F391F8CA981
:105C60009DA98217930718F481E08F839DC3CE010D
:105C70008C5A9F4FFC01808191818C519F4FFC0178
:105C80008081282F30E08091B1129091B212280FBC
:105C9000391F8CA99DA92817390708F085C382E010
:105CA0008F8382C38091D312813009F01DC1CE0150
:105CB0008C5A9F4FFC01808191818C519F4FFC0138
:105CC0008081282F30E08091D8069091D906280F46
:105CD000391F8CA99DA98217930730F48B819C8171
:105CE000893F910509F0C6C08B819C81893F910550
:105CF000E9F4CE018C5A9F4FFC01808191818C5137
:105D00009F4FFC018081282F30E08091D806909130
:105D1000D906280F391F8CA99DA98217930730F443
:105D20008D819E8101969E838D8381C08091BC066A
:105D30009091BD062D813E818217930708F077C0B0
:105D40002B813C818D819E818217930708F06FC063
:105D5000CE018C5A9F4FFC01208131818885998525
:105D6000880F991F820F931FFC01808191819C01F4
:105D70002F5F3F4FCE018C5A9F4FFC0140815181D4
:105D800088859985880F991F840F951FFC013183A1
:105D90002083CE018C5A9F4FFC0120813181888560
:105DA00099850396880F991F820F931FFC0120810C
:105DB00031818D819E81280F391FCE018C5A9F4FD2
:105DC000FC0140815181888599850396880F991F30
:105DD000840F951FFC01318320838DA19EA1892B07
:105DE000B9F02DA13EA18D819E81A901481B590BBF
:105DF000CA0199231CF491958195910999AB88ABBF
:105E00002FA138A588A999A9820F931F98A78FA3BE
:105E10008D819E819EA38DA329A13AA18D819E8112
:105E20002817390720F48D819E819AA389A3CE017A
:105E30008C5A9F4FFC01808191818C519F4FFC01B6
:105E40008081282F30E08091B1129091B212280FFA
:105E5000391F8CA99DA92817390738F482E08F8350
:105E600081E090E09E838D8301C01F821B8E1C8E7B
:105E70001A8ED6C08D819E8101969E838D83288D3A
:105E8000398D8CA99DA9A901481B590BCA019923D9
:105E90001CF491958195910903970CF487C2288D84
:105EA000398D8CA99DA92817390758F41C8E8B8D24
:105EB0008F5F8B8F8B8D833008F478C281E08A8F5F
:105EC00075C21B8E8C8D8F5F8C8F8C8D833008F408
:105ED0006DC28A8D813029F48D8D9E8D01969E8FA5
:105EE0008D8F82E08A8F62C2CE018C5A9F4FFC0157
:105EF000808191818C519F4FFC018081282F30E05F
:105F00008091D8069091D906280F391F8CA99DA998
:105F10008217930730F48B819C81893F910509F0AA
:105F200079C08B819C81893F910529F48D819E8167
:105F300001969E838D838091BC069091BD062D8134
:105F40003E818217930708F045C0CE018C5A9F4FBF
:105F5000FC012081318188859985880F991F820FE6
:105F6000931FFC01808191819C012F5F3F4FCE01E7
:105F70008C5A9F4FFC014081518188859985880FFB
:105F8000991F840F951FFC0131832083CE018C5A09
:105F90009F4FFC0120813181888599850396880F68
:105FA000991F820F931FFC01208131818D819E8179
:105FB000280F391FCE018C5A9F4FFC01408151811F
:105FC000888599850396880F991F840F951FFC017A
:105FD00031832083CE018C5A9F4FFC0180819181B7
:105FE0008C519F4FFC018081282F30E08091B112AD
:105FF0009091B212280F391F8CA99DA92817390733
:1060000038F482E08F8381E090E09E838D8308C026
:106010001F8206C08D819E8101969E838D83C6C19D
:10602000C5C18091D312813009F01FC1CE018C5AB5
:106030009F4FFC01808191818C519F4FFC01808199
:10604000282F30E08091B1129091B212280F391FA1
:106050008CA99DA92817390730F48B819C81893F31
:10606000910509F0C8C08B819C81893F9105E9F4B5
:10607000CE018C5A9F4FFC01808191818C519F4FA2
:10608000FC018081282F30E08091B1129091B212F2
:10609000280F391F8CA99DA92817390730F48D8145
:1060A0009E8101969E838D8383C08091BC069091D2
:1060B000BD062D813E818217930708F079C02B81A0
:1060C0003C818D819E818217930708F071C0CE01BB
:1060D0008C5A9F4FFC012081318188859985429699
:1060E000880F991F820F931FFC01808191819C0171
:1060F0002F5F3F4FCE018C5A9F4FFC014081518151
:10610000888599854296880F991F840F951FFC01F9
:1061100031832083CE018C5A9F4FFC012081318135
:10612000888599854596880F991F820F931FFC01DA
:10613000208131818D819E81280F391FCE018C5A9B
:106140009F4FFC0140815181888599854596880F34
:10615000991F840F951FFC013183208389A59AA57F
:10616000892BB9F029A53AA58D819E81A901481BEB
:10617000590BCA0199231CF49195819591099BAB08
:106180008AAB2BA53CA58AA99BA9820F931F9CA72C
:106190008BA78D819E819AA789A72BA13CA18D8178
:1061A0009E812817390720F48D819E819CA38BA3A3
:1061B000CE018C5A9F4FFC01808191818C519F4F61
:1061C000FC018081282F30E08091D8069091D9067B
:1061D000280F391F8CA99DA98217930738F481E0F5
:1061E0008F8381E090E09E838D8301C01F821B8E90
:1061F0001C8E1A8ED8C08D819E8101969E838D83C0
:10620000288D398D8CA99DA9A901481B590BCA015C
:1062100099231CF491958195910903970CF4C8C0BA
:10622000288D398D8CA99DA92817390798F41C8EC3
:106230008B8D8F5F8B8F8B8D833008F4B9C08A8DE7
:10624000823029F48F8D98A1019698A38F8F81E0D9
:106250008A8FAEC01B8E8C8D8F5F8C8F8C8D833020
:1062600008F4A6C082E08A8FA3C0CE018C5A9F4F4B
:10627000FC01808191818C519F4FFC018081282FEE
:1062800030E08091B1129091B212280F391F8CA981
:106290009DA92817390730F48B819C81893F91058E
:1062A00009F07BC08B819C81893F910529F48D8108
:1062B0009E8101969E838D838091BC069091BD0640
:1062C0002D813E818217930708F047C0CE018C5A7A
:1062D0009F4FFC0120813181888599854296880FE6
:1062E000991F820F931FFC01808191819C012F5F78
:1062F0003F4FCE018C5A9F4FFC01408151818885D0
:1063000099854296880F991F840F951FFC01318350
:106310002083CE018C5A9F4FFC01208131818885DA
:1063200099854596880F991F820F931FFC01208144
:1063300031818D819E81280F391FCE018C5A9F4F4C
:10634000FC0140815181888599854596880F991F68
:10635000840F951FFC0131832083CE018C5A9F4FFF
:10636000FC01808191818C519F4FFC018081282FFD
:1063700030E08091D8069091D906280F391F8CA95A
:106380009DA98217930738F481E08F8381E090E024
:106390009E838D8308C01F8206C08D819E810196D9
:1063A0009E838D8305C004C0000003C0000001C0AF
:1063B00000008CA99DA9CC01A0E0B0E0BC01CD01FA
:1063C0000E94C3967B018C01CE018C5A9F4FFC0129
:1063D00020813181888599850396880F991F880FC0
:1063E000991F820F931FFC0180819181A281B3814B
:1063F0009C01AD01C801B7010E94169688230CF5D7
:106400008CA99DA9CC01A0E0B0E0BC01CD010E9407
:10641000C396DC01CB019E012C5A3F4FF90140810C
:106420005181288539852D5F3F4F220F331F220F61
:10643000331F240F351FF90180839183A283B38317
:1064400047C08CA99DA9CC01A0E0B0E0BC01CD0162
:106450000E94C3967B018C01CE018C5A9F4FFC0198
:1064600020813181888599850C96880F991F880F26
:10647000991F820F931FFC0180819181A281B381BA
:106480009C01AD01C801B7010E947597181604F56B
:106490008CA99DA9CC01A0E0B0E0BC01CD010E9477
:1064A000C396DC01CB019E012C5A3F4FF90140817C
:1064B000518128853985245F3F4F220F331F220FDA
:1064C000331F240F351FF90180839183A283B38387
:1064D0008CA99DA98115924008F042C08C859D85AC
:1064E00001969D878C87CE018C5A9F4FFC0120819D
:1064F0003181888599850696880F991F880F991F85
:10650000820F931FFC01C080D180E280F3808CA9B0
:106510009DA9CC01A0E0B0E0BC01CD010E94C396D2
:10652000DC01CB019C01AD01C701B6010E94AA9517
:10653000DC01CB019E012C5A3F4FF9014081518172
:10654000288539852A5F3F4F220F331F220F331FC3
:10655000240F351FF90180839183A283B38341C047
:106560008E859F8501969F878E87CE018C5A9F4F7F
:10657000FC0120813181888599850F96880F991FAC
:10658000880F991F820F931FFC01C080D180E28089
:10659000F3808CA99DA9CC01A0E0B0E0BC01CD01A5
:1065A0000E94C396DC01CB019C01AD01C701B6017D
:1065B0000E94AA95DC01CB019E012C5A3F4FF901A4
:1065C0004081518128853985215F3F4F220F331F3C
:1065D000220F331F240F351FF90180839183A2837B
:1065E000B383CE018C5A9F4FFC0120813181888575
:1065F00099854596880F991F880F991F820F931FC1
:10660000FC01C080D180E280F3808CA99DA9CC01DF
:10661000A0E0B0E0BC01CD010E94C396DC01CB013B
:106620009C01AD01C701B6010E94AA95DC01CB0116
:106630009E012C5A3F4FF9014081518128853985AF
:106640002B5E3F4F220F331F220F331F240F351FA6
:10665000F90180839183A283B3838CA99DA9998F2B
:10666000888F8B819C8101969C838B838B819C81FD
:106670008A3F910508F4BECACE018C5A9F4FFC0197
:106680002081318188859985880F991F820F931FFA
:10669000FC0180819181892BB9F0CE018C5A9F4FEA
:1066A000FC012081318188859985880F991F820F8F
:1066B000931FFC01208131818FA198A5B9010E940F
:1066C0008D9BCB0198A78FA3CE018C5A9F4FFC01C5
:1066D00020813181888599854296880F991F820F84
:1066E000931FFC0180819181892BC1F0CE018C5ACE
:1066F0009F4FFC0120813181888599854296880FC2
:10670000991F820F931FFC01208131818BA59CA5CD
:10671000B9010E948D9BCB019CA78BA72FA138A507
:106720008BA59CA5280F391FCE018C5A9F4FFC01C9
